{
  "contractName": "ProcesoContract",
  "abi": [
    {
      "inputs": [
        {
          "internalType": "string",
          "name": "",
          "type": "string"
        }
      ],
      "name": "lista",
      "outputs": [
        {
          "internalType": "string",
          "name": "hash_info",
          "type": "string"
        },
        {
          "internalType": "uint256",
          "name": "createdAt",
          "type": "uint256"
        }
      ],
      "stateMutability": "view",
      "type": "function",
      "constant": true
    },
    {
      "inputs": [
        {
          "internalType": "string",
          "name": "_info",
          "type": "string"
        }
      ],
      "name": "crear",
      "outputs": [
        {
          "components": [
            {
              "internalType": "string",
              "name": "hash_info",
              "type": "string"
            },
            {
              "internalType": "uint256",
              "name": "createdAt",
              "type": "uint256"
            }
          ],
          "internalType": "struct ProcesoContract.Model",
          "name": "",
          "type": "tuple"
        }
      ],
      "stateMutability": "nonpayable",
      "type": "function"
    },
    {
      "inputs": [
        {
          "internalType": "string",
          "name": "_id",
          "type": "string"
        }
      ],
      "name": "encontrar",
      "outputs": [
        {
          "components": [
            {
              "internalType": "string",
              "name": "hash_info",
              "type": "string"
            },
            {
              "internalType": "uint256",
              "name": "createdAt",
              "type": "uint256"
            }
          ],
          "internalType": "struct ProcesoContract.Model",
          "name": "",
          "type": "tuple"
        }
      ],
      "stateMutability": "view",
      "type": "function",
      "constant": true
    }
  ],
  "bytecode": "0x608060405234801561001057600080fd5b50610547806100206000396000f3fe608060405234801561001057600080fd5b50600436106100415760003560e01c80632d4adcd9146100465780633aa319291461006f578063bac2887114610090575b600080fd5b610059610054366004610359565b6100a3565b6040516100669190610466565b60405180910390f35b61008261007d366004610359565b61011a565b604051610066929190610498565b61005961009e366004610359565b6101c9565b604080518082019091526060815260006020820152604080518082018252838152426020820152905181906000906100dc9086906104ba565b908152602001604051809103902060008201518160000190805190602001906101069291906102aa565b506020919091015160019091015592915050565b8051602081830181018051600082529282019190930120915280548190610140906104d6565b80601f016020809104026020016040519081016040528092919081815260200182805461016c906104d6565b80156101b95780601f1061018e576101008083540402835291602001916101b9565b820191906000526020600020905b81548152906001019060200180831161019c57829003601f168201915b5050505050908060010154905082565b6040805180820190915260608152600060208201526000826040516101ee91906104ba565b9081526020016040518091039020604051806040016040529081600082018054610217906104d6565b80601f0160208091040260200160405190810160405280929190818152602001828054610243906104d6565b80156102905780601f1061026557610100808354040283529160200191610290565b820191906000526020600020905b81548152906001019060200180831161027357829003601f168201915b505050505081526020016001820154815250509050919050565b8280546102b6906104d6565b90600052602060002090601f0160209004810192826102d8576000855561031e565b82601f106102f157805160ff191683800117855561031e565b8280016001018555821561031e579182015b8281111561031e578251825591602001919060010190610303565b5061032a92915061032e565b5090565b5b8082111561032a576000815560010161032f565b634e487b7160e01b600052604160045260246000fd5b60006020828403121561036b57600080fd5b813567ffffffffffffffff8082111561038357600080fd5b818401915084601f83011261039757600080fd5b8135818111156103a9576103a9610343565b604051601f8201601f19908116603f011681019083821181831017156103d1576103d1610343565b816040528281528760208487010111156103ea57600080fd5b826020860160208301376000928101602001929092525095945050505050565b60005b8381101561042557818101518382015260200161040d565b83811115610434576000848401525b50505050565b6000815180845261045281602086016020860161040a565b601f01601f19169290920160200192915050565b602081526000825160406020840152610482606084018261043a565b9050602084015160408401528091505092915050565b6040815260006104ab604083018561043a565b90508260208301529392505050565b600082516104cc81846020870161040a565b9190910192915050565b600181811c908216806104ea57607f821691505b6020821081141561050b57634e487b7160e01b600052602260045260246000fd5b5091905056fea2646970667358221220ef2aadc81ba9d0ac80113001c3b7db7473288fc9d6f8b7163292d87c5bc264d864736f6c634300080b0033",
  "immutableReferences": {},
  "source": "// SPDX-License-Identifier: MIT\r\npragma solidity ^0.8.11;\r\n\r\ncontract ProcesoContract {\r\n    struct Model {\r\n        string hash_info;\r\n        uint256 createdAt;\r\n    }\r\n    mapping(string => Model) public lista;\r\n\r\n    function crear(string memory _info) public returns (Model memory) {\r\n        Model memory _model = Model(_info, block.timestamp);\r\n        lista[_info] = _model;\r\n        return _model;\r\n    }\r\n\r\n    function encontrar(string memory _id) public view returns (Model memory) {\r\n        return lista[_id];\r\n    }\r\n}\r\n",
  "sourcePath": "E:\\UNL\\CICLO X\\vinos-blockchain\\contracts\\ProcesoContract.sol",
  "compiler": {
    "name": "solc",
    "version": "0.8.11+commit.d7f03943.Emscripten.clang"
  },
  "schemaVersion": "3.4.4",
  "updatedAt": "2022-10-20T21:11:27.194Z",
  "networkType": "ethereum",
  "devdoc": {
    "kind": "dev",
    "methods": {},
    "version": 1
  },
  "userdoc": {
    "kind": "user",
    "methods": {},
    "version": 1
  }
}