{
  "contractName": "ClarificacionContract",
  "abi": [
    {
      "anonymous": false,
      "inputs": [
        {
          "indexed": false,
          "internalType": "uint256",
          "name": "id",
          "type": "uint256"
        }
      ],
      "name": "Id",
      "type": "event"
    },
    {
      "inputs": [],
      "name": "contador",
      "outputs": [
        {
          "internalType": "uint256",
          "name": "",
          "type": "uint256"
        }
      ],
      "stateMutability": "view",
      "type": "function",
      "constant": true
    },
    {
      "inputs": [
        {
          "internalType": "uint256",
          "name": "",
          "type": "uint256"
        }
      ],
      "name": "lista",
      "outputs": [
        {
          "internalType": "uint256",
          "name": "hash_anterior",
          "type": "uint256"
        },
        {
          "internalType": "string",
          "name": "turbidez",
          "type": "string"
        },
        {
          "internalType": "bool",
          "name": "aprobado",
          "type": "bool"
        },
        {
          "internalType": "uint256",
          "name": "createdAt",
          "type": "uint256"
        }
      ],
      "stateMutability": "view",
      "type": "function",
      "constant": true
    },
    {
      "inputs": [
        {
          "internalType": "uint256",
          "name": "_hash_anterior",
          "type": "uint256"
        },
        {
          "internalType": "string",
          "name": "_turbidez",
          "type": "string"
        }
      ],
      "name": "crear",
      "outputs": [],
      "stateMutability": "nonpayable",
      "type": "function"
    },
    {
      "inputs": [
        {
          "internalType": "uint256",
          "name": "_id",
          "type": "uint256"
        }
      ],
      "name": "encontrar",
      "outputs": [
        {
          "components": [
            {
              "internalType": "uint256",
              "name": "hash_anterior",
              "type": "uint256"
            },
            {
              "internalType": "string",
              "name": "turbidez",
              "type": "string"
            },
            {
              "internalType": "bool",
              "name": "aprobado",
              "type": "bool"
            },
            {
              "internalType": "uint256",
              "name": "createdAt",
              "type": "uint256"
            }
          ],
          "internalType": "struct ClarificacionContract.Model",
          "name": "",
          "type": "tuple"
        }
      ],
      "stateMutability": "view",
      "type": "function",
      "constant": true
    },
    {
      "inputs": [
        {
          "internalType": "uint256",
          "name": "_id",
          "type": "uint256"
        },
        {
          "internalType": "string",
          "name": "_turbidez",
          "type": "string"
        }
      ],
      "name": "editar",
      "outputs": [],
      "stateMutability": "nonpayable",
      "type": "function"
    },
    {
      "inputs": [
        {
          "internalType": "uint256",
          "name": "_id",
          "type": "uint256"
        }
      ],
      "name": "aprobarProceso",
      "outputs": [],
      "stateMutability": "nonpayable",
      "type": "function"
    }
  ],
  "bytecode": "0x608060405234801561001057600080fd5b50610923806100206000396000f3fe608060405234801561001057600080fd5b50600436106100625760003560e01c80630cc76c141461006757806353d27cc2146100935780637a00b8a9146100aa57806385d3a43a146100bf5780638ad33cf3146100df578063caab2e9c146100f2575b600080fd5b61007a6100753660046106de565b610105565b60405161008a9493929190610744565b60405180910390f35b61009c60015481565b60405190815260200161008a565b6100bd6100b83660046106de565b6101ba565b005b6100d26100cd3660046106de565b610322565b60405161008a9190610770565b6100bd6100ed3660046107ce565b610422565b6100bd6101003660046107ce565b61058d565b6000602081905290815260409020805460018201805491929161012790610889565b80601f016020809104026020016040519081016040528092919081815260200182805461015390610889565b80156101a05780601f10610175576101008083540402835291602001916101a0565b820191906000526020600020905b81548152906001019060200180831161018357829003601f168201915b505050506002830154600390930154919260ff1691905084565b6000806000838152602001908152602001600020604051806080016040529081600082015481526020016001820180546101f390610889565b80601f016020809104026020016040519081016040528092919081815260200182805461021f90610889565b801561026c5780601f106102415761010080835404028352916020019161026c565b820191906000526020600020905b81548152906001019060200180831161024f57829003601f168201915b5050509183525050600282015460ff161515602080830191909152600390920154604091820152600183820181905260008681528084529190912083518155838301518051949550859491936102c793850192910190610645565b5060408281015160028301805460ff1916911515919091179055606090920151600390910155518281527f1ee8913b1e0c76a71150bbb92d8921b2c975601c8c9991b8ef86a1b3896727749060200160405180910390a15050565b61034f60405180608001604052806000815260200160608152602001600015158152602001600081525090565b6000828152602081815260409182902082516080810190935280548352600181018054919284019161038090610889565b80601f01602080910402602001604051908101604052809291908181526020018280546103ac90610889565b80156103f95780601f106103ce576101008083540402835291602001916103f9565b820191906000526020600020905b8154815290600101906020018083116103dc57829003601f168201915b5050509183525050600282015460ff161515602082015260039091015460409091015292915050565b60008060008481526020019081526020016000206040518060800160405290816000820154815260200160018201805461045b90610889565b80601f016020809104026020016040519081016040528092919081815260200182805461048790610889565b80156104d45780601f106104a9576101008083540402835291602001916104d4565b820191906000526020600020905b8154815290600101906020018083116104b757829003601f168201915b5050509183525050600282015460ff161515602082015260039091015460409182015281015190915061058857602080820183815260008581528083526040902083518155905180518493610530926001850192910190610645565b5060408281015160028301805460ff1916911515919091179055606090920151600390910155518381527f1ee8913b1e0c76a71150bbb92d8921b2c975601c8c9991b8ef86a1b3896727749060200160405180910390a15b505050565b60408051608081018252838152602080820184815260008385018190524260608501528681528083529390932082518155925180519293926105d59260018501920190610645565b5060408281015160028301805460ff1916911515919091179055606090920151600390910155518281527f1ee8913b1e0c76a71150bbb92d8921b2c975601c8c9991b8ef86a1b3896727749060200160405180910390a16001805490600061063c836108c4565b91905055505050565b82805461065190610889565b90600052602060002090601f01602090048101928261067357600085556106b9565b82601f1061068c57805160ff19168380011785556106b9565b828001600101855582156106b9579182015b828111156106b957825182559160200191906001019061069e565b506106c59291506106c9565b5090565b5b808211156106c557600081556001016106ca565b6000602082840312156106f057600080fd5b5035919050565b6000815180845260005b8181101561071d57602081850181015186830182015201610701565b8181111561072f576000602083870101525b50601f01601f19169290920160200192915050565b84815260806020820152600061075d60808301866106f7565b9315156040830152506060015292915050565b6020815281516020820152600060208301516080604084015261079660a08401826106f7565b9050604084015115156060840152606084015160808401528091505092915050565b634e487b7160e01b600052604160045260246000fd5b600080604083850312156107e157600080fd5b82359150602083013567ffffffffffffffff8082111561080057600080fd5b818501915085601f83011261081457600080fd5b813581811115610826576108266107b8565b604051601f8201601f19908116603f0116810190838211818310171561084e5761084e6107b8565b8160405282815288602084870101111561086757600080fd5b8260208601602083013760006020848301015280955050505050509250929050565b600181811c9082168061089d57607f821691505b602082108114156108be57634e487b7160e01b600052602260045260246000fd5b50919050565b60006000198214156108e657634e487b7160e01b600052601160045260246000fd5b506001019056fea26469706673582212204d0e099f771c013a3c4ce27d2af885912e470ce6aefb54d3a3250010e483d91564736f6c634300080b0033",
  "immutableReferences": {},
  "source": "// SPDX-License-Identifier: MIT\r\npragma solidity ^0.8.11;\r\n\r\ncontract ClarificacionContract {\r\n    struct Model {\r\n        uint256 hash_anterior;\r\n        string turbidez;\r\n        bool aprobado;\r\n        uint256 createdAt;\r\n    }\r\n    event Id(uint256 id);\r\n    mapping(uint256 => Model) public lista;\r\n    uint256 public contador;\r\n\r\n    function crear(uint256 _hash_anterior, string memory _turbidez) public {\r\n        lista[_hash_anterior] = Model(\r\n            _hash_anterior,\r\n            _turbidez,\r\n            false,\r\n            block.timestamp\r\n        );\r\n        emit Id(_hash_anterior);\r\n        contador++;\r\n    }\r\n\r\n    function encontrar(uint256 _id) public view returns (Model memory) {\r\n        return lista[_id];\r\n    }\r\n\r\n    function editar(uint256 _id, string memory _turbidez) public {\r\n        Model memory _item = lista[_id];\r\n        if (_item.aprobado == false) {\r\n            _item.turbidez = _turbidez;\r\n            lista[_id] = _item;\r\n            emit Id(_id);\r\n        }\r\n    }\r\n\r\n    function aprobarProceso(uint256 _id) public {\r\n        Model memory _item = lista[_id];\r\n        _item.aprobado = true;\r\n        lista[_id] = _item;\r\n        emit Id(_id);\r\n    }\r\n}\r\n",
  "sourcePath": "E:\\UNL\\CICLO X\\vinos-blockchain\\contracts\\procesos\\5ClarificacionContract.sol",
  "compiler": {
    "name": "solc",
    "version": "0.8.11+commit.d7f03943.Emscripten.clang"
  },
  "schemaVersion": "3.4.4",
  "updatedAt": "2022-07-05T14:19:57.962Z",
  "networkType": "ethereum",
  "devdoc": {
    "kind": "dev",
    "methods": {},
    "version": 1
  },
  "userdoc": {
    "kind": "user",
    "methods": {},
    "version": 1
  }
}