{
  "contractName": "ClarificacionContract",
  "abi": [
    {
      "anonymous": false,
      "inputs": [
        {
          "indexed": false,
          "internalType": "uint256",
          "name": "id",
          "type": "uint256"
        }
      ],
      "name": "Id",
      "type": "event"
    },
    {
      "inputs": [
        {
          "internalType": "address",
          "name": "",
          "type": "address"
        },
        {
          "internalType": "uint256",
          "name": "",
          "type": "uint256"
        }
      ],
      "name": "lista",
      "outputs": [
        {
          "internalType": "uint256",
          "name": "hash_anterior",
          "type": "uint256"
        },
        {
          "internalType": "string",
          "name": "turbidez",
          "type": "string"
        },
        {
          "internalType": "bool",
          "name": "aprobado",
          "type": "bool"
        },
        {
          "internalType": "uint256",
          "name": "createdAt",
          "type": "uint256"
        }
      ],
      "stateMutability": "view",
      "type": "function",
      "constant": true
    },
    {
      "inputs": [
        {
          "internalType": "uint256",
          "name": "_hash_anterior",
          "type": "uint256"
        },
        {
          "internalType": "string",
          "name": "_turbidez",
          "type": "string"
        }
      ],
      "name": "crear",
      "outputs": [],
      "stateMutability": "nonpayable",
      "type": "function"
    },
    {
      "inputs": [
        {
          "internalType": "uint256",
          "name": "_id",
          "type": "uint256"
        }
      ],
      "name": "encontrar",
      "outputs": [
        {
          "components": [
            {
              "internalType": "uint256",
              "name": "hash_anterior",
              "type": "uint256"
            },
            {
              "internalType": "string",
              "name": "turbidez",
              "type": "string"
            },
            {
              "internalType": "bool",
              "name": "aprobado",
              "type": "bool"
            },
            {
              "internalType": "uint256",
              "name": "createdAt",
              "type": "uint256"
            }
          ],
          "internalType": "struct ClarificacionContract.Model",
          "name": "",
          "type": "tuple"
        }
      ],
      "stateMutability": "view",
      "type": "function",
      "constant": true
    },
    {
      "inputs": [
        {
          "internalType": "uint256",
          "name": "_id",
          "type": "uint256"
        },
        {
          "internalType": "string",
          "name": "_turbidez",
          "type": "string"
        }
      ],
      "name": "editar",
      "outputs": [],
      "stateMutability": "nonpayable",
      "type": "function"
    },
    {
      "inputs": [
        {
          "internalType": "uint256",
          "name": "_id",
          "type": "uint256"
        }
      ],
      "name": "aprobarProceso",
      "outputs": [],
      "stateMutability": "nonpayable",
      "type": "function"
    }
  ],
  "bytecode": "0x608060405234801561001057600080fd5b506108cd806100206000396000f3fe608060405234801561001057600080fd5b50600436106100575760003560e01c806331caa9e11461005c5780637a00b8a91461008857806385d3a43a1461009d5780638ad33cf3146100bd578063caab2e9c146100d0575b600080fd5b61006f61006a366004610679565b6100e3565b60405161007f94939291906106fe565b60405180910390f35b61009b61009636600461072a565b6101a0565b005b6100b06100ab36600461072a565b610314565b60405161007f9190610743565b61009b6100cb3660046107a1565b61041d565b61009b6100de3660046107a1565b610594565b60006020818152928152604080822090935290815220805460018201805491929161010d9061085c565b80601f01602080910402602001604051908101604052809291908181526020018280546101399061085c565b80156101865780601f1061015b57610100808354040283529160200191610186565b820191906000526020600020905b81548152906001019060200180831161016957829003601f168201915b505050506002830154600390930154919260ff1691905084565b3360009081526020818152604080832084845282528083208151608081019092528054825260018101805492939192918401916101dc9061085c565b80601f01602080910402602001604051908101604052809291908181526020018280546102089061085c565b80156102555780601f1061022a57610100808354040283529160200191610255565b820191906000526020600020905b81548152906001019060200180831161023857829003601f168201915b5050509183525050600282015460ff161515602080830191909152600390920154604091820152600183820181905233600090815280845282812087825284529190912083518155838301518051949550859491936102b9938501929101906105e0565b5060408281015160028301805460ff1916911515919091179055606090920151600390910155518281527f1ee8913b1e0c76a71150bbb92d8921b2c975601c8c9991b8ef86a1b3896727749060200160405180910390a15050565b61034160405180608001604052806000815260200160608152602001600015158152602001600081525090565b3360009081526020818152604080832085845282529182902082516080810190935280548352600181018054919284019161037b9061085c565b80601f01602080910402602001604051908101604052809291908181526020018280546103a79061085c565b80156103f45780601f106103c9576101008083540402835291602001916103f4565b820191906000526020600020905b8154815290600101906020018083116103d757829003601f168201915b5050509183525050600282015460ff161515602082015260039091015460409091015292915050565b3360009081526020818152604080832085845282528083208151608081019092528054825260018101805492939192918401916104599061085c565b80601f01602080910402602001604051908101604052809291908181526020018280546104859061085c565b80156104d25780601f106104a7576101008083540402835291602001916104d2565b820191906000526020600020905b8154815290600101906020018083116104b557829003601f168201915b5050509183525050600282015460ff161515602082015260039091015460409182015281015190915061058f576020808201838152336000908152808352604080822087835284529020835181559051805184936105379260018501929101906105e0565b5060408281015160028301805460ff1916911515919091179055606090920151600390910155518381527f1ee8913b1e0c76a71150bbb92d8921b2c975601c8c9991b8ef86a1b3896727749060200160405180910390a15b505050565b604080516080810182528381526020808201848152600083850181905242606085015233815280835284812087825283529390932082518155925180519293926102b992600185019201905b8280546105ec9061085c565b90600052602060002090601f01602090048101928261060e5760008555610654565b82601f1061062757805160ff1916838001178555610654565b82800160010185558215610654579182015b82811115610654578251825591602001919060010190610639565b50610660929150610664565b5090565b5b808211156106605760008155600101610665565b6000806040838503121561068c57600080fd5b82356001600160a01b03811681146106a357600080fd5b946020939093013593505050565b6000815180845260005b818110156106d7576020818501810151868301820152016106bb565b818111156106e9576000602083870101525b50601f01601f19169290920160200192915050565b84815260806020820152600061071760808301866106b1565b9315156040830152506060015292915050565b60006020828403121561073c57600080fd5b5035919050565b6020815281516020820152600060208301516080604084015261076960a08401826106b1565b9050604084015115156060840152606084015160808401528091505092915050565b634e487b7160e01b600052604160045260246000fd5b600080604083850312156107b457600080fd5b82359150602083013567ffffffffffffffff808211156107d357600080fd5b818501915085601f8301126107e757600080fd5b8135818111156107f9576107f961078b565b604051601f8201601f19908116603f011681019083821181831017156108215761082161078b565b8160405282815288602084870101111561083a57600080fd5b8260208601602083013760006020848301015280955050505050509250929050565b600181811c9082168061087057607f821691505b6020821081141561089157634e487b7160e01b600052602260045260246000fd5b5091905056fea26469706673582212204be4dc9c94763e31134473a239e6108ca99e80c1d7e37a90d6fba7847314ddb864736f6c634300080b0033",
  "immutableReferences": {},
  "source": "// SPDX-License-Identifier: MIT\r\npragma solidity ^0.8.11;\r\n\r\ncontract ClarificacionContract {\r\n    struct Model {\r\n        uint256 hash_anterior;\r\n        string turbidez;\r\n        bool aprobado;\r\n        uint256 createdAt;\r\n    }\r\n    event Id(uint256 id);\r\n    mapping(address => mapping(uint256 => Model)) public lista;\r\n\r\n    function crear(uint256 _hash_anterior, string memory _turbidez) public {\r\n        lista[msg.sender][_hash_anterior] = Model(\r\n            _hash_anterior,\r\n            _turbidez,\r\n            false,\r\n            block.timestamp\r\n        );\r\n        emit Id(_hash_anterior);\r\n    }\r\n\r\n    function encontrar(uint256 _id) public view returns (Model memory) {\r\n        return lista[msg.sender][_id];\r\n    }\r\n\r\n    function editar(uint256 _id, string memory _turbidez) public {\r\n        Model memory _item = lista[msg.sender][_id];\r\n        if (_item.aprobado == false) {\r\n            _item.turbidez = _turbidez;\r\n            lista[msg.sender][_id] = _item;\r\n            emit Id(_id);\r\n        }\r\n    }\r\n\r\n    function aprobarProceso(uint256 _id) public {\r\n        Model memory _item = lista[msg.sender][_id];\r\n        _item.aprobado = true;\r\n        lista[msg.sender][_id] = _item;\r\n        emit Id(_id);\r\n    }\r\n}\r\n",
  "sourcePath": "E:\\UNL\\CICLO X\\vinos-blockchain\\contracts\\5ClarificacionContract.sol",
  "compiler": {
    "name": "solc",
    "version": "0.8.11+commit.d7f03943.Emscripten.clang"
  },
  "schemaVersion": "3.4.4",
  "updatedAt": "2022-06-28T02:38:48.951Z",
  "networkType": "ethereum",
  "devdoc": {
    "kind": "dev",
    "methods": {},
    "version": 1
  },
  "userdoc": {
    "kind": "user",
    "methods": {},
    "version": 1
  }
}