{
  "contractName": "ClarificacionContract",
  "abi": [
    {
      "inputs": [
        {
          "internalType": "address",
          "name": "",
          "type": "address"
        },
        {
          "internalType": "uint256",
          "name": "",
          "type": "uint256"
        }
      ],
      "name": "lista",
      "outputs": [
        {
          "internalType": "uint256",
          "name": "hash_anterior",
          "type": "uint256"
        },
        {
          "internalType": "string",
          "name": "turbidez",
          "type": "string"
        },
        {
          "internalType": "bool",
          "name": "aprobado",
          "type": "bool"
        },
        {
          "internalType": "uint256",
          "name": "createdAt",
          "type": "uint256"
        }
      ],
      "stateMutability": "view",
      "type": "function"
    },
    {
      "inputs": [
        {
          "internalType": "uint256",
          "name": "_hash_anterior",
          "type": "uint256"
        },
        {
          "internalType": "string",
          "name": "_turbidez",
          "type": "string"
        }
      ],
      "name": "crear",
      "outputs": [],
      "stateMutability": "nonpayable",
      "type": "function"
    },
    {
      "inputs": [
        {
          "internalType": "uint256",
          "name": "_id",
          "type": "uint256"
        },
        {
          "internalType": "string",
          "name": "_turbidez",
          "type": "string"
        }
      ],
      "name": "actualizar",
      "outputs": [],
      "stateMutability": "nonpayable",
      "type": "function"
    },
    {
      "inputs": [
        {
          "internalType": "uint256",
          "name": "_id",
          "type": "uint256"
        }
      ],
      "name": "aprobarProceso",
      "outputs": [],
      "stateMutability": "nonpayable",
      "type": "function"
    }
  ],
  "bytecode": "0x608060405234801561001057600080fd5b506106e8806100206000396000f3fe608060405234801561001057600080fd5b506004361061004c5760003560e01c806331caa9e114610051578063535c41961461007d5780637a00b8a914610092578063caab2e9c146100a5575b600080fd5b61006461005f3660046104e1565b6100b8565b6040516100749493929190610519565b60405180910390f35b61009061008b3660046105a3565b610175565b005b6100906100a036600461065e565b6102ba565b6100906100b33660046105a3565b6103fc565b6000602081815292815260408082209093529081522080546001820180549192916100e290610677565b80601f016020809104026020016040519081016040528092919081815260200182805461010e90610677565b801561015b5780601f106101305761010080835404028352916020019161015b565b820191906000526020600020905b81548152906001019060200180831161013e57829003601f168201915b505050506002830154600390930154919260ff1691905084565b3360009081526020818152604080832085845282528083208151608081019092528054825260018101805492939192918401916101b190610677565b80601f01602080910402602001604051908101604052809291908181526020018280546101dd90610677565b801561022a5780601f106101ff5761010080835404028352916020019161022a565b820191906000526020600020905b81548152906001019060200180831161020d57829003601f168201915b5050509183525050600282015460ff16151560208201526003909101546040918201528101519091506102b55760208082018381523360009081528083526040808220878352845290208351815590518051849361028f926001850192910190610448565b50604082015160028201805460ff19169115159190911790556060909101516003909101555b505050565b3360009081526020818152604080832084845282528083208151608081019092528054825260018101805492939192918401916102f690610677565b80601f016020809104026020016040519081016040528092919081815260200182805461032290610677565b801561036f5780601f106103445761010080835404028352916020019161036f565b820191906000526020600020905b81548152906001019060200180831161035257829003601f168201915b5050509183525050600282015460ff161515602080830191909152600390920154604091820152600183820181905233600090815280845282812087825284529190912083518155838301518051949550859491936103d393850192910190610448565b50604082015160028201805460ff19169115159190911790556060909101516003909101555050565b604080516080810182528381526020808201848152600083850181905242606085015233815280835284812087825283529390932082518155925180519293926103d392600185019201905b82805461045490610677565b90600052602060002090601f01602090048101928261047657600085556104bc565b82601f1061048f57805160ff19168380011785556104bc565b828001600101855582156104bc579182015b828111156104bc5782518255916020019190600101906104a1565b506104c89291506104cc565b5090565b5b808211156104c857600081556001016104cd565b600080604083850312156104f457600080fd5b82356001600160a01b038116811461050b57600080fd5b946020939093013593505050565b84815260006020608081840152855180608085015260005b8181101561054d5787810183015185820160a001528201610531565b8181111561055f57600060a083870101525b50601f01601f1916830160a001915061057e9050604083018515159052565b82606083015295945050505050565b634e487b7160e01b600052604160045260246000fd5b600080604083850312156105b657600080fd5b82359150602083013567ffffffffffffffff808211156105d557600080fd5b818501915085601f8301126105e957600080fd5b8135818111156105fb576105fb61058d565b604051601f8201601f19908116603f011681019083821181831017156106235761062361058d565b8160405282815288602084870101111561063c57600080fd5b8260208601602083013760006020848301015280955050505050509250929050565b60006020828403121561067057600080fd5b5035919050565b600181811c9082168061068b57607f821691505b602082108114156106ac57634e487b7160e01b600052602260045260246000fd5b5091905056fea26469706673582212204c2ba4c81d00fa91331313d0e15e15a9a70d95c3d14ec86b99c0e124a4412e3f64736f6c634300080b0033",
  "immutableReferences": {},
  "source": "// SPDX-License-Identifier: MIT\r\npragma solidity ^0.8.11;\r\n\r\ncontract ClarificacionContract {\r\n    struct Clarificacion {\r\n        uint256 hash_anterior;\r\n        string turbidez;\r\n        bool aprobado;\r\n        uint256 createdAt;\r\n    }\r\n\r\n    mapping(address => mapping(uint256 => Clarificacion)) public lista;\r\n\r\n    function crear(uint256 _hash_anterior, string memory _turbidez) public {\r\n        lista[msg.sender][_hash_anterior] = Clarificacion(\r\n            _hash_anterior,\r\n            _turbidez,\r\n            false,\r\n            block.timestamp\r\n        );\r\n    }\r\n\r\n    function actualizar(uint256 _id, string memory _turbidez) public {\r\n        Clarificacion memory _item = lista[msg.sender][_id];\r\n        if (_item.aprobado == false) {\r\n            _item.turbidez = _turbidez;\r\n            lista[msg.sender][_id] = _item;\r\n        }\r\n    }\r\n\r\n    function aprobarProceso(uint256 _id) public {\r\n        Clarificacion memory _item = lista[msg.sender][_id];\r\n        _item.aprobado = true;\r\n        lista[msg.sender][_id] = _item;\r\n    }\r\n}\r\n",
  "sourcePath": "E:\\UNL\\CICLO X\\vinos-blockchain\\contracts\\5ClarificacionContract.sol",
  "compiler": {
    "name": "solc",
    "version": "0.8.11+commit.d7f03943.Emscripten.clang"
  },
  "schemaVersion": "3.4.4",
  "updatedAt": "2022-06-26T18:57:21.392Z",
  "devdoc": {
    "kind": "dev",
    "methods": {},
    "version": 1
  },
  "userdoc": {
    "kind": "user",
    "methods": {},
    "version": 1
  }
}