{
  "contractName": "EnvasadoContract",
  "abi": [
    {
      "anonymous": false,
      "inputs": [
        {
          "indexed": false,
          "internalType": "uint256",
          "name": "id",
          "type": "uint256"
        }
      ],
      "name": "Id",
      "type": "event"
    },
    {
      "inputs": [],
      "name": "contador",
      "outputs": [
        {
          "internalType": "uint256",
          "name": "",
          "type": "uint256"
        }
      ],
      "stateMutability": "view",
      "type": "function",
      "constant": true
    },
    {
      "inputs": [
        {
          "internalType": "uint256",
          "name": "",
          "type": "uint256"
        }
      ],
      "name": "lista",
      "outputs": [
        {
          "internalType": "uint256",
          "name": "hash_anterior",
          "type": "uint256"
        },
        {
          "internalType": "string",
          "name": "nro_lote",
          "type": "string"
        },
        {
          "internalType": "uint256",
          "name": "nro_botellas",
          "type": "uint256"
        },
        {
          "internalType": "bool",
          "name": "aprobado",
          "type": "bool"
        },
        {
          "internalType": "uint256",
          "name": "createdAt",
          "type": "uint256"
        }
      ],
      "stateMutability": "view",
      "type": "function",
      "constant": true
    },
    {
      "inputs": [
        {
          "internalType": "uint256",
          "name": "_hash_anterior",
          "type": "uint256"
        },
        {
          "internalType": "string",
          "name": "_nro_lote",
          "type": "string"
        },
        {
          "internalType": "uint256",
          "name": "_nro_botellas",
          "type": "uint256"
        }
      ],
      "name": "crear",
      "outputs": [],
      "stateMutability": "nonpayable",
      "type": "function"
    },
    {
      "inputs": [
        {
          "internalType": "uint256",
          "name": "_id",
          "type": "uint256"
        }
      ],
      "name": "encontrar",
      "outputs": [
        {
          "components": [
            {
              "internalType": "uint256",
              "name": "hash_anterior",
              "type": "uint256"
            },
            {
              "internalType": "string",
              "name": "nro_lote",
              "type": "string"
            },
            {
              "internalType": "uint256",
              "name": "nro_botellas",
              "type": "uint256"
            },
            {
              "components": [
                {
                  "internalType": "uint256",
                  "name": "nro_botella",
                  "type": "uint256"
                },
                {
                  "internalType": "uint256",
                  "name": "hash_anterior",
                  "type": "uint256"
                },
                {
                  "internalType": "bytes32",
                  "name": "hash_botella",
                  "type": "bytes32"
                },
                {
                  "internalType": "uint256[]",
                  "name": "estados",
                  "type": "uint256[]"
                },
                {
                  "internalType": "uint256[]",
                  "name": "fecha_estados",
                  "type": "uint256[]"
                },
                {
                  "internalType": "uint256",
                  "name": "createdAt",
                  "type": "uint256"
                }
              ],
              "internalType": "struct EnvasadoContract.Botella[]",
              "name": "botellas",
              "type": "tuple[]"
            },
            {
              "internalType": "bool",
              "name": "aprobado",
              "type": "bool"
            },
            {
              "internalType": "uint256",
              "name": "createdAt",
              "type": "uint256"
            }
          ],
          "internalType": "struct EnvasadoContract.Model",
          "name": "",
          "type": "tuple"
        }
      ],
      "stateMutability": "payable",
      "type": "function",
      "payable": true
    },
    {
      "inputs": [
        {
          "internalType": "uint256",
          "name": "_id",
          "type": "uint256"
        },
        {
          "internalType": "string",
          "name": "_nro_lote",
          "type": "string"
        },
        {
          "internalType": "uint256",
          "name": "_nro_botellas",
          "type": "uint256"
        }
      ],
      "name": "editar",
      "outputs": [],
      "stateMutability": "nonpayable",
      "type": "function"
    },
    {
      "inputs": [
        {
          "internalType": "bytes32",
          "name": "_hash",
          "type": "bytes32"
        }
      ],
      "name": "encontrarBotella",
      "outputs": [
        {
          "components": [
            {
              "internalType": "uint256",
              "name": "nro_botella",
              "type": "uint256"
            },
            {
              "internalType": "uint256",
              "name": "hash_anterior",
              "type": "uint256"
            },
            {
              "internalType": "bytes32",
              "name": "hash_botella",
              "type": "bytes32"
            },
            {
              "internalType": "uint256[]",
              "name": "estados",
              "type": "uint256[]"
            },
            {
              "internalType": "uint256[]",
              "name": "fecha_estados",
              "type": "uint256[]"
            },
            {
              "internalType": "uint256",
              "name": "createdAt",
              "type": "uint256"
            }
          ],
          "internalType": "struct EnvasadoContract.Botella",
          "name": "",
          "type": "tuple"
        }
      ],
      "stateMutability": "view",
      "type": "function",
      "constant": true
    },
    {
      "inputs": [
        {
          "internalType": "uint256",
          "name": "_id",
          "type": "uint256"
        },
        {
          "internalType": "uint256",
          "name": "_index",
          "type": "uint256"
        },
        {
          "internalType": "uint256",
          "name": "_estado",
          "type": "uint256"
        }
      ],
      "name": "cambiarEstadoBotella",
      "outputs": [],
      "stateMutability": "nonpayable",
      "type": "function"
    },
    {
      "inputs": [
        {
          "internalType": "uint256",
          "name": "_id",
          "type": "uint256"
        }
      ],
      "name": "aprobarProceso",
      "outputs": [],
      "stateMutability": "nonpayable",
      "type": "function"
    }
  ],
  "bytecode": "0x608060405234801561001057600080fd5b50610fd1806100206000396000f3fe60806040526004361061007b5760003560e01c806385d3a43a1161004e57806385d3a43a1461012d5780639982d1371461014d578063a3a0eedf1461016d578063b693c6f81461018d57600080fd5b80630cc76c141461008057806353d27cc2146100ba5780637a00b8a9146100de5780638155d81d14610100575b600080fd5b34801561008c57600080fd5b506100a061009b366004610bd3565b6101ad565b6040516100b1959493929190610c39565b60405180910390f35b3480156100c657600080fd5b506100d060015481565b6040519081526020016100b1565b3480156100ea57600080fd5b506100fe6100f9366004610bd3565b61026a565b005b34801561010c57600080fd5b5061012061011b366004610bd3565b6104f4565b6040516100b19190610d0d565b61014061013b366004610bd3565b61072e565b6040516100b19190610d27565b34801561015957600080fd5b506100fe610168366004610df1565b610986565b34801561017957600080fd5b506100fe610188366004610df1565b6109f7565b34801561019957600080fd5b506100fe6101a8366004610eb5565b610a59565b600060208190529081526040902080546001820180549192916101cf90610ee1565b80601f01602080910402602001604051908101604052809291908181526020018280546101fb90610ee1565b80156102485780601f1061021d57610100808354040283529160200191610248565b820191906000526020600020905b81548152906001019060200180831161022b57829003601f168201915b50505050600283015460048401546005909401549293909260ff909116915085565b600081815260208190526040812060048101805460ff19166001179055905b81600201548110156104cc5760008381526020819052604081206003018054859081106102b8576102b8610f1c565b90600052602060002090600602016040518060c00160405290816000820154815260200160018201548152602001600282015481526020016003820180548060200260200160405190810160405280929190818152602001828054801561033e57602002820191906000526020600020905b81548152602001906001019080831161032a575b505050505081526020016004820180548060200260200160405190810160405280929190818152602001828054801561039657602002820191906000526020600020905b815481526020019060010190808311610382575b5050505050815260200160058201548152505090508160016103b89190610f48565b815260208082018590526040805191820184905201604051602081830303815290604052805190602001208160400181815250506000816060015160008151811061040557610405610f1c565b60200260200101818152505042816080015160008151811061042957610429610f1c565b6020908102919091018101919091524260a083015260038085018054600181810183556000928352918490208551600690920201908155848401519181019190915560408401516002820155606084015180518594929361048f93908501920190610b00565b50608082015180516104ab916004840191602090910190610b00565b5060a0820151816005015550505080806104c490610f60565b915050610289565b508054604051908152600080516020610f7c8339815191529060200160405180910390a15050565b6105306040518060c001604052806000815260200160008152602001600080191681526020016060815260200160608152602001600081525090565b60005b6001548110156106e15760008181526020818152604080832060030180548251818502810185019093528083529192909190849084015b8282101561067457838290600052602060002090600602016040518060c0016040529081600082015481526020016001820154815260200160028201548152602001600382018054806020026020016040519081016040528092919081815260200182805480156105fa57602002820191906000526020600020905b8154815260200190600101908083116105e6575b505050505081526020016004820180548060200260200160405190810160405280929190818152602001828054801561065257602002820191906000526020600020905b81548152602001906001019080831161063e575b505050505081526020016005820154815250508152602001906001019061056a565b50505050905060005b81518110156106cc57600082828151811061069a5761069a610f1c565b6020026020010151905085816040015114156106b95795945050505050565b50806106c481610f60565b91505061067d565b505080806106d990610f60565b915050610533565b5060405162461bcd60e51b815260206004820152601d60248201527f4861736820646520626f74656c6c61206e6f20656e636f6e7472616461000000604482015260640160405180910390fd5b6107696040518060c0016040528060008152602001606081526020016000815260200160608152602001600015158152602001600081525090565b60008060008481526020019081526020016000206040518060c0016040529081600082015481526020016001820180546107a290610ee1565b80601f01602080910402602001604051908101604052809291908181526020018280546107ce90610ee1565b801561081b5780601f106107f05761010080835404028352916020019161081b565b820191906000526020600020905b8154815290600101906020018083116107fe57829003601f168201915b505050505081526020016002820154815260200160038201805480602002602001604051908101604052809291908181526020016000905b8282101561095d57838290600052602060002090600602016040518060c0016040529081600082015481526020016001820154815260200160028201548152602001600382018054806020026020016040519081016040528092919081815260200182805480156108e357602002820191906000526020600020905b8154815260200190600101908083116108cf575b505050505081526020016004820180548060200260200160405190810160405280929190818152602001828054801561093b57602002820191906000526020600020905b815481526020019060010190808311610927575b5050505050815260200160058201548152505081526020019060010190610853565b50505090825250600482015460ff16151560208201526005909101546040909101529392505050565b600083815260208181526040909120848155835190916109ad916001840191860190610b4b565b5060028101829055426005820155604051848152600080516020610f7c8339815191529060200160405180910390a1600180549060006109ec83610f60565b919050555050505050565b6000838152602081905260409020600481015460ff16610a53578251610a269060018301906020860190610b4b565b50600281018290558054604051908152600080516020610f7c833981519152906020015b60405180910390a15b50505050565b60008381526020819052604090206003018054819084908110610a7e57610a7e610f1c565b6000918252602080832060036006909302019190910180546001810182559083529120018290558054819084908110610ab957610ab9610f1c565b600091825260208083206004600690930201919091018054600181018255908352912042910155604051600080516020610f7c83398151915290610a4a9086815260200190565b828054828255906000526020600020908101928215610b3b579160200282015b82811115610b3b578251825591602001919060010190610b20565b50610b47929150610bbe565b5090565b828054610b5790610ee1565b90600052602060002090601f016020900481019282610b795760008555610b3b565b82601f10610b9257805160ff1916838001178555610b3b565b82800160010185558215610b3b5791820182811115610b3b578251825591602001919060010190610b20565b5b80821115610b475760008155600101610bbf565b600060208284031215610be557600080fd5b5035919050565b6000815180845260005b81811015610c1257602081850181015186830182015201610bf6565b81811115610c24576000602083870101525b50601f01601f19169290920160200192915050565b85815260a060208201526000610c5260a0830187610bec565b604083019590955250911515606083015260809091015292915050565b600081518084526020808501945080840160005b83811015610c9f57815187529582019590820190600101610c83565b509495945050505050565b8051825260208101516020830152604081015160408301526000606082015160c06060850152610cdd60c0850182610c6f565b905060808301518482036080860152610cf68282610c6f565b91505060a083015160a08501528091505092915050565b602081526000610d206020830184610caa565b9392505050565b600060208083528351818401528084015160c06040850152610d4c60e0850182610bec565b9050604085015160608501526060850151601f19808684030160808701528282518085528585019150858160051b860101868501945060005b82811015610db15784878303018452610d9f828751610caa565b95880195938801939150600101610d85565b5060808a015180151560a08b0152965060a08a015160c08a01528097505050505050505092915050565b634e487b7160e01b600052604160045260246000fd5b600080600060608486031215610e0657600080fd5b83359250602084013567ffffffffffffffff80821115610e2557600080fd5b818601915086601f830112610e3957600080fd5b813581811115610e4b57610e4b610ddb565b604051601f8201601f19908116603f01168101908382118183101715610e7357610e73610ddb565b81604052828152896020848701011115610e8c57600080fd5b826020860160208301376000602084830101528096505050505050604084013590509250925092565b600080600060608486031215610eca57600080fd5b505081359360208301359350604090920135919050565b600181811c90821680610ef557607f821691505b60208210811415610f1657634e487b7160e01b600052602260045260246000fd5b50919050565b634e487b7160e01b600052603260045260246000fd5b634e487b7160e01b600052601160045260246000fd5b60008219821115610f5b57610f5b610f32565b500190565b6000600019821415610f7457610f74610f32565b506001019056fe1ee8913b1e0c76a71150bbb92d8921b2c975601c8c9991b8ef86a1b389672774a2646970667358221220ab410f7c5c31251d3040972f73354d3835ad1150ce04847caa7d1d4f1790e4ba64736f6c634300080b0033",
  "immutableReferences": {},
  "source": "// SPDX-License-Identifier: MIT\r\npragma solidity ^0.8.11;\r\n\r\ncontract EnvasadoContract {\r\n    struct Botella {\r\n        uint256 nro_botella;\r\n        uint256 hash_anterior;\r\n        bytes32 hash_botella;\r\n        uint256[] estados;\r\n        uint256[] fecha_estados;\r\n        uint256 createdAt;\r\n    }\r\n\r\n    struct Model {\r\n        uint256 hash_anterior;\r\n        string nro_lote;\r\n        uint256 nro_botellas;\r\n        Botella[] botellas;\r\n        bool aprobado;\r\n        uint256 createdAt;\r\n    }\r\n\r\n    event Id(uint256 id);\r\n    mapping(uint256 => Model) public lista;\r\n    uint256 public contador;\r\n\r\n    function crear(\r\n        uint256 _hash_anterior,\r\n        string memory _nro_lote,\r\n        uint256 _nro_botellas\r\n    ) public {\r\n        Model storage _item = lista[_hash_anterior];\r\n        _item.hash_anterior = _hash_anterior;\r\n        _item.nro_lote = _nro_lote;\r\n        _item.nro_botellas = _nro_botellas;\r\n        _item.createdAt = block.timestamp;\r\n        emit Id(_hash_anterior);\r\n        contador++;\r\n    }\r\n\r\n    function encontrar(uint256 _id) public payable returns (Model memory) {\r\n        Model memory _item = lista[_id];\r\n        return _item;\r\n    }\r\n\r\n    function editar(\r\n        uint256 _id,\r\n        string memory _nro_lote,\r\n        uint256 _nro_botellas\r\n    ) public {\r\n        Model storage _item = lista[_id];\r\n        if (_item.aprobado == false) {\r\n            _item.nro_lote = _nro_lote;\r\n            _item.nro_botellas = _nro_botellas;\r\n            emit Id(_item.hash_anterior);\r\n        }\r\n    }\r\n\r\n    function encontrarBotella(bytes32 _hash)\r\n        public\r\n        view\r\n        returns (Botella memory)\r\n    {\r\n        for (uint256 i = 0; i < contador; i++) {\r\n            Botella[] memory _botellas = lista[i].botellas;\r\n            for (uint256 j = 0; j < _botellas.length; j++) {\r\n                Botella memory _botella = _botellas[j];\r\n                if (_botella.hash_botella == _hash) {\r\n                    return _botella;\r\n                }\r\n            }\r\n        }\r\n        revert(\"Hash de botella no encontrada\");\r\n    }\r\n\r\n    function cambiarEstadoBotella(\r\n        uint256 _id,\r\n        uint256 _index,\r\n        uint256 _estado\r\n    ) public {\r\n        Botella[] storage _botellas = lista[_id].botellas;\r\n        _botellas[_index].estados.push(_estado);\r\n        _botellas[_index].fecha_estados.push(block.timestamp);\r\n        emit Id(_id);\r\n    }\r\n\r\n    function aprobarProceso(uint256 _id) public {\r\n        Model storage _item = lista[_id];\r\n        _item.aprobado = true;\r\n        for (uint256 index = 0; index < _item.nro_botellas; index++) {\r\n            Botella memory _botella = lista[_id].botellas[_id];\r\n            _botella.nro_botella = index + 1;\r\n            _botella.hash_anterior = _id;\r\n            _botella.hash_botella = keccak256(abi.encodePacked(index));\r\n            _botella.estados[0] = 0;\r\n            _botella.fecha_estados[0] = block.timestamp;\r\n            _botella.createdAt = block.timestamp;\r\n            _item.botellas.push(_botella);\r\n        }\r\n        emit Id(_item.hash_anterior);\r\n    }\r\n}\r\n",
  "sourcePath": "E:\\UNL\\CICLO X\\vinos-blockchain\\contracts\\procesos\\7EnvasadoContract.sol",
  "compiler": {
    "name": "solc",
    "version": "0.8.11+commit.d7f03943.Emscripten.clang"
  },
  "schemaVersion": "3.4.4",
  "updatedAt": "2022-07-02T22:18:35.654Z",
  "networkType": "ethereum",
  "devdoc": {
    "kind": "dev",
    "methods": {},
    "version": 1
  },
  "userdoc": {
    "kind": "user",
    "methods": {},
    "version": 1
  }
}