{
  "contractName": "EnvasadoContract",
  "abi": [
    {
      "anonymous": false,
      "inputs": [
        {
          "indexed": false,
          "internalType": "uint256",
          "name": "id",
          "type": "uint256"
        }
      ],
      "name": "Id",
      "type": "event"
    },
    {
      "inputs": [],
      "name": "contador",
      "outputs": [
        {
          "internalType": "uint256",
          "name": "",
          "type": "uint256"
        }
      ],
      "stateMutability": "view",
      "type": "function",
      "constant": true
    },
    {
      "inputs": [
        {
          "internalType": "uint256",
          "name": "",
          "type": "uint256"
        }
      ],
      "name": "lista",
      "outputs": [
        {
          "internalType": "uint256",
          "name": "hash_anterior",
          "type": "uint256"
        },
        {
          "internalType": "string",
          "name": "nro_lote",
          "type": "string"
        },
        {
          "internalType": "uint256",
          "name": "nro_botellas",
          "type": "uint256"
        },
        {
          "internalType": "bool",
          "name": "aprobado",
          "type": "bool"
        },
        {
          "internalType": "uint256",
          "name": "createdAt",
          "type": "uint256"
        }
      ],
      "stateMutability": "view",
      "type": "function",
      "constant": true
    },
    {
      "inputs": [
        {
          "internalType": "uint256",
          "name": "_hash_anterior",
          "type": "uint256"
        },
        {
          "internalType": "string",
          "name": "_nro_lote",
          "type": "string"
        },
        {
          "internalType": "uint256",
          "name": "_nro_botellas",
          "type": "uint256"
        }
      ],
      "name": "crear",
      "outputs": [],
      "stateMutability": "nonpayable",
      "type": "function"
    },
    {
      "inputs": [
        {
          "internalType": "uint256",
          "name": "_id",
          "type": "uint256"
        }
      ],
      "name": "encontrar",
      "outputs": [
        {
          "components": [
            {
              "internalType": "uint256",
              "name": "hash_anterior",
              "type": "uint256"
            },
            {
              "internalType": "string",
              "name": "nro_lote",
              "type": "string"
            },
            {
              "internalType": "uint256",
              "name": "nro_botellas",
              "type": "uint256"
            },
            {
              "components": [
                {
                  "internalType": "uint256",
                  "name": "nro_botella",
                  "type": "uint256"
                },
                {
                  "internalType": "uint256",
                  "name": "hash_anterior",
                  "type": "uint256"
                },
                {
                  "internalType": "bytes32",
                  "name": "hash_botella",
                  "type": "bytes32"
                },
                {
                  "internalType": "uint256[]",
                  "name": "estados",
                  "type": "uint256[]"
                },
                {
                  "internalType": "uint256[]",
                  "name": "fecha_estados",
                  "type": "uint256[]"
                },
                {
                  "internalType": "uint256",
                  "name": "createdAt",
                  "type": "uint256"
                }
              ],
              "internalType": "struct EnvasadoContract.Botella[]",
              "name": "botellas",
              "type": "tuple[]"
            },
            {
              "internalType": "bool",
              "name": "aprobado",
              "type": "bool"
            },
            {
              "internalType": "uint256",
              "name": "createdAt",
              "type": "uint256"
            }
          ],
          "internalType": "struct EnvasadoContract.Model",
          "name": "",
          "type": "tuple"
        }
      ],
      "stateMutability": "view",
      "type": "function",
      "constant": true
    },
    {
      "inputs": [
        {
          "internalType": "uint256",
          "name": "_id",
          "type": "uint256"
        },
        {
          "internalType": "string",
          "name": "_nro_lote",
          "type": "string"
        },
        {
          "internalType": "uint256",
          "name": "_nro_botellas",
          "type": "uint256"
        }
      ],
      "name": "editar",
      "outputs": [],
      "stateMutability": "nonpayable",
      "type": "function"
    },
    {
      "inputs": [
        {
          "internalType": "bytes32",
          "name": "_hash",
          "type": "bytes32"
        }
      ],
      "name": "encontrarBotella",
      "outputs": [
        {
          "components": [
            {
              "internalType": "uint256",
              "name": "nro_botella",
              "type": "uint256"
            },
            {
              "internalType": "uint256",
              "name": "hash_anterior",
              "type": "uint256"
            },
            {
              "internalType": "bytes32",
              "name": "hash_botella",
              "type": "bytes32"
            },
            {
              "internalType": "uint256[]",
              "name": "estados",
              "type": "uint256[]"
            },
            {
              "internalType": "uint256[]",
              "name": "fecha_estados",
              "type": "uint256[]"
            },
            {
              "internalType": "uint256",
              "name": "createdAt",
              "type": "uint256"
            }
          ],
          "internalType": "struct EnvasadoContract.Botella",
          "name": "",
          "type": "tuple"
        }
      ],
      "stateMutability": "view",
      "type": "function",
      "constant": true
    },
    {
      "inputs": [
        {
          "internalType": "uint256",
          "name": "_id",
          "type": "uint256"
        },
        {
          "internalType": "uint256",
          "name": "_index",
          "type": "uint256"
        },
        {
          "internalType": "uint256",
          "name": "_estado",
          "type": "uint256"
        }
      ],
      "name": "cambiarEstadoBotella",
      "outputs": [],
      "stateMutability": "nonpayable",
      "type": "function"
    },
    {
      "inputs": [
        {
          "internalType": "uint256",
          "name": "_id",
          "type": "uint256"
        },
        {
          "internalType": "string",
          "name": "_info",
          "type": "string"
        }
      ],
      "name": "aprobarProceso",
      "outputs": [],
      "stateMutability": "nonpayable",
      "type": "function"
    }
  ],
  "bytecode": "0x608060405234801561001057600080fd5b50610f17806100206000396000f3fe608060405234801561001057600080fd5b50600436106100885760003560e01c8063896111141161005b57806389611114146101115780639982d13714610126578063a3a0eedf14610139578063b693c6f81461014c57600080fd5b80630cc76c141461008d57806353d27cc2146100ba5780638155d81d146100d157806385d3a43a146100f1575b600080fd5b6100a061009b366004610aac565b61015f565b6040516100b1959493929190610b1d565b60405180910390f35b6100c360015481565b6040519081526020016100b1565b6100e46100df366004610aac565b61021c565b6040516100b19190610bf1565b6101046100ff366004610aac565b61044a565b6040516100b19190610c0b565b61012461011f366004610d62565b610699565b005b610124610134366004610da9565b61085f565b610124610147366004610da9565b6108d0565b61012461015a366004610df9565b610932565b6000602081905290815260409020805460018201805491929161018190610e25565b80601f01602080910402602001604051908101604052809291908181526020018280546101ad90610e25565b80156101fa5780601f106101cf576101008083540402835291602001916101fa565b820191906000526020600020905b8154815290600101906020018083116101dd57829003601f168201915b50505050600283015460048401546005909401549293909260ff909116915085565b6102586040518060c001604052806000815260200160008152602001600080191681526020016060815260200160608152602001600081525090565b6102946040518060c001604052806000815260200160008152602001600080191681526020016060815260200160608152602001600081525090565b60005b6001548110156104435760008181526020818152604080832060030180548251818502810185019093528083529192909190849084015b828210156103d857838290600052602060002090600602016040518060c00160405290816000820154815260200160018201548152602001600282015481526020016003820180548060200260200160405190810160405280929190818152602001828054801561035e57602002820191906000526020600020905b81548152602001906001019080831161034a575b50505050508152602001600482018054806020026020016040519081016040528092919081815260200182805480156103b657602002820191906000526020600020905b8154815260200190600101908083116103a2575b50505050508152602001600582015481525050815260200190600101906102ce565b50505050905060005b815181101561042e578181815181106103fc576103fc610e60565b60200260200101519350858460400151141561041c575091949350505050565b8061042681610e76565b9150506103e1565b5050808061043b90610e76565b915050610297565b5092915050565b6104856040518060c0016040528060008152602001606081526020016000815260200160608152602001600015158152602001600081525090565b60008281526020818152604091829020825160c081019093528054835260018101805491928401916104b690610e25565b80601f01602080910402602001604051908101604052809291908181526020018280546104e290610e25565b801561052f5780601f106105045761010080835404028352916020019161052f565b820191906000526020600020905b81548152906001019060200180831161051257829003601f168201915b505050505081526020016002820154815260200160038201805480602002602001604051908101604052809291908181526020016000905b8282101561067157838290600052602060002090600602016040518060c0016040529081600082015481526020016001820154815260200160028201548152602001600382018054806020026020016040519081016040528092919081815260200182805480156105f757602002820191906000526020600020905b8154815260200190600101908083116105e3575b505050505081526020016004820180548060200260200160405190810160405280929190818152602001828054801561064f57602002820191906000526020600020905b81548152602001906001019080831161063b575b5050505050815260200160058201548152505081526020019060010190610567565b50505090825250600482015460ff161515602082015260059091015460409091015292915050565b600082815260208190526040902060048101805460ff191660019081179091555b816002015481116108365760408051600180825281830190925260009160208083019080368337505060408051600180825281830190925292935060009291506020808301908036833701905050905060008260008151811061071f5761071f610e60565b602002602001018181525050428160008151811061073f5761073f610e60565b60200260200101818152505060006040518060c001604052808581526020018881526020018786604051602001610777929190610e9f565b60408051601f1981840301815291815281516020928301208352828201879052828101869052426060938401526003808a0180546001818101835560009283529185902087516006909202019081558685015191810191909155918501516002830155928401518051949550859491936107f793908501929101906109d9565b50608082015180516108139160048401916020909101906109d9565b5060a082015181600501555050505050808061082e90610e76565b9150506106ba565b508054604051908152600080516020610ec28339815191529060200160405180910390a1505050565b60008381526020818152604090912084815583519091610886916001840191860190610a24565b5060028101829055426005820155604051848152600080516020610ec28339815191529060200160405180910390a1600180549060006108c583610e76565b919050555050505050565b6000838152602081905260409020600481015460ff1661092c5782516108ff9060018301906020860190610a24565b50600281018290558054604051908152600080516020610ec2833981519152906020015b60405180910390a15b50505050565b6000838152602081905260409020600301805481908490811061095757610957610e60565b600091825260208083206003600690930201919091018054600181018255908352912001829055805481908490811061099257610992610e60565b600091825260208083206004600690930201919091018054600181018255908352912042910155604051600080516020610ec2833981519152906109239086815260200190565b828054828255906000526020600020908101928215610a14579160200282015b82811115610a145782518255916020019190600101906109f9565b50610a20929150610a97565b5090565b828054610a3090610e25565b90600052602060002090601f016020900481019282610a525760008555610a14565b82601f10610a6b57805160ff1916838001178555610a14565b82800160010185558215610a145791820182811115610a145782518255916020019190600101906109f9565b5b80821115610a205760008155600101610a98565b600060208284031215610abe57600080fd5b5035919050565b60005b83811015610ae0578181015183820152602001610ac8565b8381111561092c5750506000910152565b60008151808452610b09816020860160208601610ac5565b601f01601f19169290920160200192915050565b85815260a060208201526000610b3660a0830187610af1565b604083019590955250911515606083015260809091015292915050565b600081518084526020808501945080840160005b83811015610b8357815187529582019590820190600101610b67565b509495945050505050565b8051825260208101516020830152604081015160408301526000606082015160c06060850152610bc160c0850182610b53565b905060808301518482036080860152610bda8282610b53565b91505060a083015160a08501528091505092915050565b602081526000610c046020830184610b8e565b9392505050565b600060208083528351818401528084015160c06040850152610c3060e0850182610af1565b9050604085015160608501526060850151601f19808684030160808701528282518085528585019150858160051b860101868501945060005b82811015610c955784878303018452610c83828751610b8e565b95880195938801939150600101610c69565b5060808a015180151560a08b0152965060a08a015160c08a01528097505050505050505092915050565b634e487b7160e01b600052604160045260246000fd5b600082601f830112610ce657600080fd5b813567ffffffffffffffff80821115610d0157610d01610cbf565b604051601f8301601f19908116603f01168101908282118183101715610d2957610d29610cbf565b81604052838152866020858801011115610d4257600080fd5b836020870160208301376000602085830101528094505050505092915050565b60008060408385031215610d7557600080fd5b82359150602083013567ffffffffffffffff811115610d9357600080fd5b610d9f85828601610cd5565b9150509250929050565b600080600060608486031215610dbe57600080fd5b83359250602084013567ffffffffffffffff811115610ddc57600080fd5b610de886828701610cd5565b925050604084013590509250925092565b600080600060608486031215610e0e57600080fd5b505081359360208301359350604090920135919050565b600181811c90821680610e3957607f821691505b60208210811415610e5a57634e487b7160e01b600052602260045260246000fd5b50919050565b634e487b7160e01b600052603260045260246000fd5b6000600019821415610e9857634e487b7160e01b600052601160045260246000fd5b5060010190565b60008351610eb1818460208801610ac5565b919091019182525060200191905056fe1ee8913b1e0c76a71150bbb92d8921b2c975601c8c9991b8ef86a1b389672774a2646970667358221220818579e16cf24746124cfd57e9dedd59c28a77f98dbebec8e95d54617fae1f6e64736f6c634300080b0033",
  "immutableReferences": {},
  "source": "// SPDX-License-Identifier: MIT\r\npragma solidity ^0.8.11;\r\n\r\ncontract EnvasadoContract {\r\n    struct Botella {\r\n        uint256 nro_botella;\r\n        uint256 hash_anterior;\r\n        bytes32 hash_botella;\r\n        uint256[] estados;\r\n        uint256[] fecha_estados;\r\n        uint256 createdAt;\r\n    }\r\n\r\n    struct Model {\r\n        uint256 hash_anterior;\r\n        string nro_lote;\r\n        uint256 nro_botellas;\r\n        Botella[] botellas;\r\n        bool aprobado;\r\n        uint256 createdAt;\r\n    }\r\n\r\n    event Id(uint256 id);\r\n    mapping(uint256 => Model) public lista;\r\n    uint256 public contador;\r\n\r\n    function crear(\r\n        uint256 _hash_anterior,\r\n        string memory _nro_lote,\r\n        uint256 _nro_botellas\r\n    ) public {\r\n        Model storage _item = lista[_hash_anterior];\r\n        _item.hash_anterior = _hash_anterior;\r\n        _item.nro_lote = _nro_lote;\r\n        _item.nro_botellas = _nro_botellas;\r\n        _item.createdAt = block.timestamp;\r\n        emit Id(_hash_anterior);\r\n        contador++;\r\n    }\r\n\r\n    function encontrar(uint256 _id) public view returns (Model memory) {\r\n        return lista[_id];\r\n    }\r\n\r\n    function editar(\r\n        uint256 _id,\r\n        string memory _nro_lote,\r\n        uint256 _nro_botellas\r\n    ) public {\r\n        Model storage _item = lista[_id];\r\n        if (_item.aprobado == false) {\r\n            _item.nro_lote = _nro_lote;\r\n            _item.nro_botellas = _nro_botellas;\r\n            emit Id(_item.hash_anterior);\r\n        }\r\n    }\r\n\r\n    function encontrarBotella(bytes32 _hash)\r\n        public\r\n        view\r\n        returns (Botella memory)\r\n    {\r\n        Botella memory _botella;\r\n        for (uint256 i = 0; i < contador; i++) {\r\n            Botella[] memory _botellas = lista[i].botellas;\r\n            for (uint256 j = 0; j < _botellas.length; j++) {\r\n                _botella = _botellas[j];\r\n                if (_botella.hash_botella == _hash) {\r\n                    return _botella;\r\n                }\r\n            }\r\n        }\r\n        return _botella;\r\n    }\r\n\r\n    function cambiarEstadoBotella(\r\n        uint256 _id,\r\n        uint256 _index,\r\n        uint256 _estado\r\n    ) public {\r\n        Botella[] storage _botellas = lista[_id].botellas;\r\n        _botellas[_index].estados.push(_estado);\r\n        _botellas[_index].fecha_estados.push(block.timestamp);\r\n        emit Id(_id);\r\n    }\r\n\r\n    function aprobarProceso(uint256 _id, string memory _info) public {\r\n        Model storage _item = lista[_id];\r\n        _item.aprobado = true;\r\n        for (uint256 index = 1; index <= _item.nro_botellas; index++) {\r\n            uint256[] memory _estados = new uint256[](1);\r\n            uint256[] memory _fecha_estados = new uint256[](1);\r\n            _estados[0] = 0;\r\n            _fecha_estados[0] = block.timestamp;\r\n            Botella memory _botella = Botella(\r\n                index,\r\n                _id,\r\n                keccak256(abi.encodePacked(_info, index)),\r\n                _estados,\r\n                _fecha_estados,\r\n                block.timestamp\r\n            );\r\n            _item.botellas.push(_botella);\r\n        }\r\n        emit Id(_item.hash_anterior);\r\n    }\r\n}\r\n",
  "sourcePath": "E:\\UNL\\CICLO X\\vinos-blockchain\\contracts\\procesos\\7EnvasadoContract.sol",
  "compiler": {
    "name": "solc",
    "version": "0.8.11+commit.d7f03943.Emscripten.clang"
  },
  "schemaVersion": "3.4.4",
  "updatedAt": "2022-07-06T01:08:45.491Z",
  "networkType": "ethereum",
  "devdoc": {
    "kind": "dev",
    "methods": {},
    "version": 1
  },
  "userdoc": {
    "kind": "user",
    "methods": {},
    "version": 1
  }
}