{
  "contractName": "EnvasadoContract",
  "abi": [
    {
      "anonymous": false,
      "inputs": [
        {
          "indexed": false,
          "internalType": "uint256",
          "name": "id",
          "type": "uint256"
        }
      ],
      "name": "Id",
      "type": "event"
    },
    {
      "inputs": [
        {
          "internalType": "address",
          "name": "",
          "type": "address"
        }
      ],
      "name": "contador",
      "outputs": [
        {
          "internalType": "uint256",
          "name": "",
          "type": "uint256"
        }
      ],
      "stateMutability": "view",
      "type": "function",
      "constant": true
    },
    {
      "inputs": [
        {
          "internalType": "address",
          "name": "",
          "type": "address"
        },
        {
          "internalType": "uint256",
          "name": "",
          "type": "uint256"
        }
      ],
      "name": "lista",
      "outputs": [
        {
          "internalType": "uint256",
          "name": "hash_anterior",
          "type": "uint256"
        },
        {
          "internalType": "string",
          "name": "nro_lote",
          "type": "string"
        },
        {
          "internalType": "uint256",
          "name": "nro_botellas",
          "type": "uint256"
        },
        {
          "internalType": "bytes32",
          "name": "info",
          "type": "bytes32"
        },
        {
          "internalType": "uint256",
          "name": "i_botella",
          "type": "uint256"
        },
        {
          "internalType": "bytes32",
          "name": "hash_botella",
          "type": "bytes32"
        },
        {
          "internalType": "bool",
          "name": "aprobado",
          "type": "bool"
        },
        {
          "internalType": "uint256",
          "name": "createdAt",
          "type": "uint256"
        }
      ],
      "stateMutability": "view",
      "type": "function",
      "constant": true
    },
    {
      "inputs": [
        {
          "internalType": "uint256",
          "name": "_hash_anterior",
          "type": "uint256"
        },
        {
          "internalType": "string",
          "name": "_nro_lote",
          "type": "string"
        },
        {
          "internalType": "uint256",
          "name": "_nro_botellas",
          "type": "uint256"
        }
      ],
      "name": "crear",
      "outputs": [],
      "stateMutability": "nonpayable",
      "type": "function"
    },
    {
      "inputs": [
        {
          "internalType": "uint256",
          "name": "_id",
          "type": "uint256"
        }
      ],
      "name": "encontrar",
      "outputs": [
        {
          "components": [
            {
              "internalType": "uint256",
              "name": "hash_anterior",
              "type": "uint256"
            },
            {
              "internalType": "string",
              "name": "nro_lote",
              "type": "string"
            },
            {
              "internalType": "uint256",
              "name": "nro_botellas",
              "type": "uint256"
            },
            {
              "internalType": "bytes32[]",
              "name": "botellas",
              "type": "bytes32[]"
            },
            {
              "internalType": "bytes32",
              "name": "info",
              "type": "bytes32"
            },
            {
              "internalType": "uint256",
              "name": "i_botella",
              "type": "uint256"
            },
            {
              "internalType": "bytes32",
              "name": "hash_botella",
              "type": "bytes32"
            },
            {
              "internalType": "bool",
              "name": "aprobado",
              "type": "bool"
            },
            {
              "internalType": "uint256",
              "name": "createdAt",
              "type": "uint256"
            }
          ],
          "internalType": "struct EnvasadoContract.Model",
          "name": "",
          "type": "tuple"
        }
      ],
      "stateMutability": "view",
      "type": "function",
      "constant": true
    },
    {
      "inputs": [
        {
          "internalType": "uint256",
          "name": "_id",
          "type": "uint256"
        },
        {
          "internalType": "string",
          "name": "_nro_lote",
          "type": "string"
        },
        {
          "internalType": "uint256",
          "name": "_nro_botellas",
          "type": "uint256"
        }
      ],
      "name": "editar",
      "outputs": [],
      "stateMutability": "nonpayable",
      "type": "function"
    },
    {
      "inputs": [
        {
          "internalType": "bytes32",
          "name": "_hash",
          "type": "bytes32"
        }
      ],
      "name": "encontrarBotella",
      "outputs": [
        {
          "components": [
            {
              "internalType": "uint256",
              "name": "hash_anterior",
              "type": "uint256"
            },
            {
              "internalType": "string",
              "name": "nro_lote",
              "type": "string"
            },
            {
              "internalType": "uint256",
              "name": "nro_botellas",
              "type": "uint256"
            },
            {
              "internalType": "bytes32[]",
              "name": "botellas",
              "type": "bytes32[]"
            },
            {
              "internalType": "bytes32",
              "name": "info",
              "type": "bytes32"
            },
            {
              "internalType": "uint256",
              "name": "i_botella",
              "type": "uint256"
            },
            {
              "internalType": "bytes32",
              "name": "hash_botella",
              "type": "bytes32"
            },
            {
              "internalType": "bool",
              "name": "aprobado",
              "type": "bool"
            },
            {
              "internalType": "uint256",
              "name": "createdAt",
              "type": "uint256"
            }
          ],
          "internalType": "struct EnvasadoContract.Model",
          "name": "",
          "type": "tuple"
        }
      ],
      "stateMutability": "view",
      "type": "function",
      "constant": true
    },
    {
      "inputs": [
        {
          "internalType": "uint256",
          "name": "_id",
          "type": "uint256"
        },
        {
          "internalType": "string",
          "name": "_info",
          "type": "string"
        }
      ],
      "name": "aprobarProceso",
      "outputs": [],
      "stateMutability": "nonpayable",
      "type": "function"
    }
  ],
  "bytecode": "0x608060405234801561001057600080fd5b506111ce806100206000396000f3fe608060405234801561001057600080fd5b506004361061007d5760003560e01c8063896111141161005b57806389611114146100e55780639982d137146100fa578063a3a0eedf1461010d578063aedb974b1461012057600080fd5b806331caa9e1146100825780638155d81d146100b257806385d3a43a146100d2575b600080fd5b610095610090366004610dc4565b61014e565b6040516100a9989796959493929190610e46565b60405180910390f35b6100c56100c0366004610e95565b610225565b6040516100a99190610ee9565b6100c56100e0366004610e95565b61046d565b6100f86100f3366004611023565b6105d2565b005b6100f861010836600461106a565b6108f7565b6100f861011b36600461106a565b610a3d565b61014061012e3660046110ba565b60016020526000908152604090205481565b6040519081526020016100a9565b600060208181529281526040808220909352908152208054600182018054919291610178906110dc565b80601f01602080910402602001604051908101604052809291908181526020018280546101a4906110dc565b80156101f15780601f106101c6576101008083540402835291602001916101f1565b820191906000526020600020905b8154815290600101906020018083116101d457829003601f168201915b50505060028401546004850154600586015460068701546007880154600890980154969793969295509093509160ff169088565b61022d610c81565b60005b336000908152600160205260409020548110156104205733600090815260208181526040808320848452825280832081516101208101909252805482526001810180549293919291840191610284906110dc565b80601f01602080910402602001604051908101604052809291908181526020018280546102b0906110dc565b80156102fd5780601f106102d2576101008083540402835291602001916102fd565b820191906000526020600020905b8154815290600101906020018083116102e057829003601f168201915b50505050508152602001600282015481526020016003820180548060200260200160405190810160405280929190818152602001828054801561035f57602002820191906000526020600020905b81548152602001906001019080831161034b575b5050509183525050600482015460208201526005820154604082015260068201546060820152600782015460ff161515608082015260089091015460a090910152905060005b816040015181101561040b576000826060015182815181106103c9576103c9611117565b60200260200101519050858114156103f8576103e6826001611143565b60a084015260c0830152509392505050565b50806104038161115b565b9150506103a5565b505080806104189061115b565b915050610230565b5060405162461bcd60e51b815260206004820152601d60248201527f4861736820646520626f74656c6c61206e6f20656e636f6e7472616461000000604482015260640160405180910390fd5b610475610c81565b33600090815260208181526040808320858452825291829020825161012081019093528054835260018101805491928401916104b0906110dc565b80601f01602080910402602001604051908101604052809291908181526020018280546104dc906110dc565b80156105295780601f106104fe57610100808354040283529160200191610529565b820191906000526020600020905b81548152906001019060200180831161050c57829003601f168201915b50505050508152602001600282015481526020016003820180548060200260200160405190810160405280929190818152602001828054801561058b57602002820191906000526020600020905b815481526020019060010190808311610577575b5050509183525050600482015460208201526005820154604082015260068201546060820152600782015460ff161515608082015260089091015460a09091015292915050565b3360009081526020818152604080832085845282528083208151610120810190925280548252600181018054929391929184019161060f906110dc565b80601f016020809104026020016040519081016040528092919081815260200182805461063b906110dc565b80156106885780601f1061065d57610100808354040283529160200191610688565b820191906000526020600020905b81548152906001019060200180831161066b57829003601f168201915b5050505050815260200160028201548152602001600382018054806020026020016040519081016040528092919081815260200182805480156106ea57602002820191906000526020600020905b8154815260200190600101908083116106d6575b505050918352505060048201546020820152600582015460408083019190915260068301546060830152600783015460ff161515608083015260089092015460a09091015281015190915060009067ffffffffffffffff81111561075057610750610f80565b604051908082528060200260200182016040528015610779578160200160208202803683370190505b50905060005b82604001518110156107e357838160405160200161079e929190611176565b604051602081830303815290604052805190602001208282815181106107c6576107c6611117565b6020908102919091010152806107db8161115b565b91505061077f565b50600160e0830152606082018190526040516108059084908690602001611176565b60408051601f1981840301815291815281516020928301206080850152336000908152808352818120878252835220835181558382015180518593610851926001850192910190610cd5565b506040820151600282015560608201518051610877916003840191602090910190610d59565b506080820151600482015560a0820151600582015560c0820151600682015560e082015160078201805460ff19169115159190911790556101009091015160089091015581516040519081527f1ee8913b1e0c76a71150bbb92d8921b2c975601c8c9991b8ef86a1b389672774906020015b60405180910390a150505050565b60408051610120810182528481526020808201858152828401859052606083810181905260006080850181905260a0850181905260c0850181905260e08501819052426101008601523381528084528581208982528452948520845181559151805191959485948594919391926109779260018501929190910190610cd5565b50604082015160028201556060820151805161099d916003840191602090910190610d59565b506080820151600482015560a0820151600582015560c0820151600682015560e082015160078201805460ff1916911515919091179055610100909101516008909101556040518781527f1ee8913b1e0c76a71150bbb92d8921b2c975601c8c9991b8ef86a1b3896727749060200160405180910390a1336000908152600160205260408120805491610a2f8361115b565b919050555050505050505050565b33600090815260208181526040808320868452825280832081516101208101909252805482526001810180549293919291840191610a7a906110dc565b80601f0160208091040260200160405190810160405280929190818152602001828054610aa6906110dc565b8015610af35780601f10610ac857610100808354040283529160200191610af3565b820191906000526020600020905b815481529060010190602001808311610ad657829003601f168201915b505050505081526020016002820154815260200160038201805480602002602001604051908101604052809291908181526020018280548015610b5557602002820191906000526020600020905b815481526020019060010190808311610b41575b5050509183525050600482015460208201526005820154604082015260068201546060820152600782015460ff161515608082015260089091015460a09091015260e0810151909150610c7b576020808201848152604080840185905233600090815280845281812088825284522083518155905180518493610bdf926001850192910190610cd5565b506040820151600282015560608201518051610c05916003840191602090910190610d59565b506080820151600482015560a0820151600582015560c0820151600682015560e082015160078201805460ff19169115159190911790556101009091015160089091015580516040519081527f1ee8913b1e0c76a71150bbb92d8921b2c975601c8c9991b8ef86a1b389672774906020016108e9565b50505050565b60405180610120016040528060008152602001606081526020016000815260200160608152602001600080191681526020016000815260200160008019168152602001600015158152602001600081525090565b828054610ce1906110dc565b90600052602060002090601f016020900481019282610d035760008555610d49565b82601f10610d1c57805160ff1916838001178555610d49565b82800160010185558215610d49579182015b82811115610d49578251825591602001919060010190610d2e565b50610d55929150610d93565b5090565b828054828255906000526020600020908101928215610d495791602002820182811115610d49578251825591602001919060010190610d2e565b5b80821115610d555760008155600101610d94565b80356001600160a01b0381168114610dbf57600080fd5b919050565b60008060408385031215610dd757600080fd5b610de083610da8565b946020939093013593505050565b60005b83811015610e09578181015183820152602001610df1565b83811115610c7b5750506000910152565b60008151808452610e32816020860160208601610dee565b601f01601f19169290920160200192915050565b60006101008a8352806020840152610e608184018b610e1a565b604084019990995250506060810195909552608085019390935260a0840191909152151560c083015260e09091015292915050565b600060208284031215610ea757600080fd5b5035919050565b600081518084526020808501945080840160005b83811015610ede57815187529582019590820190600101610ec2565b509495945050505050565b602081528151602082015260006020830151610120806040850152610f12610140850183610e1a565b9150604085015160608501526060850151601f19858403016080860152610f398382610eae565b925050608085015160a085015260a085015160c085015260c085015160e085015260e0850151610100610f6f8187018315159052565b959095015193019290925250919050565b634e487b7160e01b600052604160045260246000fd5b600082601f830112610fa757600080fd5b813567ffffffffffffffff80821115610fc257610fc2610f80565b604051601f8301601f19908116603f01168101908282118183101715610fea57610fea610f80565b8160405283815286602085880101111561100357600080fd5b836020870160208301376000602085830101528094505050505092915050565b6000806040838503121561103657600080fd5b82359150602083013567ffffffffffffffff81111561105457600080fd5b61106085828601610f96565b9150509250929050565b60008060006060848603121561107f57600080fd5b83359250602084013567ffffffffffffffff81111561109d57600080fd5b6110a986828701610f96565b925050604084013590509250925092565b6000602082840312156110cc57600080fd5b6110d582610da8565b9392505050565b600181811c908216806110f057607f821691505b6020821081141561111157634e487b7160e01b600052602260045260246000fd5b50919050565b634e487b7160e01b600052603260045260246000fd5b634e487b7160e01b600052601160045260246000fd5b600082198211156111565761115661112d565b500190565b600060001982141561116f5761116f61112d565b5060010190565b60008351611188818460208801610dee565b919091019182525060200191905056fea2646970667358221220a589c670e800e68510847cc238d3597789d49247c48df1dd76329d8f5f54f82e64736f6c634300080b0033",
  "immutableReferences": {},
  "source": "// SPDX-License-Identifier: MIT\r\npragma solidity ^0.8.11;\r\n\r\ncontract EnvasadoContract {\r\n    struct Model {\r\n        uint256 hash_anterior;\r\n        string nro_lote;\r\n        uint256 nro_botellas;\r\n        bytes32[] botellas;\r\n        bytes32 info;\r\n        uint256 i_botella;\r\n        bytes32 hash_botella;\r\n        bool aprobado;\r\n        uint256 createdAt;\r\n    }\r\n\r\n    event Id(uint256 id);\r\n    mapping(address => mapping(uint256 => Model)) public lista;\r\n    mapping(address => uint256) public contador;\r\n\r\n    function crear(\r\n        uint256 _hash_anterior,\r\n        string memory _nro_lote,\r\n        uint256 _nro_botellas\r\n    ) public {\r\n        bytes32[] memory _botellas;\r\n        bytes32 _info;\r\n        uint256 _i_botella;\r\n        bytes32 _hash_botella;\r\n        lista[msg.sender][_hash_anterior] = Model(\r\n            _hash_anterior,\r\n            _nro_lote,\r\n            _nro_botellas,\r\n            _botellas,\r\n            _info,\r\n            _i_botella,\r\n            _hash_botella,\r\n            false,\r\n            block.timestamp\r\n        );\r\n        emit Id(_hash_anterior);\r\n        contador[msg.sender]++;\r\n    }\r\n\r\n    function encontrar(uint256 _id) public view returns (Model memory) {\r\n        return lista[msg.sender][_id];\r\n    }\r\n\r\n    function editar(\r\n        uint256 _id,\r\n        string memory _nro_lote,\r\n        uint256 _nro_botellas\r\n    ) public {\r\n        Model memory _item = lista[msg.sender][_id];\r\n        if (_item.aprobado == false) {\r\n            _item.nro_lote = _nro_lote;\r\n            _item.nro_botellas = _nro_botellas;\r\n            lista[msg.sender][_id] = _item;\r\n            emit Id(_item.hash_anterior);\r\n        }\r\n    }\r\n\r\n    function encontrarBotella(bytes32 _hash)\r\n        public\r\n        view\r\n        returns (Model memory)\r\n    {\r\n        for (uint256 i = 0; i < contador[msg.sender]; i++) {\r\n            Model memory _item = lista[msg.sender][i];\r\n            for (uint256 j = 0; j < _item.nro_botellas; j++) {\r\n                bytes32 _hash_botella = _item.botellas[j];\r\n                if (_hash_botella == _hash) {\r\n                    _item.i_botella = j + 1;\r\n                    _item.hash_botella = _hash_botella;\r\n                    return _item;\r\n                }\r\n            }\r\n        }\r\n        revert(\"Hash de botella no encontrada\");\r\n    }\r\n\r\n    function aprobarProceso(uint256 _id, string memory _info) public {\r\n        Model memory _item = lista[msg.sender][_id];\r\n        bytes32[] memory _botellas = new bytes32[](_item.nro_botellas);\r\n        for (uint256 index = 0; index < _item.nro_botellas; index++) {\r\n            _botellas[index] = keccak256(abi.encodePacked(_info, index));\r\n        }\r\n        _item.aprobado = true;\r\n        _item.botellas = _botellas;\r\n        _item.info = keccak256(abi.encodePacked(_info, _id));\r\n        lista[msg.sender][_id] = _item;\r\n        emit Id(_item.hash_anterior);\r\n    }\r\n}\r\n",
  "sourcePath": "E:\\UNL\\CICLO X\\vinos-blockchain\\contracts\\7EnvasadoContract.sol",
  "compiler": {
    "name": "solc",
    "version": "0.8.11+commit.d7f03943.Emscripten.clang"
  },
  "schemaVersion": "3.4.4",
  "updatedAt": "2022-06-28T20:25:17.468Z",
  "networkType": "ethereum",
  "devdoc": {
    "kind": "dev",
    "methods": {},
    "version": 1
  },
  "userdoc": {
    "kind": "user",
    "methods": {},
    "version": 1
  }
}