{
  "contractName": "EnvasadoContract",
  "abi": [
    {
      "anonymous": false,
      "inputs": [
        {
          "indexed": false,
          "internalType": "uint256",
          "name": "id",
          "type": "uint256"
        }
      ],
      "name": "Id",
      "type": "event"
    },
    {
      "inputs": [],
      "name": "contador",
      "outputs": [
        {
          "internalType": "uint256",
          "name": "",
          "type": "uint256"
        }
      ],
      "stateMutability": "view",
      "type": "function",
      "constant": true
    },
    {
      "inputs": [
        {
          "internalType": "uint256",
          "name": "",
          "type": "uint256"
        }
      ],
      "name": "lista",
      "outputs": [
        {
          "internalType": "uint256",
          "name": "hash_anterior",
          "type": "uint256"
        },
        {
          "internalType": "string",
          "name": "nro_lote",
          "type": "string"
        },
        {
          "internalType": "uint256",
          "name": "nro_botellas",
          "type": "uint256"
        },
        {
          "internalType": "bool",
          "name": "aprobado",
          "type": "bool"
        },
        {
          "internalType": "uint256",
          "name": "createdAt",
          "type": "uint256"
        }
      ],
      "stateMutability": "view",
      "type": "function",
      "constant": true
    },
    {
      "inputs": [
        {
          "internalType": "uint256",
          "name": "_hash_anterior",
          "type": "uint256"
        },
        {
          "internalType": "string",
          "name": "_nro_lote",
          "type": "string"
        },
        {
          "internalType": "uint256",
          "name": "_nro_botellas",
          "type": "uint256"
        }
      ],
      "name": "crear",
      "outputs": [],
      "stateMutability": "nonpayable",
      "type": "function"
    },
    {
      "inputs": [
        {
          "internalType": "uint256",
          "name": "_id",
          "type": "uint256"
        },
        {
          "internalType": "string",
          "name": "_nro_lote",
          "type": "string"
        },
        {
          "internalType": "uint256",
          "name": "_nro_botellas",
          "type": "uint256"
        }
      ],
      "name": "editar",
      "outputs": [],
      "stateMutability": "nonpayable",
      "type": "function"
    },
    {
      "inputs": [
        {
          "internalType": "bytes32",
          "name": "_hash",
          "type": "bytes32"
        }
      ],
      "name": "encontrarBotella",
      "outputs": [
        {
          "components": [
            {
              "internalType": "uint256",
              "name": "nro_botella",
              "type": "uint256"
            },
            {
              "internalType": "uint256",
              "name": "hash_anterior",
              "type": "uint256"
            },
            {
              "internalType": "bytes32",
              "name": "hash_botella",
              "type": "bytes32"
            },
            {
              "internalType": "uint256[]",
              "name": "estados",
              "type": "uint256[]"
            },
            {
              "internalType": "uint256[]",
              "name": "fecha_estados",
              "type": "uint256[]"
            },
            {
              "internalType": "uint256",
              "name": "createdAt",
              "type": "uint256"
            }
          ],
          "internalType": "struct EnvasadoContract.Botella",
          "name": "",
          "type": "tuple"
        }
      ],
      "stateMutability": "view",
      "type": "function",
      "constant": true
    },
    {
      "inputs": [
        {
          "internalType": "uint256",
          "name": "_id",
          "type": "uint256"
        },
        {
          "internalType": "uint256",
          "name": "_index",
          "type": "uint256"
        },
        {
          "internalType": "uint256",
          "name": "_estado",
          "type": "uint256"
        }
      ],
      "name": "cambiarEstadoBotella",
      "outputs": [],
      "stateMutability": "nonpayable",
      "type": "function"
    },
    {
      "inputs": [
        {
          "internalType": "uint256",
          "name": "_id",
          "type": "uint256"
        }
      ],
      "name": "aprobarProceso",
      "outputs": [],
      "stateMutability": "nonpayable",
      "type": "function"
    }
  ],
  "bytecode": "0x608060405234801561001057600080fd5b50610c49806100206000396000f3fe608060405234801561001057600080fd5b506004361061007d5760003560e01c80638155d81d1161005b5780638155d81d146100db5780639982d137146100fb578063a3a0eedf1461010e578063b693c6f81461012157600080fd5b80630cc76c141461008257806353d27cc2146100af5780637a00b8a9146100c6575b600080fd5b610095610090366004610915565b610134565b6040516100a695949392919061092e565b60405180910390f35b6100b860015481565b6040519081526020016100a6565b6100d96100d4366004610915565b6101f1565b005b6100ee6100e9366004610915565b610483565b6040516100a691906109e5565b6100d9610109366004610a69565b6106c2565b6100d961011c366004610a69565b610733565b6100d961012f366004610b2d565b610795565b6000602081905290815260409020805460018201805491929161015690610b59565b80601f016020809104026020016040519081016040528092919081815260200182805461018290610b59565b80156101cf5780601f106101a4576101008083540402835291602001916101cf565b820191906000526020600020905b8154815290600101906020018083116101b257829003601f168201915b50505050600283015460048401546005909401549293909260ff909116915085565b600081815260208190526040812060048101805460ff19166001179055905b816002015481101561045b57600083815260208181526040808320600301909152812080548390811061024557610245610b94565b90600052602060002090600602016040518060c0016040529081600082015481526020016001820154815260200160028201548152602001600382018054806020026020016040519081016040528092919081815260200182805480156102cb57602002820191906000526020600020905b8154815260200190600101908083116102b7575b505050505081526020016004820180548060200260200160405190810160405280929190818152602001828054801561032357602002820191906000526020600020905b81548152602001906001019080831161030f575b5050505050815260200160058201548152505090508160016103459190610bc0565b815260208082018590526040805191820184905201604051602081830303815290604052805190602001208160400181815250506000816060015160008151811061039257610392610b94565b6020026020010181815250504281608001516000815181106103b6576103b6610b94565b6020908102919091018101919091524260a083015260008381526003808601835260408083208054600181810183559185529385902086516006909502019384558585015190840155840151600283015560608401518051859461041e938501920190610842565b506080820151805161043a916004840191602090910190610842565b5060a08201518160050155505050808061045390610bd8565b915050610210565b508054604051908152600080516020610bf48339815191529060200160405180910390a15050565b6104bf6040518060c001604052806000815260200160008152602001600080191681526020016060815260200160608152602001600081525090565b60005b60015481101561067557600081815260208181526040808320600301825280832080548251818502810185019093528083529192909190849084015b8282101561060857838290600052602060002090600602016040518060c00160405290816000820154815260200160018201548152602001600282015481526020016003820180548060200260200160405190810160405280929190818152602001828054801561058e57602002820191906000526020600020905b81548152602001906001019080831161057a575b50505050508152602001600482018054806020026020016040519081016040528092919081815260200182805480156105e657602002820191906000526020600020905b8154815260200190600101908083116105d2575b50505050508152602001600582015481525050815260200190600101906104fe565b50505050905060005b815181101561066057600082828151811061062e5761062e610b94565b60200260200101519050858160400151141561064d5795945050505050565b508061065881610bd8565b915050610611565b5050808061066d90610bd8565b9150506104c2565b5060405162461bcd60e51b815260206004820152601d60248201527f4861736820646520626f74656c6c61206e6f20656e636f6e7472616461000000604482015260640160405180910390fd5b600083815260208181526040909120848155835190916106e991600184019186019061088d565b5060028101829055426005820155604051848152600080516020610bf48339815191529060200160405180910390a16001805490600061072883610bd8565b919050555050505050565b6000838152602081905260409020600481015460ff1661078f578251610762906001830190602086019061088d565b50600281018290558054604051908152600080516020610bf4833981519152906020015b60405180910390a15b50505050565b600083815260208181526040808320600301909152902080548190849081106107c0576107c0610b94565b60009182526020808320600360069093020191909101805460018101825590835291200182905580548190849081106107fb576107fb610b94565b600091825260208083206004600690930201919091018054600181018255908352912042910155604051600080516020610bf4833981519152906107869086815260200190565b82805482825590600052602060002090810192821561087d579160200282015b8281111561087d578251825591602001919060010190610862565b50610889929150610900565b5090565b82805461089990610b59565b90600052602060002090601f0160209004810192826108bb576000855561087d565b82601f106108d457805160ff191683800117855561087d565b8280016001018555821561087d579182018281111561087d578251825591602001919060010190610862565b5b808211156108895760008155600101610901565b60006020828403121561092757600080fd5b5035919050565b8581526000602060a08184015286518060a085015260005b818110156109625788810183015185820160c001528201610946565b8181111561097457600060c083870101525b5060408401879052601f01601f1916830160c001915061099a9050606083018515159052565b8260808301529695505050505050565b600081518084526020808501945080840160005b838110156109da578151875295820195908201906001016109be565b509495945050505050565b602081528151602082015260208201516040820152604082015160608201526000606083015160c06080840152610a1f60e08401826109aa565b90506080840151601f198483030160a0850152610a3c82826109aa565b91505060a084015160c08401528091505092915050565b634e487b7160e01b600052604160045260246000fd5b600080600060608486031215610a7e57600080fd5b83359250602084013567ffffffffffffffff80821115610a9d57600080fd5b818601915086601f830112610ab157600080fd5b813581811115610ac357610ac3610a53565b604051601f8201601f19908116603f01168101908382118183101715610aeb57610aeb610a53565b81604052828152896020848701011115610b0457600080fd5b826020860160208301376000602084830101528096505050505050604084013590509250925092565b600080600060608486031215610b4257600080fd5b505081359360208301359350604090920135919050565b600181811c90821680610b6d57607f821691505b60208210811415610b8e57634e487b7160e01b600052602260045260246000fd5b50919050565b634e487b7160e01b600052603260045260246000fd5b634e487b7160e01b600052601160045260246000fd5b60008219821115610bd357610bd3610baa565b500190565b6000600019821415610bec57610bec610baa565b506001019056fe1ee8913b1e0c76a71150bbb92d8921b2c975601c8c9991b8ef86a1b389672774a2646970667358221220a37f1b2ae9751ee091f864e828d4986fd5867ec6b83e43d1fdfc1604eda8259f64736f6c634300080b0033",
  "immutableReferences": {},
  "source": "// SPDX-License-Identifier: MIT\r\npragma solidity ^0.8.11;\r\n\r\ncontract EnvasadoContract {\r\n    struct Botella {\r\n        uint256 nro_botella;\r\n        uint256 hash_anterior;\r\n        bytes32 hash_botella;\r\n        uint256[] estados;\r\n        uint256[] fecha_estados;\r\n        uint256 createdAt;\r\n    }\r\n\r\n    struct Model {\r\n        uint256 hash_anterior;\r\n        string nro_lote;\r\n        uint256 nro_botellas;\r\n        mapping(uint256 => Botella[]) botellas;\r\n        bool aprobado;\r\n        uint256 createdAt;\r\n    }\r\n\r\n    event Id(uint256 id);\r\n    mapping(uint256 => Model) public lista;\r\n    uint256 public contador;\r\n\r\n    function crear(\r\n        uint256 _hash_anterior,\r\n        string memory _nro_lote,\r\n        uint256 _nro_botellas\r\n    ) public {\r\n        Model storage _item = lista[_hash_anterior];\r\n        _item.hash_anterior = _hash_anterior;\r\n        _item.nro_lote = _nro_lote;\r\n        _item.nro_botellas = _nro_botellas;\r\n        _item.createdAt = block.timestamp;\r\n        emit Id(_hash_anterior);\r\n        contador++;\r\n    }\r\n\r\n    function editar(\r\n        uint256 _id,\r\n        string memory _nro_lote,\r\n        uint256 _nro_botellas\r\n    ) public {\r\n        Model storage _item = lista[_id];\r\n        if (_item.aprobado == false) {\r\n            _item.nro_lote = _nro_lote;\r\n            _item.nro_botellas = _nro_botellas;\r\n            emit Id(_item.hash_anterior);\r\n        }\r\n    }\r\n\r\n    function encontrarBotella(bytes32 _hash)\r\n        public\r\n        view\r\n        returns (Botella memory)\r\n    {\r\n        for (uint256 i = 0; i < contador; i++) {\r\n            Botella[] memory _botellas = lista[i].botellas[i];\r\n            for (uint256 j = 0; j < _botellas.length; j++) {\r\n                Botella memory _botella = _botellas[j];\r\n                if (_botella.hash_botella == _hash) {\r\n                    return _botella;\r\n                }\r\n            }\r\n        }\r\n        revert(\"Hash de botella no encontrada\");\r\n    }\r\n\r\n    function cambiarEstadoBotella(\r\n        uint256 _id,\r\n        uint256 _index,\r\n        uint256 _estado\r\n    ) public {\r\n        Botella[] storage _botellas = lista[_id].botellas[_id];\r\n        _botellas[_index].estados.push(_estado);\r\n        _botellas[_index].fecha_estados.push(block.timestamp);\r\n        emit Id(_id);\r\n    }\r\n\r\n    function aprobarProceso(uint256 _id) public {\r\n        Model storage _item = lista[_id];\r\n        _item.aprobado = true;\r\n        for (uint256 index = 0; index < _item.nro_botellas; index++) {\r\n            Botella memory _botella = lista[_id].botellas[_id][index];\r\n            _botella.nro_botella = index + 1;\r\n            _botella.hash_anterior = _id;\r\n            _botella.hash_botella = keccak256(abi.encodePacked(index));\r\n            _botella.estados[0] = 0;\r\n            _botella.fecha_estados[0] = block.timestamp;\r\n            _botella.createdAt = block.timestamp;\r\n            _item.botellas[index].push(_botella);\r\n        }\r\n        emit Id(_item.hash_anterior);\r\n    }\r\n}\r\n",
  "sourcePath": "E:\\UNL\\CICLO X\\vinos-blockchain\\contracts\\procesos\\7EnvasadoContract.sol",
  "compiler": {
    "name": "solc",
    "version": "0.8.11+commit.d7f03943.Emscripten.clang"
  },
  "schemaVersion": "3.4.4",
  "updatedAt": "2022-06-29T23:27:57.954Z",
  "networkType": "ethereum",
  "devdoc": {
    "kind": "dev",
    "methods": {},
    "version": 1
  },
  "userdoc": {
    "kind": "user",
    "methods": {},
    "version": 1
  }
}