{
  "contractName": "EnvasadoContract",
  "abi": [
    {
      "inputs": [
        {
          "internalType": "address",
          "name": "",
          "type": "address"
        }
      ],
      "name": "contador",
      "outputs": [
        {
          "internalType": "uint256",
          "name": "",
          "type": "uint256"
        }
      ],
      "stateMutability": "view",
      "type": "function",
      "constant": true
    },
    {
      "inputs": [
        {
          "internalType": "address",
          "name": "",
          "type": "address"
        },
        {
          "internalType": "uint256",
          "name": "",
          "type": "uint256"
        }
      ],
      "name": "lista",
      "outputs": [
        {
          "internalType": "uint256",
          "name": "id",
          "type": "uint256"
        },
        {
          "internalType": "uint256",
          "name": "nro_lote",
          "type": "uint256"
        },
        {
          "internalType": "uint256",
          "name": "nro_botellas",
          "type": "uint256"
        },
        {
          "internalType": "bool",
          "name": "aprobado",
          "type": "bool"
        },
        {
          "internalType": "uint256",
          "name": "createdAt",
          "type": "uint256"
        }
      ],
      "stateMutability": "view",
      "type": "function",
      "constant": true
    },
    {
      "inputs": [
        {
          "internalType": "uint256",
          "name": "_nro_lote",
          "type": "uint256"
        },
        {
          "internalType": "uint256",
          "name": "_nro_botellas",
          "type": "uint256"
        }
      ],
      "name": "crear",
      "outputs": [],
      "stateMutability": "nonpayable",
      "type": "function"
    },
    {
      "inputs": [
        {
          "internalType": "uint256",
          "name": "_id",
          "type": "uint256"
        },
        {
          "internalType": "uint256",
          "name": "_nro_lote",
          "type": "uint256"
        },
        {
          "internalType": "uint256",
          "name": "_nro_botellas",
          "type": "uint256"
        }
      ],
      "name": "actualizar",
      "outputs": [],
      "stateMutability": "nonpayable",
      "type": "function"
    },
    {
      "inputs": [
        {
          "internalType": "uint256",
          "name": "_id",
          "type": "uint256"
        }
      ],
      "name": "aprobarProceso",
      "outputs": [],
      "stateMutability": "nonpayable",
      "type": "function"
    }
  ],
  "bytecode": "0x608060405234801561001057600080fd5b5061043e806100206000396000f3fe608060405234801561001057600080fd5b50600436106100575760003560e01c806331caa9e11461005c5780635316b318146100d35780637a00b8a9146100e8578063aedb974b14610178578063de9a9c32146101a6575b600080fd5b6100a461006a36600461032c565b60006020818152928152604080822090935290815220805460018201546002830154600384015460049094015492939192909160ff169085565b6040805195865260208601949094529284019190915215156060830152608082015260a0015b60405180910390f35b6100e66100e1366004610356565b6101b9565b005b6100e66100f6366004610378565b33600090815260208181526040808320848452808352818420825160a081018452815481526001808301805483880190815260028501805497850197885260038601805460048801805460808901908152606089019788529d909c52979099529351909455925190925592519092559051151560ff1990911617905590519055565b610198610186366004610391565b60016020526000908152604090205481565b6040519081526020016100ca565b6100e66101b43660046103b3565b610252565b3360008181526001602081815260408084208054825160a0810184528181528085018a81528185018a81526060830189815242608085019081528b8b528a8952878b20868c528952968a20935184559151838901555160028301555160038201805460ff19169115159190911790559251600490930192909255948452919052825490929091610248836103df565b9190505550505050565b33600090815260208181526040808320868452825291829020825160a08101845281548152600182015492810192909252600281015492820192909252600382015460ff1615156060820181905260049092015460808201529061030a57602081810184815260408084018581523360009081528085528281208982529094529220835181559051600182015590516002820155606082015160038201805460ff191691151591909117905560808201516004909101555b50505050565b80356001600160a01b038116811461032757600080fd5b919050565b6000806040838503121561033f57600080fd5b61034883610310565b946020939093013593505050565b6000806040838503121561036957600080fd5b50508035926020909101359150565b60006020828403121561038a57600080fd5b5035919050565b6000602082840312156103a357600080fd5b6103ac82610310565b9392505050565b6000806000606084860312156103c857600080fd5b505081359360208301359350604090920135919050565b600060001982141561040157634e487b7160e01b600052601160045260246000fd5b506001019056fea264697066735822122075ae167234bc46a83f7c608a8f2fec82fa08421737051918d32847347511bf5364736f6c634300080b0033",
  "immutableReferences": {},
  "source": "// SPDX-License-Identifier: MIT\r\npragma solidity ^0.8.11;\r\n\r\ncontract EnvasadoContract {\r\n    struct Envasado {\r\n        uint256 id;\r\n        uint256 nro_lote;\r\n        uint256 nro_botellas;\r\n        bool aprobado;\r\n        uint256 createdAt;\r\n    }\r\n\r\n    mapping(address => mapping(uint256 => Envasado)) public lista;\r\n    mapping(address => uint256) public contador;\r\n\r\n    function crear(uint256 _nro_lote, uint256 _nro_botellas) public {\r\n        uint256 contador_id = contador[msg.sender];\r\n\r\n        lista[msg.sender][contador_id] = Envasado(\r\n            contador_id,\r\n            _nro_lote,\r\n            _nro_botellas,\r\n            false,\r\n            block.timestamp\r\n        );\r\n        contador[msg.sender]++;\r\n    }\r\n\r\n    function actualizar(\r\n        uint256 _id,\r\n        uint256 _nro_lote,\r\n        uint256 _nro_botellas\r\n    ) public {\r\n        Envasado memory _item = lista[msg.sender][_id];\r\n        if (_item.aprobado == false) {\r\n            _item.nro_lote = _nro_lote;\r\n            _item.nro_botellas = _nro_botellas;\r\n            lista[msg.sender][_id] = _item;\r\n        }\r\n    }\r\n\r\n    function aprobarProceso(uint256 _id) public {\r\n        Envasado memory _item = lista[msg.sender][_id];\r\n        _item.aprobado = true;\r\n        lista[msg.sender][_id] = _item;\r\n    }\r\n}\r\n",
  "sourcePath": "E:\\UNL\\CICLO X\\PTT\\vinos-blockchain\\contracts\\7EnvasadoContract.sol",
  "compiler": {
    "name": "solc",
    "version": "0.8.11+commit.d7f03943.Emscripten.clang"
  },
  "schemaVersion": "3.4.4",
  "updatedAt": "2022-06-20T16:34:47.688Z",
  "networkType": "ethereum",
  "devdoc": {
    "kind": "dev",
    "methods": {},
    "version": 1
  },
  "userdoc": {
    "kind": "user",
    "methods": {},
    "version": 1
  }
}