{
  "contractName": "EnvasadoContract",
  "abi": [
    {
      "anonymous": false,
      "inputs": [
        {
          "indexed": false,
          "internalType": "uint256",
          "name": "id",
          "type": "uint256"
        }
      ],
      "name": "Id",
      "type": "event"
    },
    {
      "inputs": [],
      "name": "contador",
      "outputs": [
        {
          "internalType": "uint256",
          "name": "",
          "type": "uint256"
        }
      ],
      "stateMutability": "view",
      "type": "function",
      "constant": true
    },
    {
      "inputs": [
        {
          "internalType": "uint256",
          "name": "",
          "type": "uint256"
        }
      ],
      "name": "lista",
      "outputs": [
        {
          "internalType": "uint256",
          "name": "hash_anterior",
          "type": "uint256"
        },
        {
          "internalType": "string",
          "name": "nro_lote",
          "type": "string"
        },
        {
          "internalType": "uint256",
          "name": "nro_botellas",
          "type": "uint256"
        },
        {
          "internalType": "bytes32",
          "name": "info",
          "type": "bytes32"
        },
        {
          "internalType": "uint256",
          "name": "i_botella",
          "type": "uint256"
        },
        {
          "internalType": "bytes32",
          "name": "hash_botella",
          "type": "bytes32"
        },
        {
          "internalType": "uint256",
          "name": "estado_botella",
          "type": "uint256"
        },
        {
          "internalType": "bool",
          "name": "aprobado",
          "type": "bool"
        },
        {
          "internalType": "uint256",
          "name": "createdAt",
          "type": "uint256"
        }
      ],
      "stateMutability": "view",
      "type": "function",
      "constant": true
    },
    {
      "inputs": [
        {
          "internalType": "uint256",
          "name": "_hash_anterior",
          "type": "uint256"
        },
        {
          "internalType": "string",
          "name": "_nro_lote",
          "type": "string"
        },
        {
          "internalType": "uint256",
          "name": "_nro_botellas",
          "type": "uint256"
        }
      ],
      "name": "crear",
      "outputs": [],
      "stateMutability": "nonpayable",
      "type": "function"
    },
    {
      "inputs": [
        {
          "internalType": "uint256",
          "name": "_id",
          "type": "uint256"
        }
      ],
      "name": "encontrar",
      "outputs": [
        {
          "components": [
            {
              "internalType": "uint256",
              "name": "hash_anterior",
              "type": "uint256"
            },
            {
              "internalType": "string",
              "name": "nro_lote",
              "type": "string"
            },
            {
              "internalType": "uint256",
              "name": "nro_botellas",
              "type": "uint256"
            },
            {
              "internalType": "bytes32[]",
              "name": "botellas",
              "type": "bytes32[]"
            },
            {
              "internalType": "uint256[]",
              "name": "estado_botellas",
              "type": "uint256[]"
            },
            {
              "internalType": "bytes32",
              "name": "info",
              "type": "bytes32"
            },
            {
              "internalType": "uint256",
              "name": "i_botella",
              "type": "uint256"
            },
            {
              "internalType": "bytes32",
              "name": "hash_botella",
              "type": "bytes32"
            },
            {
              "internalType": "uint256",
              "name": "estado_botella",
              "type": "uint256"
            },
            {
              "internalType": "bool",
              "name": "aprobado",
              "type": "bool"
            },
            {
              "internalType": "uint256",
              "name": "createdAt",
              "type": "uint256"
            }
          ],
          "internalType": "struct EnvasadoContract.Model",
          "name": "",
          "type": "tuple"
        }
      ],
      "stateMutability": "view",
      "type": "function",
      "constant": true
    },
    {
      "inputs": [
        {
          "internalType": "uint256",
          "name": "_id",
          "type": "uint256"
        },
        {
          "internalType": "string",
          "name": "_nro_lote",
          "type": "string"
        },
        {
          "internalType": "uint256",
          "name": "_nro_botellas",
          "type": "uint256"
        }
      ],
      "name": "editar",
      "outputs": [],
      "stateMutability": "nonpayable",
      "type": "function"
    },
    {
      "inputs": [
        {
          "internalType": "bytes32",
          "name": "_hash",
          "type": "bytes32"
        }
      ],
      "name": "encontrarBotella",
      "outputs": [
        {
          "components": [
            {
              "internalType": "uint256",
              "name": "hash_anterior",
              "type": "uint256"
            },
            {
              "internalType": "string",
              "name": "nro_lote",
              "type": "string"
            },
            {
              "internalType": "uint256",
              "name": "nro_botellas",
              "type": "uint256"
            },
            {
              "internalType": "bytes32[]",
              "name": "botellas",
              "type": "bytes32[]"
            },
            {
              "internalType": "uint256[]",
              "name": "estado_botellas",
              "type": "uint256[]"
            },
            {
              "internalType": "bytes32",
              "name": "info",
              "type": "bytes32"
            },
            {
              "internalType": "uint256",
              "name": "i_botella",
              "type": "uint256"
            },
            {
              "internalType": "bytes32",
              "name": "hash_botella",
              "type": "bytes32"
            },
            {
              "internalType": "uint256",
              "name": "estado_botella",
              "type": "uint256"
            },
            {
              "internalType": "bool",
              "name": "aprobado",
              "type": "bool"
            },
            {
              "internalType": "uint256",
              "name": "createdAt",
              "type": "uint256"
            }
          ],
          "internalType": "struct EnvasadoContract.Model",
          "name": "",
          "type": "tuple"
        }
      ],
      "stateMutability": "view",
      "type": "function",
      "constant": true
    },
    {
      "inputs": [
        {
          "internalType": "uint256",
          "name": "_id",
          "type": "uint256"
        },
        {
          "internalType": "uint256",
          "name": "_index",
          "type": "uint256"
        },
        {
          "internalType": "uint256",
          "name": "_estado",
          "type": "uint256"
        }
      ],
      "name": "cambiarEstadoBotella",
      "outputs": [],
      "stateMutability": "nonpayable",
      "type": "function"
    },
    {
      "inputs": [
        {
          "internalType": "uint256",
          "name": "_id",
          "type": "uint256"
        },
        {
          "internalType": "string",
          "name": "_info",
          "type": "string"
        }
      ],
      "name": "aprobarProceso",
      "outputs": [],
      "stateMutability": "nonpayable",
      "type": "function"
    }
  ],
  "bytecode": "0x608060405234801561001057600080fd5b5061166a806100206000396000f3fe608060405234801561001057600080fd5b50600436106100885760003560e01c8063896111141161005b57806389611114146101085780639982d1371461011d578063a3a0eedf14610130578063b693c6f81461014357600080fd5b80630cc76c141461008d57806353d27cc2146100be5780638155d81d146100d557806385d3a43a146100f5575b600080fd5b6100a061009b366004611247565b610156565b6040516100b5999897969594939291906112b8565b60405180910390f35b6100c760015481565b6040519081526020016100b5565b6100e86100e3366004611247565b61022d565b6040516100b59190611348565b6100e8610103366004611247565b6104f4565b61011b6101163660046114b5565b6106b2565b005b61011b61012b3660046114fc565b610ac8565b61011b61013e3660046114fc565b610c3d565b61011b61015136600461154c565b610f04565b6000602081905290815260409020805460018201805491929161017890611578565b80601f01602080910402602001604051908101604052809291908181526020018280546101a490611578565b80156101f15780601f106101c6576101008083540402835291602001916101f1565b820191906000526020600020905b8154815290600101906020018083116101d457829003601f168201915b50505050600283015460058401546006850154600786015460088701546009880154600a90980154969794969395509193909260ff9091169089565b610235611112565b60005b6001548110156104a7576000806000838152602001908152602001600020604051806101600160405290816000820154815260200160018201805461027c90611578565b80601f01602080910402602001604051908101604052809291908181526020018280546102a890611578565b80156102f55780601f106102ca576101008083540402835291602001916102f5565b820191906000526020600020905b8154815290600101906020018083116102d857829003601f168201915b50505050508152602001600282015481526020016003820180548060200260200160405190810160405280929190818152602001828054801561035757602002820191906000526020600020905b815481526020019060010190808311610343575b50505050508152602001600482018054806020026020016040519081016040528092919081815260200182805480156103af57602002820191906000526020600020905b81548152602001906001019080831161039b575b505050918352505060058201546020820152600682015460408201526007820154606082015260088201546080820152600982015460ff16151560a0820152600a9091015460c090910152905060005b816040015181101561049257600082606001518281518110610423576104236115b3565b60200260200101519050600083608001518381518110610445576104456115b3565b602002602001015190508682141561047d576104628360016115df565b60c085015260e0840191909152610100830152509392505050565b5050808061048a906115f7565b9150506103ff565b5050808061049f906115f7565b915050610238565b5060405162461bcd60e51b815260206004820152601d60248201527f4861736820646520626f74656c6c61206e6f20656e636f6e7472616461000000604482015260640160405180910390fd5b6104fc611112565b600082815260208181526040918290208251610160810190935280548352600181018054919284019161052e90611578565b80601f016020809104026020016040519081016040528092919081815260200182805461055a90611578565b80156105a75780601f1061057c576101008083540402835291602001916105a7565b820191906000526020600020905b81548152906001019060200180831161058a57829003601f168201915b50505050508152602001600282015481526020016003820180548060200260200160405190810160405280929190818152602001828054801561060957602002820191906000526020600020905b8154815260200190600101908083116105f5575b505050505081526020016004820180548060200260200160405190810160405280929190818152602001828054801561066157602002820191906000526020600020905b81548152602001906001019080831161064d575b505050918352505060058201546020820152600682015460408201526007820154606082015260088201546080820152600982015460ff16151560a0820152600a9091015460c09091015292915050565b600080600084815260200190815260200160002060405180610160016040529081600082015481526020016001820180546106ec90611578565b80601f016020809104026020016040519081016040528092919081815260200182805461071890611578565b80156107655780601f1061073a57610100808354040283529160200191610765565b820191906000526020600020905b81548152906001019060200180831161074857829003601f168201915b5050505050815260200160028201548152602001600382018054806020026020016040519081016040528092919081815260200182805480156107c757602002820191906000526020600020905b8154815260200190600101908083116107b3575b505050505081526020016004820180548060200260200160405190810160405280929190818152602001828054801561081f57602002820191906000526020600020905b81548152602001906001019080831161080b575b50505091835250506005820154602082015260068201546040808301919091526007830154606083015260088301546080830152600983015460ff16151560a0830152600a9092015460c09091015281015190915060009067ffffffffffffffff81111561088f5761088f611412565b6040519080825280602002602001820160405280156108b8578160200160208202803683370190505b5090506000826040015167ffffffffffffffff8111156108da576108da611412565b604051908082528060200260200182016040528015610903578160200160208202803683370190505b50905060005b836040015181101561098d578481604051602001610928929190611612565b60405160208183030381529060405280519060200120838281518110610950576109506115b3565b6020026020010181815250506000828281518110610970576109706115b3565b602090810291909101015280610985816115f7565b915050610909565b50600161012084015260608301829052608083018190526040516109b79085908790602001611612565b60408051601f19818403018152918152815160209283012060a08601526000878152808352208451815584820151805186936109fa926001850192910190611174565b506040820151600282015560608201518051610a209160038401916020909101906111f8565b5060808201518051610a3c9160048401916020909101906111f8565b5060a0820151600582015560c0820151600682015560e08201516007820155610100820151600882015561012082015160098201805460ff191691151591909117905561014090910151600a9091015582516040519081527f1ee8913b1e0c76a71150bbb92d8921b2c975601c8c9991b8ef86a1b3896727749060200160405180910390a15050505050565b6060806000806000806040518061016001604052808a8152602001898152602001888152602001878152602001868152602001858152602001848152602001838152602001828152602001600015158152602001428152506000808b8152602001908152602001600020600082015181600001556020820151816001019080519060200190610b58929190611174565b506040820151600282015560608201518051610b7e9160038401916020909101906111f8565b5060808201518051610b9a9160048401916020909101906111f8565b5060a0820151600582015560c0820151600682015560e08201516007820155610100820151600882015561012082015160098201805460ff191691151591909117905561014090910151600a909101556040518981527f1ee8913b1e0c76a71150bbb92d8921b2c975601c8c9991b8ef86a1b3896727749060200160405180910390a160018054906000610c2d836115f7565b9190505550505050505050505050565b60008060008581526020019081526020016000206040518061016001604052908160008201548152602001600182018054610c7790611578565b80601f0160208091040260200160405190810160405280929190818152602001828054610ca390611578565b8015610cf05780601f10610cc557610100808354040283529160200191610cf0565b820191906000526020600020905b815481529060010190602001808311610cd357829003601f168201915b505050505081526020016002820154815260200160038201805480602002602001604051908101604052809291908181526020018280548015610d5257602002820191906000526020600020905b815481526020019060010190808311610d3e575b5050505050815260200160048201805480602002602001604051908101604052809291908181526020018280548015610daa57602002820191906000526020600020905b815481526020019060010190808311610d96575b505050918352505060058201546020820152600682015460408201526007820154606082015260088201546080820152600982015460ff16151560a0820152600a9091015460c090910152610120810151909150610efe576020808201848152604080840185905260008781528084522083518155905180518493610e36926001850192910190611174565b506040820151600282015560608201518051610e5c9160038401916020909101906111f8565b5060808201518051610e789160048401916020909101906111f8565b5060a0820151600582015560c0820151600682015560e08201516007820155610100820151600882015561012082015160098201805460ff191691151591909117905561014090910151600a9091015580516040519081527f1ee8913b1e0c76a71150bbb92d8921b2c975601c8c9991b8ef86a1b3896727749060200160405180910390a15b50505050565b60008060008581526020019081526020016000206040518061016001604052908160008201548152602001600182018054610f3e90611578565b80601f0160208091040260200160405190810160405280929190818152602001828054610f6a90611578565b8015610fb75780601f10610f8c57610100808354040283529160200191610fb7565b820191906000526020600020905b815481529060010190602001808311610f9a57829003601f168201915b50505050508152602001600282015481526020016003820180548060200260200160405190810160405280929190818152602001828054801561101957602002820191906000526020600020905b815481526020019060010190808311611005575b505050505081526020016004820180548060200260200160405190810160405280929190818152602001828054801561107157602002820191906000526020600020905b81548152602001906001019080831161105d575b50505091835250506005820154602082015260068201546040820152600782015460608201526008820154608080830191909152600983015460ff16151560a0830152600a9092015460c09091015281015180519192508391859081106110da576110da6115b3565b602090810291909101810191909152600085815280825260409020825181558282015180518493610e36926001850192910190611174565b604051806101600160405280600081526020016060815260200160008152602001606081526020016060815260200160008019168152602001600081526020016000801916815260200160008152602001600015158152602001600081525090565b82805461118090611578565b90600052602060002090601f0160209004810192826111a257600085556111e8565b82601f106111bb57805160ff19168380011785556111e8565b828001600101855582156111e8579182015b828111156111e85782518255916020019190600101906111cd565b506111f4929150611232565b5090565b8280548282559060005260206000209081019282156111e857916020028201828111156111e85782518255916020019190600101906111cd565b5b808211156111f45760008155600101611233565b60006020828403121561125957600080fd5b5035919050565b60005b8381101561127b578181015183820152602001611263565b83811115610efe5750506000910152565b600081518084526112a4816020860160208601611260565b601f01601f19169290920160200192915050565b60006101208b83528060208401526112d28184018c61128c565b604084019a909a5250506060810196909652608086019490945260a085019290925260c0840152151560e08301526101009091015292915050565b600081518084526020808501945080840160005b8381101561133d57815187529582019590820190600101611321565b509495945050505050565b60208152815160208201526000602083015161016080604085015261137161018085018361128c565b9150604085015160608501526060850151601f1980868503016080870152611399848361130d565b935060808701519150808685030160a0870152506113b7838261130d565b92505060a085015160c085015260c085015160e085015260e08501516101008181870152808701519150506101208181870152808701519150506101406114018187018315159052565b959095015193019290925250919050565b634e487b7160e01b600052604160045260246000fd5b600082601f83011261143957600080fd5b813567ffffffffffffffff8082111561145457611454611412565b604051601f8301601f19908116603f0116810190828211818310171561147c5761147c611412565b8160405283815286602085880101111561149557600080fd5b836020870160208301376000602085830101528094505050505092915050565b600080604083850312156114c857600080fd5b82359150602083013567ffffffffffffffff8111156114e657600080fd5b6114f285828601611428565b9150509250929050565b60008060006060848603121561151157600080fd5b83359250602084013567ffffffffffffffff81111561152f57600080fd5b61153b86828701611428565b925050604084013590509250925092565b60008060006060848603121561156157600080fd5b505081359360208301359350604090920135919050565b600181811c9082168061158c57607f821691505b602082108114156115ad57634e487b7160e01b600052602260045260246000fd5b50919050565b634e487b7160e01b600052603260045260246000fd5b634e487b7160e01b600052601160045260246000fd5b600082198211156115f2576115f26115c9565b500190565b600060001982141561160b5761160b6115c9565b5060010190565b60008351611624818460208801611260565b919091019182525060200191905056fea264697066735822122068bd59606c347e15409678f9b252349142e3de329a1ef4b90bb0acdb7afd9cef64736f6c634300080b0033",
  "immutableReferences": {},
  "source": "// SPDX-License-Identifier: MIT\r\npragma solidity ^0.8.11;\r\n\r\ncontract EnvasadoContract {\r\n    struct Model {\r\n        uint256 hash_anterior;\r\n        string nro_lote;\r\n        uint256 nro_botellas;\r\n        bytes32[] botellas;\r\n        uint256[] estado_botellas;\r\n        bytes32 info;\r\n        uint256 i_botella;\r\n        bytes32 hash_botella;\r\n        uint256 estado_botella;\r\n        bool aprobado;\r\n        uint256 createdAt;\r\n    }\r\n\r\n    event Id(uint256 id);\r\n    mapping(uint256 => Model) public lista;\r\n    uint256 public contador;\r\n\r\n    function crear(\r\n        uint256 _hash_anterior,\r\n        string memory _nro_lote,\r\n        uint256 _nro_botellas\r\n    ) public {\r\n        bytes32[] memory _botellas;\r\n        uint256[] memory _estado_botellas;\r\n        bytes32 _info;\r\n        uint256 _i_botella;\r\n        bytes32 _hash_botella;\r\n        uint256 _estado_botella;\r\n        lista[_hash_anterior] = Model(\r\n            _hash_anterior,\r\n            _nro_lote,\r\n            _nro_botellas,\r\n            _botellas,\r\n            _estado_botellas,\r\n            _info,\r\n            _i_botella,\r\n            _hash_botella,\r\n            _estado_botella,\r\n            false,\r\n            block.timestamp\r\n        );\r\n        emit Id(_hash_anterior);\r\n        contador++;\r\n    }\r\n\r\n    function encontrar(uint256 _id) public view returns (Model memory) {\r\n        return lista[_id];\r\n    }\r\n\r\n    function editar(\r\n        uint256 _id,\r\n        string memory _nro_lote,\r\n        uint256 _nro_botellas\r\n    ) public {\r\n        Model memory _item = lista[_id];\r\n        if (_item.aprobado == false) {\r\n            _item.nro_lote = _nro_lote;\r\n            _item.nro_botellas = _nro_botellas;\r\n            lista[_id] = _item;\r\n            emit Id(_item.hash_anterior);\r\n        }\r\n    }\r\n\r\n    function encontrarBotella(bytes32 _hash)\r\n        public\r\n        view\r\n        returns (Model memory)\r\n    {\r\n        for (uint256 i = 0; i < contador; i++) {\r\n            Model memory _item = lista[i];\r\n            for (uint256 j = 0; j < _item.nro_botellas; j++) {\r\n                bytes32 _hash_botella = _item.botellas[j];\r\n                uint256 _estado_botella = _item.estado_botellas[j];\r\n                if (_hash_botella == _hash) {\r\n                    _item.i_botella = j + 1;\r\n                    _item.hash_botella = _hash_botella;\r\n                    _item.estado_botella = _estado_botella;\r\n                    return _item;\r\n                }\r\n            }\r\n        }\r\n        revert(\"Hash de botella no encontrada\");\r\n    }\r\n\r\n    function cambiarEstadoBotella(\r\n        uint256 _id,\r\n        uint256 _index,\r\n        uint256 _estado\r\n    ) public {\r\n        Model memory _item = lista[_id];\r\n        _item.estado_botellas[_index] = _estado;\r\n        lista[_id] = _item;\r\n        emit Id(_item.hash_anterior);\r\n    }\r\n\r\n    function aprobarProceso(uint256 _id, string memory _info) public {\r\n        Model memory _item = lista[_id];\r\n        bytes32[] memory _botellas = new bytes32[](_item.nro_botellas);\r\n        uint256[] memory _estado_botellas = new uint256[](_item.nro_botellas);\r\n        for (uint256 index = 0; index < _item.nro_botellas; index++) {\r\n            _botellas[index] = keccak256(abi.encodePacked(_info, index));\r\n            _estado_botellas[index] = 0;\r\n        }\r\n        _item.aprobado = true;\r\n        _item.botellas = _botellas;\r\n        _item.estado_botellas = _estado_botellas;\r\n        _item.info = keccak256(abi.encodePacked(_info, _id));\r\n        lista[_id] = _item;\r\n        emit Id(_item.hash_anterior);\r\n    }\r\n}\r\n",
  "sourcePath": "E:\\UNL\\CICLO X\\vinos-blockchain\\contracts\\procesos\\7EnvasadoContract.sol",
  "compiler": {
    "name": "solc",
    "version": "0.8.11+commit.d7f03943.Emscripten.clang"
  },
  "schemaVersion": "3.4.4",
  "updatedAt": "2022-06-29T23:41:40.459Z",
  "networkType": "ethereum",
  "devdoc": {
    "kind": "dev",
    "methods": {},
    "version": 1
  },
  "userdoc": {
    "kind": "user",
    "methods": {},
    "version": 1
  }
}