{
  "contractName": "EnvasadoContract",
  "abi": [
    {
      "anonymous": false,
      "inputs": [
        {
          "indexed": false,
          "internalType": "uint256",
          "name": "id",
          "type": "uint256"
        }
      ],
      "name": "Id",
      "type": "event"
    },
    {
      "inputs": [
        {
          "internalType": "address",
          "name": "",
          "type": "address"
        },
        {
          "internalType": "uint256",
          "name": "",
          "type": "uint256"
        }
      ],
      "name": "lista",
      "outputs": [
        {
          "internalType": "uint256",
          "name": "hash_anterior",
          "type": "uint256"
        },
        {
          "internalType": "string",
          "name": "nro_lote",
          "type": "string"
        },
        {
          "internalType": "uint256",
          "name": "nro_botellas",
          "type": "uint256"
        },
        {
          "internalType": "string",
          "name": "info",
          "type": "string"
        },
        {
          "internalType": "uint256",
          "name": "i_botella",
          "type": "uint256"
        },
        {
          "internalType": "string",
          "name": "hash_botella",
          "type": "string"
        },
        {
          "internalType": "bool",
          "name": "aprobado",
          "type": "bool"
        },
        {
          "internalType": "uint256",
          "name": "createdAt",
          "type": "uint256"
        }
      ],
      "stateMutability": "view",
      "type": "function"
    },
    {
      "inputs": [
        {
          "internalType": "uint256",
          "name": "_hash_anterior",
          "type": "uint256"
        },
        {
          "internalType": "string",
          "name": "_nro_lote",
          "type": "string"
        },
        {
          "internalType": "uint256",
          "name": "_nro_botellas",
          "type": "uint256"
        }
      ],
      "name": "crear",
      "outputs": [],
      "stateMutability": "nonpayable",
      "type": "function"
    },
    {
      "inputs": [
        {
          "internalType": "uint256",
          "name": "_id",
          "type": "uint256"
        }
      ],
      "name": "encontrar",
      "outputs": [
        {
          "components": [
            {
              "internalType": "uint256",
              "name": "hash_anterior",
              "type": "uint256"
            },
            {
              "internalType": "string",
              "name": "nro_lote",
              "type": "string"
            },
            {
              "internalType": "uint256",
              "name": "nro_botellas",
              "type": "uint256"
            },
            {
              "internalType": "string[]",
              "name": "botellas",
              "type": "string[]"
            },
            {
              "internalType": "string",
              "name": "info",
              "type": "string"
            },
            {
              "internalType": "uint256",
              "name": "i_botella",
              "type": "uint256"
            },
            {
              "internalType": "string",
              "name": "hash_botella",
              "type": "string"
            },
            {
              "internalType": "bool",
              "name": "aprobado",
              "type": "bool"
            },
            {
              "internalType": "uint256",
              "name": "createdAt",
              "type": "uint256"
            }
          ],
          "internalType": "struct EnvasadoContract.Model",
          "name": "",
          "type": "tuple"
        }
      ],
      "stateMutability": "view",
      "type": "function"
    },
    {
      "inputs": [
        {
          "internalType": "uint256",
          "name": "_id",
          "type": "uint256"
        },
        {
          "internalType": "string",
          "name": "_nro_lote",
          "type": "string"
        },
        {
          "internalType": "uint256",
          "name": "_nro_botellas",
          "type": "uint256"
        }
      ],
      "name": "editar",
      "outputs": [],
      "stateMutability": "nonpayable",
      "type": "function"
    },
    {
      "inputs": [
        {
          "internalType": "bytes32",
          "name": "x",
          "type": "bytes32"
        }
      ],
      "name": "bytes32ToString",
      "outputs": [
        {
          "internalType": "string",
          "name": "",
          "type": "string"
        }
      ],
      "stateMutability": "pure",
      "type": "function"
    },
    {
      "inputs": [
        {
          "internalType": "string",
          "name": "x",
          "type": "string"
        }
      ],
      "name": "sha256F1",
      "outputs": [
        {
          "internalType": "string",
          "name": "",
          "type": "string"
        }
      ],
      "stateMutability": "pure",
      "type": "function"
    },
    {
      "inputs": [],
      "name": "testA",
      "outputs": [
        {
          "internalType": "bytes32",
          "name": "",
          "type": "bytes32"
        }
      ],
      "stateMutability": "pure",
      "type": "function"
    },
    {
      "inputs": [
        {
          "internalType": "string",
          "name": "_info",
          "type": "string"
        },
        {
          "internalType": "uint256",
          "name": "_i",
          "type": "uint256"
        }
      ],
      "name": "encryptarInfo",
      "outputs": [
        {
          "internalType": "string",
          "name": "",
          "type": "string"
        }
      ],
      "stateMutability": "pure",
      "type": "function"
    },
    {
      "inputs": [
        {
          "internalType": "string",
          "name": "_hash",
          "type": "string"
        }
      ],
      "name": "encontrarBotella",
      "outputs": [
        {
          "components": [
            {
              "internalType": "uint256",
              "name": "hash_anterior",
              "type": "uint256"
            },
            {
              "internalType": "string",
              "name": "nro_lote",
              "type": "string"
            },
            {
              "internalType": "uint256",
              "name": "nro_botellas",
              "type": "uint256"
            },
            {
              "internalType": "string[]",
              "name": "botellas",
              "type": "string[]"
            },
            {
              "internalType": "string",
              "name": "info",
              "type": "string"
            },
            {
              "internalType": "uint256",
              "name": "i_botella",
              "type": "uint256"
            },
            {
              "internalType": "string",
              "name": "hash_botella",
              "type": "string"
            },
            {
              "internalType": "bool",
              "name": "aprobado",
              "type": "bool"
            },
            {
              "internalType": "uint256",
              "name": "createdAt",
              "type": "uint256"
            }
          ],
          "internalType": "struct EnvasadoContract.Model",
          "name": "",
          "type": "tuple"
        }
      ],
      "stateMutability": "view",
      "type": "function"
    },
    {
      "inputs": [
        {
          "internalType": "uint256",
          "name": "_id",
          "type": "uint256"
        },
        {
          "internalType": "string",
          "name": "_info",
          "type": "string"
        }
      ],
      "name": "aprobarProceso",
      "outputs": [],
      "stateMutability": "nonpayable",
      "type": "function"
    }
  ],
  "bytecode": "0x608060405234801561001057600080fd5b50611e8e806100206000396000f3fe608060405234801561001057600080fd5b506004361061009e5760003560e01c80639201de55116100665780639201de551461016a5780639982d1371461017d578063a3a0eedf14610190578063ce534f2f146101a3578063d65d8b7c146101b657600080fd5b806331caa9e1146100a3578063489c8bae146100d357806371dd626b146100f357806385d3a43a146101355780638961111414610155575b600080fd5b6100b66100b136600461187f565b6101c9565b6040516100ca98979695949392919061190f565b60405180910390f35b6100e66100e1366004611a18565b6103ae565b6040516100ca9190611a5d565b6101276040805160026020820152600091810182905260600160405160208183030381529060405280519060200120905090565b6040519081526020016100ca565b610148610143366004611a77565b6103f0565b6040516100ca9190611ae5565b610168610163366004611ba4565b6106e6565b005b6100e6610178366004611a77565b610b39565b61016861018b366004611beb565b610c9f565b61016861019e366004611beb565b610dff565b6100e66101b1366004611c3b565b6111f8565b6101486101c4366004611c3b565b61127e565b6000602081815292815260408082209093529081522080546001820180549192916101f390611c70565b80601f016020809104026020016040519081016040528092919081815260200182805461021f90611c70565b801561026c5780601f106102415761010080835404028352916020019161026c565b820191906000526020600020905b81548152906001019060200180831161024f57829003601f168201915b50505050509080600201549080600401805461028790611c70565b80601f01602080910402602001604051908101604052809291908181526020018280546102b390611c70565b80156103005780601f106102d557610100808354040283529160200191610300565b820191906000526020600020905b8154815290600101906020018083116102e357829003601f168201915b50505050509080600501549080600601805461031b90611c70565b80601f016020809104026020016040519081016040528092919081815260200182805461034790611c70565b80156103945780601f1061036957610100808354040283529160200191610394565b820191906000526020600020905b81548152906001019060200180831161037757829003601f168201915b505050506007830154600890930154919260ff1691905088565b6060600083836040516020016103c5929190611cab565b6040516020818303038152906040528051906020012090506103e681610b39565b9150505b92915050565b6103f86116e5565b336000908152602081815260408083208584528252918290208251610120810190935280548352600181018054919284019161043390611c70565b80601f016020809104026020016040519081016040528092919081815260200182805461045f90611c70565b80156104ac5780601f10610481576101008083540402835291602001916104ac565b820191906000526020600020905b81548152906001019060200180831161048f57829003601f168201915b505050505081526020016002820154815260200160038201805480602002602001604051908101604052809291908181526020016000905b8282101561059057838290600052602060002001805461050390611c70565b80601f016020809104026020016040519081016040528092919081815260200182805461052f90611c70565b801561057c5780601f106105515761010080835404028352916020019161057c565b820191906000526020600020905b81548152906001019060200180831161055f57829003601f168201915b5050505050815260200190600101906104e4565b5050505081526020016004820180546105a890611c70565b80601f01602080910402602001604051908101604052809291908181526020018280546105d490611c70565b80156106215780601f106105f657610100808354040283529160200191610621565b820191906000526020600020905b81548152906001019060200180831161060457829003601f168201915b505050505081526020016005820154815260200160068201805461064490611c70565b80601f016020809104026020016040519081016040528092919081815260200182805461067090611c70565b80156106bd5780601f10610692576101008083540402835291602001916106bd565b820191906000526020600020905b8154815290600101906020018083116106a057829003601f168201915b5050509183525050600782015460ff161515602082015260089091015460409091015292915050565b3360009081526020818152604080832085845282528083208151610120810190925280548252600181018054929391929184019161072390611c70565b80601f016020809104026020016040519081016040528092919081815260200182805461074f90611c70565b801561079c5780601f106107715761010080835404028352916020019161079c565b820191906000526020600020905b81548152906001019060200180831161077f57829003601f168201915b505050505081526020016002820154815260200160038201805480602002602001604051908101604052809291908181526020016000905b828210156108805783829060005260206000200180546107f390611c70565b80601f016020809104026020016040519081016040528092919081815260200182805461081f90611c70565b801561086c5780601f106108415761010080835404028352916020019161086c565b820191906000526020600020905b81548152906001019060200180831161084f57829003601f168201915b5050505050815260200190600101906107d4565b50505050815260200160048201805461089890611c70565b80601f01602080910402602001604051908101604052809291908181526020018280546108c490611c70565b80156109115780601f106108e657610100808354040283529160200191610911565b820191906000526020600020905b8154815290600101906020018083116108f457829003601f168201915b505050505081526020016005820154815260200160068201805461093490611c70565b80601f016020809104026020016040519081016040528092919081815260200182805461096090611c70565b80156109ad5780601f10610982576101008083540402835291602001916109ad565b820191906000526020600020905b81548152906001019060200180831161099057829003601f168201915b5050509183525050600782015460ff16151560208201526008909101546040909101529050606060015b82604001518111610a1c576109ec84826103ae565b8282815181106109fe576109fe611ccd565b60200260200101819052508080610a1490611cf9565b9150506109d7565b50600160e083015260608201819052610a3583856103ae565b6080830152336000908152602081815260408083208784528252909120835181558184015180518593610a6f926001850192910190611733565b506040820151600282015560608201518051610a959160038401916020909101906117b7565b5060808201518051610ab1916004840191602090910190611733565b5060a0820151600582015560c08201518051610ad7916006840191602090910190611733565b5060e082015160078201805460ff19169115159190911790556101009091015160089091015581516040519081527f1ee8913b1e0c76a71150bbb92d8921b2c975601c8c9991b8ef86a1b389672774906020015b60405180910390a150505050565b604080516020808252818301909252606091600091906020820181803683370190505090506000805b6020811015610bea576000610b78826008611d14565b610b83906002611e17565b610b8d9087611d14565b90506001600160f81b0319811615610bd75780848481518110610bb257610bb2611ccd565b60200101906001600160f81b031916908160001a90535082610bd381611cf9565b9350505b5080610be281611cf9565b915050610b62565b5060008167ffffffffffffffff811115610c0657610c06611975565b6040519080825280601f01601f191660200182016040528015610c30576020820181803683370190505b50905060005b82811015610c9657838181518110610c5057610c50611ccd565b602001015160f81c60f81b828281518110610c6d57610c6d611ccd565b60200101906001600160f81b031916908160001a90535080610c8e81611cf9565b915050610c36565b50949350505050565b60408051610120810182528481526020808201858152828401859052606083810181905260808401819052600060a0850181905260c0850182905260e085018190524261010086015233815280845285812089825284529485208451815591518051919586959094869491939192610d209260018501929190910190611733565b506040820151600282015560608201518051610d469160038401916020909101906117b7565b5060808201518051610d62916004840191602090910190611733565b5060a0820151600582015560c08201518051610d88916006840191602090910190611733565b5060e082015160078201805460ff1916911515919091179055610100909101516008909101556040518781527f1ee8913b1e0c76a71150bbb92d8921b2c975601c8c9991b8ef86a1b3896727749060200160405180910390a160018054906000610df183611cf9565b919050555050505050505050565b33600090815260208181526040808320868452825280832081516101208101909252805482526001810180549293919291840191610e3c90611c70565b80601f0160208091040260200160405190810160405280929190818152602001828054610e6890611c70565b8015610eb55780601f10610e8a57610100808354040283529160200191610eb5565b820191906000526020600020905b815481529060010190602001808311610e9857829003601f168201915b505050505081526020016002820154815260200160038201805480602002602001604051908101604052809291908181526020016000905b82821015610f99578382906000526020600020018054610f0c90611c70565b80601f0160208091040260200160405190810160405280929190818152602001828054610f3890611c70565b8015610f855780601f10610f5a57610100808354040283529160200191610f85565b820191906000526020600020905b815481529060010190602001808311610f6857829003601f168201915b505050505081526020019060010190610eed565b505050508152602001600482018054610fb190611c70565b80601f0160208091040260200160405190810160405280929190818152602001828054610fdd90611c70565b801561102a5780601f10610fff5761010080835404028352916020019161102a565b820191906000526020600020905b81548152906001019060200180831161100d57829003601f168201915b505050505081526020016005820154815260200160068201805461104d90611c70565b80601f016020809104026020016040519081016040528092919081815260200182805461107990611c70565b80156110c65780601f1061109b576101008083540402835291602001916110c6565b820191906000526020600020905b8154815290600101906020018083116110a957829003601f168201915b5050509183525050600782015460ff161515602082015260089091015460409091015260e08101519091506111f2576020808201848152604080840185905233600090815280845281812088825284522083518155905180518493611132926001850192910190611733565b5060408201516002820155606082015180516111589160038401916020909101906117b7565b5060808201518051611174916004840191602090910190611733565b5060a0820151600582015560c0820151805161119a916006840191602090910190611733565b5060e082015160078201805460ff19169115159190911790556101009091015160089091015580516040519081527f1ee8913b1e0c76a71150bbb92d8921b2c975601c8c9991b8ef86a1b38967277490602001610b2b565b50505050565b6060600060028360405160200161120f9190611e23565b60408051601f198184030181529082905261122991611e23565b602060405180830381855afa158015611246573d6000803e3d6000fd5b5050506040513d601f19601f820116820180604052508101906112699190611e3f565b9050600061127682610b39565b949350505050565b6112866116e5565b61128e6116e5565b60005b6001548110156116de5733600090815260208181526040808320848452825291829020825161012081019093528054835260018101805491928401916112d690611c70565b80601f016020809104026020016040519081016040528092919081815260200182805461130290611c70565b801561134f5780601f106113245761010080835404028352916020019161134f565b820191906000526020600020905b81548152906001019060200180831161133257829003601f168201915b505050505081526020016002820154815260200160038201805480602002602001604051908101604052809291908181526020016000905b828210156114335783829060005260206000200180546113a690611c70565b80601f01602080910402602001604051908101604052809291908181526020018280546113d290611c70565b801561141f5780601f106113f45761010080835404028352916020019161141f565b820191906000526020600020905b81548152906001019060200180831161140257829003601f168201915b505050505081526020019060010190611387565b50505050815260200160048201805461144b90611c70565b80601f016020809104026020016040519081016040528092919081815260200182805461147790611c70565b80156114c45780601f10611499576101008083540402835291602001916114c4565b820191906000526020600020905b8154815290600101906020018083116114a757829003601f168201915b50505050508152602001600582015481526020016006820180546114e790611c70565b80601f016020809104026020016040519081016040528092919081815260200182805461151390611c70565b80156115605780601f1061153557610100808354040283529160200191611560565b820191906000526020600020905b81548152906001019060200180831161154357829003601f168201915b5050509183525050600782015460ff1615156020820152600890910154604090910152915060015b826040015181116116cb576000836060015182815181106115ab576115ab611ccd565b6020026020010151905060006002826040516020016115ca9190611e23565b60408051601f19818403018152908290526115e491611e23565b602060405180830381855afa158015611601573d6000803e3d6000fd5b5050506040513d601f19601f820116820180604052508101906116249190611e3f565b9050600060028860405160200161163b9190611e23565b60408051601f198184030181529082905261165591611e23565b602060405180830381855afa158015611672573d6000803e3d6000fd5b5050506040513d601f19601f820116820180604052508101906116959190611e3f565b9050808214156116b557505060a084019190915260c08301525092915050565b50505080806116c390611cf9565b915050611588565b50806116d681611cf9565b915050611291565b5092915050565b60405180610120016040528060008152602001606081526020016000815260200160608152602001606081526020016000815260200160608152602001600015158152602001600081525090565b82805461173f90611c70565b90600052602060002090601f01602090048101928261176157600085556117a7565b82601f1061177a57805160ff19168380011785556117a7565b828001600101855582156117a7579182015b828111156117a757825182559160200191906001019061178c565b506117b3929150611810565b5090565b828054828255906000526020600020908101928215611804579160200282015b8281111561180457825180516117f4918491602090910190611733565b50916020019190600101906117d7565b506117b3929150611825565b5b808211156117b35760008155600101611811565b808211156117b35760006118398282611842565b50600101611825565b50805461184e90611c70565b6000825580601f1061185e575050565b601f01602090049060005260206000209081019061187c9190611810565b50565b6000806040838503121561189257600080fd5b82356001600160a01b03811681146118a957600080fd5b946020939093013593505050565b60005b838110156118d25781810151838201526020016118ba565b838111156111f25750506000910152565b600081518084526118fb8160208601602086016118b7565b601f01601f19169290920160200192915050565b60006101008a83528060208401526119298184018b6118e3565b9050886040840152828103606084015261194381896118e3565b905086608084015282810360a084015261195d81876118e3565b94151560c0840152505060e001529695505050505050565b634e487b7160e01b600052604160045260246000fd5b600082601f83011261199c57600080fd5b813567ffffffffffffffff808211156119b7576119b7611975565b604051601f8301601f19908116603f011681019082821181831017156119df576119df611975565b816040528381528660208588010111156119f857600080fd5b836020870160208301376000602085830101528094505050505092915050565b60008060408385031215611a2b57600080fd5b823567ffffffffffffffff811115611a4257600080fd5b611a4e8582860161198b565b95602094909401359450505050565b602081526000611a7060208301846118e3565b9392505050565b600060208284031215611a8957600080fd5b5035919050565b600081518084526020808501808196508360051b8101915082860160005b85811015611ad8578284038952611ac68483516118e3565b98850198935090840190600101611aae565b5091979650505050505050565b602081528151602082015260006020830151610120806040850152611b0e6101408501836118e3565b9150604085015160608501526060850151601f1980868503016080870152611b368483611a90565b935060808701519150808685030160a0870152611b5384836118e3565b935060a087015160c087015260c08701519150808685030160e087015250611b7b83826118e3565b92505060e0850151610100611b938187018315159052565b959095015193019290925250919050565b60008060408385031215611bb757600080fd5b82359150602083013567ffffffffffffffff811115611bd557600080fd5b611be18582860161198b565b9150509250929050565b600080600060608486031215611c0057600080fd5b83359250602084013567ffffffffffffffff811115611c1e57600080fd5b611c2a8682870161198b565b925050604084013590509250925092565b600060208284031215611c4d57600080fd5b813567ffffffffffffffff811115611c6457600080fd5b6103e68482850161198b565b600181811c90821680611c8457607f821691505b60208210811415611ca557634e487b7160e01b600052602260045260246000fd5b50919050565b60008351611cbd8184602088016118b7565b9190910191825250602001919050565b634e487b7160e01b600052603260045260246000fd5b634e487b7160e01b600052601160045260246000fd5b6000600019821415611d0d57611d0d611ce3565b5060010190565b6000816000190483118215151615611d2e57611d2e611ce3565b500290565b600181815b80851115611d6e578160001904821115611d5457611d54611ce3565b80851615611d6157918102915b93841c9390800290611d38565b509250929050565b600082611d85575060016103ea565b81611d92575060006103ea565b8160018114611da85760028114611db257611dce565b60019150506103ea565b60ff841115611dc357611dc3611ce3565b50506001821b6103ea565b5060208310610133831016604e8410600b8410161715611df1575081810a6103ea565b611dfb8383611d33565b8060001904821115611e0f57611e0f611ce3565b029392505050565b6000611a708383611d76565b60008251611e358184602087016118b7565b9190910192915050565b600060208284031215611e5157600080fd5b505191905056fea264697066735822122054282634e08b8a9fa6cf5ea6e8927f2c83c2d61113834b014dac23a3ec2d877f64736f6c634300080b0033",
  "immutableReferences": {},
  "source": "// SPDX-License-Identifier: MIT\r\npragma solidity ^0.8.11;\r\n\r\ncontract EnvasadoContract {\r\n    struct Model {\r\n        uint256 hash_anterior;\r\n        string nro_lote;\r\n        uint256 nro_botellas;\r\n        string[] botellas;\r\n        string info;\r\n        uint256 i_botella;\r\n        string hash_botella;\r\n        bool aprobado;\r\n        uint256 createdAt;\r\n    }\r\n    event Id(uint256 id);\r\n    mapping(address => mapping(uint256 => Model)) public lista;\r\n    uint256 contador;\r\n\r\n    function crear(\r\n        uint256 _hash_anterior,\r\n        string memory _nro_lote,\r\n        uint256 _nro_botellas\r\n    ) public {\r\n        string[] memory _botellas;\r\n        string memory _info;\r\n        uint256 _i_botella;\r\n        string memory _hash_botella;\r\n        lista[msg.sender][_hash_anterior] = Model(\r\n            _hash_anterior,\r\n            _nro_lote,\r\n            _nro_botellas,\r\n            _botellas,\r\n            _info,\r\n            _i_botella,\r\n            _hash_botella,\r\n            false,\r\n            block.timestamp\r\n        );\r\n        emit Id(_hash_anterior);\r\n        contador++;\r\n    }\r\n\r\n    function encontrar(uint256 _id) public view returns (Model memory) {\r\n        return lista[msg.sender][_id];\r\n    }\r\n\r\n    function editar(\r\n        uint256 _id,\r\n        string memory _nro_lote,\r\n        uint256 _nro_botellas\r\n    ) public {\r\n        Model memory _item = lista[msg.sender][_id];\r\n        if (_item.aprobado == false) {\r\n            _item.nro_lote = _nro_lote;\r\n            _item.nro_botellas = _nro_botellas;\r\n            lista[msg.sender][_id] = _item;\r\n            emit Id(_item.hash_anterior);\r\n        }\r\n    }\r\n\r\n    function bytes32ToString(bytes32 x) public pure returns (string memory) {\r\n        bytes memory bytesString = new bytes(32);\r\n        uint256 charCount = 0;\r\n        for (uint256 j = 0; j < 32; j++) {\r\n            bytes1 char = bytes1(bytes32(uint256(x) * 2**(8 * j)));\r\n            if (char != 0) {\r\n                bytesString[charCount] = char;\r\n                charCount++;\r\n            }\r\n        }\r\n        bytes memory bytesStringTrimmed = new bytes(charCount);\r\n        for (uint256 j = 0; j < charCount; j++) {\r\n            bytesStringTrimmed[j] = bytesString[j];\r\n        }\r\n        return string(bytesStringTrimmed);\r\n    }\r\n\r\n    function sha256F1(string memory x) public pure returns (string memory) {\r\n        bytes32 _hash1 = sha256(abi.encodePacked(x));\r\n        string memory has = bytes32ToString(_hash1);\r\n        return has;\r\n    }\r\n\r\n    function testA() public pure returns (bytes32) {\r\n        return keccak256(abi.encodePacked(uint256(2), uint256(0)));\r\n    }\r\n\r\n    function encryptarInfo(string memory _info, uint256 _i)\r\n        public\r\n        pure\r\n        returns (string memory)\r\n    {\r\n        bytes32 _hash = keccak256(abi.encodePacked(_info, _i));\r\n        return bytes32ToString(_hash);\r\n    }\r\n\r\n    function encontrarBotella(string memory _hash)\r\n        public\r\n        view\r\n        returns (Model memory)\r\n    {\r\n        Model memory _item;\r\n        for (uint256 i = 0; i < contador; i++) {\r\n            _item = lista[msg.sender][i];\r\n            for (uint256 j = 1; j <= _item.nro_botellas; j++) {\r\n                string memory _hash_botella = _item.botellas[j];\r\n                bytes32 _hash1 = sha256(abi.encodePacked(_hash_botella));\r\n                bytes32 _hash2 = sha256(abi.encodePacked(_hash));\r\n                if (_hash1 == _hash2) {\r\n                    _item.i_botella = j;\r\n                    _item.hash_botella = _hash_botella;\r\n                    return _item;\r\n                }\r\n            }\r\n        }\r\n        return _item;\r\n    }\r\n\r\n    function aprobarProceso(uint256 _id, string memory _info) public {\r\n        Model memory _item = lista[msg.sender][_id];\r\n        string[] memory _botellas;\r\n        for (uint256 index = 1; index <= _item.nro_botellas; index++) {\r\n            _botellas[index] = encryptarInfo(_info, index);\r\n        }\r\n        _item.aprobado = true;\r\n        _item.botellas = _botellas;\r\n        _item.info = encryptarInfo(_info, _id);\r\n        lista[msg.sender][_id] = _item;\r\n        emit Id(_item.hash_anterior);\r\n    }\r\n}\r\n",
  "sourcePath": "E:\\UNL\\CICLO X\\vinos-blockchain\\contracts\\7EnvasadoContract.sol",
  "compiler": {
    "name": "solc",
    "version": "0.8.11+commit.d7f03943.Emscripten.clang"
  },
  "schemaVersion": "3.4.4",
  "updatedAt": "2022-06-28T07:14:46.647Z",
  "devdoc": {
    "kind": "dev",
    "methods": {},
    "version": 1
  },
  "userdoc": {
    "kind": "user",
    "methods": {},
    "version": 1
  }
}