{
  "contractName": "EnvasadoContract",
  "abi": [
    {
      "inputs": [
        {
          "internalType": "address",
          "name": "",
          "type": "address"
        },
        {
          "internalType": "uint256",
          "name": "",
          "type": "uint256"
        }
      ],
      "name": "lista",
      "outputs": [
        {
          "internalType": "uint256",
          "name": "hash_anterior",
          "type": "uint256"
        },
        {
          "internalType": "string",
          "name": "nro_lote",
          "type": "string"
        },
        {
          "internalType": "uint256",
          "name": "nro_botellas",
          "type": "uint256"
        },
        {
          "internalType": "bool",
          "name": "aprobado",
          "type": "bool"
        },
        {
          "internalType": "uint256",
          "name": "createdAt",
          "type": "uint256"
        }
      ],
      "stateMutability": "view",
      "type": "function",
      "constant": true
    },
    {
      "inputs": [
        {
          "internalType": "uint256",
          "name": "_hash_anterior",
          "type": "uint256"
        },
        {
          "internalType": "string",
          "name": "_nro_lote",
          "type": "string"
        },
        {
          "internalType": "uint256",
          "name": "_nro_botellas",
          "type": "uint256"
        },
        {
          "internalType": "string[]",
          "name": "_botellas",
          "type": "string[]"
        }
      ],
      "name": "crear",
      "outputs": [],
      "stateMutability": "nonpayable",
      "type": "function"
    },
    {
      "inputs": [
        {
          "internalType": "uint256",
          "name": "_id",
          "type": "uint256"
        }
      ],
      "name": "encontrar",
      "outputs": [
        {
          "components": [
            {
              "internalType": "uint256",
              "name": "hash_anterior",
              "type": "uint256"
            },
            {
              "internalType": "string",
              "name": "nro_lote",
              "type": "string"
            },
            {
              "internalType": "uint256",
              "name": "nro_botellas",
              "type": "uint256"
            },
            {
              "internalType": "string[]",
              "name": "botellas",
              "type": "string[]"
            },
            {
              "internalType": "bool",
              "name": "aprobado",
              "type": "bool"
            },
            {
              "internalType": "uint256",
              "name": "createdAt",
              "type": "uint256"
            }
          ],
          "internalType": "struct EnvasadoContract.Model",
          "name": "",
          "type": "tuple"
        }
      ],
      "stateMutability": "view",
      "type": "function",
      "constant": true
    },
    {
      "inputs": [
        {
          "internalType": "uint256",
          "name": "_id",
          "type": "uint256"
        },
        {
          "internalType": "string",
          "name": "_nro_lote",
          "type": "string"
        },
        {
          "internalType": "uint256",
          "name": "_nro_botellas",
          "type": "uint256"
        }
      ],
      "name": "actualizar",
      "outputs": [],
      "stateMutability": "nonpayable",
      "type": "function"
    },
    {
      "inputs": [
        {
          "internalType": "uint256",
          "name": "_id",
          "type": "uint256"
        }
      ],
      "name": "aprobarProceso",
      "outputs": [],
      "stateMutability": "nonpayable",
      "type": "function"
    }
  ],
  "bytecode": "0x608060405234801561001057600080fd5b50610def806100206000396000f3fe608060405234801561001057600080fd5b50600436106100575760003560e01c806331caa9e11461005c5780637a00b8a91461008957806385d3a43a1461009e578063a143b588146100be578063e32079a7146100d1575b600080fd5b61006f61006a3660046109f4565b6100e4565b604051610080959493929190610a79565b60405180910390f35b61009c610097366004610aaf565b6101a9565b005b6100b16100ac366004610aaf565b6103f5565b6040516100809190610ac8565b61009c6100cc366004610c33565b6105ef565b61009c6100df366004610d2e565b61069e565b60006020818152928152604080822090935290815220805460018201805491929161010e90610d7e565b80601f016020809104026020016040519081016040528092919081815260200182805461013a90610d7e565b80156101875780601f1061015c57610100808354040283529160200191610187565b820191906000526020600020905b81548152906001019060200180831161016a57829003601f168201915b50505050600283015460048401546005909401549293909260ff909116915085565b336000908152602081815260408083208484528252808320815160c081019092528054825260018101805492939192918401916101e590610d7e565b80601f016020809104026020016040519081016040528092919081815260200182805461021190610d7e565b801561025e5780601f106102335761010080835404028352916020019161025e565b820191906000526020600020905b81548152906001019060200180831161024157829003601f168201915b505050505081526020016002820154815260200160038201805480602002602001604051908101604052809291908181526020016000905b828210156103425783829060005260206000200180546102b590610d7e565b80601f01602080910402602001604051908101604052809291908181526020018280546102e190610d7e565b801561032e5780601f106103035761010080835404028352916020019161032e565b820191906000526020600020905b81548152906001019060200180831161031157829003601f168201915b505050505081526020019060010190610296565b50505090825250600482015460ff16151560208083019190915260059092015460409182015260016080840181905233600090815280845282812087825284529190912083518155838301518051949550859491936103a6938501929101906108a8565b5060408201516002820155606082015180516103cc91600384019160209091019061092c565b50608082015160048201805460ff191691151591909117905560a0909101516005909101555050565b6104306040518060c0016040528060008152602001606081526020016000815260200160608152602001600015158152602001600081525090565b33600090815260208181526040808320858452825291829020825160c0810190935280548352600181018054919284019161046a90610d7e565b80601f016020809104026020016040519081016040528092919081815260200182805461049690610d7e565b80156104e35780601f106104b8576101008083540402835291602001916104e3565b820191906000526020600020905b8154815290600101906020018083116104c657829003601f168201915b505050505081526020016002820154815260200160038201805480602002602001604051908101604052809291908181526020016000905b828210156105c757838290600052602060002001805461053a90610d7e565b80601f016020809104026020016040519081016040528092919081815260200182805461056690610d7e565b80156105b35780601f10610588576101008083540402835291602001916105b3565b820191906000526020600020905b81548152906001019060200180831161059657829003601f168201915b50505050508152602001906001019061051b565b50505090825250600482015460ff161515602082015260059091015460409091015292915050565b6040805160c0810182528581526020808201868152828401869052606083018590526000608084018190524260a0850152338152808352848120898252835293909320825181559251805192939261064d92600185019201906108a8565b50604082015160028201556060820151805161067391600384019160209091019061092c565b50608082015160048201805460ff191691151591909117905560a09091015160059091015550505050565b336000908152602081815260408083208684528252808320815160c081019092528054825260018101805492939192918401916106da90610d7e565b80601f016020809104026020016040519081016040528092919081815260200182805461070690610d7e565b80156107535780601f1061072857610100808354040283529160200191610753565b820191906000526020600020905b81548152906001019060200180831161073657829003601f168201915b505050505081526020016002820154815260200160038201805480602002602001604051908101604052809291908181526020016000905b828210156108375783829060005260206000200180546107aa90610d7e565b80601f01602080910402602001604051908101604052809291908181526020018280546107d690610d7e565b80156108235780601f106107f857610100808354040283529160200191610823565b820191906000526020600020905b81548152906001019060200180831161080657829003601f168201915b50505050508152602001906001019061078b565b50505090825250600482015460ff161515602082015260059091015460409091015260808101519091506108a257602080820184815260408084018590523360009081528084528181208882528452208351815590518051849361064d9260018501929101906108a8565b50505050565b8280546108b490610d7e565b90600052602060002090601f0160209004810192826108d6576000855561091c565b82601f106108ef57805160ff191683800117855561091c565b8280016001018555821561091c579182015b8281111561091c578251825591602001919060010190610901565b50610928929150610985565b5090565b828054828255906000526020600020908101928215610979579160200282015b8281111561097957825180516109699184916020909101906108a8565b509160200191906001019061094c565b5061092892915061099a565b5b808211156109285760008155600101610986565b808211156109285760006109ae82826109b7565b5060010161099a565b5080546109c390610d7e565b6000825580601f106109d3575050565b601f0160209004906000526020600020908101906109f19190610985565b50565b60008060408385031215610a0757600080fd5b82356001600160a01b0381168114610a1e57600080fd5b946020939093013593505050565b6000815180845260005b81811015610a5257602081850181015186830182015201610a36565b81811115610a64576000602083870101525b50601f01601f19169290920160200192915050565b85815260a060208201526000610a9260a0830187610a2c565b604083019590955250911515606083015260809091015292915050565b600060208284031215610ac157600080fd5b5035919050565b600060208083528351818401528084015160c06040850152610aed60e0850182610a2c565b9050604085015160608501526060850151601f19808684030160808701528282518085528585019150858160051b860101868501945060005b82811015610b525784878303018452610b40828751610a2c565b95880195938801939150600101610b26565b5060808a015180151560a08b0152965060a08a015160c08a01528097505050505050505092915050565b634e487b7160e01b600052604160045260246000fd5b604051601f8201601f1916810167ffffffffffffffff81118282101715610bbb57610bbb610b7c565b604052919050565b600082601f830112610bd457600080fd5b813567ffffffffffffffff811115610bee57610bee610b7c565b610c01601f8201601f1916602001610b92565b818152846020838601011115610c1657600080fd5b816020850160208301376000918101602001919091529392505050565b60008060008060808587031215610c4957600080fd5b8435935060208086013567ffffffffffffffff80821115610c6957600080fd5b610c7589838a01610bc3565b9550604088013594506060880135915080821115610c9257600080fd5b818801915088601f830112610ca657600080fd5b813581811115610cb857610cb8610b7c565b8060051b610cc7858201610b92565b918252838101850191858101908c841115610ce157600080fd5b86860192505b83831015610d1d57823585811115610cff5760008081fd5b610d0d8e89838a0101610bc3565b8352509186019190860190610ce7565b999c989b5096995050505050505050565b600080600060608486031215610d4357600080fd5b83359250602084013567ffffffffffffffff811115610d6157600080fd5b610d6d86828701610bc3565b925050604084013590509250925092565b600181811c90821680610d9257607f821691505b60208210811415610db357634e487b7160e01b600052602260045260246000fd5b5091905056fea2646970667358221220d8865c9cfa1d9d60cff4921e23c44909c5ec605b76d92341ce2fa2eb3692cba664736f6c634300080b0033",
  "immutableReferences": {},
  "source": "// SPDX-License-Identifier: MIT\r\npragma solidity ^0.8.11;\r\n\r\ncontract EnvasadoContract {\r\n    struct Model {\r\n        uint256 hash_anterior;\r\n        string nro_lote;\r\n        uint256 nro_botellas;\r\n        string[] botellas;\r\n        bool aprobado;\r\n        uint256 createdAt;\r\n    }\r\n\r\n    mapping(address => mapping(uint256 => Model)) public lista;\r\n\r\n    function crear(\r\n        uint256 _hash_anterior,\r\n        string memory _nro_lote,\r\n        uint256 _nro_botellas,\r\n        string[] memory _botellas\r\n    ) public {\r\n        lista[msg.sender][_hash_anterior] = Model(\r\n            _hash_anterior,\r\n            _nro_lote,\r\n            _nro_botellas,\r\n            _botellas,\r\n            false,\r\n            block.timestamp\r\n        );\r\n    }\r\n\r\n    function encontrar(uint256 _id) public view returns (Model memory) {\r\n        return lista[msg.sender][_id];\r\n    }\r\n\r\n    function actualizar(\r\n        uint256 _id,\r\n        string memory _nro_lote,\r\n        uint256 _nro_botellas\r\n    ) public {\r\n        Model memory _item = lista[msg.sender][_id];\r\n        if (_item.aprobado == false) {\r\n            _item.nro_lote = _nro_lote;\r\n            _item.nro_botellas = _nro_botellas;\r\n            lista[msg.sender][_id] = _item;\r\n        }\r\n    }\r\n\r\n    function aprobarProceso(uint256 _id) public {\r\n        Model memory _item = lista[msg.sender][_id];\r\n        _item.aprobado = true;\r\n        lista[msg.sender][_id] = _item;\r\n    }\r\n}\r\n",
  "sourcePath": "E:\\UNL\\CICLO X\\vinos-blockchain\\contracts\\7EnvasadoContract.sol",
  "compiler": {
    "name": "solc",
    "version": "0.8.11+commit.d7f03943.Emscripten.clang"
  },
  "schemaVersion": "3.4.4",
  "updatedAt": "2022-06-26T23:24:20.486Z",
  "networkType": "ethereum",
  "devdoc": {
    "kind": "dev",
    "methods": {},
    "version": 1
  },
  "userdoc": {
    "kind": "user",
    "methods": {},
    "version": 1
  }
}