{
  "contractName": "EnvasadoContract",
  "abi": [
    {
      "anonymous": false,
      "inputs": [
        {
          "indexed": false,
          "internalType": "uint256",
          "name": "id",
          "type": "uint256"
        }
      ],
      "name": "Id",
      "type": "event"
    },
    {
      "inputs": [],
      "name": "contador",
      "outputs": [
        {
          "internalType": "uint256",
          "name": "",
          "type": "uint256"
        }
      ],
      "stateMutability": "view",
      "type": "function",
      "constant": true
    },
    {
      "inputs": [
        {
          "internalType": "uint256",
          "name": "",
          "type": "uint256"
        }
      ],
      "name": "lista",
      "outputs": [
        {
          "internalType": "uint256",
          "name": "hash_anterior",
          "type": "uint256"
        },
        {
          "internalType": "string",
          "name": "nro_lote",
          "type": "string"
        },
        {
          "internalType": "uint256",
          "name": "nro_botellas",
          "type": "uint256"
        },
        {
          "internalType": "bool",
          "name": "aprobado",
          "type": "bool"
        },
        {
          "internalType": "uint256",
          "name": "createdAt",
          "type": "uint256"
        }
      ],
      "stateMutability": "view",
      "type": "function",
      "constant": true
    },
    {
      "inputs": [
        {
          "internalType": "uint256",
          "name": "_hash_anterior",
          "type": "uint256"
        },
        {
          "internalType": "string",
          "name": "_nro_lote",
          "type": "string"
        },
        {
          "internalType": "uint256",
          "name": "_nro_botellas",
          "type": "uint256"
        }
      ],
      "name": "crear",
      "outputs": [],
      "stateMutability": "nonpayable",
      "type": "function"
    },
    {
      "inputs": [
        {
          "internalType": "uint256",
          "name": "_id",
          "type": "uint256"
        }
      ],
      "name": "encontrar",
      "outputs": [
        {
          "components": [
            {
              "internalType": "uint256",
              "name": "hash_anterior",
              "type": "uint256"
            },
            {
              "internalType": "string",
              "name": "nro_lote",
              "type": "string"
            },
            {
              "internalType": "uint256",
              "name": "nro_botellas",
              "type": "uint256"
            },
            {
              "components": [
                {
                  "internalType": "uint256",
                  "name": "nro_botella",
                  "type": "uint256"
                },
                {
                  "internalType": "uint256",
                  "name": "hash_anterior",
                  "type": "uint256"
                },
                {
                  "internalType": "bytes32",
                  "name": "hash_botella",
                  "type": "bytes32"
                },
                {
                  "internalType": "uint256[]",
                  "name": "estados",
                  "type": "uint256[]"
                },
                {
                  "internalType": "uint256[]",
                  "name": "fecha_estados",
                  "type": "uint256[]"
                },
                {
                  "internalType": "uint256",
                  "name": "createdAt",
                  "type": "uint256"
                }
              ],
              "internalType": "struct EnvasadoContract.Botella[]",
              "name": "botellas",
              "type": "tuple[]"
            },
            {
              "internalType": "bool",
              "name": "aprobado",
              "type": "bool"
            },
            {
              "internalType": "uint256",
              "name": "createdAt",
              "type": "uint256"
            }
          ],
          "internalType": "struct EnvasadoContract.Model",
          "name": "",
          "type": "tuple"
        }
      ],
      "stateMutability": "view",
      "type": "function",
      "constant": true
    },
    {
      "inputs": [
        {
          "internalType": "uint256",
          "name": "_id",
          "type": "uint256"
        },
        {
          "internalType": "string",
          "name": "_nro_lote",
          "type": "string"
        },
        {
          "internalType": "uint256",
          "name": "_nro_botellas",
          "type": "uint256"
        }
      ],
      "name": "editar",
      "outputs": [],
      "stateMutability": "nonpayable",
      "type": "function"
    },
    {
      "inputs": [
        {
          "internalType": "bytes32",
          "name": "_hash",
          "type": "bytes32"
        }
      ],
      "name": "encontrarBotella",
      "outputs": [
        {
          "components": [
            {
              "internalType": "uint256",
              "name": "nro_botella",
              "type": "uint256"
            },
            {
              "internalType": "uint256",
              "name": "hash_anterior",
              "type": "uint256"
            },
            {
              "internalType": "bytes32",
              "name": "hash_botella",
              "type": "bytes32"
            },
            {
              "internalType": "uint256[]",
              "name": "estados",
              "type": "uint256[]"
            },
            {
              "internalType": "uint256[]",
              "name": "fecha_estados",
              "type": "uint256[]"
            },
            {
              "internalType": "uint256",
              "name": "createdAt",
              "type": "uint256"
            }
          ],
          "internalType": "struct EnvasadoContract.Botella",
          "name": "",
          "type": "tuple"
        }
      ],
      "stateMutability": "view",
      "type": "function",
      "constant": true
    },
    {
      "inputs": [
        {
          "internalType": "uint256",
          "name": "_id",
          "type": "uint256"
        },
        {
          "internalType": "uint256",
          "name": "_index",
          "type": "uint256"
        },
        {
          "internalType": "uint256",
          "name": "_estado",
          "type": "uint256"
        }
      ],
      "name": "cambiarEstadoBotella",
      "outputs": [],
      "stateMutability": "nonpayable",
      "type": "function"
    },
    {
      "inputs": [
        {
          "internalType": "uint256",
          "name": "_id",
          "type": "uint256"
        }
      ],
      "name": "testA",
      "outputs": [
        {
          "components": [
            {
              "internalType": "uint256",
              "name": "hash_anterior",
              "type": "uint256"
            },
            {
              "internalType": "string",
              "name": "nro_lote",
              "type": "string"
            },
            {
              "internalType": "uint256",
              "name": "nro_botellas",
              "type": "uint256"
            },
            {
              "components": [
                {
                  "internalType": "uint256",
                  "name": "nro_botella",
                  "type": "uint256"
                },
                {
                  "internalType": "uint256",
                  "name": "hash_anterior",
                  "type": "uint256"
                },
                {
                  "internalType": "bytes32",
                  "name": "hash_botella",
                  "type": "bytes32"
                },
                {
                  "internalType": "uint256[]",
                  "name": "estados",
                  "type": "uint256[]"
                },
                {
                  "internalType": "uint256[]",
                  "name": "fecha_estados",
                  "type": "uint256[]"
                },
                {
                  "internalType": "uint256",
                  "name": "createdAt",
                  "type": "uint256"
                }
              ],
              "internalType": "struct EnvasadoContract.Botella[]",
              "name": "botellas",
              "type": "tuple[]"
            },
            {
              "internalType": "bool",
              "name": "aprobado",
              "type": "bool"
            },
            {
              "internalType": "uint256",
              "name": "createdAt",
              "type": "uint256"
            }
          ],
          "internalType": "struct EnvasadoContract.Model",
          "name": "",
          "type": "tuple"
        }
      ],
      "stateMutability": "view",
      "type": "function",
      "constant": true
    },
    {
      "inputs": [
        {
          "internalType": "uint256",
          "name": "_id",
          "type": "uint256"
        }
      ],
      "name": "aprobarProceso",
      "outputs": [],
      "stateMutability": "nonpayable",
      "type": "function"
    }
  ],
  "bytecode": "0x608060405234801561001057600080fd5b50611346806100206000396000f3fe608060405234801561001057600080fd5b50600436106100935760003560e01c806385d3a43a1161006657806385d3a43a146101115780639982d137146101315780639d4853c414610144578063a3a0eedf14610157578063b693c6f81461016a57600080fd5b80630cc76c141461009857806353d27cc2146100c55780637a00b8a9146100dc5780638155d81d146100f1575b600080fd5b6100ab6100a6366004610f48565b61017d565b6040516100bc959493929190610fae565b60405180910390f35b6100ce60015481565b6040519081526020016100bc565b6100ef6100ea366004610f48565b61023a565b005b6101046100ff366004610f48565b61040a565b6040516100bc9190611082565b61012461011f366004610f48565b610644565b6040516100bc919061109c565b6100ef61013f366004611166565b610893565b610124610152366004610f48565b610904565b6100ef610165366004611166565b610d6c565b6100ef61017836600461122a565b610dce565b6000602081905290815260409020805460018201805491929161019f90611256565b80601f01602080910402602001604051908101604052809291908181526020018280546101cb90611256565b80156102185780601f106101ed57610100808354040283529160200191610218565b820191906000526020600020905b8154815290600101906020018083116101fb57829003601f168201915b50505050600283015460048401546005909401549293909260ff909116915085565b600081815260208190526040812060048101805460ff19166001179055905b81600201548110156103e2576040805160018082528183019092526000916020808301908036833750506040805160018082528183019092529293506000929150602080830190803683370190505090506000826000815181106102bf576102bf611291565b60200260200101818152505042816000815181106102df576102df611291565b60200260200101818152505060006040518060c0016040528085600161030591906112bd565b81526020018781526020018760405160200161032391815260200190565b60408051601f1981840301815291815281516020928301208352828201879052828101869052426060938401526003808a0180546001818101835560009283529185902087516006909202019081558685015191810191909155918501516002830155928401518051949550859491936103a39390850192910190610e75565b50608082015180516103bf916004840191602090910190610e75565b5060a08201518160050155505050505080806103da906112d5565b915050610259565b5080546040519081526000805160206112f18339815191529060200160405180910390a15050565b6104466040518060c001604052806000815260200160008152602001600080191681526020016060815260200160608152602001600081525090565b60005b6001548110156105f75760008181526020818152604080832060030180548251818502810185019093528083529192909190849084015b8282101561058a57838290600052602060002090600602016040518060c00160405290816000820154815260200160018201548152602001600282015481526020016003820180548060200260200160405190810160405280929190818152602001828054801561051057602002820191906000526020600020905b8154815260200190600101908083116104fc575b505050505081526020016004820180548060200260200160405190810160405280929190818152602001828054801561056857602002820191906000526020600020905b815481526020019060010190808311610554575b5050505050815260200160058201548152505081526020019060010190610480565b50505050905060005b81518110156105e25760008282815181106105b0576105b0611291565b6020026020010151905085816040015114156105cf5795945050505050565b50806105da816112d5565b915050610593565b505080806105ef906112d5565b915050610449565b5060405162461bcd60e51b815260206004820152601d60248201527f4861736820646520626f74656c6c61206e6f20656e636f6e7472616461000000604482015260640160405180910390fd5b61067f6040518060c0016040528060008152602001606081526020016000815260200160608152602001600015158152602001600081525090565b60008281526020818152604091829020825160c081019093528054835260018101805491928401916106b090611256565b80601f01602080910402602001604051908101604052809291908181526020018280546106dc90611256565b80156107295780601f106106fe57610100808354040283529160200191610729565b820191906000526020600020905b81548152906001019060200180831161070c57829003601f168201915b505050505081526020016002820154815260200160038201805480602002602001604051908101604052809291908181526020016000905b8282101561086b57838290600052602060002090600602016040518060c0016040529081600082015481526020016001820154815260200160028201548152602001600382018054806020026020016040519081016040528092919081815260200182805480156107f157602002820191906000526020600020905b8154815260200190600101908083116107dd575b505050505081526020016004820180548060200260200160405190810160405280929190818152602001828054801561084957602002820191906000526020600020905b815481526020019060010190808311610835575b5050505050815260200160058201548152505081526020019060010190610761565b50505090825250600482015460ff161515602082015260059091015460409091015292915050565b600083815260208181526040909120848155835190916108ba916001840191860190610ec0565b50600281018290554260058201556040518481526000805160206112f18339815191529060200160405180910390a1600180549060006108f9836112d5565b919050555050505050565b61093f6040518060c0016040528060008152602001606081526020016000815260200160608152602001600015158152602001600081525090565b60008060008481526020019081526020016000206040518060c00160405290816000820154815260200160018201805461097890611256565b80601f01602080910402602001604051908101604052809291908181526020018280546109a490611256565b80156109f15780601f106109c6576101008083540402835291602001916109f1565b820191906000526020600020905b8154815290600101906020018083116109d457829003601f168201915b505050505081526020016002820154815260200160038201805480602002602001604051908101604052809291908181526020016000905b82821015610b3357838290600052602060002090600602016040518060c001604052908160008201548152602001600182015481526020016002820154815260200160038201805480602002602001604051908101604052809291908181526020018280548015610ab957602002820191906000526020600020905b815481526020019060010190808311610aa5575b5050505050815260200160048201805480602002602001604051908101604052809291908181526020018280548015610b1157602002820191906000526020600020905b815481526020019060010190808311610afd575b5050505050815260200160058201548152505081526020019060010190610a29565b50505090825250600482015460ff16151560208201526005909101546040918201526001608083015281015190915060009067ffffffffffffffff811115610b7d57610b7d611150565b604051908082528060200260200182016040528015610bea57816020015b610bd76040518060c001604052806000815260200160008152602001600080191681526020016060815260200160608152602001600081525090565b815260200190600190039081610b9b5790505b50905060005b8260400151811015610d605760408051600180825281830190925260009160208083019080368337505060408051600180825281830190925292935060009291506020808301908036833701905050905060006040518060c0016040528089815260200189815260200189604051602001610c6d91815260200190565b604051602081830303815290604052805190602001208152602001848152602001838152602001428152509050836001610ca791906112bd565b8152602080820189905260408051918201869052016040516020818303038152906040528051906020012081604001818152505060008160600151600081518110610cf457610cf4611291565b602002602001018181525050428160800151600081518110610d1857610d18611291565b60209081029190910101524260a082015284518190869086908110610d3f57610d3f611291565b60200260200101819052505050508080610d58906112d5565b915050610bf0565b50606082015292915050565b6000838152602081905260409020600481015460ff16610dc8578251610d9b9060018301906020860190610ec0565b506002810182905580546040519081526000805160206112f1833981519152906020015b60405180910390a15b50505050565b60008381526020819052604090206003018054819084908110610df357610df3611291565b6000918252602080832060036006909302019190910180546001810182559083529120018290558054819084908110610e2e57610e2e611291565b6000918252602080832060046006909302019190910180546001810182559083529120429101556040516000805160206112f183398151915290610dbf9086815260200190565b828054828255906000526020600020908101928215610eb0579160200282015b82811115610eb0578251825591602001919060010190610e95565b50610ebc929150610f33565b5090565b828054610ecc90611256565b90600052602060002090601f016020900481019282610eee5760008555610eb0565b82601f10610f0757805160ff1916838001178555610eb0565b82800160010185558215610eb05791820182811115610eb0578251825591602001919060010190610e95565b5b80821115610ebc5760008155600101610f34565b600060208284031215610f5a57600080fd5b5035919050565b6000815180845260005b81811015610f8757602081850181015186830182015201610f6b565b81811115610f99576000602083870101525b50601f01601f19169290920160200192915050565b85815260a060208201526000610fc760a0830187610f61565b604083019590955250911515606083015260809091015292915050565b600081518084526020808501945080840160005b8381101561101457815187529582019590820190600101610ff8565b509495945050505050565b8051825260208101516020830152604081015160408301526000606082015160c0606085015261105260c0850182610fe4565b90506080830151848203608086015261106b8282610fe4565b91505060a083015160a08501528091505092915050565b602081526000611095602083018461101f565b9392505050565b600060208083528351818401528084015160c060408501526110c160e0850182610f61565b9050604085015160608501526060850151601f19808684030160808701528282518085528585019150858160051b860101868501945060005b82811015611126578487830301845261111482875161101f565b958801959388019391506001016110fa565b5060808a015180151560a08b0152965060a08a015160c08a01528097505050505050505092915050565b634e487b7160e01b600052604160045260246000fd5b60008060006060848603121561117b57600080fd5b83359250602084013567ffffffffffffffff8082111561119a57600080fd5b818601915086601f8301126111ae57600080fd5b8135818111156111c0576111c0611150565b604051601f8201601f19908116603f011681019083821181831017156111e8576111e8611150565b8160405282815289602084870101111561120157600080fd5b826020860160208301376000602084830101528096505050505050604084013590509250925092565b60008060006060848603121561123f57600080fd5b505081359360208301359350604090920135919050565b600181811c9082168061126a57607f821691505b6020821081141561128b57634e487b7160e01b600052602260045260246000fd5b50919050565b634e487b7160e01b600052603260045260246000fd5b634e487b7160e01b600052601160045260246000fd5b600082198211156112d0576112d06112a7565b500190565b60006000198214156112e9576112e96112a7565b506001019056fe1ee8913b1e0c76a71150bbb92d8921b2c975601c8c9991b8ef86a1b389672774a2646970667358221220af7cbe092bd71c04082e8fe04b6beba9b270557afc354e5b4a052423d0a1c93364736f6c634300080b0033",
  "immutableReferences": {},
  "source": "// SPDX-License-Identifier: MIT\r\npragma solidity ^0.8.11;\r\n\r\ncontract EnvasadoContract {\r\n    struct Botella {\r\n        uint256 nro_botella;\r\n        uint256 hash_anterior;\r\n        bytes32 hash_botella;\r\n        uint256[] estados;\r\n        uint256[] fecha_estados;\r\n        uint256 createdAt;\r\n    }\r\n\r\n    struct Model {\r\n        uint256 hash_anterior;\r\n        string nro_lote;\r\n        uint256 nro_botellas;\r\n        Botella[] botellas;\r\n        bool aprobado;\r\n        uint256 createdAt;\r\n    }\r\n\r\n    event Id(uint256 id);\r\n    mapping(uint256 => Model) public lista;\r\n    uint256 public contador;\r\n\r\n    function crear(\r\n        uint256 _hash_anterior,\r\n        string memory _nro_lote,\r\n        uint256 _nro_botellas\r\n    ) public {\r\n        Model storage _item = lista[_hash_anterior];\r\n        _item.hash_anterior = _hash_anterior;\r\n        _item.nro_lote = _nro_lote;\r\n        _item.nro_botellas = _nro_botellas;\r\n        _item.createdAt = block.timestamp;\r\n        emit Id(_hash_anterior);\r\n        contador++;\r\n    }\r\n\r\n    function encontrar(uint256 _id) public view returns (Model memory) {\r\n        return lista[_id];\r\n    }\r\n\r\n    function editar(\r\n        uint256 _id,\r\n        string memory _nro_lote,\r\n        uint256 _nro_botellas\r\n    ) public {\r\n        Model storage _item = lista[_id];\r\n        if (_item.aprobado == false) {\r\n            _item.nro_lote = _nro_lote;\r\n            _item.nro_botellas = _nro_botellas;\r\n            emit Id(_item.hash_anterior);\r\n        }\r\n    }\r\n\r\n    function encontrarBotella(bytes32 _hash)\r\n        public\r\n        view\r\n        returns (Botella memory)\r\n    {\r\n        for (uint256 i = 0; i < contador; i++) {\r\n            Botella[] memory _botellas = lista[i].botellas;\r\n            for (uint256 j = 0; j < _botellas.length; j++) {\r\n                Botella memory _botella = _botellas[j];\r\n                if (_botella.hash_botella == _hash) {\r\n                    return _botella;\r\n                }\r\n            }\r\n        }\r\n        revert(\"Hash de botella no encontrada\");\r\n    }\r\n\r\n    function cambiarEstadoBotella(\r\n        uint256 _id,\r\n        uint256 _index,\r\n        uint256 _estado\r\n    ) public {\r\n        Botella[] storage _botellas = lista[_id].botellas;\r\n        _botellas[_index].estados.push(_estado);\r\n        _botellas[_index].fecha_estados.push(block.timestamp);\r\n        emit Id(_id);\r\n    }\r\n\r\n    function testA(uint256 _id) public view returns (Model memory) {\r\n        Model memory _item = lista[_id];\r\n        _item.aprobado = true;\r\n        Botella[] memory _botellas = new Botella[](_item.nro_botellas);\r\n        for (uint256 index = 0; index < _item.nro_botellas; index++) {\r\n            uint256[] memory _estados = new uint256[](1);\r\n            uint256[] memory _fecha_estados = new uint256[](1);\r\n            Botella memory _botella = Botella(\r\n                _id,\r\n                _id,\r\n                keccak256(abi.encodePacked(_id)),\r\n                _estados,\r\n                _fecha_estados,\r\n                block.timestamp\r\n            );\r\n            _botella.nro_botella = index + 1;\r\n            _botella.hash_anterior = _id;\r\n            _botella.hash_botella = keccak256(abi.encodePacked(index));\r\n            _botella.estados[0] = 0;\r\n            _botella.fecha_estados[0] = block.timestamp;\r\n            _botella.createdAt = block.timestamp;\r\n            _botellas[index] = _botella;\r\n        }\r\n        _item.botellas = _botellas;\r\n        return _item;\r\n    }\r\n\r\n    function aprobarProceso(uint256 _id) public {\r\n        Model storage _item = lista[_id];\r\n        _item.aprobado = true;\r\n        for (uint256 index = 0; index < _item.nro_botellas; index++) {\r\n            uint256[] memory _estados = new uint256[](1);\r\n            uint256[] memory _fecha_estados = new uint256[](1);\r\n            _estados[0] = 0;\r\n            _fecha_estados[0] = block.timestamp;\r\n            Botella memory _botella = Botella(\r\n                index + 1,\r\n                _id,\r\n                keccak256(abi.encodePacked(_id)),\r\n                _estados,\r\n                _fecha_estados,\r\n                block.timestamp\r\n            );\r\n            _item.botellas.push(_botella);\r\n        }\r\n        emit Id(_item.hash_anterior);\r\n    }\r\n}\r\n",
  "sourcePath": "E:\\UNL\\CICLO X\\vinos-blockchain\\contracts\\procesos\\7EnvasadoContract.sol",
  "compiler": {
    "name": "solc",
    "version": "0.8.11+commit.d7f03943.Emscripten.clang"
  },
  "schemaVersion": "3.4.4",
  "updatedAt": "2022-07-05T02:07:08.669Z",
  "networkType": "ethereum",
  "devdoc": {
    "kind": "dev",
    "methods": {},
    "version": 1
  },
  "userdoc": {
    "kind": "user",
    "methods": {},
    "version": 1
  }
}