{
  "contractName": "EnvasadoContract",
  "abi": [
    {
      "anonymous": false,
      "inputs": [
        {
          "indexed": false,
          "internalType": "uint256",
          "name": "id",
          "type": "uint256"
        }
      ],
      "name": "Id",
      "type": "event"
    },
    {
      "inputs": [
        {
          "internalType": "address",
          "name": "",
          "type": "address"
        },
        {
          "internalType": "uint256",
          "name": "",
          "type": "uint256"
        }
      ],
      "name": "lista",
      "outputs": [
        {
          "internalType": "uint256",
          "name": "hash_anterior",
          "type": "uint256"
        },
        {
          "internalType": "string",
          "name": "nro_lote",
          "type": "string"
        },
        {
          "internalType": "uint256",
          "name": "nro_botellas",
          "type": "uint256"
        },
        {
          "internalType": "string",
          "name": "info",
          "type": "string"
        },
        {
          "internalType": "uint256",
          "name": "i_botella",
          "type": "uint256"
        },
        {
          "internalType": "string",
          "name": "hash_botella",
          "type": "string"
        },
        {
          "internalType": "bool",
          "name": "aprobado",
          "type": "bool"
        },
        {
          "internalType": "uint256",
          "name": "createdAt",
          "type": "uint256"
        }
      ],
      "stateMutability": "view",
      "type": "function",
      "constant": true
    },
    {
      "inputs": [
        {
          "internalType": "uint256",
          "name": "_hash_anterior",
          "type": "uint256"
        },
        {
          "internalType": "string",
          "name": "_nro_lote",
          "type": "string"
        },
        {
          "internalType": "uint256",
          "name": "_nro_botellas",
          "type": "uint256"
        }
      ],
      "name": "crear",
      "outputs": [],
      "stateMutability": "nonpayable",
      "type": "function"
    },
    {
      "inputs": [
        {
          "internalType": "uint256",
          "name": "_id",
          "type": "uint256"
        }
      ],
      "name": "encontrar",
      "outputs": [
        {
          "components": [
            {
              "internalType": "uint256",
              "name": "hash_anterior",
              "type": "uint256"
            },
            {
              "internalType": "string",
              "name": "nro_lote",
              "type": "string"
            },
            {
              "internalType": "uint256",
              "name": "nro_botellas",
              "type": "uint256"
            },
            {
              "internalType": "string[]",
              "name": "botellas",
              "type": "string[]"
            },
            {
              "internalType": "string",
              "name": "info",
              "type": "string"
            },
            {
              "internalType": "uint256",
              "name": "i_botella",
              "type": "uint256"
            },
            {
              "internalType": "string",
              "name": "hash_botella",
              "type": "string"
            },
            {
              "internalType": "bool",
              "name": "aprobado",
              "type": "bool"
            },
            {
              "internalType": "uint256",
              "name": "createdAt",
              "type": "uint256"
            }
          ],
          "internalType": "struct EnvasadoContract.Model",
          "name": "",
          "type": "tuple"
        }
      ],
      "stateMutability": "view",
      "type": "function",
      "constant": true
    },
    {
      "inputs": [
        {
          "internalType": "uint256",
          "name": "_id",
          "type": "uint256"
        },
        {
          "internalType": "string",
          "name": "_nro_lote",
          "type": "string"
        },
        {
          "internalType": "uint256",
          "name": "_nro_botellas",
          "type": "uint256"
        }
      ],
      "name": "editar",
      "outputs": [],
      "stateMutability": "nonpayable",
      "type": "function"
    },
    {
      "inputs": [
        {
          "internalType": "bytes32",
          "name": "_b",
          "type": "bytes32"
        }
      ],
      "name": "bytes32ToString",
      "outputs": [
        {
          "internalType": "string",
          "name": "",
          "type": "string"
        }
      ],
      "stateMutability": "pure",
      "type": "function",
      "constant": true
    },
    {
      "inputs": [
        {
          "internalType": "string",
          "name": "_info",
          "type": "string"
        },
        {
          "internalType": "uint256",
          "name": "_i",
          "type": "uint256"
        }
      ],
      "name": "encryptarInfo",
      "outputs": [
        {
          "internalType": "string",
          "name": "",
          "type": "string"
        }
      ],
      "stateMutability": "pure",
      "type": "function",
      "constant": true
    },
    {
      "inputs": [
        {
          "internalType": "string",
          "name": "_hash",
          "type": "string"
        }
      ],
      "name": "encontrarBotella",
      "outputs": [
        {
          "components": [
            {
              "internalType": "uint256",
              "name": "hash_anterior",
              "type": "uint256"
            },
            {
              "internalType": "string",
              "name": "nro_lote",
              "type": "string"
            },
            {
              "internalType": "uint256",
              "name": "nro_botellas",
              "type": "uint256"
            },
            {
              "internalType": "string[]",
              "name": "botellas",
              "type": "string[]"
            },
            {
              "internalType": "string",
              "name": "info",
              "type": "string"
            },
            {
              "internalType": "uint256",
              "name": "i_botella",
              "type": "uint256"
            },
            {
              "internalType": "string",
              "name": "hash_botella",
              "type": "string"
            },
            {
              "internalType": "bool",
              "name": "aprobado",
              "type": "bool"
            },
            {
              "internalType": "uint256",
              "name": "createdAt",
              "type": "uint256"
            }
          ],
          "internalType": "struct EnvasadoContract.Model",
          "name": "",
          "type": "tuple"
        }
      ],
      "stateMutability": "view",
      "type": "function",
      "constant": true
    },
    {
      "inputs": [
        {
          "internalType": "uint256",
          "name": "_id",
          "type": "uint256"
        },
        {
          "internalType": "string",
          "name": "_info",
          "type": "string"
        }
      ],
      "name": "aprobarProceso",
      "outputs": [],
      "stateMutability": "nonpayable",
      "type": "function"
    }
  ],
  "bytecode": "0x608060405234801561001057600080fd5b50611d8d806100206000396000f3fe608060405234801561001057600080fd5b50600436106100885760003560e01c80639201de551161005b5780639201de55146101125780639982d13714610125578063a3a0eedf14610138578063d65d8b7c1461014b57600080fd5b806331caa9e11461008d578063489c8bae146100bd57806385d3a43a146100dd57806389611114146100fd575b600080fd5b6100a061009b36600461188b565b61015e565b6040516100b498979695949392919061191b565b60405180910390f35b6100d06100cb366004611a24565b610343565b6040516100b49190611a69565b6100f06100eb366004611a7c565b6104b1565b6040516100b49190611aed565b61011061010b366004611bac565b6107a7565b005b6100d0610120366004611a7c565b610bfa565b610110610133366004611bf3565b610d31565b610110610146366004611bf3565b610e91565b6100f0610159366004611c43565b61128a565b60006020818152928152604080822090935290815220805460018201805491929161018890611c80565b80601f01602080910402602001604051908101604052809291908181526020018280546101b490611c80565b80156102015780601f106101d657610100808354040283529160200191610201565b820191906000526020600020905b8154815290600101906020018083116101e457829003601f168201915b50505050509080600201549080600401805461021c90611c80565b80601f016020809104026020016040519081016040528092919081815260200182805461024890611c80565b80156102955780601f1061026a57610100808354040283529160200191610295565b820191906000526020600020905b81548152906001019060200180831161027857829003601f168201915b5050505050908060050154908060060180546102b090611c80565b80601f01602080910402602001604051908101604052809291908181526020018280546102dc90611c80565b80156103295780601f106102fe57610100808354040283529160200191610329565b820191906000526020600020905b81548152906001019060200180831161030c57829003601f168201915b505050506007830154600890930154919260ff1691905088565b6060600060028460405160200161035a9190611cbb565b60408051601f198184030181529082905261037491611cbb565b602060405180830381855afa158015610391573d6000803e3d6000fd5b5050506040513d601f19601f820116820180604052508101906103b49190611cd7565b905060006002846040516020016103cd91815260200190565b60408051601f19818403018152908290526103e791611cbb565b602060405180830381855afa158015610404573d6000803e3d6000fd5b5050506040513d601f19601f820116820180604052508101906104279190611cd7565b90506000600282841860405160200161044291815260200190565b60408051601f198184030181529082905261045c91611cbb565b602060405180830381855afa158015610479573d6000803e3d6000fd5b5050506040513d601f19601f8201168201806040525081019061049c9190611cd7565b90506104a781610bfa565b9695505050505050565b6104b96116f1565b33600090815260208181526040808320858452825291829020825161012081019093528054835260018101805491928401916104f490611c80565b80601f016020809104026020016040519081016040528092919081815260200182805461052090611c80565b801561056d5780601f106105425761010080835404028352916020019161056d565b820191906000526020600020905b81548152906001019060200180831161055057829003601f168201915b505050505081526020016002820154815260200160038201805480602002602001604051908101604052809291908181526020016000905b828210156106515783829060005260206000200180546105c490611c80565b80601f01602080910402602001604051908101604052809291908181526020018280546105f090611c80565b801561063d5780601f106106125761010080835404028352916020019161063d565b820191906000526020600020905b81548152906001019060200180831161062057829003601f168201915b5050505050815260200190600101906105a5565b50505050815260200160048201805461066990611c80565b80601f016020809104026020016040519081016040528092919081815260200182805461069590611c80565b80156106e25780601f106106b7576101008083540402835291602001916106e2565b820191906000526020600020905b8154815290600101906020018083116106c557829003601f168201915b505050505081526020016005820154815260200160068201805461070590611c80565b80601f016020809104026020016040519081016040528092919081815260200182805461073190611c80565b801561077e5780601f106107535761010080835404028352916020019161077e565b820191906000526020600020905b81548152906001019060200180831161076157829003601f168201915b5050509183525050600782015460ff161515602082015260089091015460409091015292915050565b336000908152602081815260408083208584528252808320815161012081019092528054825260018101805492939192918401916107e490611c80565b80601f016020809104026020016040519081016040528092919081815260200182805461081090611c80565b801561085d5780601f106108325761010080835404028352916020019161085d565b820191906000526020600020905b81548152906001019060200180831161084057829003601f168201915b505050505081526020016002820154815260200160038201805480602002602001604051908101604052809291908181526020016000905b828210156109415783829060005260206000200180546108b490611c80565b80601f01602080910402602001604051908101604052809291908181526020018280546108e090611c80565b801561092d5780601f106109025761010080835404028352916020019161092d565b820191906000526020600020905b81548152906001019060200180831161091057829003601f168201915b505050505081526020019060010190610895565b50505050815260200160048201805461095990611c80565b80601f016020809104026020016040519081016040528092919081815260200182805461098590611c80565b80156109d25780601f106109a7576101008083540402835291602001916109d2565b820191906000526020600020905b8154815290600101906020018083116109b557829003601f168201915b50505050508152602001600582015481526020016006820180546109f590611c80565b80601f0160208091040260200160405190810160405280929190818152602001828054610a2190611c80565b8015610a6e5780601f10610a4357610100808354040283529160200191610a6e565b820191906000526020600020905b815481529060010190602001808311610a5157829003601f168201915b5050509183525050600782015460ff16151560208201526008909101546040909101529050606060015b82604001518111610add57610aad8482610343565b828281518110610abf57610abf611cf0565b60200260200101819052508080610ad590611d1c565b915050610a98565b50600160e083015260608201819052610af68385610343565b6080830152336000908152602081815260408083208784528252909120835181558184015180518593610b3092600185019291019061173f565b506040820151600282015560608201518051610b569160038401916020909101906117c3565b5060808201518051610b7291600484019160209091019061173f565b5060a0820151600582015560c08201518051610b9891600684019160209091019061173f565b5060e082015160078201805460ff19169115159190911790556101009091015160089091015581516040519081527f1ee8913b1e0c76a71150bbb92d8921b2c975601c8c9991b8ef86a1b389672774906020015b60405180910390a150505050565b606060005b60208160ff16108015610c335750828160ff1660208110610c2257610c22611cf0565b1a60f81b6001600160f81b03191615155b15610c4a5780610c4281611d37565b915050610bff565b60008160ff1667ffffffffffffffff811115610c6857610c68611981565b6040519080825280601f01601f191660200182016040528015610c92576020820181803683370190505b509050600091505b60208260ff16108015610cce5750838260ff1660208110610cbd57610cbd611cf0565b1a60f81b6001600160f81b03191615155b15610d2a57838260ff1660208110610ce857610ce8611cf0565b1a60f81b818360ff1681518110610d0157610d01611cf0565b60200101906001600160f81b031916908160001a90535081610d2281611d37565b925050610c9a565b9392505050565b60408051610120810182528481526020808201858152828401859052606083810181905260808401819052600060a0850181905260c0850182905260e085018190524261010086015233815280845285812089825284529485208451815591518051919586959094869491939192610db2926001850192919091019061173f565b506040820151600282015560608201518051610dd89160038401916020909101906117c3565b5060808201518051610df491600484019160209091019061173f565b5060a0820151600582015560c08201518051610e1a91600684019160209091019061173f565b5060e082015160078201805460ff1916911515919091179055610100909101516008909101556040518781527f1ee8913b1e0c76a71150bbb92d8921b2c975601c8c9991b8ef86a1b3896727749060200160405180910390a160018054906000610e8383611d1c565b919050555050505050505050565b33600090815260208181526040808320868452825280832081516101208101909252805482526001810180549293919291840191610ece90611c80565b80601f0160208091040260200160405190810160405280929190818152602001828054610efa90611c80565b8015610f475780601f10610f1c57610100808354040283529160200191610f47565b820191906000526020600020905b815481529060010190602001808311610f2a57829003601f168201915b505050505081526020016002820154815260200160038201805480602002602001604051908101604052809291908181526020016000905b8282101561102b578382906000526020600020018054610f9e90611c80565b80601f0160208091040260200160405190810160405280929190818152602001828054610fca90611c80565b80156110175780601f10610fec57610100808354040283529160200191611017565b820191906000526020600020905b815481529060010190602001808311610ffa57829003601f168201915b505050505081526020019060010190610f7f565b50505050815260200160048201805461104390611c80565b80601f016020809104026020016040519081016040528092919081815260200182805461106f90611c80565b80156110bc5780601f10611091576101008083540402835291602001916110bc565b820191906000526020600020905b81548152906001019060200180831161109f57829003601f168201915b50505050508152602001600582015481526020016006820180546110df90611c80565b80601f016020809104026020016040519081016040528092919081815260200182805461110b90611c80565b80156111585780601f1061112d57610100808354040283529160200191611158565b820191906000526020600020905b81548152906001019060200180831161113b57829003601f168201915b5050509183525050600782015460ff161515602082015260089091015460409091015260e08101519091506112845760208082018481526040808401859052336000908152808452818120888252845220835181559051805184936111c492600185019291019061173f565b5060408201516002820155606082015180516111ea9160038401916020909101906117c3565b506080820151805161120691600484019160209091019061173f565b5060a0820151600582015560c0820151805161122c91600684019160209091019061173f565b5060e082015160078201805460ff19169115159190911790556101009091015160089091015580516040519081527f1ee8913b1e0c76a71150bbb92d8921b2c975601c8c9991b8ef86a1b38967277490602001610bec565b50505050565b6112926116f1565b61129a6116f1565b60005b6001548110156116ea5733600090815260208181526040808320848452825291829020825161012081019093528054835260018101805491928401916112e290611c80565b80601f016020809104026020016040519081016040528092919081815260200182805461130e90611c80565b801561135b5780601f106113305761010080835404028352916020019161135b565b820191906000526020600020905b81548152906001019060200180831161133e57829003601f168201915b505050505081526020016002820154815260200160038201805480602002602001604051908101604052809291908181526020016000905b8282101561143f5783829060005260206000200180546113b290611c80565b80601f01602080910402602001604051908101604052809291908181526020018280546113de90611c80565b801561142b5780601f106114005761010080835404028352916020019161142b565b820191906000526020600020905b81548152906001019060200180831161140e57829003601f168201915b505050505081526020019060010190611393565b50505050815260200160048201805461145790611c80565b80601f016020809104026020016040519081016040528092919081815260200182805461148390611c80565b80156114d05780601f106114a5576101008083540402835291602001916114d0565b820191906000526020600020905b8154815290600101906020018083116114b357829003601f168201915b50505050508152602001600582015481526020016006820180546114f390611c80565b80601f016020809104026020016040519081016040528092919081815260200182805461151f90611c80565b801561156c5780601f106115415761010080835404028352916020019161156c565b820191906000526020600020905b81548152906001019060200180831161154f57829003601f168201915b5050509183525050600782015460ff1615156020820152600890910154604090910152915060015b826040015181116116d7576000836060015182815181106115b7576115b7611cf0565b6020026020010151905060006002826040516020016115d69190611cbb565b60408051601f19818403018152908290526115f091611cbb565b602060405180830381855afa15801561160d573d6000803e3d6000fd5b5050506040513d601f19601f820116820180604052508101906116309190611cd7565b905060006002886040516020016116479190611cbb565b60408051601f198184030181529082905261166191611cbb565b602060405180830381855afa15801561167e573d6000803e3d6000fd5b5050506040513d601f19601f820116820180604052508101906116a19190611cd7565b9050808214156116c157505060a084019190915260c08301525092915050565b50505080806116cf90611d1c565b915050611594565b50806116e281611d1c565b91505061129d565b5092915050565b60405180610120016040528060008152602001606081526020016000815260200160608152602001606081526020016000815260200160608152602001600015158152602001600081525090565b82805461174b90611c80565b90600052602060002090601f01602090048101928261176d57600085556117b3565b82601f1061178657805160ff19168380011785556117b3565b828001600101855582156117b3579182015b828111156117b3578251825591602001919060010190611798565b506117bf92915061181c565b5090565b828054828255906000526020600020908101928215611810579160200282015b82811115611810578251805161180091849160209091019061173f565b50916020019190600101906117e3565b506117bf929150611831565b5b808211156117bf576000815560010161181d565b808211156117bf576000611845828261184e565b50600101611831565b50805461185a90611c80565b6000825580601f1061186a575050565b601f016020900490600052602060002090810190611888919061181c565b50565b6000806040838503121561189e57600080fd5b82356001600160a01b03811681146118b557600080fd5b946020939093013593505050565b60005b838110156118de5781810151838201526020016118c6565b838111156112845750506000910152565b600081518084526119078160208601602086016118c3565b601f01601f19169290920160200192915050565b60006101008a83528060208401526119358184018b6118ef565b9050886040840152828103606084015261194f81896118ef565b905086608084015282810360a084015261196981876118ef565b94151560c0840152505060e001529695505050505050565b634e487b7160e01b600052604160045260246000fd5b600082601f8301126119a857600080fd5b813567ffffffffffffffff808211156119c3576119c3611981565b604051601f8301601f19908116603f011681019082821181831017156119eb576119eb611981565b81604052838152866020858801011115611a0457600080fd5b836020870160208301376000602085830101528094505050505092915050565b60008060408385031215611a3757600080fd5b823567ffffffffffffffff811115611a4e57600080fd5b611a5a85828601611997565b95602094909401359450505050565b602081526000610d2a60208301846118ef565b600060208284031215611a8e57600080fd5b5035919050565b600082825180855260208086019550808260051b84010181860160005b84811015611ae057601f19868403018952611ace8383516118ef565b98840198925090830190600101611ab2565b5090979650505050505050565b602081528151602082015260006020830151610120806040850152611b166101408501836118ef565b9150604085015160608501526060850151601f1980868503016080870152611b3e8483611a95565b935060808701519150808685030160a0870152611b5b84836118ef565b935060a087015160c087015260c08701519150808685030160e087015250611b8383826118ef565b92505060e0850151610100611b9b8187018315159052565b959095015193019290925250919050565b60008060408385031215611bbf57600080fd5b82359150602083013567ffffffffffffffff811115611bdd57600080fd5b611be985828601611997565b9150509250929050565b600080600060608486031215611c0857600080fd5b83359250602084013567ffffffffffffffff811115611c2657600080fd5b611c3286828701611997565b925050604084013590509250925092565b600060208284031215611c5557600080fd5b813567ffffffffffffffff811115611c6c57600080fd5b611c7884828501611997565b949350505050565b600181811c90821680611c9457607f821691505b60208210811415611cb557634e487b7160e01b600052602260045260246000fd5b50919050565b60008251611ccd8184602087016118c3565b9190910192915050565b600060208284031215611ce957600080fd5b5051919050565b634e487b7160e01b600052603260045260246000fd5b634e487b7160e01b600052601160045260246000fd5b6000600019821415611d3057611d30611d06565b5060010190565b600060ff821660ff811415611d4e57611d4e611d06565b6001019291505056fea2646970667358221220f9f50cfadb66a96a37c16cd3ae6451f9c10426c379b3703eabd512701f350fa664736f6c634300080b0033",
  "immutableReferences": {},
  "source": "// SPDX-License-Identifier: MIT\r\npragma solidity ^0.8.11;\r\n\r\ncontract EnvasadoContract {\r\n    struct Model {\r\n        uint256 hash_anterior;\r\n        string nro_lote;\r\n        uint256 nro_botellas;\r\n        string[] botellas;\r\n        string info;\r\n        uint256 i_botella;\r\n        string hash_botella;\r\n        bool aprobado;\r\n        uint256 createdAt;\r\n    }\r\n    event Id(uint256 id);\r\n    mapping(address => mapping(uint256 => Model)) public lista;\r\n    uint256 contador;\r\n\r\n    function crear(\r\n        uint256 _hash_anterior,\r\n        string memory _nro_lote,\r\n        uint256 _nro_botellas\r\n    ) public {\r\n        string[] memory _botellas;\r\n        string memory _info;\r\n        uint256 _i_botella;\r\n        string memory _hash_botella;\r\n        lista[msg.sender][_hash_anterior] = Model(\r\n            _hash_anterior,\r\n            _nro_lote,\r\n            _nro_botellas,\r\n            _botellas,\r\n            _info,\r\n            _i_botella,\r\n            _hash_botella,\r\n            false,\r\n            block.timestamp\r\n        );\r\n        emit Id(_hash_anterior);\r\n        contador++;\r\n    }\r\n\r\n    function encontrar(uint256 _id) public view returns (Model memory) {\r\n        return lista[msg.sender][_id];\r\n    }\r\n\r\n    function editar(\r\n        uint256 _id,\r\n        string memory _nro_lote,\r\n        uint256 _nro_botellas\r\n    ) public {\r\n        Model memory _item = lista[msg.sender][_id];\r\n        if (_item.aprobado == false) {\r\n            _item.nro_lote = _nro_lote;\r\n            _item.nro_botellas = _nro_botellas;\r\n            lista[msg.sender][_id] = _item;\r\n            emit Id(_item.hash_anterior);\r\n        }\r\n    }\r\n\r\n    function bytes32ToString(bytes32 _b) public pure returns (string memory) {\r\n        uint8 i = 0;\r\n        while (i < 32 && _b[i] != 0) {\r\n            i++;\r\n        }\r\n        bytes memory bytesArray = new bytes(i);\r\n        for (i = 0; i < 32 && _b[i] != 0; i++) {\r\n            bytesArray[i] = _b[i];\r\n        }\r\n        return string(bytesArray);\r\n    }\r\n\r\n    function encryptarInfo(string memory _info, uint256 _i)\r\n        public\r\n        pure\r\n        returns (string memory)\r\n    {\r\n        bytes32 _hash1 = sha256(abi.encodePacked(_info));\r\n        bytes32 _hash2 = sha256(abi.encodePacked(_i));\r\n        bytes32 _hash = sha256(abi.encodePacked(_hash1 ^ _hash2));\r\n        return bytes32ToString(_hash);\r\n    }\r\n\r\n    function encontrarBotella(string memory _hash)\r\n        public\r\n        view\r\n        returns (Model memory)\r\n    {\r\n        Model memory _item;\r\n        for (uint256 i = 0; i < contador; i++) {\r\n            _item = lista[msg.sender][i];\r\n            for (uint256 j = 1; j <= _item.nro_botellas; j++) {\r\n                string memory _hash_botella = _item.botellas[j];\r\n                bytes32 _hash1 = sha256(abi.encodePacked(_hash_botella));\r\n                bytes32 _hash2 = sha256(abi.encodePacked(_hash));\r\n                if (_hash1 == _hash2) {\r\n                    _item.i_botella = j;\r\n                    _item.hash_botella = _hash_botella;\r\n                    return _item;\r\n                }\r\n            }\r\n        }\r\n        return _item;\r\n    }\r\n\r\n    function aprobarProceso(uint256 _id, string memory _info) public {\r\n        Model memory _item = lista[msg.sender][_id];\r\n        string[] memory _botellas;\r\n        for (uint256 index = 1; index <= _item.nro_botellas; index++) {\r\n            _botellas[index] = encryptarInfo(_info, index);\r\n        }\r\n        _item.aprobado = true;\r\n        _item.botellas = _botellas;\r\n        _item.info = encryptarInfo(_info, _id);\r\n        lista[msg.sender][_id] = _item;\r\n        emit Id(_item.hash_anterior);\r\n    }\r\n}\r\n",
  "sourcePath": "E:\\UNL\\CICLO X\\vinos-blockchain\\contracts\\7EnvasadoContract.sol",
  "compiler": {
    "name": "solc",
    "version": "0.8.11+commit.d7f03943.Emscripten.clang"
  },
  "schemaVersion": "3.4.4",
  "updatedAt": "2022-06-28T02:38:48.985Z",
  "networkType": "ethereum",
  "devdoc": {
    "kind": "dev",
    "methods": {},
    "version": 1
  },
  "userdoc": {
    "kind": "user",
    "methods": {},
    "version": 1
  }
}