{
  "contractName": "EnvasadoContract",
  "abi": [
    {
      "anonymous": false,
      "inputs": [
        {
          "indexed": false,
          "internalType": "uint256",
          "name": "id",
          "type": "uint256"
        }
      ],
      "name": "Id",
      "type": "event"
    },
    {
      "inputs": [
        {
          "internalType": "address",
          "name": "",
          "type": "address"
        }
      ],
      "name": "contador",
      "outputs": [
        {
          "internalType": "uint256",
          "name": "",
          "type": "uint256"
        }
      ],
      "stateMutability": "view",
      "type": "function",
      "constant": true
    },
    {
      "inputs": [
        {
          "internalType": "address",
          "name": "",
          "type": "address"
        },
        {
          "internalType": "uint256",
          "name": "",
          "type": "uint256"
        }
      ],
      "name": "lista",
      "outputs": [
        {
          "internalType": "uint256",
          "name": "hash_anterior",
          "type": "uint256"
        },
        {
          "internalType": "string",
          "name": "nro_lote",
          "type": "string"
        },
        {
          "internalType": "uint256",
          "name": "nro_botellas",
          "type": "uint256"
        },
        {
          "internalType": "bytes32",
          "name": "info",
          "type": "bytes32"
        },
        {
          "internalType": "uint256",
          "name": "i_botella",
          "type": "uint256"
        },
        {
          "internalType": "bytes32",
          "name": "hash_botella",
          "type": "bytes32"
        },
        {
          "internalType": "uint256",
          "name": "estado_botella",
          "type": "uint256"
        },
        {
          "internalType": "bool",
          "name": "aprobado",
          "type": "bool"
        },
        {
          "internalType": "uint256",
          "name": "createdAt",
          "type": "uint256"
        }
      ],
      "stateMutability": "view",
      "type": "function",
      "constant": true
    },
    {
      "inputs": [
        {
          "internalType": "uint256",
          "name": "_hash_anterior",
          "type": "uint256"
        },
        {
          "internalType": "string",
          "name": "_nro_lote",
          "type": "string"
        },
        {
          "internalType": "uint256",
          "name": "_nro_botellas",
          "type": "uint256"
        }
      ],
      "name": "crear",
      "outputs": [],
      "stateMutability": "nonpayable",
      "type": "function"
    },
    {
      "inputs": [
        {
          "internalType": "uint256",
          "name": "_id",
          "type": "uint256"
        }
      ],
      "name": "encontrar",
      "outputs": [
        {
          "components": [
            {
              "internalType": "uint256",
              "name": "hash_anterior",
              "type": "uint256"
            },
            {
              "internalType": "string",
              "name": "nro_lote",
              "type": "string"
            },
            {
              "internalType": "uint256",
              "name": "nro_botellas",
              "type": "uint256"
            },
            {
              "internalType": "bytes32[]",
              "name": "botellas",
              "type": "bytes32[]"
            },
            {
              "internalType": "uint256[]",
              "name": "estado_botellas",
              "type": "uint256[]"
            },
            {
              "internalType": "bytes32",
              "name": "info",
              "type": "bytes32"
            },
            {
              "internalType": "uint256",
              "name": "i_botella",
              "type": "uint256"
            },
            {
              "internalType": "bytes32",
              "name": "hash_botella",
              "type": "bytes32"
            },
            {
              "internalType": "uint256",
              "name": "estado_botella",
              "type": "uint256"
            },
            {
              "internalType": "bool",
              "name": "aprobado",
              "type": "bool"
            },
            {
              "internalType": "uint256",
              "name": "createdAt",
              "type": "uint256"
            }
          ],
          "internalType": "struct EnvasadoContract.Model",
          "name": "",
          "type": "tuple"
        }
      ],
      "stateMutability": "view",
      "type": "function",
      "constant": true
    },
    {
      "inputs": [
        {
          "internalType": "uint256",
          "name": "_id",
          "type": "uint256"
        },
        {
          "internalType": "string",
          "name": "_nro_lote",
          "type": "string"
        },
        {
          "internalType": "uint256",
          "name": "_nro_botellas",
          "type": "uint256"
        }
      ],
      "name": "editar",
      "outputs": [],
      "stateMutability": "nonpayable",
      "type": "function"
    },
    {
      "inputs": [
        {
          "internalType": "bytes32",
          "name": "_hash",
          "type": "bytes32"
        }
      ],
      "name": "encontrarBotella",
      "outputs": [
        {
          "components": [
            {
              "internalType": "uint256",
              "name": "hash_anterior",
              "type": "uint256"
            },
            {
              "internalType": "string",
              "name": "nro_lote",
              "type": "string"
            },
            {
              "internalType": "uint256",
              "name": "nro_botellas",
              "type": "uint256"
            },
            {
              "internalType": "bytes32[]",
              "name": "botellas",
              "type": "bytes32[]"
            },
            {
              "internalType": "uint256[]",
              "name": "estado_botellas",
              "type": "uint256[]"
            },
            {
              "internalType": "bytes32",
              "name": "info",
              "type": "bytes32"
            },
            {
              "internalType": "uint256",
              "name": "i_botella",
              "type": "uint256"
            },
            {
              "internalType": "bytes32",
              "name": "hash_botella",
              "type": "bytes32"
            },
            {
              "internalType": "uint256",
              "name": "estado_botella",
              "type": "uint256"
            },
            {
              "internalType": "bool",
              "name": "aprobado",
              "type": "bool"
            },
            {
              "internalType": "uint256",
              "name": "createdAt",
              "type": "uint256"
            }
          ],
          "internalType": "struct EnvasadoContract.Model",
          "name": "",
          "type": "tuple"
        }
      ],
      "stateMutability": "view",
      "type": "function",
      "constant": true
    },
    {
      "inputs": [
        {
          "internalType": "uint256",
          "name": "_id",
          "type": "uint256"
        },
        {
          "internalType": "uint256",
          "name": "_index",
          "type": "uint256"
        },
        {
          "internalType": "uint256",
          "name": "_estado",
          "type": "uint256"
        }
      ],
      "name": "cambiarEstadoBotella",
      "outputs": [],
      "stateMutability": "nonpayable",
      "type": "function"
    },
    {
      "inputs": [
        {
          "internalType": "uint256",
          "name": "_id",
          "type": "uint256"
        },
        {
          "internalType": "string",
          "name": "_info",
          "type": "string"
        }
      ],
      "name": "aprobarProceso",
      "outputs": [],
      "stateMutability": "nonpayable",
      "type": "function"
    }
  ],
  "bytecode": "0x608060405234801561001057600080fd5b5061173a806100206000396000f3fe608060405234801561001057600080fd5b50600436106100885760003560e01c80639982d1371161005b5780639982d13714610106578063a3a0eedf14610119578063aedb974b1461012c578063b693c6f81461015a57600080fd5b806331caa9e11461008d5780638155d81d146100be57806385d3a43a146100de57806389611114146100f1575b600080fd5b6100a061009b3660046112cb565b61016d565b6040516100b59998979695949392919061134d565b60405180910390f35b6100d16100cc3660046113a2565b61024c565b6040516100b591906113f6565b6100d16100ec3660046113a2565b610523565b6101046100ff366004611563565b6106ea565b005b6101046101143660046115aa565b610b0c565b6101046101273660046115aa565b610c8d565b61014c61013a3660046115fa565b60016020526000908152604090205481565b6040519081526020016100b5565b61010461016836600461161c565b610f60565b60006020818152928152604080822090935290815220805460018201805491929161019790611648565b80601f01602080910402602001604051908101604052809291908181526020018280546101c390611648565b80156102105780601f106101e557610100808354040283529160200191610210565b820191906000526020600020905b8154815290600101906020018083116101f357829003601f168201915b50505050600283015460058401546006850154600786015460088701546009880154600a90980154969794969395509193909260ff9091169089565b61025461117a565b60005b336000908152600160205260409020548110156104d657336000908152602081815260408083208484528252808320815161016081019092528054825260018101805492939192918401916102ab90611648565b80601f01602080910402602001604051908101604052809291908181526020018280546102d790611648565b80156103245780601f106102f957610100808354040283529160200191610324565b820191906000526020600020905b81548152906001019060200180831161030757829003601f168201915b50505050508152602001600282015481526020016003820180548060200260200160405190810160405280929190818152602001828054801561038657602002820191906000526020600020905b815481526020019060010190808311610372575b50505050508152602001600482018054806020026020016040519081016040528092919081815260200182805480156103de57602002820191906000526020600020905b8154815260200190600101908083116103ca575b505050918352505060058201546020820152600682015460408201526007820154606082015260088201546080820152600982015460ff16151560a0820152600a9091015460c090910152905060005b81604001518110156104c15760008260600151828151811061045257610452611683565b6020026020010151905060008360800151838151811061047457610474611683565b60200260200101519050868214156104ac576104918360016116af565b60c085015260e0840191909152610100830152509392505050565b505080806104b9906116c7565b91505061042e565b505080806104ce906116c7565b915050610257565b5060405162461bcd60e51b815260206004820152601d60248201527f4861736820646520626f74656c6c61206e6f20656e636f6e7472616461000000604482015260640160405180910390fd5b61052b61117a565b336000908152602081815260408083208584528252918290208251610160810190935280548352600181018054919284019161056690611648565b80601f016020809104026020016040519081016040528092919081815260200182805461059290611648565b80156105df5780601f106105b4576101008083540402835291602001916105df565b820191906000526020600020905b8154815290600101906020018083116105c257829003601f168201915b50505050508152602001600282015481526020016003820180548060200260200160405190810160405280929190818152602001828054801561064157602002820191906000526020600020905b81548152602001906001019080831161062d575b505050505081526020016004820180548060200260200160405190810160405280929190818152602001828054801561069957602002820191906000526020600020905b815481526020019060010190808311610685575b505050918352505060058201546020820152600682015460408201526007820154606082015260088201546080820152600982015460ff16151560a0820152600a9091015460c09091015292915050565b3360009081526020818152604080832085845282528083208151610160810190925280548252600181018054929391929184019161072790611648565b80601f016020809104026020016040519081016040528092919081815260200182805461075390611648565b80156107a05780601f10610775576101008083540402835291602001916107a0565b820191906000526020600020905b81548152906001019060200180831161078357829003601f168201915b50505050508152602001600282015481526020016003820180548060200260200160405190810160405280929190818152602001828054801561080257602002820191906000526020600020905b8154815260200190600101908083116107ee575b505050505081526020016004820180548060200260200160405190810160405280929190818152602001828054801561085a57602002820191906000526020600020905b815481526020019060010190808311610846575b50505091835250506005820154602082015260068201546040808301919091526007830154606083015260088301546080830152600983015460ff16151560a0830152600a9092015460c09091015281015190915060009067ffffffffffffffff8111156108ca576108ca6114c0565b6040519080825280602002602001820160405280156108f3578160200160208202803683370190505b5090506000826040015167ffffffffffffffff811115610915576109156114c0565b60405190808252806020026020018201604052801561093e578160200160208202803683370190505b50905060005b83604001518110156109c85784816040516020016109639291906116e2565b6040516020818303038152906040528051906020012083828151811061098b5761098b611683565b60200260200101818152505060008282815181106109ab576109ab611683565b6020908102919091010152806109c0816116c7565b915050610944565b50600161012084015260608301829052608083018190526040516109f290859087906020016116e2565b60408051601f19818403018152918152815160209283012060a0860152336000908152808352818120888252835220845181558482015180518693610a3e9260018501929101906111dc565b506040820151600282015560608201518051610a64916003840191602090910190611260565b5060808201518051610a80916004840191602090910190611260565b5060a0820151600582015560c0820151600682015560e08201516007820155610100820151600882015561012082015160098201805460ff191691151591909117905561014090910151600a9091015582516040519081527f1ee8913b1e0c76a71150bbb92d8921b2c975601c8c9991b8ef86a1b3896727749060200160405180910390a15050505050565b60408051610160810182528481526020808201858152828401859052606083810181905260808401819052600060a0850181905260c0850181905260e085018190526101008501819052610120850181905242610140860152338152808452858120898252845294852084518155915180519195869590948594859485949192610b9d9260018501929101906111dc565b506040820151600282015560608201518051610bc3916003840191602090910190611260565b5060808201518051610bdf916004840191602090910190611260565b5060a0820151600582015560c0820151600682015560e08201516007820155610100820151600882015561012082015160098201805460ff191691151591909117905561014090910151600a909101556040518981527f1ee8913b1e0c76a71150bbb92d8921b2c975601c8c9991b8ef86a1b3896727749060200160405180910390a1336000908152600160205260408120805491610c7d836116c7565b9190505550505050505050505050565b33600090815260208181526040808320868452825280832081516101608101909252805482526001810180549293919291840191610cca90611648565b80601f0160208091040260200160405190810160405280929190818152602001828054610cf690611648565b8015610d435780601f10610d1857610100808354040283529160200191610d43565b820191906000526020600020905b815481529060010190602001808311610d2657829003601f168201915b505050505081526020016002820154815260200160038201805480602002602001604051908101604052809291908181526020018280548015610da557602002820191906000526020600020905b815481526020019060010190808311610d91575b5050505050815260200160048201805480602002602001604051908101604052809291908181526020018280548015610dfd57602002820191906000526020600020905b815481526020019060010190808311610de9575b505050918352505060058201546020820152600682015460408201526007820154606082015260088201546080820152600982015460ff16151560a0820152600a9091015460c090910152610120810151909150610f5a576020808201848152604080840185905233600090815280845281812088825284522083518155905180518493610e929260018501929101906111dc565b506040820151600282015560608201518051610eb8916003840191602090910190611260565b5060808201518051610ed4916004840191602090910190611260565b5060a0820151600582015560c0820151600682015560e08201516007820155610100820151600882015561012082015160098201805460ff191691151591909117905561014090910151600a9091015580516040519081527f1ee8913b1e0c76a71150bbb92d8921b2c975601c8c9991b8ef86a1b3896727749060200160405180910390a15b50505050565b33600090815260208181526040808320868452825280832081516101608101909252805482526001810180549293919291840191610f9d90611648565b80601f0160208091040260200160405190810160405280929190818152602001828054610fc990611648565b80156110165780601f10610feb57610100808354040283529160200191611016565b820191906000526020600020905b815481529060010190602001808311610ff957829003601f168201915b50505050508152602001600282015481526020016003820180548060200260200160405190810160405280929190818152602001828054801561107857602002820191906000526020600020905b815481526020019060010190808311611064575b50505050508152602001600482018054806020026020016040519081016040528092919081815260200182805480156110d057602002820191906000526020600020905b8154815260200190600101908083116110bc575b50505091835250506005820154602082015260068201546040820152600782015460608201526008820154608080830191909152600983015460ff16151560a0830152600a9092015460c090910152810151805191925083918590811061113957611139611683565b602090810291909101810191909152336000908152808252604080822087835283529020825181558282015180518493610e929260018501929101906111dc565b604051806101600160405280600081526020016060815260200160008152602001606081526020016060815260200160008019168152602001600081526020016000801916815260200160008152602001600015158152602001600081525090565b8280546111e890611648565b90600052602060002090601f01602090048101928261120a5760008555611250565b82601f1061122357805160ff1916838001178555611250565b82800160010185558215611250579182015b82811115611250578251825591602001919060010190611235565b5061125c92915061129a565b5090565b8280548282559060005260206000209081019282156112505791602002820182811115611250578251825591602001919060010190611235565b5b8082111561125c576000815560010161129b565b80356001600160a01b03811681146112c657600080fd5b919050565b600080604083850312156112de57600080fd5b6112e7836112af565b946020939093013593505050565b60005b838110156113105781810151838201526020016112f8565b83811115610f5a5750506000910152565b600081518084526113398160208601602086016112f5565b601f01601f19169290920160200192915050565b60006101208b83528060208401526113678184018c611321565b604084019a909a5250506060810196909652608086019490945260a085019290925260c0840152151560e08301526101009091015292915050565b6000602082840312156113b457600080fd5b5035919050565b600081518084526020808501945080840160005b838110156113eb578151875295820195908201906001016113cf565b509495945050505050565b60208152815160208201526000602083015161016080604085015261141f610180850183611321565b9150604085015160608501526060850151601f198086850301608087015261144784836113bb565b935060808701519150808685030160a08701525061146583826113bb565b92505060a085015160c085015260c085015160e085015260e08501516101008181870152808701519150506101208181870152808701519150506101406114af8187018315159052565b959095015193019290925250919050565b634e487b7160e01b600052604160045260246000fd5b600082601f8301126114e757600080fd5b813567ffffffffffffffff80821115611502576115026114c0565b604051601f8301601f19908116603f0116810190828211818310171561152a5761152a6114c0565b8160405283815286602085880101111561154357600080fd5b836020870160208301376000602085830101528094505050505092915050565b6000806040838503121561157657600080fd5b82359150602083013567ffffffffffffffff81111561159457600080fd5b6115a0858286016114d6565b9150509250929050565b6000806000606084860312156115bf57600080fd5b83359250602084013567ffffffffffffffff8111156115dd57600080fd5b6115e9868287016114d6565b925050604084013590509250925092565b60006020828403121561160c57600080fd5b611615826112af565b9392505050565b60008060006060848603121561163157600080fd5b505081359360208301359350604090920135919050565b600181811c9082168061165c57607f821691505b6020821081141561167d57634e487b7160e01b600052602260045260246000fd5b50919050565b634e487b7160e01b600052603260045260246000fd5b634e487b7160e01b600052601160045260246000fd5b600082198211156116c2576116c2611699565b500190565b60006000198214156116db576116db611699565b5060010190565b600083516116f48184602088016112f5565b919091019182525060200191905056fea2646970667358221220a54f327a7ba3e337fc084d08f6142609e4bfba0b2d5d22dd319cf2b9bf3c6ffd64736f6c634300080b0033",
  "immutableReferences": {},
  "source": "// SPDX-License-Identifier: MIT\r\npragma solidity ^0.8.11;\r\n\r\ncontract EnvasadoContract {\r\n    struct Model {\r\n        uint256 hash_anterior;\r\n        string nro_lote;\r\n        uint256 nro_botellas;\r\n        bytes32[] botellas;\r\n        uint256[] estado_botellas;\r\n        bytes32 info;\r\n        uint256 i_botella;\r\n        bytes32 hash_botella;\r\n        uint256 estado_botella;\r\n        bool aprobado;\r\n        uint256 createdAt;\r\n    }\r\n\r\n    event Id(uint256 id);\r\n    mapping(address => mapping(uint256 => Model)) public lista;\r\n    mapping(address => uint256) public contador;\r\n\r\n    function crear(\r\n        uint256 _hash_anterior,\r\n        string memory _nro_lote,\r\n        uint256 _nro_botellas\r\n    ) public {\r\n        bytes32[] memory _botellas;\r\n        uint256[] memory _estado_botellas;\r\n        bytes32 _info;\r\n        uint256 _i_botella;\r\n        bytes32 _hash_botella;\r\n        uint256 _estado_botella;\r\n        lista[msg.sender][_hash_anterior] = Model(\r\n            _hash_anterior,\r\n            _nro_lote,\r\n            _nro_botellas,\r\n            _botellas,\r\n            _estado_botellas,\r\n            _info,\r\n            _i_botella,\r\n            _hash_botella,\r\n            _estado_botella,\r\n            false,\r\n            block.timestamp\r\n        );\r\n        emit Id(_hash_anterior);\r\n        contador[msg.sender]++;\r\n    }\r\n\r\n    function encontrar(uint256 _id) public view returns (Model memory) {\r\n        return lista[msg.sender][_id];\r\n    }\r\n\r\n    function editar(\r\n        uint256 _id,\r\n        string memory _nro_lote,\r\n        uint256 _nro_botellas\r\n    ) public {\r\n        Model memory _item = lista[msg.sender][_id];\r\n        if (_item.aprobado == false) {\r\n            _item.nro_lote = _nro_lote;\r\n            _item.nro_botellas = _nro_botellas;\r\n            lista[msg.sender][_id] = _item;\r\n            emit Id(_item.hash_anterior);\r\n        }\r\n    }\r\n\r\n    function encontrarBotella(bytes32 _hash)\r\n        public\r\n        view\r\n        returns (Model memory)\r\n    {\r\n        for (uint256 i = 0; i < contador[msg.sender]; i++) {\r\n            Model memory _item = lista[msg.sender][i];\r\n            for (uint256 j = 0; j < _item.nro_botellas; j++) {\r\n                bytes32 _hash_botella = _item.botellas[j];\r\n                uint256 _estado_botella = _item.estado_botellas[j];\r\n                if (_hash_botella == _hash) {\r\n                    _item.i_botella = j + 1;\r\n                    _item.hash_botella = _hash_botella;\r\n                    _item.estado_botella = _estado_botella;\r\n                    return _item;\r\n                }\r\n            }\r\n        }\r\n        revert(\"Hash de botella no encontrada\");\r\n    }\r\n\r\n    function cambiarEstadoBotella(\r\n        uint256 _id,\r\n        uint256 _index,\r\n        uint256 _estado\r\n    ) public {\r\n        Model memory _item = lista[msg.sender][_id];\r\n        _item.estado_botellas[_index] = _estado;\r\n        lista[msg.sender][_id] = _item;\r\n        emit Id(_item.hash_anterior);\r\n    }\r\n\r\n    function aprobarProceso(uint256 _id, string memory _info) public {\r\n        Model memory _item = lista[msg.sender][_id];\r\n        bytes32[] memory _botellas = new bytes32[](_item.nro_botellas);\r\n        uint256[] memory _estado_botellas = new uint256[](_item.nro_botellas);\r\n        for (uint256 index = 0; index < _item.nro_botellas; index++) {\r\n            _botellas[index] = keccak256(abi.encodePacked(_info, index));\r\n            _estado_botellas[index] = 0;\r\n        }\r\n        _item.aprobado = true;\r\n        _item.botellas = _botellas;\r\n        _item.estado_botellas = _estado_botellas;\r\n        _item.info = keccak256(abi.encodePacked(_info, _id));\r\n        lista[msg.sender][_id] = _item;\r\n        emit Id(_item.hash_anterior);\r\n    }\r\n}\r\n",
  "sourcePath": "E:\\UNL\\CICLO X\\vinos-blockchain\\contracts\\procesos\\7EnvasadoContract.sol",
  "compiler": {
    "name": "solc",
    "version": "0.8.11+commit.d7f03943.Emscripten.clang"
  },
  "schemaVersion": "3.4.4",
  "updatedAt": "2022-06-29T01:52:09.848Z",
  "networkType": "ethereum",
  "devdoc": {
    "kind": "dev",
    "methods": {},
    "version": 1
  },
  "userdoc": {
    "kind": "user",
    "methods": {},
    "version": 1
  }
}