{
  "contractName": "EnvasadoContract",
  "abi": [
    {
      "anonymous": false,
      "inputs": [
        {
          "indexed": false,
          "internalType": "uint256",
          "name": "id",
          "type": "uint256"
        }
      ],
      "name": "Id",
      "type": "event"
    },
    {
      "inputs": [
        {
          "internalType": "address",
          "name": "",
          "type": "address"
        }
      ],
      "name": "contador",
      "outputs": [
        {
          "internalType": "uint256",
          "name": "",
          "type": "uint256"
        }
      ],
      "stateMutability": "view",
      "type": "function",
      "constant": true
    },
    {
      "inputs": [
        {
          "internalType": "address",
          "name": "",
          "type": "address"
        },
        {
          "internalType": "uint256",
          "name": "",
          "type": "uint256"
        }
      ],
      "name": "lista",
      "outputs": [
        {
          "internalType": "uint256",
          "name": "hash_anterior",
          "type": "uint256"
        },
        {
          "internalType": "string",
          "name": "nro_lote",
          "type": "string"
        },
        {
          "internalType": "uint256",
          "name": "nro_botellas",
          "type": "uint256"
        },
        {
          "internalType": "bytes32",
          "name": "info",
          "type": "bytes32"
        },
        {
          "internalType": "uint256",
          "name": "i_botella",
          "type": "uint256"
        },
        {
          "internalType": "bytes32",
          "name": "hash_botella",
          "type": "bytes32"
        },
        {
          "internalType": "bool",
          "name": "aprobado",
          "type": "bool"
        },
        {
          "internalType": "uint256",
          "name": "createdAt",
          "type": "uint256"
        }
      ],
      "stateMutability": "view",
      "type": "function",
      "constant": true
    },
    {
      "inputs": [
        {
          "internalType": "uint256",
          "name": "_hash_anterior",
          "type": "uint256"
        },
        {
          "internalType": "string",
          "name": "_nro_lote",
          "type": "string"
        },
        {
          "internalType": "uint256",
          "name": "_nro_botellas",
          "type": "uint256"
        }
      ],
      "name": "crear",
      "outputs": [],
      "stateMutability": "nonpayable",
      "type": "function"
    },
    {
      "inputs": [
        {
          "internalType": "uint256",
          "name": "_id",
          "type": "uint256"
        }
      ],
      "name": "encontrar",
      "outputs": [
        {
          "components": [
            {
              "internalType": "uint256",
              "name": "hash_anterior",
              "type": "uint256"
            },
            {
              "internalType": "string",
              "name": "nro_lote",
              "type": "string"
            },
            {
              "internalType": "uint256",
              "name": "nro_botellas",
              "type": "uint256"
            },
            {
              "internalType": "bytes32[]",
              "name": "botellas",
              "type": "bytes32[]"
            },
            {
              "internalType": "bytes32",
              "name": "info",
              "type": "bytes32"
            },
            {
              "internalType": "uint256",
              "name": "i_botella",
              "type": "uint256"
            },
            {
              "internalType": "bytes32",
              "name": "hash_botella",
              "type": "bytes32"
            },
            {
              "internalType": "bool",
              "name": "aprobado",
              "type": "bool"
            },
            {
              "internalType": "uint256",
              "name": "createdAt",
              "type": "uint256"
            }
          ],
          "internalType": "struct EnvasadoContract.Model",
          "name": "",
          "type": "tuple"
        }
      ],
      "stateMutability": "view",
      "type": "function",
      "constant": true
    },
    {
      "inputs": [
        {
          "internalType": "uint256",
          "name": "_id",
          "type": "uint256"
        },
        {
          "internalType": "string",
          "name": "_nro_lote",
          "type": "string"
        },
        {
          "internalType": "uint256",
          "name": "_nro_botellas",
          "type": "uint256"
        }
      ],
      "name": "editar",
      "outputs": [],
      "stateMutability": "nonpayable",
      "type": "function"
    },
    {
      "inputs": [
        {
          "internalType": "uint256",
          "name": "_contador",
          "type": "uint256"
        },
        {
          "internalType": "string",
          "name": "_info",
          "type": "string"
        }
      ],
      "name": "encontrarTest",
      "outputs": [
        {
          "internalType": "bytes32[]",
          "name": "",
          "type": "bytes32[]"
        }
      ],
      "stateMutability": "pure",
      "type": "function",
      "constant": true
    },
    {
      "inputs": [
        {
          "internalType": "bytes32",
          "name": "_hash",
          "type": "bytes32"
        }
      ],
      "name": "encontrarBotella",
      "outputs": [
        {
          "components": [
            {
              "internalType": "uint256",
              "name": "hash_anterior",
              "type": "uint256"
            },
            {
              "internalType": "string",
              "name": "nro_lote",
              "type": "string"
            },
            {
              "internalType": "uint256",
              "name": "nro_botellas",
              "type": "uint256"
            },
            {
              "internalType": "bytes32[]",
              "name": "botellas",
              "type": "bytes32[]"
            },
            {
              "internalType": "bytes32",
              "name": "info",
              "type": "bytes32"
            },
            {
              "internalType": "uint256",
              "name": "i_botella",
              "type": "uint256"
            },
            {
              "internalType": "bytes32",
              "name": "hash_botella",
              "type": "bytes32"
            },
            {
              "internalType": "bool",
              "name": "aprobado",
              "type": "bool"
            },
            {
              "internalType": "uint256",
              "name": "createdAt",
              "type": "uint256"
            }
          ],
          "internalType": "struct EnvasadoContract.Model",
          "name": "",
          "type": "tuple"
        }
      ],
      "stateMutability": "view",
      "type": "function",
      "constant": true
    },
    {
      "inputs": [
        {
          "internalType": "uint256",
          "name": "_id",
          "type": "uint256"
        },
        {
          "internalType": "string",
          "name": "_info",
          "type": "string"
        }
      ],
      "name": "aprobarProceso",
      "outputs": [],
      "stateMutability": "nonpayable",
      "type": "function"
    }
  ],
  "bytecode": "0x608060405234801561001057600080fd5b506112c7806100206000396000f3fe608060405234801561001057600080fd5b50600436106100885760003560e01c80639982d1371161005b5780639982d137146101055780639b2a6b2114610118578063a3a0eedf14610138578063aedb974b1461014b57600080fd5b806331caa9e11461008d5780638155d81d146100bd57806385d3a43a146100dd57806389611114146100f0575b600080fd5b6100a061009b366004610e99565b610179565b6040516100b4989796959493929190610f1b565b60405180910390f35b6100d06100cb366004610f6a565b610250565b6040516100b49190610fbe565b6100d06100eb366004610f6a565b61048e565b6101036100fe3660046110f8565b6105f3565b005b61010361011336600461113f565b610918565b61012b6101263660046110f8565b610a5e565b6040516100b4919061118f565b61010361014636600461113f565b610b12565b61016b6101593660046111d3565b60016020526000908152604090205481565b6040519081526020016100b4565b6000602081815292815260408082209093529081522080546001820180549192916101a3906111f5565b80601f01602080910402602001604051908101604052809291908181526020018280546101cf906111f5565b801561021c5780601f106101f15761010080835404028352916020019161021c565b820191906000526020600020905b8154815290600101906020018083116101ff57829003601f168201915b50505060028401546004850154600586015460068701546007880154600890980154969793969295509093509160ff169088565b610258610d56565b60005b3360009081526001602052604090205481101561044157336000908152602081815260408083208484528252808320815161012081019092528054825260018101805492939192918401916102af906111f5565b80601f01602080910402602001604051908101604052809291908181526020018280546102db906111f5565b80156103285780601f106102fd57610100808354040283529160200191610328565b820191906000526020600020905b81548152906001019060200180831161030b57829003601f168201915b50505050508152602001600282015481526020016003820180548060200260200160405190810160405280929190818152602001828054801561038a57602002820191906000526020600020905b815481526020019060010190808311610376575b5050509183525050600482015460208201526005820154604082015260068201546060820152600782015460ff161515608082015260089091015460a090910152905060015b8160400151811161042c576000826060015182815181106103f3576103f3611230565b60200260200101519050858114156104195760a083019190915260c08201529392505050565b508061042481611246565b9150506103d0565b5050808061043990611246565b91505061025b565b5060405162461bcd60e51b815260206004820152601d60248201527f4861736820646520626f74656c6c61206e6f20656e636f6e7472616461000000604482015260640160405180910390fd5b610496610d56565b33600090815260208181526040808320858452825291829020825161012081019093528054835260018101805491928401916104d1906111f5565b80601f01602080910402602001604051908101604052809291908181526020018280546104fd906111f5565b801561054a5780601f1061051f5761010080835404028352916020019161054a565b820191906000526020600020905b81548152906001019060200180831161052d57829003601f168201915b5050505050815260200160028201548152602001600382018054806020026020016040519081016040528092919081815260200182805480156105ac57602002820191906000526020600020905b815481526020019060010190808311610598575b5050509183525050600482015460208201526005820154604082015260068201546060820152600782015460ff161515608082015260089091015460a09091015292915050565b33600090815260208181526040808320858452825280832081516101208101909252805482526001810180549293919291840191610630906111f5565b80601f016020809104026020016040519081016040528092919081815260200182805461065c906111f5565b80156106a95780601f1061067e576101008083540402835291602001916106a9565b820191906000526020600020905b81548152906001019060200180831161068c57829003601f168201915b50505050508152602001600282015481526020016003820180548060200260200160405190810160405280929190818152602001828054801561070b57602002820191906000526020600020905b8154815260200190600101908083116106f7575b505050918352505060048201546020820152600582015460408083019190915260068301546060830152600783015460ff161515608083015260089092015460a09091015281015190915060009067ffffffffffffffff81111561077157610771611055565b60405190808252806020026020018201604052801561079a578160200160208202803683370190505b50905060005b82604001518110156108045783816040516020016107bf92919061126f565b604051602081830303815290604052805190602001208282815181106107e7576107e7611230565b6020908102919091010152806107fc81611246565b9150506107a0565b50600160e083015260608201819052604051610826908490869060200161126f565b60408051601f1981840301815291815281516020928301206080850152336000908152808352818120878252835220835181558382015180518593610872926001850192910190610daa565b506040820151600282015560608201518051610898916003840191602090910190610e2e565b506080820151600482015560a0820151600582015560c0820151600682015560e082015160078201805460ff19169115159190911790556101009091015160089091015581516040519081527f1ee8913b1e0c76a71150bbb92d8921b2c975601c8c9991b8ef86a1b389672774906020015b60405180910390a150505050565b60408051610120810182528481526020808201858152828401859052606083810181905260006080850181905260a0850181905260c0850181905260e08501819052426101008601523381528084528581208982528452948520845181559151805191959485948594919391926109989260018501929190910190610daa565b5060408201516002820155606082015180516109be916003840191602090910190610e2e565b506080820151600482015560a0820151600582015560c0820151600682015560e082015160078201805460ff1916911515919091179055610100909101516008909101556040518781527f1ee8913b1e0c76a71150bbb92d8921b2c975601c8c9991b8ef86a1b3896727749060200160405180910390a1336000908152600160205260408120805491610a5083611246565b919050555050505050505050565b606060008367ffffffffffffffff811115610a7b57610a7b611055565b604051908082528060200260200182016040528015610aa4578160200160208202803683370190505b50905060005b84811015610b0a578381604051602001610ac592919061126f565b60405160208183030381529060405280519060200120828281518110610aed57610aed611230565b602090810291909101015280610b0281611246565b915050610aaa565b509392505050565b33600090815260208181526040808320868452825280832081516101208101909252805482526001810180549293919291840191610b4f906111f5565b80601f0160208091040260200160405190810160405280929190818152602001828054610b7b906111f5565b8015610bc85780601f10610b9d57610100808354040283529160200191610bc8565b820191906000526020600020905b815481529060010190602001808311610bab57829003601f168201915b505050505081526020016002820154815260200160038201805480602002602001604051908101604052809291908181526020018280548015610c2a57602002820191906000526020600020905b815481526020019060010190808311610c16575b5050509183525050600482015460208201526005820154604082015260068201546060820152600782015460ff161515608082015260089091015460a09091015260e0810151909150610d50576020808201848152604080840185905233600090815280845281812088825284522083518155905180518493610cb4926001850192910190610daa565b506040820151600282015560608201518051610cda916003840191602090910190610e2e565b506080820151600482015560a0820151600582015560c0820151600682015560e082015160078201805460ff19169115159190911790556101009091015160089091015580516040519081527f1ee8913b1e0c76a71150bbb92d8921b2c975601c8c9991b8ef86a1b3896727749060200161090a565b50505050565b60405180610120016040528060008152602001606081526020016000815260200160608152602001600080191681526020016000815260200160008019168152602001600015158152602001600081525090565b828054610db6906111f5565b90600052602060002090601f016020900481019282610dd85760008555610e1e565b82601f10610df157805160ff1916838001178555610e1e565b82800160010185558215610e1e579182015b82811115610e1e578251825591602001919060010190610e03565b50610e2a929150610e68565b5090565b828054828255906000526020600020908101928215610e1e5791602002820182811115610e1e578251825591602001919060010190610e03565b5b80821115610e2a5760008155600101610e69565b80356001600160a01b0381168114610e9457600080fd5b919050565b60008060408385031215610eac57600080fd5b610eb583610e7d565b946020939093013593505050565b60005b83811015610ede578181015183820152602001610ec6565b83811115610d505750506000910152565b60008151808452610f07816020860160208601610ec3565b601f01601f19169290920160200192915050565b60006101008a8352806020840152610f358184018b610eef565b604084019990995250506060810195909552608085019390935260a0840191909152151560c083015260e09091015292915050565b600060208284031215610f7c57600080fd5b5035919050565b600081518084526020808501945080840160005b83811015610fb357815187529582019590820190600101610f97565b509495945050505050565b602081528151602082015260006020830151610120806040850152610fe7610140850183610eef565b9150604085015160608501526060850151601f1985840301608086015261100e8382610f83565b925050608085015160a085015260a085015160c085015260c085015160e085015260e08501516101006110448187018315159052565b959095015193019290925250919050565b634e487b7160e01b600052604160045260246000fd5b600082601f83011261107c57600080fd5b813567ffffffffffffffff8082111561109757611097611055565b604051601f8301601f19908116603f011681019082821181831017156110bf576110bf611055565b816040528381528660208588010111156110d857600080fd5b836020870160208301376000602085830101528094505050505092915050565b6000806040838503121561110b57600080fd5b82359150602083013567ffffffffffffffff81111561112957600080fd5b6111358582860161106b565b9150509250929050565b60008060006060848603121561115457600080fd5b83359250602084013567ffffffffffffffff81111561117257600080fd5b61117e8682870161106b565b925050604084013590509250925092565b6020808252825182820181905260009190848201906040850190845b818110156111c7578351835292840192918401916001016111ab565b50909695505050505050565b6000602082840312156111e557600080fd5b6111ee82610e7d565b9392505050565b600181811c9082168061120957607f821691505b6020821081141561122a57634e487b7160e01b600052602260045260246000fd5b50919050565b634e487b7160e01b600052603260045260246000fd5b600060001982141561126857634e487b7160e01b600052601160045260246000fd5b5060010190565b60008351611281818460208801610ec3565b919091019182525060200191905056fea264697066735822122090568369ff903468f4507467f79df202536bede50b79aa4a3ba4866e05ac065764736f6c634300080b0033",
  "immutableReferences": {},
  "source": "// SPDX-License-Identifier: MIT\r\npragma solidity ^0.8.11;\r\n\r\ncontract EnvasadoContract {\r\n    struct Model {\r\n        uint256 hash_anterior;\r\n        string nro_lote;\r\n        uint256 nro_botellas;\r\n        bytes32[] botellas;\r\n        bytes32 info;\r\n        uint256 i_botella;\r\n        bytes32 hash_botella;\r\n        bool aprobado;\r\n        uint256 createdAt;\r\n    }\r\n\r\n    event Id(uint256 id);\r\n    mapping(address => mapping(uint256 => Model)) public lista;\r\n    mapping(address => uint256) public contador;\r\n\r\n    function crear(\r\n        uint256 _hash_anterior,\r\n        string memory _nro_lote,\r\n        uint256 _nro_botellas\r\n    ) public {\r\n        bytes32[] memory _botellas;\r\n        bytes32 _info;\r\n        uint256 _i_botella;\r\n        bytes32 _hash_botella;\r\n        lista[msg.sender][_hash_anterior] = Model(\r\n            _hash_anterior,\r\n            _nro_lote,\r\n            _nro_botellas,\r\n            _botellas,\r\n            _info,\r\n            _i_botella,\r\n            _hash_botella,\r\n            false,\r\n            block.timestamp\r\n        );\r\n        emit Id(_hash_anterior);\r\n        contador[msg.sender]++;\r\n    }\r\n\r\n    function encontrar(uint256 _id) public view returns (Model memory) {\r\n        return lista[msg.sender][_id];\r\n    }\r\n\r\n    function editar(\r\n        uint256 _id,\r\n        string memory _nro_lote,\r\n        uint256 _nro_botellas\r\n    ) public {\r\n        Model memory _item = lista[msg.sender][_id];\r\n        if (_item.aprobado == false) {\r\n            _item.nro_lote = _nro_lote;\r\n            _item.nro_botellas = _nro_botellas;\r\n            lista[msg.sender][_id] = _item;\r\n            emit Id(_item.hash_anterior);\r\n        }\r\n    }\r\n\r\n    function encontrarTest(uint256 _contador, string memory _info)\r\n        public\r\n        pure\r\n        returns (bytes32[] memory)\r\n    {\r\n        bytes32[] memory _botellas = new bytes32[](_contador);\r\n        for (uint256 index = 0; index < _contador; index++) {\r\n            _botellas[index] = keccak256(abi.encodePacked(_info, index));\r\n        }\r\n        return _botellas;\r\n    }\r\n\r\n    function encontrarBotella(bytes32 _hash)\r\n        public\r\n        view\r\n        returns (Model memory)\r\n    {\r\n        for (uint256 i = 0; i < contador[msg.sender]; i++) {\r\n            Model memory _item = lista[msg.sender][i];\r\n            for (uint256 j = 1; j <= _item.nro_botellas; j++) {\r\n                bytes32 _hash_botella = _item.botellas[j];\r\n                if (_hash_botella == _hash) {\r\n                    _item.i_botella = j;\r\n                    _item.hash_botella = _hash_botella;\r\n                    return _item;\r\n                }\r\n            }\r\n        }\r\n        revert(\"Hash de botella no encontrada\");\r\n    }\r\n\r\n    function aprobarProceso(uint256 _id, string memory _info) public {\r\n        Model memory _item = lista[msg.sender][_id];\r\n        bytes32[] memory _botellas = new bytes32[](_item.nro_botellas);\r\n        for (uint256 index = 0; index < _item.nro_botellas; index++) {\r\n            _botellas[index] = keccak256(abi.encodePacked(_info, index));\r\n        }\r\n        _item.aprobado = true;\r\n        _item.botellas = _botellas;\r\n        _item.info = keccak256(abi.encodePacked(_info, _id));\r\n        lista[msg.sender][_id] = _item;\r\n        emit Id(_item.hash_anterior);\r\n    }\r\n}\r\n",
  "sourcePath": "E:\\UNL\\CICLO X\\vinos-blockchain\\contracts\\7EnvasadoContract.sol",
  "compiler": {
    "name": "solc",
    "version": "0.8.11+commit.d7f03943.Emscripten.clang"
  },
  "schemaVersion": "3.4.4",
  "updatedAt": "2022-06-28T15:46:00.381Z",
  "networkType": "ethereum",
  "devdoc": {
    "kind": "dev",
    "methods": {},
    "version": 1
  },
  "userdoc": {
    "kind": "user",
    "methods": {},
    "version": 1
  }
}