{
  "contractName": "ExtraccionMostoContract",
  "abi": [
    {
      "anonymous": false,
      "inputs": [
        {
          "indexed": false,
          "internalType": "uint256",
          "name": "id",
          "type": "uint256"
        }
      ],
      "name": "Id",
      "type": "event"
    },
    {
      "inputs": [],
      "name": "contador",
      "outputs": [
        {
          "internalType": "uint256",
          "name": "",
          "type": "uint256"
        }
      ],
      "stateMutability": "view",
      "type": "function",
      "constant": true
    },
    {
      "inputs": [
        {
          "internalType": "uint256",
          "name": "",
          "type": "uint256"
        }
      ],
      "name": "lista",
      "outputs": [
        {
          "internalType": "uint256",
          "name": "hash_anterior",
          "type": "uint256"
        },
        {
          "internalType": "string",
          "name": "tipo",
          "type": "string"
        },
        {
          "internalType": "bool",
          "name": "aprobado",
          "type": "bool"
        },
        {
          "internalType": "uint256",
          "name": "createdAt",
          "type": "uint256"
        }
      ],
      "stateMutability": "view",
      "type": "function",
      "constant": true
    },
    {
      "inputs": [
        {
          "internalType": "uint256",
          "name": "_hash_anterior",
          "type": "uint256"
        },
        {
          "internalType": "string",
          "name": "_tipo",
          "type": "string"
        }
      ],
      "name": "crear",
      "outputs": [],
      "stateMutability": "nonpayable",
      "type": "function"
    },
    {
      "inputs": [
        {
          "internalType": "uint256",
          "name": "_id",
          "type": "uint256"
        },
        {
          "internalType": "string",
          "name": "_tipo",
          "type": "string"
        }
      ],
      "name": "editar",
      "outputs": [],
      "stateMutability": "nonpayable",
      "type": "function"
    },
    {
      "inputs": [
        {
          "internalType": "uint256",
          "name": "_id",
          "type": "uint256"
        }
      ],
      "name": "aprobarProceso",
      "outputs": [],
      "stateMutability": "nonpayable",
      "type": "function"
    }
  ],
  "bytecode": "0x608060405234801561001057600080fd5b506107ab806100206000396000f3fe608060405234801561001057600080fd5b50600436106100575760003560e01c80630cc76c141461005c57806353d27cc2146100885780637a00b8a91461009f5780638ad33cf3146100b4578063caab2e9c146100c7575b600080fd5b61006f61006a3660046105b3565b6100da565b60405161007f94939291906105cc565b60405180910390f35b61009160015481565b60405190815260200161007f565b6100b26100ad3660046105b3565b61018f565b005b6100b26100c2366004610656565b6102f7565b6100b26100d5366004610656565b610462565b600060208190529081526040902080546001820180549192916100fc90610711565b80601f016020809104026020016040519081016040528092919081815260200182805461012890610711565b80156101755780601f1061014a57610100808354040283529160200191610175565b820191906000526020600020905b81548152906001019060200180831161015857829003601f168201915b505050506002830154600390930154919260ff1691905084565b6000806000838152602001908152602001600020604051806080016040529081600082015481526020016001820180546101c890610711565b80601f01602080910402602001604051908101604052809291908181526020018280546101f490610711565b80156102415780601f1061021657610100808354040283529160200191610241565b820191906000526020600020905b81548152906001019060200180831161022457829003601f168201915b5050509183525050600282015460ff1615156020808301919091526003909201546040918201526001838201819052600086815280845291909120835181558383015180519495508594919361029c9385019291019061051a565b5060408281015160028301805460ff1916911515919091179055606090920151600390910155518281527f1ee8913b1e0c76a71150bbb92d8921b2c975601c8c9991b8ef86a1b3896727749060200160405180910390a15050565b60008060008481526020019081526020016000206040518060800160405290816000820154815260200160018201805461033090610711565b80601f016020809104026020016040519081016040528092919081815260200182805461035c90610711565b80156103a95780601f1061037e576101008083540402835291602001916103a9565b820191906000526020600020905b81548152906001019060200180831161038c57829003601f168201915b5050509183525050600282015460ff161515602082015260039091015460409182015281015190915061045d5760208082018381526000858152808352604090208351815590518051849361040592600185019291019061051a565b5060408281015160028301805460ff1916911515919091179055606090920151600390910155518381527f1ee8913b1e0c76a71150bbb92d8921b2c975601c8c9991b8ef86a1b3896727749060200160405180910390a15b505050565b60408051608081018252838152602080820184815260008385018190524260608501528681528083529390932082518155925180519293926104aa926001850192019061051a565b5060408281015160028301805460ff1916911515919091179055606090920151600390910155518281527f1ee8913b1e0c76a71150bbb92d8921b2c975601c8c9991b8ef86a1b3896727749060200160405180910390a1600180549060006105118361074c565b91905055505050565b82805461052690610711565b90600052602060002090601f016020900481019282610548576000855561058e565b82601f1061056157805160ff191683800117855561058e565b8280016001018555821561058e579182015b8281111561058e578251825591602001919060010190610573565b5061059a92915061059e565b5090565b5b8082111561059a576000815560010161059f565b6000602082840312156105c557600080fd5b5035919050565b84815260006020608081840152855180608085015260005b818110156106005787810183015185820160a0015282016105e4565b8181111561061257600060a083870101525b50601f01601f1916830160a00191506106319050604083018515159052565b82606083015295945050505050565b634e487b7160e01b600052604160045260246000fd5b6000806040838503121561066957600080fd5b82359150602083013567ffffffffffffffff8082111561068857600080fd5b818501915085601f83011261069c57600080fd5b8135818111156106ae576106ae610640565b604051601f8201601f19908116603f011681019083821181831017156106d6576106d6610640565b816040528281528860208487010111156106ef57600080fd5b8260208601602083013760006020848301015280955050505050509250929050565b600181811c9082168061072557607f821691505b6020821081141561074657634e487b7160e01b600052602260045260246000fd5b50919050565b600060001982141561076e57634e487b7160e01b600052601160045260246000fd5b506001019056fea26469706673582212209444f97d086b788d20c4fd2905b87d7429dc7e255af5e2fd1716c22d7e6b55d864736f6c634300080b0033",
  "immutableReferences": {},
  "source": "// SPDX-License-Identifier: MIT\r\npragma solidity ^0.8.11;\r\n\r\ncontract ExtraccionMostoContract {\r\n    struct Model {\r\n        uint256 hash_anterior;\r\n        string tipo;\r\n        bool aprobado;\r\n        uint256 createdAt;\r\n    }\r\n    event Id(uint256 id);\r\n\r\n    mapping(uint256 => Model) public lista;\r\n    uint256 public contador;\r\n\r\n    function crear(uint256 _hash_anterior, string memory _tipo) public {\r\n        lista[_hash_anterior] = Model(\r\n            _hash_anterior,\r\n            _tipo,\r\n            false,\r\n            block.timestamp\r\n        );\r\n        emit Id(_hash_anterior);\r\n        contador++;\r\n    }\r\n\r\n    function editar(uint256 _id, string memory _tipo) public {\r\n        Model memory _item = lista[_id];\r\n        if (_item.aprobado == false) {\r\n            _item.tipo = _tipo;\r\n            lista[_id] = _item;\r\n            emit Id(_id);\r\n        }\r\n    }\r\n\r\n    function aprobarProceso(uint256 _id) public {\r\n        Model memory _item = lista[_id];\r\n        _item.aprobado = true;\r\n        lista[_id] = _item;\r\n        emit Id(_id);\r\n    }\r\n}\r\n",
  "sourcePath": "E:\\UNL\\CICLO X\\vinos-blockchain\\contracts\\procesos\\2ExtraccionMostoContract.sol",
  "compiler": {
    "name": "solc",
    "version": "0.8.11+commit.d7f03943.Emscripten.clang"
  },
  "schemaVersion": "3.4.4",
  "updatedAt": "2022-06-29T23:27:57.919Z",
  "networkType": "ethereum",
  "devdoc": {
    "kind": "dev",
    "methods": {},
    "version": 1
  },
  "userdoc": {
    "kind": "user",
    "methods": {},
    "version": 1
  }
}