{
  "contractName": "ExtraccionMostoContract",
  "abi": [
    {
      "inputs": [
        {
          "internalType": "address",
          "name": "",
          "type": "address"
        },
        {
          "internalType": "uint256",
          "name": "",
          "type": "uint256"
        }
      ],
      "name": "lista",
      "outputs": [
        {
          "internalType": "uint256",
          "name": "hash_anterior",
          "type": "uint256"
        },
        {
          "internalType": "string",
          "name": "tipo",
          "type": "string"
        },
        {
          "internalType": "bool",
          "name": "aprobado",
          "type": "bool"
        },
        {
          "internalType": "uint256",
          "name": "createdAt",
          "type": "uint256"
        }
      ],
      "stateMutability": "view",
      "type": "function"
    },
    {
      "inputs": [
        {
          "internalType": "uint256",
          "name": "_hash_anterior",
          "type": "uint256"
        },
        {
          "internalType": "string",
          "name": "_tipo",
          "type": "string"
        }
      ],
      "name": "crear",
      "outputs": [],
      "stateMutability": "nonpayable",
      "type": "function"
    },
    {
      "inputs": [
        {
          "internalType": "uint256",
          "name": "_id",
          "type": "uint256"
        }
      ],
      "name": "encontrar",
      "outputs": [
        {
          "components": [
            {
              "internalType": "uint256",
              "name": "hash_anterior",
              "type": "uint256"
            },
            {
              "internalType": "string",
              "name": "tipo",
              "type": "string"
            },
            {
              "internalType": "bool",
              "name": "aprobado",
              "type": "bool"
            },
            {
              "internalType": "uint256",
              "name": "createdAt",
              "type": "uint256"
            }
          ],
          "internalType": "struct ExtraccionMostoContract.ExtraccionMosto",
          "name": "",
          "type": "tuple"
        }
      ],
      "stateMutability": "view",
      "type": "function"
    },
    {
      "inputs": [
        {
          "internalType": "uint256",
          "name": "_id",
          "type": "uint256"
        },
        {
          "internalType": "string",
          "name": "_tipo",
          "type": "string"
        }
      ],
      "name": "actualizar",
      "outputs": [],
      "stateMutability": "nonpayable",
      "type": "function"
    },
    {
      "inputs": [
        {
          "internalType": "uint256",
          "name": "_id",
          "type": "uint256"
        }
      ],
      "name": "aprobarProceso",
      "outputs": [],
      "stateMutability": "nonpayable",
      "type": "function"
    }
  ],
  "bytecode": "0x608060405234801561001057600080fd5b50610869806100206000396000f3fe608060405234801561001057600080fd5b50600436106100575760003560e01c806331caa9e11461005c578063535c4196146100885780637a00b8a91461009d57806385d3a43a146100b0578063caab2e9c146100d0575b600080fd5b61006f61006a366004610615565b6100e3565b60405161007f949392919061069a565b60405180910390f35b61009b6100963660046106dc565b6101a0565b005b61009b6100ab366004610797565b6102e5565b6100c36100be366004610797565b610427565b60405161007f91906107b0565b61009b6100de3660046106dc565b610530565b60006020818152928152604080822090935290815220805460018201805491929161010d906107f8565b80601f0160208091040260200160405190810160405280929190818152602001828054610139906107f8565b80156101865780601f1061015b57610100808354040283529160200191610186565b820191906000526020600020905b81548152906001019060200180831161016957829003601f168201915b505050506002830154600390930154919260ff1691905084565b3360009081526020818152604080832085845282528083208151608081019092528054825260018101805492939192918401916101dc906107f8565b80601f0160208091040260200160405190810160405280929190818152602001828054610208906107f8565b80156102555780601f1061022a57610100808354040283529160200191610255565b820191906000526020600020905b81548152906001019060200180831161023857829003601f168201915b5050509183525050600282015460ff16151560208201526003909101546040918201528101519091506102e0576020808201838152336000908152808352604080822087835284529020835181559051805184936102ba92600185019291019061057c565b50604082015160028201805460ff19169115159190911790556060909101516003909101555b505050565b336000908152602081815260408083208484528252808320815160808101909252805482526001810180549293919291840191610321906107f8565b80601f016020809104026020016040519081016040528092919081815260200182805461034d906107f8565b801561039a5780601f1061036f5761010080835404028352916020019161039a565b820191906000526020600020905b81548152906001019060200180831161037d57829003601f168201915b5050509183525050600282015460ff161515602080830191909152600390920154604091820152600183820181905233600090815280845282812087825284529190912083518155838301518051949550859491936103fe9385019291019061057c565b50604082015160028201805460ff19169115159190911790556060909101516003909101555050565b61045460405180608001604052806000815260200160608152602001600015158152602001600081525090565b3360009081526020818152604080832085845282529182902082516080810190935280548352600181018054919284019161048e906107f8565b80601f01602080910402602001604051908101604052809291908181526020018280546104ba906107f8565b80156105075780601f106104dc57610100808354040283529160200191610507565b820191906000526020600020905b8154815290600101906020018083116104ea57829003601f168201915b5050509183525050600282015460ff161515602082015260039091015460409091015292915050565b604080516080810182528381526020808201848152600083850181905242606085015233815280835284812087825283529390932082518155925180519293926103fe92600185019201905b828054610588906107f8565b90600052602060002090601f0160209004810192826105aa57600085556105f0565b82601f106105c357805160ff19168380011785556105f0565b828001600101855582156105f0579182015b828111156105f05782518255916020019190600101906105d5565b506105fc929150610600565b5090565b5b808211156105fc5760008155600101610601565b6000806040838503121561062857600080fd5b82356001600160a01b038116811461063f57600080fd5b946020939093013593505050565b6000815180845260005b8181101561067357602081850181015186830182015201610657565b81811115610685576000602083870101525b50601f01601f19169290920160200192915050565b8481526080602082015260006106b3608083018661064d565b9315156040830152506060015292915050565b634e487b7160e01b600052604160045260246000fd5b600080604083850312156106ef57600080fd5b82359150602083013567ffffffffffffffff8082111561070e57600080fd5b818501915085601f83011261072257600080fd5b813581811115610734576107346106c6565b604051601f8201601f19908116603f0116810190838211818310171561075c5761075c6106c6565b8160405282815288602084870101111561077557600080fd5b8260208601602083013760006020848301015280955050505050509250929050565b6000602082840312156107a957600080fd5b5035919050565b602081528151602082015260006020830151608060408401526107d660a084018261064d565b9050604084015115156060840152606084015160808401528091505092915050565b600181811c9082168061080c57607f821691505b6020821081141561082d57634e487b7160e01b600052602260045260246000fd5b5091905056fea2646970667358221220dcdc75d8fb02bfeab0f84612a2dbaf2dc35c5fa76d21892e7147612e29c5a30364736f6c634300080b0033",
  "immutableReferences": {},
  "source": "// SPDX-License-Identifier: MIT\r\npragma solidity ^0.8.11;\r\n\r\ncontract ExtraccionMostoContract {\r\n    struct ExtraccionMosto {\r\n        uint256 hash_anterior;\r\n        string tipo;\r\n        bool aprobado;\r\n        uint256 createdAt;\r\n    }\r\n\r\n    mapping(address => mapping(uint256 => ExtraccionMosto)) public lista;\r\n\r\n    function crear(uint256 _hash_anterior, string memory _tipo) public {\r\n        lista[msg.sender][_hash_anterior] = ExtraccionMosto(\r\n            _hash_anterior,\r\n            _tipo,\r\n            false,\r\n            block.timestamp\r\n        );\r\n    }\r\n\r\n    function encontrar(uint256 _id)\r\n        public\r\n        view\r\n        returns (ExtraccionMosto memory)\r\n    {\r\n        return lista[msg.sender][_id];\r\n    }\r\n\r\n    function actualizar(uint256 _id, string memory _tipo) public {\r\n        ExtraccionMosto memory _item = lista[msg.sender][_id];\r\n        if (_item.aprobado == false) {\r\n            _item.tipo = _tipo;\r\n            lista[msg.sender][_id] = _item;\r\n        }\r\n    }\r\n\r\n    function aprobarProceso(uint256 _id) public {\r\n        ExtraccionMosto memory _item = lista[msg.sender][_id];\r\n        _item.aprobado = true;\r\n        lista[msg.sender][_id] = _item;\r\n    }\r\n}\r\n",
  "sourcePath": "E:\\UNL\\CICLO X\\vinos-blockchain\\contracts\\2ExtraccionMostoContract.sol",
  "compiler": {
    "name": "solc",
    "version": "0.8.11+commit.d7f03943.Emscripten.clang"
  },
  "schemaVersion": "3.4.4",
  "updatedAt": "2022-06-26T18:57:21.283Z",
  "devdoc": {
    "kind": "dev",
    "methods": {},
    "version": 1
  },
  "userdoc": {
    "kind": "user",
    "methods": {},
    "version": 1
  }
}