{
  "contractName": "ExtraccionMostoContract",
  "abi": [
    {
      "inputs": [
        {
          "internalType": "address",
          "name": "",
          "type": "address"
        }
      ],
      "name": "contador",
      "outputs": [
        {
          "internalType": "uint256",
          "name": "",
          "type": "uint256"
        }
      ],
      "stateMutability": "view",
      "type": "function",
      "constant": true
    },
    {
      "inputs": [
        {
          "internalType": "address",
          "name": "",
          "type": "address"
        },
        {
          "internalType": "uint256",
          "name": "",
          "type": "uint256"
        }
      ],
      "name": "lista",
      "outputs": [
        {
          "internalType": "uint256",
          "name": "id",
          "type": "uint256"
        },
        {
          "internalType": "string",
          "name": "tipo",
          "type": "string"
        },
        {
          "internalType": "bool",
          "name": "aprobado",
          "type": "bool"
        },
        {
          "internalType": "uint256",
          "name": "createdAt",
          "type": "uint256"
        }
      ],
      "stateMutability": "view",
      "type": "function",
      "constant": true
    },
    {
      "inputs": [
        {
          "internalType": "string",
          "name": "_tipo",
          "type": "string"
        }
      ],
      "name": "crear",
      "outputs": [],
      "stateMutability": "nonpayable",
      "type": "function"
    },
    {
      "inputs": [
        {
          "internalType": "uint256",
          "name": "_id",
          "type": "uint256"
        },
        {
          "internalType": "string",
          "name": "_tipo",
          "type": "string"
        }
      ],
      "name": "actualizar",
      "outputs": [],
      "stateMutability": "nonpayable",
      "type": "function"
    },
    {
      "inputs": [
        {
          "internalType": "uint256",
          "name": "_id",
          "type": "uint256"
        }
      ],
      "name": "aprobarProceso",
      "outputs": [],
      "stateMutability": "nonpayable",
      "type": "function"
    }
  ],
  "bytecode": "0x608060405234801561001057600080fd5b5061082d806100206000396000f3fe608060405234801561001057600080fd5b50600436106100575760003560e01c80632d4adcd91461005c57806331caa9e114610071578063535c41961461009d5780637a00b8a9146100b0578063aedb974b146100c3575b600080fd5b61006f61006a36600461061a565b6100f1565b005b61008461007f366004610673565b61019a565b604051610094949392919061069d565b60405180910390f35b61006f6100ab366004610711565b610257565b61006f6100be366004610758565b61039c565b6100e36100d1366004610771565b60016020526000908152604090205481565b604051908152602001610094565b336000818152600160208181526040808420548151608081018352818152808401888152818401879052426060830152968652858452828620828752845291909420815181559451805194959194919361015193908501929101906104de565b5060408281015160028301805460ff1916911515919091179055606090920151600390910155336000908152600160205290812080549161019183610793565b91905055505050565b6000602081815292815260408082209093529081522080546001820180549192916101c4906107bc565b80601f01602080910402602001604051908101604052809291908181526020018280546101f0906107bc565b801561023d5780601f106102125761010080835404028352916020019161023d565b820191906000526020600020905b81548152906001019060200180831161022057829003601f168201915b505050506002830154600390930154919260ff1691905084565b336000908152602081815260408083208584528252808320815160808101909252805482526001810180549293919291840191610293906107bc565b80601f01602080910402602001604051908101604052809291908181526020018280546102bf906107bc565b801561030c5780601f106102e15761010080835404028352916020019161030c565b820191906000526020600020905b8154815290600101906020018083116102ef57829003601f168201915b5050509183525050600282015460ff1615156020820152600390910154604091820152810151909150610397576020808201838152336000908152808352604080822087835284529020835181559051805184936103719260018501929101906104de565b50604082015160028201805460ff19169115159190911790556060909101516003909101555b505050565b3360009081526020818152604080832084845282528083208151608081019092528054825260018101805492939192918401916103d8906107bc565b80601f0160208091040260200160405190810160405280929190818152602001828054610404906107bc565b80156104515780601f1061042657610100808354040283529160200191610451565b820191906000526020600020905b81548152906001019060200180831161043457829003601f168201915b5050509183525050600282015460ff161515602080830191909152600390920154604091820152600183820181905233600090815280845282812087825284529190912083518155838301518051949550859491936104b5938501929101906104de565b50604082015160028201805460ff19169115159190911790556060909101516003909101555050565b8280546104ea906107bc565b90600052602060002090601f01602090048101928261050c5760008555610552565b82601f1061052557805160ff1916838001178555610552565b82800160010185558215610552579182015b82811115610552578251825591602001919060010190610537565b5061055e929150610562565b5090565b5b8082111561055e5760008155600101610563565b634e487b7160e01b600052604160045260246000fd5b600082601f83011261059e57600080fd5b813567ffffffffffffffff808211156105b9576105b9610577565b604051601f8301601f19908116603f011681019082821181831017156105e1576105e1610577565b816040528381528660208588010111156105fa57600080fd5b836020870160208301376000602085830101528094505050505092915050565b60006020828403121561062c57600080fd5b813567ffffffffffffffff81111561064357600080fd5b61064f8482850161058d565b949350505050565b80356001600160a01b038116811461066e57600080fd5b919050565b6000806040838503121561068657600080fd5b61068f83610657565b946020939093013593505050565b84815260006020608081840152855180608085015260005b818110156106d15787810183015185820160a0015282016106b5565b818111156106e357600060a083870101525b50601f01601f1916830160a00191506107029050604083018515159052565b82606083015295945050505050565b6000806040838503121561072457600080fd5b82359150602083013567ffffffffffffffff81111561074257600080fd5b61074e8582860161058d565b9150509250929050565b60006020828403121561076a57600080fd5b5035919050565b60006020828403121561078357600080fd5b61078c82610657565b9392505050565b60006000198214156107b557634e487b7160e01b600052601160045260246000fd5b5060010190565b600181811c908216806107d057607f821691505b602082108114156107f157634e487b7160e01b600052602260045260246000fd5b5091905056fea264697066735822122052d1738f598273188c06b1a2d3e8acfb15cc0eac5e2b7627e52758394702032c64736f6c634300080b0033",
  "immutableReferences": {},
  "source": "// SPDX-License-Identifier: MIT\r\npragma solidity ^0.8.11;\r\n\r\ncontract ExtraccionMostoContract {\r\n    struct ExtraccionMosto {\r\n        uint256 id;\r\n        string tipo;\r\n        bool aprobado;\r\n        uint256 createdAt;\r\n    }\r\n\r\n    mapping(address => mapping(uint256 => ExtraccionMosto)) public lista;\r\n    mapping(address => uint256) public contador;\r\n\r\n    function crear(string memory _tipo) public {\r\n        uint256 contador_id = contador[msg.sender];\r\n\r\n        lista[msg.sender][contador_id] = ExtraccionMosto(\r\n            contador_id,\r\n            _tipo,\r\n            false,\r\n            block.timestamp\r\n        );\r\n        contador[msg.sender]++;\r\n    }\r\n\r\n    function actualizar(uint256 _id, string memory _tipo) public {\r\n        ExtraccionMosto memory _item = lista[msg.sender][_id];\r\n        if (_item.aprobado == false) {\r\n            _item.tipo = _tipo;\r\n            lista[msg.sender][_id] = _item;\r\n        }\r\n    }\r\n\r\n    function aprobarProceso(uint256 _id) public {\r\n        ExtraccionMosto memory _item = lista[msg.sender][_id];\r\n        _item.aprobado = true;\r\n        lista[msg.sender][_id] = _item;\r\n    }\r\n}\r\n",
  "sourcePath": "E:\\UNL\\CICLO X\\PTT\\vinos-blockchain\\contracts\\2ExtraccionMostoContract.sol",
  "compiler": {
    "name": "solc",
    "version": "0.8.11+commit.d7f03943.Emscripten.clang"
  },
  "schemaVersion": "3.4.4",
  "updatedAt": "2022-06-20T16:34:47.595Z",
  "networkType": "ethereum",
  "devdoc": {
    "kind": "dev",
    "methods": {},
    "version": 1
  },
  "userdoc": {
    "kind": "user",
    "methods": {},
    "version": 1
  }
}