{
  "contractName": "FermentacionContract",
  "abi": [
    {
      "anonymous": false,
      "inputs": [
        {
          "indexed": false,
          "internalType": "uint256",
          "name": "id",
          "type": "uint256"
        }
      ],
      "name": "Id",
      "type": "event"
    },
    {
      "inputs": [],
      "name": "contador",
      "outputs": [
        {
          "internalType": "uint256",
          "name": "",
          "type": "uint256"
        }
      ],
      "stateMutability": "view",
      "type": "function",
      "constant": true
    },
    {
      "inputs": [
        {
          "internalType": "uint256",
          "name": "",
          "type": "uint256"
        }
      ],
      "name": "lista",
      "outputs": [
        {
          "internalType": "uint256",
          "name": "hash_anterior",
          "type": "uint256"
        },
        {
          "internalType": "uint256",
          "name": "fecha_inicio",
          "type": "uint256"
        },
        {
          "internalType": "uint256",
          "name": "fecha_final",
          "type": "uint256"
        },
        {
          "internalType": "uint256",
          "name": "grados_invertidos",
          "type": "uint256"
        },
        {
          "internalType": "bool",
          "name": "aprobado",
          "type": "bool"
        },
        {
          "internalType": "uint256",
          "name": "createdAt",
          "type": "uint256"
        }
      ],
      "stateMutability": "view",
      "type": "function",
      "constant": true
    },
    {
      "inputs": [
        {
          "internalType": "uint256",
          "name": "_hash_anterior",
          "type": "uint256"
        },
        {
          "internalType": "uint256",
          "name": "_fecha_inicio",
          "type": "uint256"
        },
        {
          "internalType": "uint256",
          "name": "_fecha_final",
          "type": "uint256"
        },
        {
          "internalType": "uint256",
          "name": "_grados_invertidos",
          "type": "uint256"
        }
      ],
      "name": "crear",
      "outputs": [],
      "stateMutability": "nonpayable",
      "type": "function"
    },
    {
      "inputs": [
        {
          "internalType": "uint256",
          "name": "_id",
          "type": "uint256"
        },
        {
          "internalType": "uint256",
          "name": "_fecha_inicio",
          "type": "uint256"
        },
        {
          "internalType": "uint256",
          "name": "_fecha_final",
          "type": "uint256"
        },
        {
          "internalType": "uint256",
          "name": "_grados_invertidos",
          "type": "uint256"
        }
      ],
      "name": "editar",
      "outputs": [],
      "stateMutability": "nonpayable",
      "type": "function"
    },
    {
      "inputs": [
        {
          "internalType": "uint256",
          "name": "_id",
          "type": "uint256"
        }
      ],
      "name": "aprobarProceso",
      "outputs": [],
      "stateMutability": "nonpayable",
      "type": "function"
    }
  ],
  "bytecode": "0x608060405234801561001057600080fd5b506104ae806100206000396000f3fe608060405234801561001057600080fd5b50600436106100575760003560e01c80630cc76c141461005c57806311fa9107146100d957806353d27cc2146100ee5780637a00b8a914610105578063ca703f1514610118575b600080fd5b6100a561006a366004610404565b600060208190529081526040902080546001820154600283015460038401546004850154600590950154939492939192909160ff9091169086565b6040805196875260208701959095529385019290925260608401521515608083015260a082015260c0015b60405180910390f35b6100ec6100e736600461041d565b61012b565b005b6100f760015481565b6040519081526020016100d0565b6100ec610113366004610404565b610221565b6100ec61012636600461041d565b610345565b60008481526020818152604091829020825160c0810184528154815260018201549281019290925260028101549282019290925260038201546060820152600482015460ff1615156080820181905260059092015460a08201529061021a57602081810185815260408084018681526060850186815260008a8152808652839020865181559351600185015590516002840155516003830155608084015160048301805460ff191691151591909117905560a0840151600590920191909155518681527f1ee8913b1e0c76a71150bbb92d8921b2c975601c8c9991b8ef86a1b389672774910160405180910390a15b5050505050565b60008060008381526020019081526020016000206040518060c0016040529081600082015481526020016001820154815260200160028201548152602001600382015481526020016004820160009054906101000a900460ff1615151515815260200160058201548152505090506001816080019015159081151581525050806000808481526020019081526020016000206000820151816000015560208201518160010155604082015181600201556060820151816003015560808201518160040160006101000a81548160ff02191690831515021790555060a082015181600501559050507f1ee8913b1e0c76a71150bbb92d8921b2c975601c8c9991b8ef86a1b3896727748260405161033991815260200190565b60405180910390a15050565b6040805160c0810182528581526020808201868152828401868152606084018681526000608086018181524260a088019081528c835282875291889020965187559351600187015591516002860155516003850155905160048401805460ff19169115159190911790555160059092019190915590518581527f1ee8913b1e0c76a71150bbb92d8921b2c975601c8c9991b8ef86a1b389672774910160405180910390a1600180549060006103f98361044f565b919050555050505050565b60006020828403121561041657600080fd5b5035919050565b6000806000806080858703121561043357600080fd5b5050823594602084013594506040840135936060013592509050565b600060001982141561047157634e487b7160e01b600052601160045260246000fd5b506001019056fea2646970667358221220b2fdf1a7a1a9f35d645d22c73ce97176a9d9d622878ebf940f3b9018aac42ca864736f6c634300080b0033",
  "immutableReferences": {},
  "source": "// SPDX-License-Identifier: MIT\r\npragma solidity ^0.8.11;\r\n\r\ncontract FermentacionContract {\r\n    struct Model {\r\n        uint256 hash_anterior;\r\n        uint256 fecha_inicio;\r\n        uint256 fecha_final;\r\n        uint256 grados_invertidos;\r\n        bool aprobado;\r\n        uint256 createdAt;\r\n    }\r\n    event Id(uint256 id);\r\n\r\n    mapping(uint256 => Model) public lista;\r\n    uint256 public contador;\r\n\r\n    function crear(\r\n        uint256 _hash_anterior,\r\n        uint256 _fecha_inicio,\r\n        uint256 _fecha_final,\r\n        uint256 _grados_invertidos\r\n    ) public {\r\n        lista[_hash_anterior] = Model(\r\n            _hash_anterior,\r\n            _fecha_inicio,\r\n            _fecha_final,\r\n            _grados_invertidos,\r\n            false,\r\n            block.timestamp\r\n        );\r\n        emit Id(_hash_anterior);\r\n        contador++;\r\n    }\r\n    \r\n    function editar(\r\n        uint256 _id,\r\n        uint256 _fecha_inicio,\r\n        uint256 _fecha_final,\r\n        uint256 _grados_invertidos\r\n    ) public {\r\n        Model memory _item = lista[_id];\r\n        if (_item.aprobado == false) {\r\n            _item.fecha_inicio = _fecha_inicio;\r\n            _item.fecha_final = _fecha_final;\r\n            _item.grados_invertidos = _grados_invertidos;\r\n            lista[_id] = _item;\r\n            emit Id(_id);\r\n        }\r\n    }\r\n\r\n    function aprobarProceso(uint256 _id) public {\r\n        Model memory _item = lista[_id];\r\n        _item.aprobado = true;\r\n        lista[_id] = _item;\r\n        emit Id(_id);\r\n    }\r\n}\r\n",
  "sourcePath": "E:\\UNL\\CICLO X\\vinos-blockchain\\contracts\\procesos\\4FermentacionContract.sol",
  "compiler": {
    "name": "solc",
    "version": "0.8.11+commit.d7f03943.Emscripten.clang"
  },
  "schemaVersion": "3.4.4",
  "updatedAt": "2022-06-29T23:41:40.434Z",
  "networkType": "ethereum",
  "devdoc": {
    "kind": "dev",
    "methods": {},
    "version": 1
  },
  "userdoc": {
    "kind": "user",
    "methods": {},
    "version": 1
  }
}