{
  "contractName": "FermentacionContract",
  "abi": [
    {
      "inputs": [
        {
          "internalType": "address",
          "name": "",
          "type": "address"
        },
        {
          "internalType": "uint256",
          "name": "",
          "type": "uint256"
        }
      ],
      "name": "lista",
      "outputs": [
        {
          "internalType": "uint256",
          "name": "hash_anterior",
          "type": "uint256"
        },
        {
          "internalType": "uint256",
          "name": "fecha_inicio",
          "type": "uint256"
        },
        {
          "internalType": "uint256",
          "name": "fecha_final",
          "type": "uint256"
        },
        {
          "internalType": "uint256",
          "name": "grados_invertidos",
          "type": "uint256"
        },
        {
          "internalType": "bool",
          "name": "aprobado",
          "type": "bool"
        },
        {
          "internalType": "uint256",
          "name": "createdAt",
          "type": "uint256"
        }
      ],
      "stateMutability": "view",
      "type": "function",
      "constant": true
    },
    {
      "inputs": [
        {
          "internalType": "uint256",
          "name": "_hash_anterior",
          "type": "uint256"
        },
        {
          "internalType": "uint256",
          "name": "_fecha_inicio",
          "type": "uint256"
        },
        {
          "internalType": "uint256",
          "name": "_fecha_final",
          "type": "uint256"
        },
        {
          "internalType": "uint256",
          "name": "_grados_invertidos",
          "type": "uint256"
        }
      ],
      "name": "crear",
      "outputs": [],
      "stateMutability": "nonpayable",
      "type": "function"
    },
    {
      "inputs": [
        {
          "internalType": "uint256",
          "name": "_id",
          "type": "uint256"
        }
      ],
      "name": "encontrar",
      "outputs": [
        {
          "components": [
            {
              "internalType": "uint256",
              "name": "hash_anterior",
              "type": "uint256"
            },
            {
              "internalType": "uint256",
              "name": "fecha_inicio",
              "type": "uint256"
            },
            {
              "internalType": "uint256",
              "name": "fecha_final",
              "type": "uint256"
            },
            {
              "internalType": "uint256",
              "name": "grados_invertidos",
              "type": "uint256"
            },
            {
              "internalType": "bool",
              "name": "aprobado",
              "type": "bool"
            },
            {
              "internalType": "uint256",
              "name": "createdAt",
              "type": "uint256"
            }
          ],
          "internalType": "struct FermentacionContract.Model",
          "name": "",
          "type": "tuple"
        }
      ],
      "stateMutability": "view",
      "type": "function",
      "constant": true
    },
    {
      "inputs": [
        {
          "internalType": "uint256",
          "name": "_id",
          "type": "uint256"
        },
        {
          "internalType": "uint256",
          "name": "_fecha_inicio",
          "type": "uint256"
        },
        {
          "internalType": "uint256",
          "name": "_fecha_final",
          "type": "uint256"
        },
        {
          "internalType": "uint256",
          "name": "_grados_invertidos",
          "type": "uint256"
        }
      ],
      "name": "actualizar",
      "outputs": [],
      "stateMutability": "nonpayable",
      "type": "function"
    },
    {
      "inputs": [
        {
          "internalType": "uint256",
          "name": "_id",
          "type": "uint256"
        }
      ],
      "name": "aprobarProceso",
      "outputs": [],
      "stateMutability": "nonpayable",
      "type": "function"
    }
  ],
  "bytecode": "0x608060405234801561001057600080fd5b506104b5806100206000396000f3fe608060405234801561001057600080fd5b50600436106100575760003560e01c80631fa775dd1461005c57806331caa9e1146100715780637a00b8a9146100f657806385d3a43a14610196578063ca703f15146101f7575b600080fd5b61006f61006a3660046103fc565b610282565b005b6100c261007f36600461042e565b6000602081815292815260408082209093529081522080546001820154600283015460038401546004850154600590950154939492939192909160ff9091169086565b6040805196875260208701959095529385019290925260608401521515608083015260a082015260c0015b60405180910390f35b61006f610104366004610466565b33600090815260208181526040808320848452808352818420825160c08101845281548152600180830180548388019081526002850180549785019788526003860180546060870190815260048801805460058a01805460a08b0190815260808b01998a529f909e5299909b529551909655905190915594519094555190559051151560ff1990911617905590519055565b6101a96101a4366004610466565b61035b565b6040516100ed9190600060c0820190508251825260208301516020830152604083015160408301526060830151606083015260808301511515608083015260a083015160a083015292915050565b61006f6102053660046103fc565b6040805160c0810182528581526020808201958652818301948552606082019384526000608083018181524260a0850190815233835282845285832099835298909252929092209051815593516001850155915160028401555160038301555160048201805460ff19169115159190911790559051600590910155565b33600090815260208181526040808320878452825291829020825160c0810184528154815260018201549281019290925260028101549282019290925260038201546060820152600482015460ff1615156080820181905260059092015460a0820152906103545760208181018581526040808401868152606085018681523360009081528086528381208b82529095529190932084518155915160018301559151600282015590516003820155608082015160048201805460ff191691151591909117905560a08201516005909101555b5050505050565b6103966040518060c0016040528060008152602001600081526020016000815260200160008152602001600015158152602001600081525090565b503360009081526020818152604080832093835292815290829020825160c0810184528154815260018201549281019290925260028101549282019290925260038201546060820152600482015460ff161515608082015260059091015460a082015290565b6000806000806080858703121561041257600080fd5b5050823594602084013594506040840135936060013592509050565b6000806040838503121561044157600080fd5b82356001600160a01b038116811461045857600080fd5b946020939093013593505050565b60006020828403121561047857600080fd5b503591905056fea26469706673582212208b3f4839934225a4d59339e14c549de59ad5087159a5bda68b50b49d5ad9852c64736f6c634300080b0033",
  "immutableReferences": {},
  "source": "// SPDX-License-Identifier: MIT\r\npragma solidity ^0.8.11;\r\n\r\ncontract FermentacionContract {\r\n    struct Model {\r\n        uint256 hash_anterior;\r\n        uint256 fecha_inicio;\r\n        uint256 fecha_final;\r\n        uint256 grados_invertidos;\r\n        bool aprobado;\r\n        uint256 createdAt;\r\n    }\r\n\r\n    mapping(address => mapping(uint256 => Model)) public lista;\r\n\r\n    function crear(\r\n        uint256 _hash_anterior,\r\n        uint256 _fecha_inicio,\r\n        uint256 _fecha_final,\r\n        uint256 _grados_invertidos\r\n    ) public {\r\n        lista[msg.sender][_hash_anterior] = Model(\r\n            _hash_anterior,\r\n            _fecha_inicio,\r\n            _fecha_final,\r\n            _grados_invertidos,\r\n            false,\r\n            block.timestamp\r\n        );\r\n    }\r\n\r\n    function encontrar(uint256 _id) public view returns (Model memory) {\r\n        return lista[msg.sender][_id];\r\n    }\r\n\r\n    function actualizar(\r\n        uint256 _id,\r\n        uint256 _fecha_inicio,\r\n        uint256 _fecha_final,\r\n        uint256 _grados_invertidos\r\n    ) public {\r\n        Model memory _item = lista[msg.sender][_id];\r\n        if (_item.aprobado == false) {\r\n            _item.fecha_inicio = _fecha_inicio;\r\n            _item.fecha_final = _fecha_final;\r\n            _item.grados_invertidos = _grados_invertidos;\r\n            lista[msg.sender][_id] = _item;\r\n        }\r\n    }\r\n\r\n    function aprobarProceso(uint256 _id) public {\r\n        Model memory _item = lista[msg.sender][_id];\r\n        _item.aprobado = true;\r\n        lista[msg.sender][_id] = _item;\r\n    }\r\n}\r\n",
  "sourcePath": "E:\\UNL\\CICLO X\\vinos-blockchain\\contracts\\4FermentacionContract.sol",
  "compiler": {
    "name": "solc",
    "version": "0.8.11+commit.d7f03943.Emscripten.clang"
  },
  "schemaVersion": "3.4.4",
  "updatedAt": "2022-06-26T19:05:17.469Z",
  "networkType": "ethereum",
  "devdoc": {
    "kind": "dev",
    "methods": {},
    "version": 1
  },
  "userdoc": {
    "kind": "user",
    "methods": {},
    "version": 1
  }
}