{
  "contractName": "FermentacionContract",
  "abi": [
    {
      "anonymous": false,
      "inputs": [
        {
          "indexed": false,
          "internalType": "uint256",
          "name": "id",
          "type": "uint256"
        }
      ],
      "name": "Id",
      "type": "event"
    },
    {
      "inputs": [
        {
          "internalType": "address",
          "name": "",
          "type": "address"
        },
        {
          "internalType": "uint256",
          "name": "",
          "type": "uint256"
        }
      ],
      "name": "lista",
      "outputs": [
        {
          "internalType": "uint256",
          "name": "hash_anterior",
          "type": "uint256"
        },
        {
          "internalType": "uint256",
          "name": "fecha_inicio",
          "type": "uint256"
        },
        {
          "internalType": "uint256",
          "name": "fecha_final",
          "type": "uint256"
        },
        {
          "internalType": "uint256",
          "name": "grados_invertidos",
          "type": "uint256"
        },
        {
          "internalType": "bool",
          "name": "aprobado",
          "type": "bool"
        },
        {
          "internalType": "uint256",
          "name": "createdAt",
          "type": "uint256"
        }
      ],
      "stateMutability": "view",
      "type": "function",
      "constant": true
    },
    {
      "inputs": [
        {
          "internalType": "uint256",
          "name": "_hash_anterior",
          "type": "uint256"
        },
        {
          "internalType": "uint256",
          "name": "_fecha_inicio",
          "type": "uint256"
        },
        {
          "internalType": "uint256",
          "name": "_fecha_final",
          "type": "uint256"
        },
        {
          "internalType": "uint256",
          "name": "_grados_invertidos",
          "type": "uint256"
        }
      ],
      "name": "crear",
      "outputs": [],
      "stateMutability": "nonpayable",
      "type": "function"
    },
    {
      "inputs": [
        {
          "internalType": "uint256",
          "name": "_id",
          "type": "uint256"
        }
      ],
      "name": "encontrar",
      "outputs": [
        {
          "components": [
            {
              "internalType": "uint256",
              "name": "hash_anterior",
              "type": "uint256"
            },
            {
              "internalType": "uint256",
              "name": "fecha_inicio",
              "type": "uint256"
            },
            {
              "internalType": "uint256",
              "name": "fecha_final",
              "type": "uint256"
            },
            {
              "internalType": "uint256",
              "name": "grados_invertidos",
              "type": "uint256"
            },
            {
              "internalType": "bool",
              "name": "aprobado",
              "type": "bool"
            },
            {
              "internalType": "uint256",
              "name": "createdAt",
              "type": "uint256"
            }
          ],
          "internalType": "struct FermentacionContract.Model",
          "name": "",
          "type": "tuple"
        }
      ],
      "stateMutability": "view",
      "type": "function",
      "constant": true
    },
    {
      "inputs": [
        {
          "internalType": "uint256",
          "name": "_id",
          "type": "uint256"
        },
        {
          "internalType": "uint256",
          "name": "_fecha_inicio",
          "type": "uint256"
        },
        {
          "internalType": "uint256",
          "name": "_fecha_final",
          "type": "uint256"
        },
        {
          "internalType": "uint256",
          "name": "_grados_invertidos",
          "type": "uint256"
        }
      ],
      "name": "editar",
      "outputs": [],
      "stateMutability": "nonpayable",
      "type": "function"
    },
    {
      "inputs": [
        {
          "internalType": "uint256",
          "name": "_id",
          "type": "uint256"
        }
      ],
      "name": "aprobarProceso",
      "outputs": [],
      "stateMutability": "nonpayable",
      "type": "function"
    }
  ],
  "bytecode": "0x608060405234801561001057600080fd5b506105fb806100206000396000f3fe608060405234801561001057600080fd5b50600436106100575760003560e01c806311fa91071461005c57806331caa9e1146100715780637a00b8a9146100f657806385d3a43a14610109578063ca703f151461016a575b600080fd5b61006f61006a366004610542565b61017d565b005b6100c261007f366004610574565b6000602081815292815260408082209093529081522080546001820154600283015460038401546004850154600590950154939492939192909160ff9091169086565b6040805196875260208701959095529385019290925260608401521515608083015260a082015260c0015b60405180910390f35b61006f6101043660046105ac565b610285565b61011c6101173660046105ac565b6103ef565b6040516100ed9190600060c0820190508251825260208301516020830152604083015160408301526060830151606083015260808301511515608083015260a083015160a083015292915050565b61006f610178366004610542565b610490565b33600090815260208181526040808320878452825291829020825160c0810184528154815260018201549281019290925260028101549282019290925260038201546060820152600482015460ff1615156080820181905260059092015460a08201529061027e5760208181018581526040808401868152606085018681523360009081528086528381208b82528652839020865181559351600185015590516002840155516003830155608084015160048301805460ff191691151591909117905560a0840151600590920191909155518681527f1ee8913b1e0c76a71150bbb92d8921b2c975601c8c9991b8ef86a1b389672774910160405180910390a15b5050505050565b6000806000336001600160a01b03166001600160a01b0316815260200190815260200160002060008381526020019081526020016000206040518060c0016040529081600082015481526020016001820154815260200160028201548152602001600382015481526020016004820160009054906101000a900460ff161515151581526020016005820154815250509050600181608001901515908115158152505080600080336001600160a01b03166001600160a01b0316815260200190815260200160002060008481526020019081526020016000206000820151816000015560208201518160010155604082015181600201556060820151816003015560808201518160040160006101000a81548160ff02191690831515021790555060a082015181600501559050507f1ee8913b1e0c76a71150bbb92d8921b2c975601c8c9991b8ef86a1b389672774826040516103e391815260200190565b60405180910390a15050565b61042a6040518060c0016040528060008152602001600081526020016000815260200160008152602001600015158152602001600081525090565b503360009081526020818152604080832093835292815290829020825160c0810184528154815260018201549281019290925260028101549282019290925260038201546060820152600482015460ff161515608082015260059091015460a082015290565b6040805160c0810182528581526020808201868152828401868152606084018681526000608086018181524260a088019081523383528287528883208d8452875291889020965187559351600187015591516002860155516003850155905160048401805460ff19169115159190911790555160059092019190915590518581527f1ee8913b1e0c76a71150bbb92d8921b2c975601c8c9991b8ef86a1b389672774910160405180910390a150505050565b6000806000806080858703121561055857600080fd5b5050823594602084013594506040840135936060013592509050565b6000806040838503121561058757600080fd5b82356001600160a01b038116811461059e57600080fd5b946020939093013593505050565b6000602082840312156105be57600080fd5b503591905056fea264697066735822122034245d296e18dce0d1b11b206c7b04729f4304b44a8b367ae7588f8d71fe1d6864736f6c634300080b0033",
  "immutableReferences": {},
  "source": "// SPDX-License-Identifier: MIT\r\npragma solidity ^0.8.11;\r\n\r\ncontract FermentacionContract {\r\n    struct Model {\r\n        uint256 hash_anterior;\r\n        uint256 fecha_inicio;\r\n        uint256 fecha_final;\r\n        uint256 grados_invertidos;\r\n        bool aprobado;\r\n        uint256 createdAt;\r\n    }\r\n    event Id(uint256 id);\r\n\r\n    mapping(address => mapping(uint256 => Model)) public lista;\r\n\r\n    function crear(\r\n        uint256 _hash_anterior,\r\n        uint256 _fecha_inicio,\r\n        uint256 _fecha_final,\r\n        uint256 _grados_invertidos\r\n    ) public {\r\n        lista[msg.sender][_hash_anterior] = Model(\r\n            _hash_anterior,\r\n            _fecha_inicio,\r\n            _fecha_final,\r\n            _grados_invertidos,\r\n            false,\r\n            block.timestamp\r\n        );\r\n        emit Id(_hash_anterior);\r\n    }\r\n\r\n    function encontrar(uint256 _id) public view returns (Model memory) {\r\n        return lista[msg.sender][_id];\r\n    }\r\n\r\n    function editar(\r\n        uint256 _id,\r\n        uint256 _fecha_inicio,\r\n        uint256 _fecha_final,\r\n        uint256 _grados_invertidos\r\n    ) public {\r\n        Model memory _item = lista[msg.sender][_id];\r\n        if (_item.aprobado == false) {\r\n            _item.fecha_inicio = _fecha_inicio;\r\n            _item.fecha_final = _fecha_final;\r\n            _item.grados_invertidos = _grados_invertidos;\r\n            lista[msg.sender][_id] = _item;\r\n            emit Id(_id);\r\n        }\r\n    }\r\n\r\n    function aprobarProceso(uint256 _id) public {\r\n        Model memory _item = lista[msg.sender][_id];\r\n        _item.aprobado = true;\r\n        lista[msg.sender][_id] = _item;\r\n        emit Id(_id);\r\n    }\r\n}\r\n",
  "sourcePath": "E:\\UNL\\CICLO X\\vinos-blockchain\\contracts\\4FermentacionContract.sol",
  "compiler": {
    "name": "solc",
    "version": "0.8.11+commit.d7f03943.Emscripten.clang"
  },
  "schemaVersion": "3.4.4",
  "updatedAt": "2022-06-28T23:17:13.453Z",
  "networkType": "ethereum",
  "devdoc": {
    "kind": "dev",
    "methods": {},
    "version": 1
  },
  "userdoc": {
    "kind": "user",
    "methods": {},
    "version": 1
  }
}