{
  "contractName": "FermentacionContract",
  "abi": [
    {
      "inputs": [
        {
          "internalType": "address",
          "name": "",
          "type": "address"
        }
      ],
      "name": "contador",
      "outputs": [
        {
          "internalType": "uint256",
          "name": "",
          "type": "uint256"
        }
      ],
      "stateMutability": "view",
      "type": "function",
      "constant": true
    },
    {
      "inputs": [
        {
          "internalType": "address",
          "name": "",
          "type": "address"
        },
        {
          "internalType": "uint256",
          "name": "",
          "type": "uint256"
        }
      ],
      "name": "lista",
      "outputs": [
        {
          "internalType": "uint256",
          "name": "id",
          "type": "uint256"
        },
        {
          "internalType": "uint256",
          "name": "fecha_inicio",
          "type": "uint256"
        },
        {
          "internalType": "uint256",
          "name": "fecha_final",
          "type": "uint256"
        },
        {
          "internalType": "uint256",
          "name": "grados_invertidos",
          "type": "uint256"
        },
        {
          "internalType": "bool",
          "name": "aprobado",
          "type": "bool"
        },
        {
          "internalType": "uint256",
          "name": "createdAt",
          "type": "uint256"
        }
      ],
      "stateMutability": "view",
      "type": "function",
      "constant": true
    },
    {
      "inputs": [
        {
          "internalType": "uint256",
          "name": "_fecha_inicio",
          "type": "uint256"
        },
        {
          "internalType": "uint256",
          "name": "_fecha_final",
          "type": "uint256"
        },
        {
          "internalType": "uint256",
          "name": "_grados_invertidos",
          "type": "uint256"
        }
      ],
      "name": "crear",
      "outputs": [],
      "stateMutability": "nonpayable",
      "type": "function"
    },
    {
      "inputs": [
        {
          "internalType": "uint256",
          "name": "_id",
          "type": "uint256"
        },
        {
          "internalType": "uint256",
          "name": "_fecha_inicio",
          "type": "uint256"
        },
        {
          "internalType": "uint256",
          "name": "_fecha_final",
          "type": "uint256"
        },
        {
          "internalType": "uint256",
          "name": "_grados_invertidos",
          "type": "uint256"
        }
      ],
      "name": "actualizar",
      "outputs": [],
      "stateMutability": "nonpayable",
      "type": "function"
    },
    {
      "inputs": [
        {
          "internalType": "uint256",
          "name": "_id",
          "type": "uint256"
        }
      ],
      "name": "aprobarProceso",
      "outputs": [],
      "stateMutability": "nonpayable",
      "type": "function"
    }
  ],
  "bytecode": "0x608060405234801561001057600080fd5b50610496806100206000396000f3fe608060405234801561001057600080fd5b50600436106100575760003560e01c80631fa775dd1461005c57806331caa9e1146100715780637a00b8a9146100f65780639aea014d14610196578063aedb974b146101a9575b600080fd5b61006f61006a366004610358565b6101d7565b005b6100c261007f3660046103a6565b6000602081815292815260408082209093529081522080546001820154600283015460038401546004850154600590950154939492939192909160ff9091169086565b6040805196875260208701959095529385019290925260608401521515608083015260a082015260c0015b60405180910390f35b61006f6101043660046103d0565b33600090815260208181526040808320848452808352818420825160c08101845281548152600180830180548388019081526002850180549785019788526003860180546060870190815260048801805460058a01805460a08b0190815260808b01998a529f909e5299909b529551909655905190915594519094555190559051151560ff1990911617905590519055565b61006f6101a43660046103e9565b6102b0565b6101c96101b7366004610415565b60016020526000908152604090205481565b6040519081526020016100ed565b33600090815260208181526040808320878452825291829020825160c0810184528154815260018201549281019290925260028101549282019290925260038201546060820152600482015460ff1615156080820181905260059092015460a0820152906102a95760208181018581526040808401868152606085018681523360009081528086528381208b82529095529190932084518155915160018301559151600282015590516003820155608082015160048201805460ff191691151591909117905560a08201516005909101555b5050505050565b3360008181526001602081815260408084208054825160c0810184528181528085018b81528185018b8152606083018b8152608084018a81524260a086019081528c8c528b8a52888c20878d528a52978b20945185559251848a0155905160028401555160038301555160048201805460ff1916911515919091179055925160059093019290925594845291905282549092909161034d83610437565b919050555050505050565b6000806000806080858703121561036e57600080fd5b5050823594602084013594506040840135936060013592509050565b80356001600160a01b03811681146103a157600080fd5b919050565b600080604083850312156103b957600080fd5b6103c28361038a565b946020939093013593505050565b6000602082840312156103e257600080fd5b5035919050565b6000806000606084860312156103fe57600080fd5b505081359360208301359350604090920135919050565b60006020828403121561042757600080fd5b6104308261038a565b9392505050565b600060001982141561045957634e487b7160e01b600052601160045260246000fd5b506001019056fea26469706673582212206e79cdc919e0a97ec874db9f50e02271372692d891b054fa886edf486109545b64736f6c634300080b0033",
  "immutableReferences": {},
  "source": "// SPDX-License-Identifier: MIT\r\npragma solidity ^0.8.11;\r\n\r\ncontract FermentacionContract {\r\n    struct Fermentacion {\r\n        uint256 id;\r\n        uint256 fecha_inicio;\r\n        uint256 fecha_final;\r\n        uint256 grados_invertidos;\r\n        bool aprobado;\r\n        uint256 createdAt;\r\n    }\r\n\r\n    mapping(address => mapping(uint256 => Fermentacion)) public lista;\r\n    mapping(address => uint256) public contador;\r\n\r\n    function crear(\r\n        uint256 _fecha_inicio,\r\n        uint256 _fecha_final,\r\n        uint256 _grados_invertidos\r\n    ) public {\r\n        uint256 contador_id = contador[msg.sender];\r\n\r\n        lista[msg.sender][contador_id] = Fermentacion(\r\n            contador_id,\r\n            _fecha_inicio,\r\n            _fecha_final,\r\n            _grados_invertidos,\r\n            false,\r\n            block.timestamp\r\n        );\r\n        contador[msg.sender]++;\r\n    }\r\n\r\n    function actualizar(\r\n        uint256 _id,\r\n        uint256 _fecha_inicio,\r\n        uint256 _fecha_final,\r\n        uint256 _grados_invertidos\r\n    ) public {\r\n        Fermentacion memory _item = lista[msg.sender][_id];\r\n        if (_item.aprobado == false) {\r\n            _item.fecha_inicio = _fecha_inicio;\r\n            _item.fecha_final = _fecha_final;\r\n            _item.grados_invertidos = _grados_invertidos;\r\n            lista[msg.sender][_id] = _item;\r\n        }\r\n    }\r\n\r\n    function aprobarProceso(uint256 _id) public {\r\n        Fermentacion memory _item = lista[msg.sender][_id];\r\n        _item.aprobado = true;\r\n        lista[msg.sender][_id] = _item;\r\n    }\r\n}\r\n",
  "sourcePath": "E:\\UNL\\CICLO X\\PTT\\vinos-blockchain\\contracts\\4FermentacionContract.sol",
  "compiler": {
    "name": "solc",
    "version": "0.8.11+commit.d7f03943.Emscripten.clang"
  },
  "schemaVersion": "3.4.4",
  "updatedAt": "2022-06-20T16:34:47.642Z",
  "networkType": "ethereum",
  "devdoc": {
    "kind": "dev",
    "methods": {},
    "version": 1
  },
  "userdoc": {
    "kind": "user",
    "methods": {},
    "version": 1
  }
}