{
  "contractName": "MateriaPrimaContract",
  "abi": [
    {
      "anonymous": false,
      "inputs": [
        {
          "indexed": false,
          "internalType": "uint256",
          "name": "id",
          "type": "uint256"
        }
      ],
      "name": "Id",
      "type": "event"
    },
    {
      "inputs": [],
      "name": "contador",
      "outputs": [
        {
          "internalType": "uint256",
          "name": "",
          "type": "uint256"
        }
      ],
      "stateMutability": "view",
      "type": "function",
      "constant": true
    },
    {
      "inputs": [
        {
          "internalType": "uint256",
          "name": "",
          "type": "uint256"
        }
      ],
      "name": "lista",
      "outputs": [
        {
          "internalType": "uint256",
          "name": "id",
          "type": "uint256"
        },
        {
          "internalType": "uint256",
          "name": "nro_cosecha",
          "type": "uint256"
        },
        {
          "internalType": "string",
          "name": "lugar_procedencia",
          "type": "string"
        },
        {
          "internalType": "string",
          "name": "nombre_propietario",
          "type": "string"
        },
        {
          "internalType": "string",
          "name": "gadros_brix",
          "type": "string"
        },
        {
          "internalType": "bool",
          "name": "aprobado",
          "type": "bool"
        },
        {
          "internalType": "uint256",
          "name": "createdAt",
          "type": "uint256"
        }
      ],
      "stateMutability": "view",
      "type": "function",
      "constant": true
    },
    {
      "inputs": [
        {
          "internalType": "uint256",
          "name": "_nro_cosecha",
          "type": "uint256"
        },
        {
          "internalType": "string",
          "name": "_lugar_procedencia",
          "type": "string"
        },
        {
          "internalType": "string",
          "name": "_nombre_propietario",
          "type": "string"
        },
        {
          "internalType": "string",
          "name": "_grados_brix",
          "type": "string"
        }
      ],
      "name": "crear",
      "outputs": [],
      "stateMutability": "nonpayable",
      "type": "function"
    },
    {
      "inputs": [
        {
          "internalType": "uint256",
          "name": "_id",
          "type": "uint256"
        },
        {
          "internalType": "uint256",
          "name": "_nro_cosecha",
          "type": "uint256"
        },
        {
          "internalType": "string",
          "name": "_lugar_procedencia",
          "type": "string"
        },
        {
          "internalType": "string",
          "name": "_nombre_propietario",
          "type": "string"
        },
        {
          "internalType": "string",
          "name": "_grados_brix",
          "type": "string"
        }
      ],
      "name": "editar",
      "outputs": [],
      "stateMutability": "nonpayable",
      "type": "function"
    },
    {
      "inputs": [
        {
          "internalType": "uint256",
          "name": "_id",
          "type": "uint256"
        }
      ],
      "name": "aprobarProceso",
      "outputs": [],
      "stateMutability": "nonpayable",
      "type": "function"
    }
  ],
  "bytecode": "0x608060405234801561001057600080fd5b50610d52806100206000396000f3fe608060405234801561001057600080fd5b50600436106100575760003560e01c80630cc76c141461005c5780632500e8a91461008b57806353d27cc2146100a05780637a00b8a9146100b757806398c2f4bc146100ca575b600080fd5b61006f61006a366004610a25565b6100dd565b6040516100829796959493929190610a8b565b60405180910390f35b61009e610099366004610b8a565b6102b4565b005b6100a960015481565b604051908152602001610082565b61009e6100c5366004610a25565b61059f565b61009e6100d8366004610c26565b610874565b6000602081905290815260409020805460018201546002830180549293919261010590610cb8565b80601f016020809104026020016040519081016040528092919081815260200182805461013190610cb8565b801561017e5780601f106101535761010080835404028352916020019161017e565b820191906000526020600020905b81548152906001019060200180831161016157829003601f168201915b50505050509080600301805461019390610cb8565b80601f01602080910402602001604051908101604052809291908181526020018280546101bf90610cb8565b801561020c5780601f106101e15761010080835404028352916020019161020c565b820191906000526020600020905b8154815290600101906020018083116101ef57829003601f168201915b50505050509080600401805461022190610cb8565b80601f016020809104026020016040519081016040528092919081815260200182805461024d90610cb8565b801561029a5780601f1061026f5761010080835404028352916020019161029a565b820191906000526020600020905b81548152906001019060200180831161027d57829003601f168201915b505050506005830154600690930154919260ff1691905087565b600085815260208181526040808320815160e0810183528154815260018201549381019390935260028101805491928401916102ef90610cb8565b80601f016020809104026020016040519081016040528092919081815260200182805461031b90610cb8565b80156103685780601f1061033d57610100808354040283529160200191610368565b820191906000526020600020905b81548152906001019060200180831161034b57829003601f168201915b5050505050815260200160038201805461038190610cb8565b80601f01602080910402602001604051908101604052809291908181526020018280546103ad90610cb8565b80156103fa5780601f106103cf576101008083540402835291602001916103fa565b820191906000526020600020905b8154815290600101906020018083116103dd57829003601f168201915b5050505050815260200160048201805461041390610cb8565b80601f016020809104026020016040519081016040528092919081815260200182805461043f90610cb8565b801561048c5780601f106104615761010080835404028352916020019161048c565b820191906000526020600020905b81548152906001019060200180831161046f57829003601f168201915b5050509183525050600582015460ff161515602082015260069091015460409091015260a08101519091506105975760208082018681526040808401878152606085018790526080850186905260008a8152808552919091208451815591516001830155518051849361050692600285019291019061098c565b506060820151805161052291600384019160209091019061098c565b506080820151805161053e91600484019160209091019061098c565b5060a082015160058201805460ff191691151591909117905560c0909101516006909101556040518681527f1ee8913b1e0c76a71150bbb92d8921b2c975601c8c9991b8ef86a1b3896727749060200160405180910390a15b505050505050565b600081815260208181526040808320815160e0810183528154815260018201549381019390935260028101805491928401916105da90610cb8565b80601f016020809104026020016040519081016040528092919081815260200182805461060690610cb8565b80156106535780601f1061062857610100808354040283529160200191610653565b820191906000526020600020905b81548152906001019060200180831161063657829003601f168201915b5050505050815260200160038201805461066c90610cb8565b80601f016020809104026020016040519081016040528092919081815260200182805461069890610cb8565b80156106e55780601f106106ba576101008083540402835291602001916106e5565b820191906000526020600020905b8154815290600101906020018083116106c857829003601f168201915b505050505081526020016004820180546106fe90610cb8565b80601f016020809104026020016040519081016040528092919081815260200182805461072a90610cb8565b80156107775780601f1061074c57610100808354040283529160200191610777565b820191906000526020600020905b81548152906001019060200180831161075a57829003601f168201915b5050509183525050600582015460ff161515602080830191909152600690920154604091820152600160a084018190526000868152808452829020845181558484015191810191909155908301518051939450849391926107e09260028501929091019061098c565b50606082015180516107fc91600384019160209091019061098c565b506080820151805161081891600484019160209091019061098c565b5060a082015160058201805460ff191691151591909117905560c0909101516006909101556040518281527f1ee8913b1e0c76a71150bbb92d8921b2c975601c8c9991b8ef86a1b3896727749060200160405180910390a15050565b6040805160e0810182526001805480835260208084018981528486018981526060860189905260808601889052600060a087018190524260c08801529384528383529590922084518155915192820192909255925180519293926108de926002850192019061098c565b50606082015180516108fa91600384019160209091019061098c565b506080820151805161091691600484019160209091019061098c565b5060a082015160058201805460ff191691151591909117905560c0909101516006909101556001546040519081527f1ee8913b1e0c76a71150bbb92d8921b2c975601c8c9991b8ef86a1b3896727749060200160405180910390a16001805490600061098183610cf3565b919050555050505050565b82805461099890610cb8565b90600052602060002090601f0160209004810192826109ba5760008555610a00565b82601f106109d357805160ff1916838001178555610a00565b82800160010185558215610a00579182015b82811115610a005782518255916020019190600101906109e5565b50610a0c929150610a10565b5090565b5b80821115610a0c5760008155600101610a11565b600060208284031215610a3757600080fd5b5035919050565b6000815180845260005b81811015610a6457602081850181015186830182015201610a48565b81811115610a76576000602083870101525b50601f01601f19169290920160200192915050565b87815286602082015260e060408201526000610aaa60e0830188610a3e565b8281036060840152610abc8188610a3e565b90508281036080840152610ad08187610a3e565b94151560a0840152505060c0015295945050505050565b634e487b7160e01b600052604160045260246000fd5b600082601f830112610b0e57600080fd5b813567ffffffffffffffff80821115610b2957610b29610ae7565b604051601f8301601f19908116603f01168101908282118183101715610b5157610b51610ae7565b81604052838152866020858801011115610b6a57600080fd5b836020870160208301376000602085830101528094505050505092915050565b600080600080600060a08688031215610ba257600080fd5b8535945060208601359350604086013567ffffffffffffffff80821115610bc857600080fd5b610bd489838a01610afd565b94506060880135915080821115610bea57600080fd5b610bf689838a01610afd565b93506080880135915080821115610c0c57600080fd5b50610c1988828901610afd565b9150509295509295909350565b60008060008060808587031215610c3c57600080fd5b84359350602085013567ffffffffffffffff80821115610c5b57600080fd5b610c6788838901610afd565b94506040870135915080821115610c7d57600080fd5b610c8988838901610afd565b93506060870135915080821115610c9f57600080fd5b50610cac87828801610afd565b91505092959194509250565b600181811c90821680610ccc57607f821691505b60208210811415610ced57634e487b7160e01b600052602260045260246000fd5b50919050565b6000600019821415610d1557634e487b7160e01b600052601160045260246000fd5b506001019056fea2646970667358221220db42a82913b415487a84d6699bd497895357a4be1122d206a08d37d051aa59b464736f6c634300080b0033",
  "immutableReferences": {},
  "source": "// SPDX-License-Identifier: MIT\r\npragma solidity ^0.8.11;\r\n\r\ncontract MateriaPrimaContract {\r\n    struct Model {\r\n        uint256 id;\r\n        uint256 nro_cosecha;\r\n        string lugar_procedencia;\r\n        string nombre_propietario;\r\n        string gadros_brix;\r\n        bool aprobado;\r\n        uint256 createdAt;\r\n    }\r\n    event Id(uint256 id);\r\n    mapping(uint256 => Model) public lista;\r\n    uint256 public contador;\r\n\r\n    function crear(\r\n        uint256 _nro_cosecha,\r\n        string memory _lugar_procedencia,\r\n        string memory _nombre_propietario,\r\n        string memory _grados_brix\r\n    ) public {\r\n        lista[contador] = Model(\r\n            contador,\r\n            _nro_cosecha,\r\n            _lugar_procedencia,\r\n            _nombre_propietario,\r\n            _grados_brix,\r\n            false,\r\n            block.timestamp\r\n        );\r\n        emit Id(contador);\r\n        contador++;\r\n    }\r\n\r\n    function editar(\r\n        uint256 _id,\r\n        uint256 _nro_cosecha,\r\n        string memory _lugar_procedencia,\r\n        string memory _nombre_propietario,\r\n        string memory _grados_brix\r\n    ) public {\r\n        Model memory _item = lista[_id];\r\n        if (_item.aprobado == false) {\r\n            _item.nro_cosecha = _nro_cosecha;\r\n            _item.lugar_procedencia = _lugar_procedencia;\r\n            _item.nombre_propietario = _nombre_propietario;\r\n            _item.gadros_brix = _grados_brix;\r\n            lista[_id] = _item;\r\n            emit Id(_id);\r\n        }\r\n    }\r\n\r\n    function aprobarProceso(uint256 _id) public {\r\n        Model memory _item = lista[_id];\r\n        _item.aprobado = true;\r\n        lista[_id] = _item;\r\n        emit Id(_id);\r\n    }\r\n}\r\n",
  "sourcePath": "E:\\UNL\\CICLO X\\vinos-blockchain\\contracts\\procesos\\1MateriaPrimaContract.sol",
  "compiler": {
    "name": "solc",
    "version": "0.8.11+commit.d7f03943.Emscripten.clang"
  },
  "schemaVersion": "3.4.4",
  "updatedAt": "2022-06-29T23:41:40.415Z",
  "networkType": "ethereum",
  "devdoc": {
    "kind": "dev",
    "methods": {},
    "version": 1
  },
  "userdoc": {
    "kind": "user",
    "methods": {},
    "version": 1
  }
}