{
  "contractName": "MateriaPrimaContract",
  "abi": [
    {
      "anonymous": false,
      "inputs": [
        {
          "indexed": false,
          "internalType": "uint256",
          "name": "id",
          "type": "uint256"
        }
      ],
      "name": "Id",
      "type": "event"
    },
    {
      "inputs": [],
      "name": "contador",
      "outputs": [
        {
          "internalType": "uint256",
          "name": "",
          "type": "uint256"
        }
      ],
      "stateMutability": "view",
      "type": "function",
      "constant": true
    },
    {
      "inputs": [
        {
          "internalType": "uint256",
          "name": "",
          "type": "uint256"
        }
      ],
      "name": "lista",
      "outputs": [
        {
          "internalType": "uint256",
          "name": "id",
          "type": "uint256"
        },
        {
          "internalType": "uint256",
          "name": "nro_cosecha",
          "type": "uint256"
        },
        {
          "internalType": "string",
          "name": "lugar_procedencia",
          "type": "string"
        },
        {
          "internalType": "string",
          "name": "nombre_propietario",
          "type": "string"
        },
        {
          "internalType": "string",
          "name": "gadros_brix",
          "type": "string"
        },
        {
          "internalType": "bool",
          "name": "aprobado",
          "type": "bool"
        },
        {
          "internalType": "uint256",
          "name": "createdAt",
          "type": "uint256"
        }
      ],
      "stateMutability": "view",
      "type": "function",
      "constant": true
    },
    {
      "inputs": [
        {
          "internalType": "uint256",
          "name": "_nro_cosecha",
          "type": "uint256"
        },
        {
          "internalType": "string",
          "name": "_lugar_procedencia",
          "type": "string"
        },
        {
          "internalType": "string",
          "name": "_nombre_propietario",
          "type": "string"
        },
        {
          "internalType": "string",
          "name": "_grados_brix",
          "type": "string"
        }
      ],
      "name": "crear",
      "outputs": [],
      "stateMutability": "nonpayable",
      "type": "function"
    },
    {
      "inputs": [
        {
          "internalType": "uint256",
          "name": "_id",
          "type": "uint256"
        }
      ],
      "name": "encontrar",
      "outputs": [
        {
          "components": [
            {
              "internalType": "uint256",
              "name": "id",
              "type": "uint256"
            },
            {
              "internalType": "uint256",
              "name": "nro_cosecha",
              "type": "uint256"
            },
            {
              "internalType": "string",
              "name": "lugar_procedencia",
              "type": "string"
            },
            {
              "internalType": "string",
              "name": "nombre_propietario",
              "type": "string"
            },
            {
              "internalType": "string",
              "name": "gadros_brix",
              "type": "string"
            },
            {
              "internalType": "bool",
              "name": "aprobado",
              "type": "bool"
            },
            {
              "internalType": "uint256",
              "name": "createdAt",
              "type": "uint256"
            }
          ],
          "internalType": "struct MateriaPrimaContract.Model",
          "name": "",
          "type": "tuple"
        }
      ],
      "stateMutability": "view",
      "type": "function",
      "constant": true
    },
    {
      "inputs": [
        {
          "internalType": "uint256",
          "name": "_id",
          "type": "uint256"
        },
        {
          "internalType": "uint256",
          "name": "_nro_cosecha",
          "type": "uint256"
        },
        {
          "internalType": "string",
          "name": "_lugar_procedencia",
          "type": "string"
        },
        {
          "internalType": "string",
          "name": "_nombre_propietario",
          "type": "string"
        },
        {
          "internalType": "string",
          "name": "_grados_brix",
          "type": "string"
        }
      ],
      "name": "editar",
      "outputs": [],
      "stateMutability": "nonpayable",
      "type": "function"
    },
    {
      "inputs": [
        {
          "internalType": "uint256",
          "name": "_id",
          "type": "uint256"
        }
      ],
      "name": "aprobarProceso",
      "outputs": [],
      "stateMutability": "nonpayable",
      "type": "function"
    }
  ],
  "bytecode": "0x608060405234801561001057600080fd5b50611056806100206000396000f3fe608060405234801561001057600080fd5b50600436106100625760003560e01c80630cc76c14146100675780632500e8a91461009657806353d27cc2146100ab5780637a00b8a9146100c257806385d3a43a146100d557806398c2f4bc146100f5575b600080fd5b61007a610075366004610c99565b610108565b60405161008d9796959493929190610cff565b60405180910390f35b6100a96100a4366004610dfe565b6102df565b005b6100b460015481565b60405190815260200161008d565b6100a96100d0366004610c99565b6105ca565b6100e86100e3366004610c99565b61089f565b60405161008d9190610e9a565b6100a9610103366004610f2a565b610ae8565b6000602081905290815260409020805460018201546002830180549293919261013090610fbc565b80601f016020809104026020016040519081016040528092919081815260200182805461015c90610fbc565b80156101a95780601f1061017e576101008083540402835291602001916101a9565b820191906000526020600020905b81548152906001019060200180831161018c57829003601f168201915b5050505050908060030180546101be90610fbc565b80601f01602080910402602001604051908101604052809291908181526020018280546101ea90610fbc565b80156102375780601f1061020c57610100808354040283529160200191610237565b820191906000526020600020905b81548152906001019060200180831161021a57829003601f168201915b50505050509080600401805461024c90610fbc565b80601f016020809104026020016040519081016040528092919081815260200182805461027890610fbc565b80156102c55780601f1061029a576101008083540402835291602001916102c5565b820191906000526020600020905b8154815290600101906020018083116102a857829003601f168201915b505050506005830154600690930154919260ff1691905087565b600085815260208181526040808320815160e08101835281548152600182015493810193909352600281018054919284019161031a90610fbc565b80601f016020809104026020016040519081016040528092919081815260200182805461034690610fbc565b80156103935780601f1061036857610100808354040283529160200191610393565b820191906000526020600020905b81548152906001019060200180831161037657829003601f168201915b505050505081526020016003820180546103ac90610fbc565b80601f01602080910402602001604051908101604052809291908181526020018280546103d890610fbc565b80156104255780601f106103fa57610100808354040283529160200191610425565b820191906000526020600020905b81548152906001019060200180831161040857829003601f168201915b5050505050815260200160048201805461043e90610fbc565b80601f016020809104026020016040519081016040528092919081815260200182805461046a90610fbc565b80156104b75780601f1061048c576101008083540402835291602001916104b7565b820191906000526020600020905b81548152906001019060200180831161049a57829003601f168201915b5050509183525050600582015460ff161515602082015260069091015460409091015260a08101519091506105c25760208082018681526040808401878152606085018790526080850186905260008a81528085529190912084518155915160018301555180518493610531926002850192910190610c00565b506060820151805161054d916003840191602090910190610c00565b5060808201518051610569916004840191602090910190610c00565b5060a082015160058201805460ff191691151591909117905560c0909101516006909101556040518681527f1ee8913b1e0c76a71150bbb92d8921b2c975601c8c9991b8ef86a1b3896727749060200160405180910390a15b505050505050565b600081815260208181526040808320815160e08101835281548152600182015493810193909352600281018054919284019161060590610fbc565b80601f016020809104026020016040519081016040528092919081815260200182805461063190610fbc565b801561067e5780601f106106535761010080835404028352916020019161067e565b820191906000526020600020905b81548152906001019060200180831161066157829003601f168201915b5050505050815260200160038201805461069790610fbc565b80601f01602080910402602001604051908101604052809291908181526020018280546106c390610fbc565b80156107105780601f106106e557610100808354040283529160200191610710565b820191906000526020600020905b8154815290600101906020018083116106f357829003601f168201915b5050505050815260200160048201805461072990610fbc565b80601f016020809104026020016040519081016040528092919081815260200182805461075590610fbc565b80156107a25780601f10610777576101008083540402835291602001916107a2565b820191906000526020600020905b81548152906001019060200180831161078557829003601f168201915b5050509183525050600582015460ff161515602080830191909152600690920154604091820152600160a0840181905260008681528084528290208451815584840151918101919091559083015180519394508493919261080b92600285019290910190610c00565b5060608201518051610827916003840191602090910190610c00565b5060808201518051610843916004840191602090910190610c00565b5060a082015160058201805460ff191691151591909117905560c0909101516006909101556040518281527f1ee8913b1e0c76a71150bbb92d8921b2c975601c8c9991b8ef86a1b3896727749060200160405180910390a15050565b6108e16040518060e001604052806000815260200160008152602001606081526020016060815260200160608152602001600015158152602001600081525090565b6000808381526020019081526020016000206040518060e0016040529081600082015481526020016001820154815260200160028201805461092290610fbc565b80601f016020809104026020016040519081016040528092919081815260200182805461094e90610fbc565b801561099b5780601f106109705761010080835404028352916020019161099b565b820191906000526020600020905b81548152906001019060200180831161097e57829003601f168201915b505050505081526020016003820180546109b490610fbc565b80601f01602080910402602001604051908101604052809291908181526020018280546109e090610fbc565b8015610a2d5780601f10610a0257610100808354040283529160200191610a2d565b820191906000526020600020905b815481529060010190602001808311610a1057829003601f168201915b50505050508152602001600482018054610a4690610fbc565b80601f0160208091040260200160405190810160405280929190818152602001828054610a7290610fbc565b8015610abf5780601f10610a9457610100808354040283529160200191610abf565b820191906000526020600020905b815481529060010190602001808311610aa257829003601f168201915b5050509183525050600582015460ff161515602082015260069091015460409091015292915050565b6040805160e0810182526001805480835260208084018981528486018981526060860189905260808601889052600060a087018190524260c0880152938452838352959092208451815591519282019290925592518051929392610b529260028501920190610c00565b5060608201518051610b6e916003840191602090910190610c00565b5060808201518051610b8a916004840191602090910190610c00565b5060a082015160058201805460ff191691151591909117905560c0909101516006909101556001546040519081527f1ee8913b1e0c76a71150bbb92d8921b2c975601c8c9991b8ef86a1b3896727749060200160405180910390a160018054906000610bf583610ff7565b919050555050505050565b828054610c0c90610fbc565b90600052602060002090601f016020900481019282610c2e5760008555610c74565b82601f10610c4757805160ff1916838001178555610c74565b82800160010185558215610c74579182015b82811115610c74578251825591602001919060010190610c59565b50610c80929150610c84565b5090565b5b80821115610c805760008155600101610c85565b600060208284031215610cab57600080fd5b5035919050565b6000815180845260005b81811015610cd857602081850181015186830182015201610cbc565b81811115610cea576000602083870101525b50601f01601f19169290920160200192915050565b87815286602082015260e060408201526000610d1e60e0830188610cb2565b8281036060840152610d308188610cb2565b90508281036080840152610d448187610cb2565b94151560a0840152505060c0015295945050505050565b634e487b7160e01b600052604160045260246000fd5b600082601f830112610d8257600080fd5b813567ffffffffffffffff80821115610d9d57610d9d610d5b565b604051601f8301601f19908116603f01168101908282118183101715610dc557610dc5610d5b565b81604052838152866020858801011115610dde57600080fd5b836020870160208301376000602085830101528094505050505092915050565b600080600080600060a08688031215610e1657600080fd5b8535945060208601359350604086013567ffffffffffffffff80821115610e3c57600080fd5b610e4889838a01610d71565b94506060880135915080821115610e5e57600080fd5b610e6a89838a01610d71565b93506080880135915080821115610e8057600080fd5b50610e8d88828901610d71565b9150509295509295909350565b6020815281516020820152602082015160408201526000604083015160e06060840152610ecb610100840182610cb2565b90506060840151601f1980858403016080860152610ee98383610cb2565b925060808601519150808584030160a086015250610f078282610cb2565b91505060a0840151151560c084015260c084015160e08401528091505092915050565b60008060008060808587031215610f4057600080fd5b84359350602085013567ffffffffffffffff80821115610f5f57600080fd5b610f6b88838901610d71565b94506040870135915080821115610f8157600080fd5b610f8d88838901610d71565b93506060870135915080821115610fa357600080fd5b50610fb087828801610d71565b91505092959194509250565b600181811c90821680610fd057607f821691505b60208210811415610ff157634e487b7160e01b600052602260045260246000fd5b50919050565b600060001982141561101957634e487b7160e01b600052601160045260246000fd5b506001019056fea2646970667358221220c7cf4dfac9e2e6cda4f63a21d445b83540bdc86f1e217311e318cb7cedb4911864736f6c634300080b0033",
  "immutableReferences": {},
  "source": "// SPDX-License-Identifier: MIT\r\npragma solidity ^0.8.11;\r\n\r\ncontract MateriaPrimaContract {\r\n    struct Model {\r\n        uint256 id;\r\n        uint256 nro_cosecha;\r\n        string lugar_procedencia;\r\n        string nombre_propietario;\r\n        string gadros_brix;\r\n        bool aprobado;\r\n        uint256 createdAt;\r\n    }\r\n    event Id(uint256 id);\r\n    mapping(uint256 => Model) public lista;\r\n    uint256 public contador;\r\n\r\n    function crear(\r\n        uint256 _nro_cosecha,\r\n        string memory _lugar_procedencia,\r\n        string memory _nombre_propietario,\r\n        string memory _grados_brix\r\n    ) public {\r\n        lista[contador] = Model(\r\n            contador,\r\n            _nro_cosecha,\r\n            _lugar_procedencia,\r\n            _nombre_propietario,\r\n            _grados_brix,\r\n            false,\r\n            block.timestamp\r\n        );\r\n        emit Id(contador);\r\n        contador++;\r\n    }\r\n\r\n    function encontrar(uint256 _id) public view returns (Model memory) {\r\n        return lista[_id];\r\n    }\r\n\r\n    function editar(\r\n        uint256 _id,\r\n        uint256 _nro_cosecha,\r\n        string memory _lugar_procedencia,\r\n        string memory _nombre_propietario,\r\n        string memory _grados_brix\r\n    ) public {\r\n        Model memory _item = lista[_id];\r\n        if (_item.aprobado == false) {\r\n            _item.nro_cosecha = _nro_cosecha;\r\n            _item.lugar_procedencia = _lugar_procedencia;\r\n            _item.nombre_propietario = _nombre_propietario;\r\n            _item.gadros_brix = _grados_brix;\r\n            lista[_id] = _item;\r\n            emit Id(_id);\r\n        }\r\n    }\r\n\r\n    function aprobarProceso(uint256 _id) public {\r\n        Model memory _item = lista[_id];\r\n        _item.aprobado = true;\r\n        lista[_id] = _item;\r\n        emit Id(_id);\r\n    }\r\n}\r\n",
  "sourcePath": "E:\\UNL\\CICLO X\\vinos-blockchain\\contracts\\procesos\\1MateriaPrimaContract.sol",
  "compiler": {
    "name": "solc",
    "version": "0.8.11+commit.d7f03943.Emscripten.clang"
  },
  "schemaVersion": "3.4.4",
  "updatedAt": "2022-07-06T01:08:45.366Z",
  "networkType": "ethereum",
  "devdoc": {
    "kind": "dev",
    "methods": {},
    "version": 1
  },
  "userdoc": {
    "kind": "user",
    "methods": {},
    "version": 1
  }
}