{
  "contractName": "MateriaPrimaContract",
  "abi": [
    {
      "anonymous": false,
      "inputs": [
        {
          "indexed": false,
          "internalType": "uint256",
          "name": "id",
          "type": "uint256"
        }
      ],
      "name": "Id",
      "type": "event"
    },
    {
      "inputs": [
        {
          "internalType": "address",
          "name": "",
          "type": "address"
        }
      ],
      "name": "contador",
      "outputs": [
        {
          "internalType": "uint256",
          "name": "",
          "type": "uint256"
        }
      ],
      "stateMutability": "view",
      "type": "function",
      "constant": true
    },
    {
      "inputs": [
        {
          "internalType": "address",
          "name": "",
          "type": "address"
        },
        {
          "internalType": "uint256",
          "name": "",
          "type": "uint256"
        }
      ],
      "name": "lista",
      "outputs": [
        {
          "internalType": "uint256",
          "name": "id",
          "type": "uint256"
        },
        {
          "internalType": "uint256",
          "name": "nro_cosecha",
          "type": "uint256"
        },
        {
          "internalType": "string",
          "name": "lugar_procedencia",
          "type": "string"
        },
        {
          "internalType": "string",
          "name": "nombre_propietario",
          "type": "string"
        },
        {
          "internalType": "string",
          "name": "gadros_brix",
          "type": "string"
        },
        {
          "internalType": "bool",
          "name": "aprobado",
          "type": "bool"
        },
        {
          "internalType": "uint256",
          "name": "createdAt",
          "type": "uint256"
        }
      ],
      "stateMutability": "view",
      "type": "function",
      "constant": true
    },
    {
      "inputs": [
        {
          "internalType": "uint256",
          "name": "_nro_cosecha",
          "type": "uint256"
        },
        {
          "internalType": "string",
          "name": "_lugar_procedencia",
          "type": "string"
        },
        {
          "internalType": "string",
          "name": "_nombre_propietario",
          "type": "string"
        },
        {
          "internalType": "string",
          "name": "_grados_brix",
          "type": "string"
        }
      ],
      "name": "crear",
      "outputs": [],
      "stateMutability": "nonpayable",
      "type": "function"
    },
    {
      "inputs": [
        {
          "internalType": "uint256",
          "name": "_id",
          "type": "uint256"
        }
      ],
      "name": "encontrar",
      "outputs": [
        {
          "components": [
            {
              "internalType": "uint256",
              "name": "id",
              "type": "uint256"
            },
            {
              "internalType": "uint256",
              "name": "nro_cosecha",
              "type": "uint256"
            },
            {
              "internalType": "string",
              "name": "lugar_procedencia",
              "type": "string"
            },
            {
              "internalType": "string",
              "name": "nombre_propietario",
              "type": "string"
            },
            {
              "internalType": "string",
              "name": "gadros_brix",
              "type": "string"
            },
            {
              "internalType": "bool",
              "name": "aprobado",
              "type": "bool"
            },
            {
              "internalType": "uint256",
              "name": "createdAt",
              "type": "uint256"
            }
          ],
          "internalType": "struct MateriaPrimaContract.Model",
          "name": "",
          "type": "tuple"
        }
      ],
      "stateMutability": "view",
      "type": "function",
      "constant": true
    },
    {
      "inputs": [
        {
          "internalType": "uint256",
          "name": "_id",
          "type": "uint256"
        },
        {
          "internalType": "uint256",
          "name": "_nro_cosecha",
          "type": "uint256"
        },
        {
          "internalType": "string",
          "name": "_lugar_procedencia",
          "type": "string"
        },
        {
          "internalType": "string",
          "name": "_nombre_propietario",
          "type": "string"
        },
        {
          "internalType": "string",
          "name": "_grados_brix",
          "type": "string"
        }
      ],
      "name": "editar",
      "outputs": [],
      "stateMutability": "nonpayable",
      "type": "function"
    },
    {
      "inputs": [
        {
          "internalType": "uint256",
          "name": "_id",
          "type": "uint256"
        }
      ],
      "name": "aprobarProceso",
      "outputs": [],
      "stateMutability": "nonpayable",
      "type": "function"
    }
  ],
  "bytecode": "0x608060405234801561001057600080fd5b50611122806100206000396000f3fe608060405234801561001057600080fd5b50600436106100625760003560e01c80632500e8a91461006757806331caa9e11461007c5780637a00b8a9146100ab57806385d3a43a146100be57806398c2f4bc146100de578063aedb974b146100f1575b600080fd5b61007a610075366004610da0565b61011f565b005b61008f61008a366004610e58565b61041c565b6040516100a29796959493929190610ecf565b60405180910390f35b61007a6100b9366004610f2b565b6105fb565b6100d16100cc366004610f2b565b6108e2565b6040516100a29190610f44565b61007a6100ec366004610fd4565b610b32565b6101116100ff366004611066565b60016020526000908152604090205481565b6040519081526020016100a2565b336000908152602081815260408083208884528252808320815160e08101835281548152600182015493810193909352600281018054919284019161016390611088565b80601f016020809104026020016040519081016040528092919081815260200182805461018f90611088565b80156101dc5780601f106101b1576101008083540402835291602001916101dc565b820191906000526020600020905b8154815290600101906020018083116101bf57829003601f168201915b505050505081526020016003820180546101f590611088565b80601f016020809104026020016040519081016040528092919081815260200182805461022190611088565b801561026e5780601f106102435761010080835404028352916020019161026e565b820191906000526020600020905b81548152906001019060200180831161025157829003601f168201915b5050505050815260200160048201805461028790611088565b80601f01602080910402602001604051908101604052809291908181526020018280546102b390611088565b80156103005780601f106102d557610100808354040283529160200191610300565b820191906000526020600020905b8154815290600101906020018083116102e357829003601f168201915b5050509183525050600582015460ff161515602082015260069091015460409091015260a0810151909150610414576020808201868152604080840187815260608501879052608085018690523360009081528085528281208b825285529190912084518155915160018301555180518493610383926002850192910190610c64565b506060820151805161039f916003840191602090910190610c64565b50608082015180516103bb916004840191602090910190610c64565b5060a082015160058201805460ff191691151591909117905560c0909101516006909101556040518681527f1ee8913b1e0c76a71150bbb92d8921b2c975601c8c9991b8ef86a1b3896727749060200160405180910390a15b505050505050565b60006020818152928152604080822090935290815220805460018201546002830180549293919261044c90611088565b80601f016020809104026020016040519081016040528092919081815260200182805461047890611088565b80156104c55780601f1061049a576101008083540402835291602001916104c5565b820191906000526020600020905b8154815290600101906020018083116104a857829003601f168201915b5050505050908060030180546104da90611088565b80601f016020809104026020016040519081016040528092919081815260200182805461050690611088565b80156105535780601f1061052857610100808354040283529160200191610553565b820191906000526020600020905b81548152906001019060200180831161053657829003601f168201915b50505050509080600401805461056890611088565b80601f016020809104026020016040519081016040528092919081815260200182805461059490611088565b80156105e15780601f106105b6576101008083540402835291602001916105e1565b820191906000526020600020905b8154815290600101906020018083116105c457829003601f168201915b505050506005830154600690930154919260ff1691905087565b336000908152602081815260408083208484528252808320815160e08101835281548152600182015493810193909352600281018054919284019161063f90611088565b80601f016020809104026020016040519081016040528092919081815260200182805461066b90611088565b80156106b85780601f1061068d576101008083540402835291602001916106b8565b820191906000526020600020905b81548152906001019060200180831161069b57829003601f168201915b505050505081526020016003820180546106d190611088565b80601f01602080910402602001604051908101604052809291908181526020018280546106fd90611088565b801561074a5780601f1061071f5761010080835404028352916020019161074a565b820191906000526020600020905b81548152906001019060200180831161072d57829003601f168201915b5050505050815260200160048201805461076390611088565b80601f016020809104026020016040519081016040528092919081815260200182805461078f90611088565b80156107dc5780601f106107b1576101008083540402835291602001916107dc565b820191906000526020600020905b8154815290600101906020018083116107bf57829003601f168201915b5050509183525050600582015460ff161515602080830191909152600690920154604091820152600160a0840181905233600090815280845282812087825284528290208451815584840151918101919091559083015180519394508493919261084e92600285019290910190610c64565b506060820151805161086a916003840191602090910190610c64565b5060808201518051610886916004840191602090910190610c64565b5060a082015160058201805460ff191691151591909117905560c0909101516006909101556040518281527f1ee8913b1e0c76a71150bbb92d8921b2c975601c8c9991b8ef86a1b3896727749060200160405180910390a15050565b6109246040518060e001604052806000815260200160008152602001606081526020016060815260200160608152602001600015158152602001600081525090565b33600090815260208181526040808320858452825291829020825160e08101845281548152600182015492810192909252600281018054929391929184019161096c90611088565b80601f016020809104026020016040519081016040528092919081815260200182805461099890611088565b80156109e55780601f106109ba576101008083540402835291602001916109e5565b820191906000526020600020905b8154815290600101906020018083116109c857829003601f168201915b505050505081526020016003820180546109fe90611088565b80601f0160208091040260200160405190810160405280929190818152602001828054610a2a90611088565b8015610a775780601f10610a4c57610100808354040283529160200191610a77565b820191906000526020600020905b815481529060010190602001808311610a5a57829003601f168201915b50505050508152602001600482018054610a9090611088565b80601f0160208091040260200160405190810160405280929190818152602001828054610abc90611088565b8015610b095780601f10610ade57610100808354040283529160200191610b09565b820191906000526020600020905b815481529060010190602001808311610aec57829003601f168201915b5050509183525050600582015460ff161515602082015260069091015460409091015292915050565b33600081815260016020818152604080842054815160e0810183528181528084018b81528184018b8152606083018b9052608083018a905260a083018890524260c08401529787528685528387208388528552929095208551815591519382019390935593518051929492610bad9260028501920190610c64565b5060608201518051610bc9916003840191602090910190610c64565b5060808201518051610be5916004840191602090910190610c64565b5060a082015160058201805460ff191691151591909117905560c0909101516006909101556040518181527f1ee8913b1e0c76a71150bbb92d8921b2c975601c8c9991b8ef86a1b3896727749060200160405180910390a1336000908152600160205260408120805491610c58836110c3565b91905055505050505050565b828054610c7090611088565b90600052602060002090601f016020900481019282610c925760008555610cd8565b82601f10610cab57805160ff1916838001178555610cd8565b82800160010185558215610cd8579182015b82811115610cd8578251825591602001919060010190610cbd565b50610ce4929150610ce8565b5090565b5b80821115610ce45760008155600101610ce9565b634e487b7160e01b600052604160045260246000fd5b600082601f830112610d2457600080fd5b813567ffffffffffffffff80821115610d3f57610d3f610cfd565b604051601f8301601f19908116603f01168101908282118183101715610d6757610d67610cfd565b81604052838152866020858801011115610d8057600080fd5b836020870160208301376000602085830101528094505050505092915050565b600080600080600060a08688031215610db857600080fd5b8535945060208601359350604086013567ffffffffffffffff80821115610dde57600080fd5b610dea89838a01610d13565b94506060880135915080821115610e0057600080fd5b610e0c89838a01610d13565b93506080880135915080821115610e2257600080fd5b50610e2f88828901610d13565b9150509295509295909350565b80356001600160a01b0381168114610e5357600080fd5b919050565b60008060408385031215610e6b57600080fd5b610e7483610e3c565b946020939093013593505050565b6000815180845260005b81811015610ea857602081850181015186830182015201610e8c565b81811115610eba576000602083870101525b50601f01601f19169290920160200192915050565b87815286602082015260e060408201526000610eee60e0830188610e82565b8281036060840152610f008188610e82565b90508281036080840152610f148187610e82565b94151560a0840152505060c0015295945050505050565b600060208284031215610f3d57600080fd5b5035919050565b6020815281516020820152602082015160408201526000604083015160e06060840152610f75610100840182610e82565b90506060840151601f1980858403016080860152610f938383610e82565b925060808601519150808584030160a086015250610fb18282610e82565b91505060a0840151151560c084015260c084015160e08401528091505092915050565b60008060008060808587031215610fea57600080fd5b84359350602085013567ffffffffffffffff8082111561100957600080fd5b61101588838901610d13565b9450604087013591508082111561102b57600080fd5b61103788838901610d13565b9350606087013591508082111561104d57600080fd5b5061105a87828801610d13565b91505092959194509250565b60006020828403121561107857600080fd5b61108182610e3c565b9392505050565b600181811c9082168061109c57607f821691505b602082108114156110bd57634e487b7160e01b600052602260045260246000fd5b50919050565b60006000198214156110e557634e487b7160e01b600052601160045260246000fd5b506001019056fea2646970667358221220c620f004c8c56a19bc19134afb83a14db6ca886a9851625c9dbbacb88045c13e64736f6c634300080b0033",
  "immutableReferences": {},
  "source": "// SPDX-License-Identifier: MIT\r\npragma solidity ^0.8.11;\r\n\r\ncontract MateriaPrimaContract {\r\n    struct Model {\r\n        uint256 id;\r\n        uint256 nro_cosecha;\r\n        string lugar_procedencia;\r\n        string nombre_propietario;\r\n        string gadros_brix;\r\n        bool aprobado;\r\n        uint256 createdAt;\r\n    }\r\n    event Id(uint256 id);\r\n\r\n    mapping(address => mapping(uint256 => Model)) public lista;\r\n    mapping(address => uint256) public contador;\r\n\r\n    function crear(\r\n        uint256 _nro_cosecha,\r\n        string memory _lugar_procedencia,\r\n        string memory _nombre_propietario,\r\n        string memory _grados_brix\r\n    ) public {\r\n        uint256 contador_id = contador[msg.sender];\r\n        lista[msg.sender][contador_id] = Model(\r\n            contador_id,\r\n            _nro_cosecha,\r\n            _lugar_procedencia,\r\n            _nombre_propietario,\r\n            _grados_brix,\r\n            false,\r\n            block.timestamp\r\n        );\r\n        emit Id(contador_id);\r\n        contador[msg.sender]++;\r\n    }\r\n\r\n    function encontrar(uint256 _id) public view returns (Model memory) {\r\n        return lista[msg.sender][_id];\r\n    }\r\n\r\n    function editar(\r\n        uint256 _id,\r\n        uint256 _nro_cosecha,\r\n        string memory _lugar_procedencia,\r\n        string memory _nombre_propietario,\r\n        string memory _grados_brix\r\n    ) public {\r\n        Model memory _item = lista[msg.sender][_id];\r\n        if (_item.aprobado == false) {\r\n            _item.nro_cosecha = _nro_cosecha;\r\n            _item.lugar_procedencia = _lugar_procedencia;\r\n            _item.nombre_propietario = _nombre_propietario;\r\n            _item.gadros_brix = _grados_brix;\r\n            lista[msg.sender][_id] = _item;\r\n            emit Id(_id);\r\n        }\r\n    }\r\n\r\n    function aprobarProceso(uint256 _id) public {\r\n        Model memory _item = lista[msg.sender][_id];\r\n        _item.aprobado = true;\r\n        lista[msg.sender][_id] = _item;\r\n        emit Id(_id);\r\n    }\r\n}\r\n",
  "sourcePath": "E:\\UNL\\CICLO X\\vinos-blockchain\\contracts\\1MateriaPrimaContract.sol",
  "compiler": {
    "name": "solc",
    "version": "0.8.11+commit.d7f03943.Emscripten.clang"
  },
  "schemaVersion": "3.4.4",
  "updatedAt": "2022-06-28T20:25:17.413Z",
  "networkType": "ethereum",
  "devdoc": {
    "kind": "dev",
    "methods": {},
    "version": 1
  },
  "userdoc": {
    "kind": "user",
    "methods": {},
    "version": 1
  }
}