{
  "contractName": "MateriaPrimaContract",
  "abi": [
    {
      "inputs": [
        {
          "internalType": "address",
          "name": "",
          "type": "address"
        }
      ],
      "name": "contador",
      "outputs": [
        {
          "internalType": "uint256",
          "name": "",
          "type": "uint256"
        }
      ],
      "stateMutability": "view",
      "type": "function",
      "constant": true
    },
    {
      "inputs": [
        {
          "internalType": "address",
          "name": "",
          "type": "address"
        },
        {
          "internalType": "uint256",
          "name": "",
          "type": "uint256"
        }
      ],
      "name": "lista",
      "outputs": [
        {
          "internalType": "uint256",
          "name": "id",
          "type": "uint256"
        },
        {
          "internalType": "uint256",
          "name": "nro_cosecha",
          "type": "uint256"
        },
        {
          "internalType": "string",
          "name": "lugar_procedencia",
          "type": "string"
        },
        {
          "internalType": "string",
          "name": "nombre_propietario",
          "type": "string"
        },
        {
          "internalType": "string",
          "name": "gadros_brix",
          "type": "string"
        },
        {
          "internalType": "bool",
          "name": "aprobado",
          "type": "bool"
        },
        {
          "internalType": "uint256",
          "name": "createdAt",
          "type": "uint256"
        }
      ],
      "stateMutability": "view",
      "type": "function",
      "constant": true
    },
    {
      "inputs": [
        {
          "internalType": "uint256",
          "name": "_nro_cosecha",
          "type": "uint256"
        },
        {
          "internalType": "string",
          "name": "_lugar_procedencia",
          "type": "string"
        },
        {
          "internalType": "string",
          "name": "_nombre_propietario",
          "type": "string"
        },
        {
          "internalType": "string",
          "name": "_grados_brix",
          "type": "string"
        }
      ],
      "name": "crear",
      "outputs": [],
      "stateMutability": "nonpayable",
      "type": "function"
    },
    {
      "inputs": [
        {
          "internalType": "uint256",
          "name": "_id",
          "type": "uint256"
        },
        {
          "internalType": "uint256",
          "name": "_nro_cosecha",
          "type": "uint256"
        },
        {
          "internalType": "string",
          "name": "_lugar_procedencia",
          "type": "string"
        },
        {
          "internalType": "string",
          "name": "_nombre_propietario",
          "type": "string"
        },
        {
          "internalType": "string",
          "name": "_grados_brix",
          "type": "string"
        }
      ],
      "name": "atualizar",
      "outputs": [],
      "stateMutability": "nonpayable",
      "type": "function"
    },
    {
      "inputs": [
        {
          "internalType": "uint256",
          "name": "_id",
          "type": "uint256"
        }
      ],
      "name": "aprobarProceso",
      "outputs": [],
      "stateMutability": "nonpayable",
      "type": "function"
    }
  ],
  "bytecode": "0x608060405234801561001057600080fd5b50610d7e806100206000396000f3fe608060405234801561001057600080fd5b50600436106100575760003560e01c806331caa9e11461005c5780637a00b8a91461008b57806398c2f4bc146100a05780639ab50665146100b3578063aedb974b146100c6575b600080fd5b61006f61006a366004610a05565b6100f4565b6040516100829796959493929190610a7c565b60405180910390f35b61009e610099366004610ad8565b6102d3565b005b61009e6100ae366004610b94565b610587565b61009e6100c1366004610c26565b610686565b6100e66100d4366004610cc2565b60016020526000908152604090205481565b604051908152602001610082565b60006020818152928152604080822090935290815220805460018201546002830180549293919261012490610ce4565b80601f016020809104026020016040519081016040528092919081815260200182805461015090610ce4565b801561019d5780601f106101725761010080835404028352916020019161019d565b820191906000526020600020905b81548152906001019060200180831161018057829003601f168201915b5050505050908060030180546101b290610ce4565b80601f01602080910402602001604051908101604052809291908181526020018280546101de90610ce4565b801561022b5780601f106102005761010080835404028352916020019161022b565b820191906000526020600020905b81548152906001019060200180831161020e57829003601f168201915b50505050509080600401805461024090610ce4565b80601f016020809104026020016040519081016040528092919081815260200182805461026c90610ce4565b80156102b95780601f1061028e576101008083540402835291602001916102b9565b820191906000526020600020905b81548152906001019060200180831161029c57829003601f168201915b505050506005830154600690930154919260ff1691905087565b336000908152602081815260408083208484528252808320815160e08101835281548152600182015493810193909352600281018054919284019161031790610ce4565b80601f016020809104026020016040519081016040528092919081815260200182805461034390610ce4565b80156103905780601f1061036557610100808354040283529160200191610390565b820191906000526020600020905b81548152906001019060200180831161037357829003601f168201915b505050505081526020016003820180546103a990610ce4565b80601f01602080910402602001604051908101604052809291908181526020018280546103d590610ce4565b80156104225780601f106103f757610100808354040283529160200191610422565b820191906000526020600020905b81548152906001019060200180831161040557829003601f168201915b5050505050815260200160048201805461043b90610ce4565b80601f016020809104026020016040519081016040528092919081815260200182805461046790610ce4565b80156104b45780601f10610489576101008083540402835291602001916104b4565b820191906000526020600020905b81548152906001019060200180831161049757829003601f168201915b5050509183525050600582015460ff161515602080830191909152600690920154604091820152600160a0840181905233600090815280845282812087825284528290208451815584840151918101919091559083015180519394508493919261052692600285019290910190610950565b5060608201518051610542916003840191602090910190610950565b506080820151805161055e916004840191602090910190610950565b5060a082015160058201805460ff191691151591909117905560c0909101516006909101555050565b33600081815260016020818152604080842054815160e0810183528181528084018b81528184018b8152606083018b9052608083018a905260a083018890524260c084015297875286855283872083885285529290952085518155915193820193909355935180519294926106029260028501920190610950565b506060820151805161061e916003840191602090910190610950565b506080820151805161063a916004840191602090910190610950565b5060a082015160058201805460ff191691151591909117905560c09091015160069091015533600090815260016020526040812080549161067a83610d1f565b91905055505050505050565b336000908152602081815260408083208884528252808320815160e0810183528154815260018201549381019390935260028101805491928401916106ca90610ce4565b80601f01602080910402602001604051908101604052809291908181526020018280546106f690610ce4565b80156107435780601f1061071857610100808354040283529160200191610743565b820191906000526020600020905b81548152906001019060200180831161072657829003601f168201915b5050505050815260200160038201805461075c90610ce4565b80601f016020809104026020016040519081016040528092919081815260200182805461078890610ce4565b80156107d55780601f106107aa576101008083540402835291602001916107d5565b820191906000526020600020905b8154815290600101906020018083116107b857829003601f168201915b505050505081526020016004820180546107ee90610ce4565b80601f016020809104026020016040519081016040528092919081815260200182805461081a90610ce4565b80156108675780601f1061083c57610100808354040283529160200191610867565b820191906000526020600020905b81548152906001019060200180831161084a57829003601f168201915b5050509183525050600582015460ff161515602082015260069091015460409091015260a0810151909150610948576020808201868152604080840187815260608501879052608085018690523360009081528085528281208b8252855291909120845181559151600183015551805184936108ea926002850192910190610950565b5060608201518051610906916003840191602090910190610950565b5060808201518051610922916004840191602090910190610950565b5060a082015160058201805460ff191691151591909117905560c0909101516006909101555b505050505050565b82805461095c90610ce4565b90600052602060002090601f01602090048101928261097e57600085556109c4565b82601f1061099757805160ff19168380011785556109c4565b828001600101855582156109c4579182015b828111156109c45782518255916020019190600101906109a9565b506109d09291506109d4565b5090565b5b808211156109d057600081556001016109d5565b80356001600160a01b0381168114610a0057600080fd5b919050565b60008060408385031215610a1857600080fd5b610a21836109e9565b946020939093013593505050565b6000815180845260005b81811015610a5557602081850181015186830182015201610a39565b81811115610a67576000602083870101525b50601f01601f19169290920160200192915050565b87815286602082015260e060408201526000610a9b60e0830188610a2f565b8281036060840152610aad8188610a2f565b90508281036080840152610ac18187610a2f565b94151560a0840152505060c0015295945050505050565b600060208284031215610aea57600080fd5b5035919050565b634e487b7160e01b600052604160045260246000fd5b600082601f830112610b1857600080fd5b813567ffffffffffffffff80821115610b3357610b33610af1565b604051601f8301601f19908116603f01168101908282118183101715610b5b57610b5b610af1565b81604052838152866020858801011115610b7457600080fd5b836020870160208301376000602085830101528094505050505092915050565b60008060008060808587031215610baa57600080fd5b84359350602085013567ffffffffffffffff80821115610bc957600080fd5b610bd588838901610b07565b94506040870135915080821115610beb57600080fd5b610bf788838901610b07565b93506060870135915080821115610c0d57600080fd5b50610c1a87828801610b07565b91505092959194509250565b600080600080600060a08688031215610c3e57600080fd5b8535945060208601359350604086013567ffffffffffffffff80821115610c6457600080fd5b610c7089838a01610b07565b94506060880135915080821115610c8657600080fd5b610c9289838a01610b07565b93506080880135915080821115610ca857600080fd5b50610cb588828901610b07565b9150509295509295909350565b600060208284031215610cd457600080fd5b610cdd826109e9565b9392505050565b600181811c90821680610cf857607f821691505b60208210811415610d1957634e487b7160e01b600052602260045260246000fd5b50919050565b6000600019821415610d4157634e487b7160e01b600052601160045260246000fd5b506001019056fea264697066735822122070a1d310d1d109cf0435c0794a200d7e3a2cc3d72ccb4ba956421418b64595e464736f6c634300080b0033",
  "immutableReferences": {},
  "source": "// SPDX-License-Identifier: MIT\r\npragma solidity ^0.8.11;\r\n\r\ncontract MateriaPrimaContract {\r\n    struct MateriaPrima {\r\n        uint256 id;\r\n        uint256 nro_cosecha;\r\n        string lugar_procedencia;\r\n        string nombre_propietario;\r\n        string gadros_brix;\r\n        bool aprobado;\r\n        uint256 createdAt;\r\n    }\r\n\r\n    mapping(address => mapping(uint256 => MateriaPrima)) public lista;\r\n    mapping(address => uint256) public contador;\r\n\r\n    function crear(\r\n        uint256 _nro_cosecha,\r\n        string memory _lugar_procedencia,\r\n        string memory _nombre_propietario,\r\n        string memory _grados_brix\r\n    ) public {\r\n        uint256 contador_id = contador[msg.sender];\r\n\r\n        lista[msg.sender][contador_id] = MateriaPrima(\r\n            contador_id,\r\n            _nro_cosecha,\r\n            _lugar_procedencia,\r\n            _nombre_propietario,\r\n            _grados_brix,\r\n            false,\r\n            block.timestamp\r\n        );\r\n        contador[msg.sender]++;\r\n    }\r\n\r\n    function atualizar(\r\n        uint256 _id,\r\n        uint256 _nro_cosecha,\r\n        string memory _lugar_procedencia,\r\n        string memory _nombre_propietario,\r\n        string memory _grados_brix\r\n    ) public {\r\n        MateriaPrima memory _item = lista[msg.sender][_id];\r\n        if (_item.aprobado == false) {\r\n            _item.nro_cosecha = _nro_cosecha;\r\n            _item.lugar_procedencia = _lugar_procedencia;\r\n            _item.nombre_propietario = _nombre_propietario;\r\n            _item.gadros_brix = _grados_brix;\r\n            lista[msg.sender][_id] = _item;\r\n        }\r\n    }\r\n\r\n    function aprobarProceso(uint256 _id) public {\r\n        MateriaPrima memory _item = lista[msg.sender][_id];\r\n        _item.aprobado = true;\r\n        lista[msg.sender][_id] = _item;\r\n    }\r\n}\r\n",
  "sourcePath": "E:\\UNL\\CICLO X\\PTT\\vinos-blockchain\\contracts\\1MateriaPrimaContract.sol",
  "compiler": {
    "name": "solc",
    "version": "0.8.11+commit.d7f03943.Emscripten.clang"
  },
  "schemaVersion": "3.4.4",
  "updatedAt": "2022-06-20T16:34:47.580Z",
  "networkType": "ethereum",
  "devdoc": {
    "kind": "dev",
    "methods": {},
    "version": 1
  },
  "userdoc": {
    "kind": "user",
    "methods": {},
    "version": 1
  }
}