{
  "contractName": "MateriaPrimaContract",
  "abi": [
    {
      "inputs": [
        {
          "internalType": "address",
          "name": "",
          "type": "address"
        }
      ],
      "name": "contador",
      "outputs": [
        {
          "internalType": "uint256",
          "name": "",
          "type": "uint256"
        }
      ],
      "stateMutability": "view",
      "type": "function",
      "constant": true
    },
    {
      "inputs": [
        {
          "internalType": "address",
          "name": "",
          "type": "address"
        },
        {
          "internalType": "uint256",
          "name": "",
          "type": "uint256"
        }
      ],
      "name": "lista",
      "outputs": [
        {
          "internalType": "uint256",
          "name": "id",
          "type": "uint256"
        },
        {
          "internalType": "uint256",
          "name": "nro_cosecha",
          "type": "uint256"
        },
        {
          "internalType": "string",
          "name": "lugar_procedencia",
          "type": "string"
        },
        {
          "internalType": "string",
          "name": "nombre_propietario",
          "type": "string"
        },
        {
          "internalType": "string",
          "name": "gadros_brix",
          "type": "string"
        },
        {
          "internalType": "bool",
          "name": "aprobado",
          "type": "bool"
        },
        {
          "internalType": "uint256",
          "name": "createdAt",
          "type": "uint256"
        }
      ],
      "stateMutability": "view",
      "type": "function",
      "constant": true
    },
    {
      "inputs": [
        {
          "internalType": "uint256",
          "name": "_nro_cosecha",
          "type": "uint256"
        },
        {
          "internalType": "string",
          "name": "_lugar_procedencia",
          "type": "string"
        },
        {
          "internalType": "string",
          "name": "_nombre_propietario",
          "type": "string"
        },
        {
          "internalType": "string",
          "name": "_grados_brix",
          "type": "string"
        }
      ],
      "name": "crear",
      "outputs": [],
      "stateMutability": "nonpayable",
      "type": "function"
    },
    {
      "inputs": [
        {
          "internalType": "uint256",
          "name": "_id",
          "type": "uint256"
        }
      ],
      "name": "encontrar",
      "outputs": [
        {
          "components": [
            {
              "internalType": "uint256",
              "name": "id",
              "type": "uint256"
            },
            {
              "internalType": "uint256",
              "name": "nro_cosecha",
              "type": "uint256"
            },
            {
              "internalType": "string",
              "name": "lugar_procedencia",
              "type": "string"
            },
            {
              "internalType": "string",
              "name": "nombre_propietario",
              "type": "string"
            },
            {
              "internalType": "string",
              "name": "gadros_brix",
              "type": "string"
            },
            {
              "internalType": "bool",
              "name": "aprobado",
              "type": "bool"
            },
            {
              "internalType": "uint256",
              "name": "createdAt",
              "type": "uint256"
            }
          ],
          "internalType": "struct MateriaPrimaContract.Model",
          "name": "",
          "type": "tuple"
        }
      ],
      "stateMutability": "view",
      "type": "function",
      "constant": true
    },
    {
      "inputs": [
        {
          "internalType": "uint256",
          "name": "_id",
          "type": "uint256"
        },
        {
          "internalType": "uint256",
          "name": "_nro_cosecha",
          "type": "uint256"
        },
        {
          "internalType": "string",
          "name": "_lugar_procedencia",
          "type": "string"
        },
        {
          "internalType": "string",
          "name": "_nombre_propietario",
          "type": "string"
        },
        {
          "internalType": "string",
          "name": "_grados_brix",
          "type": "string"
        }
      ],
      "name": "atualizar",
      "outputs": [],
      "stateMutability": "nonpayable",
      "type": "function"
    },
    {
      "inputs": [
        {
          "internalType": "uint256",
          "name": "_id",
          "type": "uint256"
        }
      ],
      "name": "aprobarProceso",
      "outputs": [],
      "stateMutability": "nonpayable",
      "type": "function"
    }
  ],
  "bytecode": "0x608060405234801561001057600080fd5b50611089806100206000396000f3fe608060405234801561001057600080fd5b50600436106100625760003560e01c806331caa9e1146100675780637a00b8a91461009657806385d3a43a146100ab57806398c2f4bc146100cb5780639ab50665146100de578063aedb974b146100f1575b600080fd5b61007a610075366004610c80565b61011f565b60405161008d9796959493929190610cf7565b60405180910390f35b6100a96100a4366004610d53565b6102fe565b005b6100be6100b9366004610d53565b6105b2565b60405161008d9190610d6c565b6100a96100d9366004610e9f565b610802565b6100a96100ec366004610f31565b610901565b6101116100ff366004610fcd565b60016020526000908152604090205481565b60405190815260200161008d565b60006020818152928152604080822090935290815220805460018201546002830180549293919261014f90610fef565b80601f016020809104026020016040519081016040528092919081815260200182805461017b90610fef565b80156101c85780601f1061019d576101008083540402835291602001916101c8565b820191906000526020600020905b8154815290600101906020018083116101ab57829003601f168201915b5050505050908060030180546101dd90610fef565b80601f016020809104026020016040519081016040528092919081815260200182805461020990610fef565b80156102565780601f1061022b57610100808354040283529160200191610256565b820191906000526020600020905b81548152906001019060200180831161023957829003601f168201915b50505050509080600401805461026b90610fef565b80601f016020809104026020016040519081016040528092919081815260200182805461029790610fef565b80156102e45780601f106102b9576101008083540402835291602001916102e4565b820191906000526020600020905b8154815290600101906020018083116102c757829003601f168201915b505050506005830154600690930154919260ff1691905087565b336000908152602081815260408083208484528252808320815160e08101835281548152600182015493810193909352600281018054919284019161034290610fef565b80601f016020809104026020016040519081016040528092919081815260200182805461036e90610fef565b80156103bb5780601f10610390576101008083540402835291602001916103bb565b820191906000526020600020905b81548152906001019060200180831161039e57829003601f168201915b505050505081526020016003820180546103d490610fef565b80601f016020809104026020016040519081016040528092919081815260200182805461040090610fef565b801561044d5780601f106104225761010080835404028352916020019161044d565b820191906000526020600020905b81548152906001019060200180831161043057829003601f168201915b5050505050815260200160048201805461046690610fef565b80601f016020809104026020016040519081016040528092919081815260200182805461049290610fef565b80156104df5780601f106104b4576101008083540402835291602001916104df565b820191906000526020600020905b8154815290600101906020018083116104c257829003601f168201915b5050509183525050600582015460ff161515602080830191909152600690920154604091820152600160a0840181905233600090815280845282812087825284528290208451815584840151918101919091559083015180519394508493919261055192600285019290910190610bcb565b506060820151805161056d916003840191602090910190610bcb565b5060808201518051610589916004840191602090910190610bcb565b5060a082015160058201805460ff191691151591909117905560c0909101516006909101555050565b6105f46040518060e001604052806000815260200160008152602001606081526020016060815260200160608152602001600015158152602001600081525090565b33600090815260208181526040808320858452825291829020825160e08101845281548152600182015492810192909252600281018054929391929184019161063c90610fef565b80601f016020809104026020016040519081016040528092919081815260200182805461066890610fef565b80156106b55780601f1061068a576101008083540402835291602001916106b5565b820191906000526020600020905b81548152906001019060200180831161069857829003601f168201915b505050505081526020016003820180546106ce90610fef565b80601f01602080910402602001604051908101604052809291908181526020018280546106fa90610fef565b80156107475780601f1061071c57610100808354040283529160200191610747565b820191906000526020600020905b81548152906001019060200180831161072a57829003601f168201915b5050505050815260200160048201805461076090610fef565b80601f016020809104026020016040519081016040528092919081815260200182805461078c90610fef565b80156107d95780601f106107ae576101008083540402835291602001916107d9565b820191906000526020600020905b8154815290600101906020018083116107bc57829003601f168201915b5050509183525050600582015460ff161515602082015260069091015460409091015292915050565b33600081815260016020818152604080842054815160e0810183528181528084018b81528184018b8152606083018b9052608083018a905260a083018890524260c0840152978752868552838720838852855292909520855181559151938201939093559351805192949261087d9260028501920190610bcb565b5060608201518051610899916003840191602090910190610bcb565b50608082015180516108b5916004840191602090910190610bcb565b5060a082015160058201805460ff191691151591909117905560c0909101516006909101553360009081526001602052604081208054916108f58361102a565b91905055505050505050565b336000908152602081815260408083208884528252808320815160e08101835281548152600182015493810193909352600281018054919284019161094590610fef565b80601f016020809104026020016040519081016040528092919081815260200182805461097190610fef565b80156109be5780601f10610993576101008083540402835291602001916109be565b820191906000526020600020905b8154815290600101906020018083116109a157829003601f168201915b505050505081526020016003820180546109d790610fef565b80601f0160208091040260200160405190810160405280929190818152602001828054610a0390610fef565b8015610a505780601f10610a2557610100808354040283529160200191610a50565b820191906000526020600020905b815481529060010190602001808311610a3357829003601f168201915b50505050508152602001600482018054610a6990610fef565b80601f0160208091040260200160405190810160405280929190818152602001828054610a9590610fef565b8015610ae25780601f10610ab757610100808354040283529160200191610ae2565b820191906000526020600020905b815481529060010190602001808311610ac557829003601f168201915b5050509183525050600582015460ff161515602082015260069091015460409091015260a0810151909150610bc3576020808201868152604080840187815260608501879052608085018690523360009081528085528281208b825285529190912084518155915160018301555180518493610b65926002850192910190610bcb565b5060608201518051610b81916003840191602090910190610bcb565b5060808201518051610b9d916004840191602090910190610bcb565b5060a082015160058201805460ff191691151591909117905560c0909101516006909101555b505050505050565b828054610bd790610fef565b90600052602060002090601f016020900481019282610bf95760008555610c3f565b82601f10610c1257805160ff1916838001178555610c3f565b82800160010185558215610c3f579182015b82811115610c3f578251825591602001919060010190610c24565b50610c4b929150610c4f565b5090565b5b80821115610c4b5760008155600101610c50565b80356001600160a01b0381168114610c7b57600080fd5b919050565b60008060408385031215610c9357600080fd5b610c9c83610c64565b946020939093013593505050565b6000815180845260005b81811015610cd057602081850181015186830182015201610cb4565b81811115610ce2576000602083870101525b50601f01601f19169290920160200192915050565b87815286602082015260e060408201526000610d1660e0830188610caa565b8281036060840152610d288188610caa565b90508281036080840152610d3c8187610caa565b94151560a0840152505060c0015295945050505050565b600060208284031215610d6557600080fd5b5035919050565b6020815281516020820152602082015160408201526000604083015160e06060840152610d9d610100840182610caa565b90506060840151601f1980858403016080860152610dbb8383610caa565b925060808601519150808584030160a086015250610dd98282610caa565b91505060a0840151151560c084015260c084015160e08401528091505092915050565b634e487b7160e01b600052604160045260246000fd5b600082601f830112610e2357600080fd5b813567ffffffffffffffff80821115610e3e57610e3e610dfc565b604051601f8301601f19908116603f01168101908282118183101715610e6657610e66610dfc565b81604052838152866020858801011115610e7f57600080fd5b836020870160208301376000602085830101528094505050505092915050565b60008060008060808587031215610eb557600080fd5b84359350602085013567ffffffffffffffff80821115610ed457600080fd5b610ee088838901610e12565b94506040870135915080821115610ef657600080fd5b610f0288838901610e12565b93506060870135915080821115610f1857600080fd5b50610f2587828801610e12565b91505092959194509250565b600080600080600060a08688031215610f4957600080fd5b8535945060208601359350604086013567ffffffffffffffff80821115610f6f57600080fd5b610f7b89838a01610e12565b94506060880135915080821115610f9157600080fd5b610f9d89838a01610e12565b93506080880135915080821115610fb357600080fd5b50610fc088828901610e12565b9150509295509295909350565b600060208284031215610fdf57600080fd5b610fe882610c64565b9392505050565b600181811c9082168061100357607f821691505b6020821081141561102457634e487b7160e01b600052602260045260246000fd5b50919050565b600060001982141561104c57634e487b7160e01b600052601160045260246000fd5b506001019056fea26469706673582212203d696ba011db718b58ea1255ba053155bafa7cb2c8938983416b3c6759821ab964736f6c634300080b0033",
  "immutableReferences": {},
  "source": "// SPDX-License-Identifier: MIT\r\npragma solidity ^0.8.11;\r\n\r\ncontract MateriaPrimaContract {\r\n    struct Model {\r\n        uint256 id;\r\n        uint256 nro_cosecha;\r\n        string lugar_procedencia;\r\n        string nombre_propietario;\r\n        string gadros_brix;\r\n        bool aprobado;\r\n        uint256 createdAt;\r\n    }\r\n\r\n    mapping(address => mapping(uint256 => Model)) public lista;\r\n    mapping(address => uint256) public contador;\r\n\r\n    function crear(\r\n        uint256 _nro_cosecha,\r\n        string memory _lugar_procedencia,\r\n        string memory _nombre_propietario,\r\n        string memory _grados_brix\r\n    ) public {\r\n        uint256 contador_id = contador[msg.sender];\r\n        lista[msg.sender][contador_id] = Model(\r\n            contador_id,\r\n            _nro_cosecha,\r\n            _lugar_procedencia,\r\n            _nombre_propietario,\r\n            _grados_brix,\r\n            false,\r\n            block.timestamp\r\n        );\r\n        contador[msg.sender]++;\r\n    }\r\n\r\n    function encontrar(uint256 _id) public view returns (Model memory) {\r\n        return lista[msg.sender][_id];\r\n    }\r\n\r\n    function atualizar(\r\n        uint256 _id,\r\n        uint256 _nro_cosecha,\r\n        string memory _lugar_procedencia,\r\n        string memory _nombre_propietario,\r\n        string memory _grados_brix\r\n    ) public {\r\n        Model memory _item = lista[msg.sender][_id];\r\n        if (_item.aprobado == false) {\r\n            _item.nro_cosecha = _nro_cosecha;\r\n            _item.lugar_procedencia = _lugar_procedencia;\r\n            _item.nombre_propietario = _nombre_propietario;\r\n            _item.gadros_brix = _grados_brix;\r\n            lista[msg.sender][_id] = _item;\r\n        }\r\n    }\r\n\r\n    function aprobarProceso(uint256 _id) public {\r\n        Model memory _item = lista[msg.sender][_id];\r\n        _item.aprobado = true;\r\n        lista[msg.sender][_id] = _item;\r\n    }\r\n}\r\n",
  "sourcePath": "E:\\UNL\\CICLO X\\vinos-blockchain\\contracts\\1MateriaPrimaContract.sol",
  "compiler": {
    "name": "solc",
    "version": "0.8.11+commit.d7f03943.Emscripten.clang"
  },
  "schemaVersion": "3.4.4",
  "updatedAt": "2022-06-26T19:05:17.387Z",
  "networkType": "ethereum",
  "devdoc": {
    "kind": "dev",
    "methods": {},
    "version": 1
  },
  "userdoc": {
    "kind": "user",
    "methods": {},
    "version": 1
  }
}