{
  "contractName": "ModelContract",
  "abi": [
    {
      "inputs": [],
      "stateMutability": "nonpayable",
      "type": "constructor"
    },
    {
      "anonymous": false,
      "inputs": [
        {
          "indexed": false,
          "internalType": "uint256",
          "name": "id",
          "type": "uint256"
        }
      ],
      "name": "Id",
      "type": "event"
    },
    {
      "inputs": [],
      "name": "contador",
      "outputs": [
        {
          "internalType": "uint256",
          "name": "",
          "type": "uint256"
        }
      ],
      "stateMutability": "view",
      "type": "function"
    },
    {
      "inputs": [
        {
          "internalType": "uint256",
          "name": "",
          "type": "uint256"
        }
      ],
      "name": "lista",
      "outputs": [
        {
          "internalType": "uint256",
          "name": "id",
          "type": "uint256"
        },
        {
          "internalType": "string",
          "name": "nombre",
          "type": "string"
        },
        {
          "internalType": "string",
          "name": "identificacion",
          "type": "string"
        },
        {
          "internalType": "string",
          "name": "billetera",
          "type": "string"
        },
        {
          "internalType": "uint256",
          "name": "createdAt",
          "type": "uint256"
        }
      ],
      "stateMutability": "view",
      "type": "function"
    },
    {
      "inputs": [
        {
          "internalType": "string",
          "name": "_nombre",
          "type": "string"
        },
        {
          "internalType": "string",
          "name": "_identificacion",
          "type": "string"
        },
        {
          "internalType": "string",
          "name": "_billetera",
          "type": "string"
        },
        {
          "internalType": "uint256[]",
          "name": "_permisos",
          "type": "uint256[]"
        }
      ],
      "name": "crear",
      "outputs": [],
      "stateMutability": "nonpayable",
      "type": "function"
    },
    {
      "inputs": [
        {
          "internalType": "uint256",
          "name": "_id",
          "type": "uint256"
        },
        {
          "internalType": "string",
          "name": "_nombre",
          "type": "string"
        },
        {
          "internalType": "string",
          "name": "_identificacion",
          "type": "string"
        },
        {
          "internalType": "string",
          "name": "_billetera",
          "type": "string"
        },
        {
          "internalType": "uint256[]",
          "name": "_permisos",
          "type": "uint256[]"
        }
      ],
      "name": "actualizar",
      "outputs": [],
      "stateMutability": "nonpayable",
      "type": "function"
    }
  ],
  "bytecode": "0x608060405234801561001057600080fd5b50610b77806100206000396000f3fe608060405234801561001057600080fd5b506004361061004c5760003560e01c8063018a73c8146100515780630cc76c141461006657806312df70741461009357806353d27cc2146100a6575b600080fd5b61006461005f3660046108c1565b6100bd565b005b61007961007436600461096e565b6101ca565b60405161008a9594939291906109d4565b60405180910390f35b6100646100a1366004610a26565b610391565b6100af60015481565b60405190815260200161008a565b600180546040805160c081018252828152602080820189815282840189905260608301889052608083018790524260a08401526000858152808352939093208251815592518051949592946101199385019291909101906106b7565b50604082015180516101359160028401916020909101906106b7565b50606082015180516101519160038401916020909101906106b7565b506080820151805161016d91600484019160209091019061073b565b5060a091909101516005909101556040518181527f1ee8913b1e0c76a71150bbb92d8921b2c975601c8c9991b8ef86a1b3896727749060200160405180910390a1600180549060006101be83610add565b91905055505050505050565b600060208190529081526040902080546001820180549192916101ec90610b06565b80601f016020809104026020016040519081016040528092919081815260200182805461021890610b06565b80156102655780601f1061023a57610100808354040283529160200191610265565b820191906000526020600020905b81548152906001019060200180831161024857829003601f168201915b50505050509080600201805461027a90610b06565b80601f01602080910402602001604051908101604052809291908181526020018280546102a690610b06565b80156102f35780601f106102c8576101008083540402835291602001916102f3565b820191906000526020600020905b8154815290600101906020018083116102d657829003601f168201915b50505050509080600301805461030890610b06565b80601f016020809104026020016040519081016040528092919081815260200182805461033490610b06565b80156103815780601f1061035657610100808354040283529160200191610381565b820191906000526020600020905b81548152906001019060200180831161036457829003601f168201915b5050505050908060050154905085565b60008060008781526020019081526020016000206040518060c0016040529081600082015481526020016001820180546103ca90610b06565b80601f01602080910402602001604051908101604052809291908181526020018280546103f690610b06565b80156104435780601f1061041857610100808354040283529160200191610443565b820191906000526020600020905b81548152906001019060200180831161042657829003601f168201915b5050505050815260200160028201805461045c90610b06565b80601f016020809104026020016040519081016040528092919081815260200182805461048890610b06565b80156104d55780601f106104aa576101008083540402835291602001916104d5565b820191906000526020600020905b8154815290600101906020018083116104b857829003601f168201915b505050505081526020016003820180546104ee90610b06565b80601f016020809104026020016040519081016040528092919081815260200182805461051a90610b06565b80156105675780601f1061053c57610100808354040283529160200191610567565b820191906000526020600020905b81548152906001019060200180831161054a57829003601f168201915b50505050508152602001600482018054806020026020016040519081016040528092919081815260200182805480156105bf57602002820191906000526020600020905b8154815260200190600101908083116105ab575b5050509183525050600591909101546020918201528181018781526060830186905260408084018890526080840186905260008a81528084522083518155905180519394508493919261061a926001850192909101906106b7565b50604082015180516106369160028401916020909101906106b7565b50606082015180516106529160038401916020909101906106b7565b506080820151805161066e91600484019160209091019061073b565b5060a091909101516005909101556040518681527f1ee8913b1e0c76a71150bbb92d8921b2c975601c8c9991b8ef86a1b3896727749060200160405180910390a1505050505050565b8280546106c390610b06565b90600052602060002090601f0160209004810192826106e5576000855561072b565b82601f106106fe57805160ff191683800117855561072b565b8280016001018555821561072b579182015b8281111561072b578251825591602001919060010190610710565b50610737929150610775565b5090565b82805482825590600052602060002090810192821561072b579160200282018281111561072b578251825591602001919060010190610710565b5b808211156107375760008155600101610776565b634e487b7160e01b600052604160045260246000fd5b604051601f8201601f1916810167ffffffffffffffff811182821017156107c9576107c961078a565b604052919050565b600082601f8301126107e257600080fd5b813567ffffffffffffffff8111156107fc576107fc61078a565b61080f601f8201601f19166020016107a0565b81815284602083860101111561082457600080fd5b816020850160208301376000918101602001919091529392505050565b600082601f83011261085257600080fd5b8135602067ffffffffffffffff82111561086e5761086e61078a565b8160051b61087d8282016107a0565b928352848101820192828101908785111561089757600080fd5b83870192505b848310156108b65782358252918301919083019061089d565b979650505050505050565b600080600080608085870312156108d757600080fd5b843567ffffffffffffffff808211156108ef57600080fd5b6108fb888389016107d1565b9550602087013591508082111561091157600080fd5b61091d888389016107d1565b9450604087013591508082111561093357600080fd5b61093f888389016107d1565b9350606087013591508082111561095557600080fd5b5061096287828801610841565b91505092959194509250565b60006020828403121561098057600080fd5b5035919050565b6000815180845260005b818110156109ad57602081850181015186830182015201610991565b818111156109bf576000602083870101525b50601f01601f19169290920160200192915050565b85815260a0602082015260006109ed60a0830187610987565b82810360408401526109ff8187610987565b90508281036060840152610a138186610987565b9150508260808301529695505050505050565b600080600080600060a08688031215610a3e57600080fd5b85359450602086013567ffffffffffffffff80821115610a5d57600080fd5b610a6989838a016107d1565b95506040880135915080821115610a7f57600080fd5b610a8b89838a016107d1565b94506060880135915080821115610aa157600080fd5b610aad89838a016107d1565b93506080880135915080821115610ac357600080fd5b50610ad088828901610841565b9150509295509295909350565b6000600019821415610aff57634e487b7160e01b600052601160045260246000fd5b5060010190565b600181811c90821680610b1a57607f821691505b60208210811415610b3b57634e487b7160e01b600052602260045260246000fd5b5091905056fea2646970667358221220dfc10f3d084e8ee1b361658c3fb843a80fbbdc40725c648e5187ad413f14977c64736f6c634300080b0033",
  "immutableReferences": {},
  "source": "// SPDX-License-Identifier: MIT\r\npragma solidity ^0.8.11;\r\n\r\ncontract ModelContract {\r\n    struct Model {\r\n        uint256 id;\r\n        string nombre;\r\n        string identificacion;\r\n        string billetera;\r\n        uint256[] permisos;\r\n        uint256 createdAt;\r\n    }\r\n    event Id(uint256 id);\r\n    constructor() {\r\n        // crear(\"Administrador\", \"1105279044\", \"1105279044\");\r\n    }\r\n\r\n    mapping(uint256 => Model) public lista;\r\n    uint256 public contador;\r\n\r\n    function crear(\r\n        string memory _nombre,\r\n        string memory _identificacion,\r\n        string memory _billetera,\r\n        uint256[] memory _permisos\r\n    ) public {\r\n        uint256 contador_id = contador;\r\n        lista[contador_id] = Model(\r\n            contador_id,\r\n            _nombre,\r\n            _identificacion,\r\n            _billetera,\r\n            _permisos,\r\n            block.timestamp\r\n        );\r\n        emit Id(contador_id);\r\n        contador++;\r\n    }\r\n\r\n    function actualizar(\r\n        uint256 _id,\r\n        string memory _nombre,\r\n        string memory _identificacion,\r\n        string memory _billetera,\r\n        uint256[] memory _permisos\r\n    ) public {\r\n        Model memory _item = lista[_id];\r\n        _item.nombre = _nombre;\r\n        _item.billetera = _billetera;\r\n        _item.identificacion = _identificacion;\r\n        _item.permisos = _permisos;\r\n        lista[_id] = _item;\r\n        emit Id(_id);\r\n    }\r\n}\r\n",
  "sourcePath": "E:\\UNL\\CICLO X\\vinos-blockchain\\contracts\\procesos\\UsuarioContract.sol",
  "compiler": {
    "name": "solc",
    "version": "0.8.11+commit.d7f03943.Emscripten.clang"
  },
  "schemaVersion": "3.4.4",
  "updatedAt": "2022-06-29T23:41:27.323Z",
  "devdoc": {
    "kind": "dev",
    "methods": {},
    "version": 1
  },
  "userdoc": {
    "kind": "user",
    "methods": {},
    "version": 1
  }
}