{
  "contractName": "PasteurizacionMostoContract",
  "abi": [
    {
      "inputs": [
        {
          "internalType": "address",
          "name": "",
          "type": "address"
        },
        {
          "internalType": "uint256",
          "name": "",
          "type": "uint256"
        }
      ],
      "name": "lista",
      "outputs": [
        {
          "internalType": "uint256",
          "name": "hash_anterior",
          "type": "uint256"
        },
        {
          "internalType": "string",
          "name": "temperatura_caliente",
          "type": "string"
        },
        {
          "internalType": "string",
          "name": "temperatura_fria",
          "type": "string"
        },
        {
          "internalType": "string",
          "name": "tiempo_proceso",
          "type": "string"
        },
        {
          "internalType": "bool",
          "name": "aprobado",
          "type": "bool"
        },
        {
          "internalType": "uint256",
          "name": "createdAt",
          "type": "uint256"
        }
      ],
      "stateMutability": "view",
      "type": "function"
    },
    {
      "inputs": [
        {
          "internalType": "uint256",
          "name": "_hash_anterior",
          "type": "uint256"
        },
        {
          "internalType": "string",
          "name": "_temperatura_caliente",
          "type": "string"
        },
        {
          "internalType": "string",
          "name": "_temperatura_fria",
          "type": "string"
        },
        {
          "internalType": "string",
          "name": "_tiempo_proceso",
          "type": "string"
        }
      ],
      "name": "crear",
      "outputs": [],
      "stateMutability": "nonpayable",
      "type": "function"
    },
    {
      "inputs": [
        {
          "internalType": "uint256",
          "name": "_id",
          "type": "uint256"
        },
        {
          "internalType": "string",
          "name": "_temperatura_caliente",
          "type": "string"
        },
        {
          "internalType": "string",
          "name": "_temperatura_fria",
          "type": "string"
        },
        {
          "internalType": "string",
          "name": "_tiempo_proceso",
          "type": "string"
        }
      ],
      "name": "actualizar",
      "outputs": [],
      "stateMutability": "nonpayable",
      "type": "function"
    },
    {
      "inputs": [
        {
          "internalType": "uint256",
          "name": "_id",
          "type": "uint256"
        }
      ],
      "name": "aprobarProceso",
      "outputs": [],
      "stateMutability": "nonpayable",
      "type": "function"
    }
  ],
  "bytecode": "0x608060405234801561001057600080fd5b50610bd6806100206000396000f3fe608060405234801561001057600080fd5b506004361061004c5760003560e01c806331caa9e1146100515780635a11209f1461007f5780637a00b8a91461009457806398c2f4bc146100a7575b600080fd5b61006461005f36600461093d565b6100ba565b604051610076969594939291906109c2565b60405180910390f35b61009261008d366004610aba565b610293565b005b6100926100a2366004610b4c565b610544565b6100926100b5366004610aba565b6107e3565b6000602081815292815260408082209093529081522080546001820180549192916100e490610b65565b80601f016020809104026020016040519081016040528092919081815260200182805461011090610b65565b801561015d5780601f106101325761010080835404028352916020019161015d565b820191906000526020600020905b81548152906001019060200180831161014057829003601f168201915b50505050509080600201805461017290610b65565b80601f016020809104026020016040519081016040528092919081815260200182805461019e90610b65565b80156101eb5780601f106101c0576101008083540402835291602001916101eb565b820191906000526020600020905b8154815290600101906020018083116101ce57829003601f168201915b50505050509080600301805461020090610b65565b80601f016020809104026020016040519081016040528092919081815260200182805461022c90610b65565b80156102795780601f1061024e57610100808354040283529160200191610279565b820191906000526020600020905b81548152906001019060200180831161025c57829003601f168201915b505050506004830154600590930154919260ff1691905086565b336000908152602081815260408083208784528252808320815160c081019092528054825260018101805492939192918401916102cf90610b65565b80601f01602080910402602001604051908101604052809291908181526020018280546102fb90610b65565b80156103485780601f1061031d57610100808354040283529160200191610348565b820191906000526020600020905b81548152906001019060200180831161032b57829003601f168201915b5050505050815260200160028201805461036190610b65565b80601f016020809104026020016040519081016040528092919081815260200182805461038d90610b65565b80156103da5780601f106103af576101008083540402835291602001916103da565b820191906000526020600020905b8154815290600101906020018083116103bd57829003601f168201915b505050505081526020016003820180546103f390610b65565b80601f016020809104026020016040519081016040528092919081815260200182805461041f90610b65565b801561046c5780601f106104415761010080835404028352916020019161046c565b820191906000526020600020905b81548152906001019060200180831161044f57829003601f168201915b5050509183525050600482015460ff1615156020820152600590910154604090910152608081015190915061053d576020808201858152604080840186905260608401859052336000908152808452818120898252845220835181559051805184936104df9260018501929101906108a4565b50604082015180516104fb9160028401916020909101906108a4565b50606082015180516105179160038401916020909101906108a4565b50608082015160048201805460ff191691151591909117905560a0909101516005909101555b5050505050565b336000908152602081815260408083208484528252808320815160c0810190925280548252600181018054929391929184019161058090610b65565b80601f01602080910402602001604051908101604052809291908181526020018280546105ac90610b65565b80156105f95780601f106105ce576101008083540402835291602001916105f9565b820191906000526020600020905b8154815290600101906020018083116105dc57829003601f168201915b5050505050815260200160028201805461061290610b65565b80601f016020809104026020016040519081016040528092919081815260200182805461063e90610b65565b801561068b5780601f106106605761010080835404028352916020019161068b565b820191906000526020600020905b81548152906001019060200180831161066e57829003601f168201915b505050505081526020016003820180546106a490610b65565b80601f01602080910402602001604051908101604052809291908181526020018280546106d090610b65565b801561071d5780601f106106f25761010080835404028352916020019161071d565b820191906000526020600020905b81548152906001019060200180831161070057829003601f168201915b5050509183525050600482015460ff1615156020808301919091526005909201546040918201526001608084018190523360009081528084528281208782528452919091208351815583830151805194955085949193610782938501929101906108a4565b506040820151805161079e9160028401916020909101906108a4565b50606082015180516107ba9160038401916020909101906108a4565b50608082015160048201805460ff191691151591909117905560a0909101516005909101555050565b6040805160c0810182528581526020808201868152828401869052606083018590526000608084018190524260a0850152338152808352848120898252835293909320825181559251805192939261084192600185019201906108a4565b506040820151805161085d9160028401916020909101906108a4565b50606082015180516108799160038401916020909101906108a4565b50608082015160048201805460ff191691151591909117905560a09091015160059091015550505050565b8280546108b090610b65565b90600052602060002090601f0160209004810192826108d25760008555610918565b82601f106108eb57805160ff1916838001178555610918565b82800160010185558215610918579182015b828111156109185782518255916020019190600101906108fd565b50610924929150610928565b5090565b5b808211156109245760008155600101610929565b6000806040838503121561095057600080fd5b82356001600160a01b038116811461096757600080fd5b946020939093013593505050565b6000815180845260005b8181101561099b5760208185018101518683018201520161097f565b818111156109ad576000602083870101525b50601f01601f19169290920160200192915050565b86815260c0602082015260006109db60c0830188610975565b82810360408401526109ed8188610975565b90508281036060840152610a018187610975565b9415156080840152505060a00152949350505050565b634e487b7160e01b600052604160045260246000fd5b600082601f830112610a3e57600080fd5b813567ffffffffffffffff80821115610a5957610a59610a17565b604051601f8301601f19908116603f01168101908282118183101715610a8157610a81610a17565b81604052838152866020858801011115610a9a57600080fd5b836020870160208301376000602085830101528094505050505092915050565b60008060008060808587031215610ad057600080fd5b84359350602085013567ffffffffffffffff80821115610aef57600080fd5b610afb88838901610a2d565b94506040870135915080821115610b1157600080fd5b610b1d88838901610a2d565b93506060870135915080821115610b3357600080fd5b50610b4087828801610a2d565b91505092959194509250565b600060208284031215610b5e57600080fd5b5035919050565b600181811c90821680610b7957607f821691505b60208210811415610b9a57634e487b7160e01b600052602260045260246000fd5b5091905056fea2646970667358221220d47f6a0b20fee2b768dfe349fddfa80b11e4a3598fff62aae19b4f2a54da331564736f6c634300080b0033",
  "immutableReferences": {},
  "source": "// SPDX-License-Identifier: MIT\r\npragma solidity ^0.8.11;\r\n\r\ncontract PasteurizacionMostoContract {\r\n    struct Pasteurizacion {\r\n        uint256 hash_anterior;\r\n        string temperatura_caliente;\r\n        string temperatura_fria;\r\n        string tiempo_proceso;\r\n        bool aprobado;\r\n        uint256 createdAt;\r\n    }\r\n\r\n    mapping(address => mapping(uint256 => Pasteurizacion)) public lista;\r\n\r\n    function crear(\r\n        uint256 _hash_anterior,\r\n        string memory _temperatura_caliente,\r\n        string memory _temperatura_fria,\r\n        string memory _tiempo_proceso\r\n    ) public {\r\n        lista[msg.sender][_hash_anterior] = Pasteurizacion(\r\n            _hash_anterior,\r\n            _temperatura_caliente,\r\n            _temperatura_fria,\r\n            _tiempo_proceso,\r\n            false,\r\n            block.timestamp\r\n        );\r\n    }\r\n\r\n    function actualizar(\r\n        uint256 _id,\r\n        string memory _temperatura_caliente,\r\n        string memory _temperatura_fria,\r\n        string memory _tiempo_proceso\r\n    ) public {\r\n        Pasteurizacion memory _item = lista[msg.sender][_id];\r\n        if (_item.aprobado == false) {\r\n            _item.temperatura_caliente = _temperatura_caliente;\r\n            _item.temperatura_fria = _temperatura_fria;\r\n            _item.tiempo_proceso = _tiempo_proceso;\r\n            lista[msg.sender][_id] = _item;\r\n        }\r\n    }\r\n\r\n    function aprobarProceso(uint256 _id) public {\r\n        Pasteurizacion memory _item = lista[msg.sender][_id];\r\n        _item.aprobado = true;\r\n        lista[msg.sender][_id] = _item;\r\n    }\r\n}\r\n",
  "sourcePath": "E:\\UNL\\CICLO X\\vinos-blockchain\\contracts\\3PasteurizacionMostoContract.sol",
  "compiler": {
    "name": "solc",
    "version": "0.8.11+commit.d7f03943.Emscripten.clang"
  },
  "schemaVersion": "3.4.4",
  "updatedAt": "2022-06-26T18:57:21.356Z",
  "devdoc": {
    "kind": "dev",
    "methods": {},
    "version": 1
  },
  "userdoc": {
    "kind": "user",
    "methods": {},
    "version": 1
  }
}