{
  "contractName": "PasteurizacionMostoContract",
  "abi": [
    {
      "inputs": [
        {
          "internalType": "address",
          "name": "",
          "type": "address"
        }
      ],
      "name": "contador",
      "outputs": [
        {
          "internalType": "uint256",
          "name": "",
          "type": "uint256"
        }
      ],
      "stateMutability": "view",
      "type": "function",
      "constant": true
    },
    {
      "inputs": [
        {
          "internalType": "address",
          "name": "",
          "type": "address"
        },
        {
          "internalType": "uint256",
          "name": "",
          "type": "uint256"
        }
      ],
      "name": "lista",
      "outputs": [
        {
          "internalType": "uint256",
          "name": "id",
          "type": "uint256"
        },
        {
          "internalType": "string",
          "name": "temperatura_caliente",
          "type": "string"
        },
        {
          "internalType": "string",
          "name": "temperatura_fria",
          "type": "string"
        },
        {
          "internalType": "string",
          "name": "tiempo_proceso",
          "type": "string"
        },
        {
          "internalType": "bool",
          "name": "aprobado",
          "type": "bool"
        },
        {
          "internalType": "uint256",
          "name": "createdAt",
          "type": "uint256"
        }
      ],
      "stateMutability": "view",
      "type": "function",
      "constant": true
    },
    {
      "inputs": [
        {
          "internalType": "string",
          "name": "_temperatura_caliente",
          "type": "string"
        },
        {
          "internalType": "string",
          "name": "_temperatura_fria",
          "type": "string"
        },
        {
          "internalType": "string",
          "name": "_tiempo_proceso",
          "type": "string"
        }
      ],
      "name": "crear",
      "outputs": [],
      "stateMutability": "nonpayable",
      "type": "function"
    },
    {
      "inputs": [
        {
          "internalType": "uint256",
          "name": "_id",
          "type": "uint256"
        },
        {
          "internalType": "string",
          "name": "_temperatura_caliente",
          "type": "string"
        },
        {
          "internalType": "string",
          "name": "_temperatura_fria",
          "type": "string"
        },
        {
          "internalType": "string",
          "name": "_tiempo_proceso",
          "type": "string"
        }
      ],
      "name": "actualizar",
      "outputs": [],
      "stateMutability": "nonpayable",
      "type": "function"
    },
    {
      "inputs": [
        {
          "internalType": "uint256",
          "name": "_id",
          "type": "uint256"
        }
      ],
      "name": "aprobarProceso",
      "outputs": [],
      "stateMutability": "nonpayable",
      "type": "function"
    }
  ],
  "bytecode": "0x608060405234801561001057600080fd5b50610d20806100206000396000f3fe608060405234801561001057600080fd5b50600436106100575760003560e01c806331caa9e11461005c5780635a11209f1461008a5780637a00b8a91461009f578063aedb974b146100b2578063d05c6b71146100e0575b600080fd5b61006f61006a3660046109c2565b6100f3565b60405161008196959493929190610a39565b60405180910390f35b61009d610098366004610b31565b6102cc565b005b61009d6100ad366004610bc3565b61057d565b6100d26100c0366004610bdc565b60016020526000908152604090205481565b604051908152602001610081565b61009d6100ee366004610bfe565b61081c565b60006020818152928152604080822090935290815220805460018201805491929161011d90610c86565b80601f016020809104026020016040519081016040528092919081815260200182805461014990610c86565b80156101965780601f1061016b57610100808354040283529160200191610196565b820191906000526020600020905b81548152906001019060200180831161017957829003601f168201915b5050505050908060020180546101ab90610c86565b80601f01602080910402602001604051908101604052809291908181526020018280546101d790610c86565b80156102245780601f106101f957610100808354040283529160200191610224565b820191906000526020600020905b81548152906001019060200180831161020757829003601f168201915b50505050509080600301805461023990610c86565b80601f016020809104026020016040519081016040528092919081815260200182805461026590610c86565b80156102b25780601f10610287576101008083540402835291602001916102b2565b820191906000526020600020905b81548152906001019060200180831161029557829003601f168201915b505050506004830154600590930154919260ff1691905086565b336000908152602081815260408083208784528252808320815160c0810190925280548252600181018054929391929184019161030890610c86565b80601f016020809104026020016040519081016040528092919081815260200182805461033490610c86565b80156103815780601f1061035657610100808354040283529160200191610381565b820191906000526020600020905b81548152906001019060200180831161036457829003601f168201915b5050505050815260200160028201805461039a90610c86565b80601f01602080910402602001604051908101604052809291908181526020018280546103c690610c86565b80156104135780601f106103e857610100808354040283529160200191610413565b820191906000526020600020905b8154815290600101906020018083116103f657829003601f168201915b5050505050815260200160038201805461042c90610c86565b80601f016020809104026020016040519081016040528092919081815260200182805461045890610c86565b80156104a55780601f1061047a576101008083540402835291602001916104a5565b820191906000526020600020905b81548152906001019060200180831161048857829003601f168201915b5050509183525050600482015460ff161515602082015260059091015460409091015260808101519091506105765760208082018581526040808401869052606084018590523360009081528084528181208982528452208351815590518051849361051892600185019291019061090d565b506040820151805161053491600284019160209091019061090d565b506060820151805161055091600384019160209091019061090d565b50608082015160048201805460ff191691151591909117905560a0909101516005909101555b5050505050565b336000908152602081815260408083208484528252808320815160c081019092528054825260018101805492939192918401916105b990610c86565b80601f01602080910402602001604051908101604052809291908181526020018280546105e590610c86565b80156106325780601f1061060757610100808354040283529160200191610632565b820191906000526020600020905b81548152906001019060200180831161061557829003601f168201915b5050505050815260200160028201805461064b90610c86565b80601f016020809104026020016040519081016040528092919081815260200182805461067790610c86565b80156106c45780601f10610699576101008083540402835291602001916106c4565b820191906000526020600020905b8154815290600101906020018083116106a757829003601f168201915b505050505081526020016003820180546106dd90610c86565b80601f016020809104026020016040519081016040528092919081815260200182805461070990610c86565b80156107565780601f1061072b57610100808354040283529160200191610756565b820191906000526020600020905b81548152906001019060200180831161073957829003601f168201915b5050509183525050600482015460ff16151560208083019190915260059092015460409182015260016080840181905233600090815280845282812087825284529190912083518155838301518051949550859491936107bb9385019291019061090d565b50604082015180516107d791600284019160209091019061090d565b50606082015180516107f391600384019160209091019061090d565b50608082015160048201805460ff191691151591909117905560a0909101516005909101555050565b33600081815260016020818152604080842054815160c0810183528181528084018a81528184018a905260608201899052608082018790524260a0830152968652858452828620828752845291909420815181559451805194959194919361088a939085019291019061090d565b50604082015180516108a691600284019160209091019061090d565b50606082015180516108c291600384019160209091019061090d565b50608082015160048201805460ff191691151591909117905560a09091015160059091015533600090815260016020526040812080549161090283610cc1565b919050555050505050565b82805461091990610c86565b90600052602060002090601f01602090048101928261093b5760008555610981565b82601f1061095457805160ff1916838001178555610981565b82800160010185558215610981579182015b82811115610981578251825591602001919060010190610966565b5061098d929150610991565b5090565b5b8082111561098d5760008155600101610992565b80356001600160a01b03811681146109bd57600080fd5b919050565b600080604083850312156109d557600080fd5b6109de836109a6565b946020939093013593505050565b6000815180845260005b81811015610a12576020818501810151868301820152016109f6565b81811115610a24576000602083870101525b50601f01601f19169290920160200192915050565b86815260c060208201526000610a5260c08301886109ec565b8281036040840152610a6481886109ec565b90508281036060840152610a7881876109ec565b9415156080840152505060a00152949350505050565b634e487b7160e01b600052604160045260246000fd5b600082601f830112610ab557600080fd5b813567ffffffffffffffff80821115610ad057610ad0610a8e565b604051601f8301601f19908116603f01168101908282118183101715610af857610af8610a8e565b81604052838152866020858801011115610b1157600080fd5b836020870160208301376000602085830101528094505050505092915050565b60008060008060808587031215610b4757600080fd5b84359350602085013567ffffffffffffffff80821115610b6657600080fd5b610b7288838901610aa4565b94506040870135915080821115610b8857600080fd5b610b9488838901610aa4565b93506060870135915080821115610baa57600080fd5b50610bb787828801610aa4565b91505092959194509250565b600060208284031215610bd557600080fd5b5035919050565b600060208284031215610bee57600080fd5b610bf7826109a6565b9392505050565b600080600060608486031215610c1357600080fd5b833567ffffffffffffffff80821115610c2b57600080fd5b610c3787838801610aa4565b94506020860135915080821115610c4d57600080fd5b610c5987838801610aa4565b93506040860135915080821115610c6f57600080fd5b50610c7c86828701610aa4565b9150509250925092565b600181811c90821680610c9a57607f821691505b60208210811415610cbb57634e487b7160e01b600052602260045260246000fd5b50919050565b6000600019821415610ce357634e487b7160e01b600052601160045260246000fd5b506001019056fea26469706673582212208bbc67f830dc2ea3762c21d60530421fae0b9694dada1afd77c28adbf9ea1bc964736f6c634300080b0033",
  "immutableReferences": {},
  "source": "// SPDX-License-Identifier: MIT\r\npragma solidity ^0.8.11;\r\n\r\ncontract PasteurizacionMostoContract {\r\n    struct Pasteurizacion {\r\n        uint256 id;\r\n        string temperatura_caliente;\r\n        string temperatura_fria;\r\n        string tiempo_proceso;\r\n        bool aprobado;\r\n        uint256 createdAt;\r\n    }\r\n\r\n    mapping(address => mapping(uint256 => Pasteurizacion)) public lista;\r\n    mapping(address => uint256) public contador;\r\n\r\n    function crear(\r\n        string memory _temperatura_caliente,\r\n        string memory _temperatura_fria,\r\n        string memory _tiempo_proceso\r\n    ) public {\r\n        uint256 contador_id = contador[msg.sender];\r\n\r\n        lista[msg.sender][contador_id] = Pasteurizacion(\r\n            contador_id,\r\n            _temperatura_caliente,\r\n            _temperatura_fria,\r\n            _tiempo_proceso,\r\n            false,\r\n            block.timestamp\r\n        );\r\n        contador[msg.sender]++;\r\n    }\r\n\r\n    function actualizar(\r\n        uint256 _id,\r\n        string memory _temperatura_caliente,\r\n        string memory _temperatura_fria,\r\n        string memory _tiempo_proceso\r\n    ) public {\r\n        Pasteurizacion memory _item = lista[msg.sender][_id];\r\n        if (_item.aprobado == false) {\r\n            _item.temperatura_caliente = _temperatura_caliente;\r\n            _item.temperatura_fria = _temperatura_fria;\r\n            _item.tiempo_proceso = _tiempo_proceso;\r\n            lista[msg.sender][_id] = _item;\r\n        }\r\n    }\r\n\r\n    function aprobarProceso(uint256 _id) public {\r\n        Pasteurizacion memory _item = lista[msg.sender][_id];\r\n        _item.aprobado = true;\r\n        lista[msg.sender][_id] = _item;\r\n    }\r\n}\r\n",
  "sourcePath": "E:\\UNL\\CICLO X\\PTT\\vinos-blockchain\\contracts\\3PasteurizacionMostoContract.sol",
  "compiler": {
    "name": "solc",
    "version": "0.8.11+commit.d7f03943.Emscripten.clang"
  },
  "schemaVersion": "3.4.4",
  "updatedAt": "2022-06-20T16:34:47.618Z",
  "networkType": "ethereum",
  "devdoc": {
    "kind": "dev",
    "methods": {},
    "version": 1
  },
  "userdoc": {
    "kind": "user",
    "methods": {},
    "version": 1
  }
}