{
  "contractName": "PasteurizacionMostoContract",
  "abi": [
    {
      "anonymous": false,
      "inputs": [
        {
          "indexed": false,
          "internalType": "uint256",
          "name": "id",
          "type": "uint256"
        }
      ],
      "name": "Id",
      "type": "event"
    },
    {
      "inputs": [],
      "name": "contador",
      "outputs": [
        {
          "internalType": "uint256",
          "name": "",
          "type": "uint256"
        }
      ],
      "stateMutability": "view",
      "type": "function",
      "constant": true
    },
    {
      "inputs": [
        {
          "internalType": "uint256",
          "name": "",
          "type": "uint256"
        }
      ],
      "name": "lista",
      "outputs": [
        {
          "internalType": "uint256",
          "name": "hash_anterior",
          "type": "uint256"
        },
        {
          "internalType": "string",
          "name": "temperatura_caliente",
          "type": "string"
        },
        {
          "internalType": "string",
          "name": "temperatura_fria",
          "type": "string"
        },
        {
          "internalType": "string",
          "name": "tiempo_proceso",
          "type": "string"
        },
        {
          "internalType": "bool",
          "name": "aprobado",
          "type": "bool"
        },
        {
          "internalType": "uint256",
          "name": "createdAt",
          "type": "uint256"
        }
      ],
      "stateMutability": "view",
      "type": "function",
      "constant": true
    },
    {
      "inputs": [
        {
          "internalType": "uint256",
          "name": "_hash_anterior",
          "type": "uint256"
        },
        {
          "internalType": "string",
          "name": "_temperatura_caliente",
          "type": "string"
        },
        {
          "internalType": "string",
          "name": "_temperatura_fria",
          "type": "string"
        },
        {
          "internalType": "string",
          "name": "_tiempo_proceso",
          "type": "string"
        }
      ],
      "name": "crear",
      "outputs": [],
      "stateMutability": "nonpayable",
      "type": "function"
    },
    {
      "inputs": [
        {
          "internalType": "uint256",
          "name": "_id",
          "type": "uint256"
        },
        {
          "internalType": "string",
          "name": "_temperatura_caliente",
          "type": "string"
        },
        {
          "internalType": "string",
          "name": "_temperatura_fria",
          "type": "string"
        },
        {
          "internalType": "string",
          "name": "_tiempo_proceso",
          "type": "string"
        }
      ],
      "name": "editar",
      "outputs": [],
      "stateMutability": "nonpayable",
      "type": "function"
    },
    {
      "inputs": [
        {
          "internalType": "uint256",
          "name": "_id",
          "type": "uint256"
        }
      ],
      "name": "aprobarProceso",
      "outputs": [],
      "stateMutability": "nonpayable",
      "type": "function"
    }
  ],
  "bytecode": "0x608060405234801561001057600080fd5b50610c6f806100206000396000f3fe608060405234801561001057600080fd5b50600436106100575760003560e01c80630cc76c141461005c57806353d27cc21461008a5780637a00b8a9146100a157806398c2f4bc146100b6578063b294421f146100c9575b600080fd5b61006f61006a3660046109e5565b6100dc565b60405161008196959493929190610a4b565b60405180910390f35b61009360015481565b604051908152602001610081565b6100b46100af3660046109e5565b6102ad565b005b6100b46100c4366004610b43565b610573565b6100b46100d7366004610b43565b610674565b600060208190529081526040902080546001820180549192916100fe90610bd5565b80601f016020809104026020016040519081016040528092919081815260200182805461012a90610bd5565b80156101775780601f1061014c57610100808354040283529160200191610177565b820191906000526020600020905b81548152906001019060200180831161015a57829003601f168201915b50505050509080600201805461018c90610bd5565b80601f01602080910402602001604051908101604052809291908181526020018280546101b890610bd5565b80156102055780601f106101da57610100808354040283529160200191610205565b820191906000526020600020905b8154815290600101906020018083116101e857829003601f168201915b50505050509080600301805461021a90610bd5565b80601f016020809104026020016040519081016040528092919081815260200182805461024690610bd5565b80156102935780601f1061026857610100808354040283529160200191610293565b820191906000526020600020905b81548152906001019060200180831161027657829003601f168201915b505050506004830154600590930154919260ff1691905086565b60008060008381526020019081526020016000206040518060c0016040529081600082015481526020016001820180546102e690610bd5565b80601f016020809104026020016040519081016040528092919081815260200182805461031290610bd5565b801561035f5780601f106103345761010080835404028352916020019161035f565b820191906000526020600020905b81548152906001019060200180831161034257829003601f168201915b5050505050815260200160028201805461037890610bd5565b80601f01602080910402602001604051908101604052809291908181526020018280546103a490610bd5565b80156103f15780601f106103c6576101008083540402835291602001916103f1565b820191906000526020600020905b8154815290600101906020018083116103d457829003601f168201915b5050505050815260200160038201805461040a90610bd5565b80601f016020809104026020016040519081016040528092919081815260200182805461043690610bd5565b80156104835780601f1061045857610100808354040283529160200191610483565b820191906000526020600020905b81548152906001019060200180831161046657829003601f168201915b5050509183525050600482015460ff16151560208083019190915260059092015460409182015260016080840181905260008681528084529190912083518155838301518051949550859491936104df9385019291019061094c565b50604082015180516104fb91600284019160209091019061094c565b506060820151805161051791600384019160209091019061094c565b50608082015160048201805460ff191691151591909117905560a0909101516005909101556040518281527f1ee8913b1e0c76a71150bbb92d8921b2c975601c8c9991b8ef86a1b3896727749060200160405180910390a15050565b6040805160c0810182528581526020808201868152828401869052606083018590526000608084018190524260a08501528881528083529390932082518155925180519293926105c9926001850192019061094c565b50604082015180516105e591600284019160209091019061094c565b506060820151805161060191600384019160209091019061094c565b50608082015160048201805460ff191691151591909117905560a0909101516005909101556040518481527f1ee8913b1e0c76a71150bbb92d8921b2c975601c8c9991b8ef86a1b3896727749060200160405180910390a16001805490600061066983610c10565b919050555050505050565b60008060008681526020019081526020016000206040518060c0016040529081600082015481526020016001820180546106ad90610bd5565b80601f01602080910402602001604051908101604052809291908181526020018280546106d990610bd5565b80156107265780601f106106fb57610100808354040283529160200191610726565b820191906000526020600020905b81548152906001019060200180831161070957829003601f168201915b5050505050815260200160028201805461073f90610bd5565b80601f016020809104026020016040519081016040528092919081815260200182805461076b90610bd5565b80156107b85780601f1061078d576101008083540402835291602001916107b8565b820191906000526020600020905b81548152906001019060200180831161079b57829003601f168201915b505050505081526020016003820180546107d190610bd5565b80601f01602080910402602001604051908101604052809291908181526020018280546107fd90610bd5565b801561084a5780601f1061081f5761010080835404028352916020019161084a565b820191906000526020600020905b81548152906001019060200180831161082d57829003601f168201915b5050509183525050600482015460ff16151560208201526005909101546040909101526080810151909150610945576020808201858152604080840186905260608401859052600088815280845220835181559051805184936108b492600185019291019061094c565b50604082015180516108d091600284019160209091019061094c565b50606082015180516108ec91600384019160209091019061094c565b50608082015160048201805460ff191691151591909117905560a0909101516005909101556040518581527f1ee8913b1e0c76a71150bbb92d8921b2c975601c8c9991b8ef86a1b3896727749060200160405180910390a15b5050505050565b82805461095890610bd5565b90600052602060002090601f01602090048101928261097a57600085556109c0565b82601f1061099357805160ff19168380011785556109c0565b828001600101855582156109c0579182015b828111156109c05782518255916020019190600101906109a5565b506109cc9291506109d0565b5090565b5b808211156109cc57600081556001016109d1565b6000602082840312156109f757600080fd5b5035919050565b6000815180845260005b81811015610a2457602081850181015186830182015201610a08565b81811115610a36576000602083870101525b50601f01601f19169290920160200192915050565b86815260c060208201526000610a6460c08301886109fe565b8281036040840152610a7681886109fe565b90508281036060840152610a8a81876109fe565b9415156080840152505060a00152949350505050565b634e487b7160e01b600052604160045260246000fd5b600082601f830112610ac757600080fd5b813567ffffffffffffffff80821115610ae257610ae2610aa0565b604051601f8301601f19908116603f01168101908282118183101715610b0a57610b0a610aa0565b81604052838152866020858801011115610b2357600080fd5b836020870160208301376000602085830101528094505050505092915050565b60008060008060808587031215610b5957600080fd5b84359350602085013567ffffffffffffffff80821115610b7857600080fd5b610b8488838901610ab6565b94506040870135915080821115610b9a57600080fd5b610ba688838901610ab6565b93506060870135915080821115610bbc57600080fd5b50610bc987828801610ab6565b91505092959194509250565b600181811c90821680610be957607f821691505b60208210811415610c0a57634e487b7160e01b600052602260045260246000fd5b50919050565b6000600019821415610c3257634e487b7160e01b600052601160045260246000fd5b506001019056fea2646970667358221220d74cc85b3f70be305cbc4e4a77af85ab35d65efad22617374e16c05669fb953e64736f6c634300080b0033",
  "immutableReferences": {},
  "source": "// SPDX-License-Identifier: MIT\r\npragma solidity ^0.8.11;\r\n\r\ncontract PasteurizacionMostoContract {\r\n    struct Model {\r\n        uint256 hash_anterior;\r\n        string temperatura_caliente;\r\n        string temperatura_fria;\r\n        string tiempo_proceso;\r\n        bool aprobado;\r\n        uint256 createdAt;\r\n    }\r\n    event Id(uint256 id);\r\n\r\n    mapping(uint256 => Model) public lista;\r\n    uint256 public contador;\r\n\r\n    function crear(\r\n        uint256 _hash_anterior,\r\n        string memory _temperatura_caliente,\r\n        string memory _temperatura_fria,\r\n        string memory _tiempo_proceso\r\n    ) public {\r\n        lista[_hash_anterior] = Model(\r\n            _hash_anterior,\r\n            _temperatura_caliente,\r\n            _temperatura_fria,\r\n            _tiempo_proceso,\r\n            false,\r\n            block.timestamp\r\n        );\r\n        emit Id(_hash_anterior);\r\n        contador++;\r\n    }\r\n\r\n    function editar(\r\n        uint256 _id,\r\n        string memory _temperatura_caliente,\r\n        string memory _temperatura_fria,\r\n        string memory _tiempo_proceso\r\n    ) public {\r\n        Model memory _item = lista[_id];\r\n        if (_item.aprobado == false) {\r\n            _item.temperatura_caliente = _temperatura_caliente;\r\n            _item.temperatura_fria = _temperatura_fria;\r\n            _item.tiempo_proceso = _tiempo_proceso;\r\n            lista[_id] = _item;\r\n            emit Id(_id);\r\n        }\r\n    }\r\n\r\n    function aprobarProceso(uint256 _id) public {\r\n        Model memory _item = lista[_id];\r\n        _item.aprobado = true;\r\n        lista[_id] = _item;\r\n        emit Id(_id);\r\n    }\r\n}\r\n",
  "sourcePath": "E:\\UNL\\CICLO X\\vinos-blockchain\\contracts\\procesos\\3PasteurizacionMostoContract.sol",
  "compiler": {
    "name": "solc",
    "version": "0.8.11+commit.d7f03943.Emscripten.clang"
  },
  "schemaVersion": "3.4.4",
  "updatedAt": "2022-06-29T23:41:40.428Z",
  "networkType": "ethereum",
  "devdoc": {
    "kind": "dev",
    "methods": {},
    "version": 1
  },
  "userdoc": {
    "kind": "user",
    "methods": {},
    "version": 1
  }
}