{
  "contractName": "PasteurizacionMostoContract",
  "abi": [
    {
      "anonymous": false,
      "inputs": [
        {
          "indexed": false,
          "internalType": "uint256",
          "name": "id",
          "type": "uint256"
        }
      ],
      "name": "Id",
      "type": "event"
    },
    {
      "inputs": [],
      "name": "contador",
      "outputs": [
        {
          "internalType": "uint256",
          "name": "",
          "type": "uint256"
        }
      ],
      "stateMutability": "view",
      "type": "function",
      "constant": true
    },
    {
      "inputs": [
        {
          "internalType": "uint256",
          "name": "",
          "type": "uint256"
        }
      ],
      "name": "lista",
      "outputs": [
        {
          "internalType": "uint256",
          "name": "hash_anterior",
          "type": "uint256"
        },
        {
          "internalType": "string",
          "name": "temperatura_caliente",
          "type": "string"
        },
        {
          "internalType": "string",
          "name": "temperatura_fria",
          "type": "string"
        },
        {
          "internalType": "string",
          "name": "tiempo_proceso",
          "type": "string"
        },
        {
          "internalType": "bool",
          "name": "aprobado",
          "type": "bool"
        },
        {
          "internalType": "uint256",
          "name": "createdAt",
          "type": "uint256"
        }
      ],
      "stateMutability": "view",
      "type": "function",
      "constant": true
    },
    {
      "inputs": [
        {
          "internalType": "uint256",
          "name": "_hash_anterior",
          "type": "uint256"
        },
        {
          "internalType": "string",
          "name": "_temperatura_caliente",
          "type": "string"
        },
        {
          "internalType": "string",
          "name": "_temperatura_fria",
          "type": "string"
        },
        {
          "internalType": "string",
          "name": "_tiempo_proceso",
          "type": "string"
        }
      ],
      "name": "crear",
      "outputs": [],
      "stateMutability": "nonpayable",
      "type": "function"
    },
    {
      "inputs": [
        {
          "internalType": "uint256",
          "name": "_id",
          "type": "uint256"
        }
      ],
      "name": "encontrar",
      "outputs": [
        {
          "components": [
            {
              "internalType": "uint256",
              "name": "hash_anterior",
              "type": "uint256"
            },
            {
              "internalType": "string",
              "name": "temperatura_caliente",
              "type": "string"
            },
            {
              "internalType": "string",
              "name": "temperatura_fria",
              "type": "string"
            },
            {
              "internalType": "string",
              "name": "tiempo_proceso",
              "type": "string"
            },
            {
              "internalType": "bool",
              "name": "aprobado",
              "type": "bool"
            },
            {
              "internalType": "uint256",
              "name": "createdAt",
              "type": "uint256"
            }
          ],
          "internalType": "struct PasteurizacionMostoContract.Model",
          "name": "",
          "type": "tuple"
        }
      ],
      "stateMutability": "view",
      "type": "function",
      "constant": true
    },
    {
      "inputs": [
        {
          "internalType": "uint256",
          "name": "_id",
          "type": "uint256"
        },
        {
          "internalType": "string",
          "name": "_temperatura_caliente",
          "type": "string"
        },
        {
          "internalType": "string",
          "name": "_temperatura_fria",
          "type": "string"
        },
        {
          "internalType": "string",
          "name": "_tiempo_proceso",
          "type": "string"
        }
      ],
      "name": "editar",
      "outputs": [],
      "stateMutability": "nonpayable",
      "type": "function"
    },
    {
      "inputs": [
        {
          "internalType": "uint256",
          "name": "_id",
          "type": "uint256"
        }
      ],
      "name": "aprobarProceso",
      "outputs": [],
      "stateMutability": "nonpayable",
      "type": "function"
    }
  ],
  "bytecode": "0x608060405234801561001057600080fd5b50610f51806100206000396000f3fe608060405234801561001057600080fd5b50600436106100625760003560e01c80630cc76c141461006757806353d27cc2146100955780637a00b8a9146100ac57806385d3a43a146100c157806398c2f4bc146100e1578063b294421f146100f4575b600080fd5b61007a610075366004610c42565b610107565b60405161008c96959493929190610ca8565b60405180910390f35b61009e60015481565b60405190815260200161008c565b6100bf6100ba366004610c42565b6102d8565b005b6100d46100cf366004610c42565b61059e565b60405161008c9190610cfd565b6100bf6100ef366004610e25565b6107d0565b6100bf610102366004610e25565b6108d1565b6000602081905290815260409020805460018201805491929161012990610eb7565b80601f016020809104026020016040519081016040528092919081815260200182805461015590610eb7565b80156101a25780601f10610177576101008083540402835291602001916101a2565b820191906000526020600020905b81548152906001019060200180831161018557829003601f168201915b5050505050908060020180546101b790610eb7565b80601f01602080910402602001604051908101604052809291908181526020018280546101e390610eb7565b80156102305780601f1061020557610100808354040283529160200191610230565b820191906000526020600020905b81548152906001019060200180831161021357829003601f168201915b50505050509080600301805461024590610eb7565b80601f016020809104026020016040519081016040528092919081815260200182805461027190610eb7565b80156102be5780601f10610293576101008083540402835291602001916102be565b820191906000526020600020905b8154815290600101906020018083116102a157829003601f168201915b505050506004830154600590930154919260ff1691905086565b60008060008381526020019081526020016000206040518060c00160405290816000820154815260200160018201805461031190610eb7565b80601f016020809104026020016040519081016040528092919081815260200182805461033d90610eb7565b801561038a5780601f1061035f5761010080835404028352916020019161038a565b820191906000526020600020905b81548152906001019060200180831161036d57829003601f168201915b505050505081526020016002820180546103a390610eb7565b80601f01602080910402602001604051908101604052809291908181526020018280546103cf90610eb7565b801561041c5780601f106103f15761010080835404028352916020019161041c565b820191906000526020600020905b8154815290600101906020018083116103ff57829003601f168201915b5050505050815260200160038201805461043590610eb7565b80601f016020809104026020016040519081016040528092919081815260200182805461046190610eb7565b80156104ae5780601f10610483576101008083540402835291602001916104ae565b820191906000526020600020905b81548152906001019060200180831161049157829003601f168201915b5050509183525050600482015460ff161515602080830191909152600590920154604091820152600160808401819052600086815280845291909120835181558383015180519495508594919361050a93850192910190610ba9565b5060408201518051610526916002840191602090910190610ba9565b5060608201518051610542916003840191602090910190610ba9565b50608082015160048201805460ff191691151591909117905560a0909101516005909101556040518281527f1ee8913b1e0c76a71150bbb92d8921b2c975601c8c9991b8ef86a1b3896727749060200160405180910390a15050565b6105d96040518060c0016040528060008152602001606081526020016060815260200160608152602001600015158152602001600081525090565b60008281526020818152604091829020825160c0810190935280548352600181018054919284019161060a90610eb7565b80601f016020809104026020016040519081016040528092919081815260200182805461063690610eb7565b80156106835780601f1061065857610100808354040283529160200191610683565b820191906000526020600020905b81548152906001019060200180831161066657829003601f168201915b5050505050815260200160028201805461069c90610eb7565b80601f01602080910402602001604051908101604052809291908181526020018280546106c890610eb7565b80156107155780601f106106ea57610100808354040283529160200191610715565b820191906000526020600020905b8154815290600101906020018083116106f857829003601f168201915b5050505050815260200160038201805461072e90610eb7565b80601f016020809104026020016040519081016040528092919081815260200182805461075a90610eb7565b80156107a75780601f1061077c576101008083540402835291602001916107a7565b820191906000526020600020905b81548152906001019060200180831161078a57829003601f168201915b5050509183525050600482015460ff161515602082015260059091015460409091015292915050565b6040805160c0810182528581526020808201868152828401869052606083018590526000608084018190524260a08501528881528083529390932082518155925180519293926108269260018501920190610ba9565b5060408201518051610842916002840191602090910190610ba9565b506060820151805161085e916003840191602090910190610ba9565b50608082015160048201805460ff191691151591909117905560a0909101516005909101556040518481527f1ee8913b1e0c76a71150bbb92d8921b2c975601c8c9991b8ef86a1b3896727749060200160405180910390a1600180549060006108c683610ef2565b919050555050505050565b60008060008681526020019081526020016000206040518060c00160405290816000820154815260200160018201805461090a90610eb7565b80601f016020809104026020016040519081016040528092919081815260200182805461093690610eb7565b80156109835780601f1061095857610100808354040283529160200191610983565b820191906000526020600020905b81548152906001019060200180831161096657829003601f168201915b5050505050815260200160028201805461099c90610eb7565b80601f01602080910402602001604051908101604052809291908181526020018280546109c890610eb7565b8015610a155780601f106109ea57610100808354040283529160200191610a15565b820191906000526020600020905b8154815290600101906020018083116109f857829003601f168201915b50505050508152602001600382018054610a2e90610eb7565b80601f0160208091040260200160405190810160405280929190818152602001828054610a5a90610eb7565b8015610aa75780601f10610a7c57610100808354040283529160200191610aa7565b820191906000526020600020905b815481529060010190602001808311610a8a57829003601f168201915b5050509183525050600482015460ff16151560208201526005909101546040909101526080810151909150610ba257602080820185815260408084018690526060840185905260008881528084522083518155905180518493610b11926001850192910190610ba9565b5060408201518051610b2d916002840191602090910190610ba9565b5060608201518051610b49916003840191602090910190610ba9565b50608082015160048201805460ff191691151591909117905560a0909101516005909101556040518581527f1ee8913b1e0c76a71150bbb92d8921b2c975601c8c9991b8ef86a1b3896727749060200160405180910390a15b5050505050565b828054610bb590610eb7565b90600052602060002090601f016020900481019282610bd75760008555610c1d565b82601f10610bf057805160ff1916838001178555610c1d565b82800160010185558215610c1d579182015b82811115610c1d578251825591602001919060010190610c02565b50610c29929150610c2d565b5090565b5b80821115610c295760008155600101610c2e565b600060208284031215610c5457600080fd5b5035919050565b6000815180845260005b81811015610c8157602081850181015186830182015201610c65565b81811115610c93576000602083870101525b50601f01601f19169290920160200192915050565b86815260c060208201526000610cc160c0830188610c5b565b8281036040840152610cd38188610c5b565b90508281036060840152610ce78187610c5b565b9415156080840152505060a00152949350505050565b60208152815160208201526000602083015160c06040840152610d2360e0840182610c5b565b90506040840151601f1980858403016060860152610d418383610c5b565b9250606086015191508085840301608086015250610d5f8282610c5b565b9150506080840151151560a084015260a084015160c08401528091505092915050565b634e487b7160e01b600052604160045260246000fd5b600082601f830112610da957600080fd5b813567ffffffffffffffff80821115610dc457610dc4610d82565b604051601f8301601f19908116603f01168101908282118183101715610dec57610dec610d82565b81604052838152866020858801011115610e0557600080fd5b836020870160208301376000602085830101528094505050505092915050565b60008060008060808587031215610e3b57600080fd5b84359350602085013567ffffffffffffffff80821115610e5a57600080fd5b610e6688838901610d98565b94506040870135915080821115610e7c57600080fd5b610e8888838901610d98565b93506060870135915080821115610e9e57600080fd5b50610eab87828801610d98565b91505092959194509250565b600181811c90821680610ecb57607f821691505b60208210811415610eec57634e487b7160e01b600052602260045260246000fd5b50919050565b6000600019821415610f1457634e487b7160e01b600052601160045260246000fd5b506001019056fea2646970667358221220a5e69e1f71b32ac96c1c25c18235c3c52ca52b3ad3dbb4a766819be0cc15b84564736f6c634300080b0033",
  "immutableReferences": {},
  "source": "// SPDX-License-Identifier: MIT\r\npragma solidity ^0.8.11;\r\n\r\ncontract PasteurizacionMostoContract {\r\n    struct Model {\r\n        uint256 hash_anterior;\r\n        string temperatura_caliente;\r\n        string temperatura_fria;\r\n        string tiempo_proceso;\r\n        bool aprobado;\r\n        uint256 createdAt;\r\n    }\r\n    event Id(uint256 id);\r\n\r\n    mapping(uint256 => Model) public lista;\r\n    uint256 public contador;\r\n\r\n    function crear(\r\n        uint256 _hash_anterior,\r\n        string memory _temperatura_caliente,\r\n        string memory _temperatura_fria,\r\n        string memory _tiempo_proceso\r\n    ) public {\r\n        lista[_hash_anterior] = Model(\r\n            _hash_anterior,\r\n            _temperatura_caliente,\r\n            _temperatura_fria,\r\n            _tiempo_proceso,\r\n            false,\r\n            block.timestamp\r\n        );\r\n        emit Id(_hash_anterior);\r\n        contador++;\r\n    }\r\n\r\n    function encontrar(uint256 _id) public view returns (Model memory) {\r\n        return lista[_id];\r\n    }\r\n\r\n    function editar(\r\n        uint256 _id,\r\n        string memory _temperatura_caliente,\r\n        string memory _temperatura_fria,\r\n        string memory _tiempo_proceso\r\n    ) public {\r\n        Model memory _item = lista[_id];\r\n        if (_item.aprobado == false) {\r\n            _item.temperatura_caliente = _temperatura_caliente;\r\n            _item.temperatura_fria = _temperatura_fria;\r\n            _item.tiempo_proceso = _tiempo_proceso;\r\n            lista[_id] = _item;\r\n            emit Id(_id);\r\n        }\r\n    }\r\n\r\n    function aprobarProceso(uint256 _id) public {\r\n        Model memory _item = lista[_id];\r\n        _item.aprobado = true;\r\n        lista[_id] = _item;\r\n        emit Id(_id);\r\n    }\r\n}\r\n",
  "sourcePath": "E:\\UNL\\CICLO X\\vinos-blockchain\\contracts\\procesos\\3PasteurizacionMostoContract.sol",
  "compiler": {
    "name": "solc",
    "version": "0.8.11+commit.d7f03943.Emscripten.clang"
  },
  "schemaVersion": "3.4.4",
  "updatedAt": "2022-07-05T14:19:57.951Z",
  "networkType": "ethereum",
  "devdoc": {
    "kind": "dev",
    "methods": {},
    "version": 1
  },
  "userdoc": {
    "kind": "user",
    "methods": {},
    "version": 1
  }
}