{
  "contractName": "PasteurizacionMostoContract",
  "abi": [
    {
      "anonymous": false,
      "inputs": [
        {
          "indexed": false,
          "internalType": "uint256",
          "name": "id",
          "type": "uint256"
        }
      ],
      "name": "Id",
      "type": "event"
    },
    {
      "inputs": [
        {
          "internalType": "address",
          "name": "",
          "type": "address"
        },
        {
          "internalType": "uint256",
          "name": "",
          "type": "uint256"
        }
      ],
      "name": "lista",
      "outputs": [
        {
          "internalType": "uint256",
          "name": "hash_anterior",
          "type": "uint256"
        },
        {
          "internalType": "string",
          "name": "temperatura_caliente",
          "type": "string"
        },
        {
          "internalType": "string",
          "name": "temperatura_fria",
          "type": "string"
        },
        {
          "internalType": "string",
          "name": "tiempo_proceso",
          "type": "string"
        },
        {
          "internalType": "bool",
          "name": "aprobado",
          "type": "bool"
        },
        {
          "internalType": "uint256",
          "name": "createdAt",
          "type": "uint256"
        }
      ],
      "stateMutability": "view",
      "type": "function",
      "constant": true
    },
    {
      "inputs": [
        {
          "internalType": "uint256",
          "name": "_hash_anterior",
          "type": "uint256"
        },
        {
          "internalType": "string",
          "name": "_temperatura_caliente",
          "type": "string"
        },
        {
          "internalType": "string",
          "name": "_temperatura_fria",
          "type": "string"
        },
        {
          "internalType": "string",
          "name": "_tiempo_proceso",
          "type": "string"
        }
      ],
      "name": "crear",
      "outputs": [],
      "stateMutability": "nonpayable",
      "type": "function"
    },
    {
      "inputs": [
        {
          "internalType": "uint256",
          "name": "_id",
          "type": "uint256"
        }
      ],
      "name": "encontrar",
      "outputs": [
        {
          "components": [
            {
              "internalType": "uint256",
              "name": "hash_anterior",
              "type": "uint256"
            },
            {
              "internalType": "string",
              "name": "temperatura_caliente",
              "type": "string"
            },
            {
              "internalType": "string",
              "name": "temperatura_fria",
              "type": "string"
            },
            {
              "internalType": "string",
              "name": "tiempo_proceso",
              "type": "string"
            },
            {
              "internalType": "bool",
              "name": "aprobado",
              "type": "bool"
            },
            {
              "internalType": "uint256",
              "name": "createdAt",
              "type": "uint256"
            }
          ],
          "internalType": "struct PasteurizacionMostoContract.Model",
          "name": "",
          "type": "tuple"
        }
      ],
      "stateMutability": "view",
      "type": "function",
      "constant": true
    },
    {
      "inputs": [
        {
          "internalType": "uint256",
          "name": "_id",
          "type": "uint256"
        },
        {
          "internalType": "string",
          "name": "_temperatura_caliente",
          "type": "string"
        },
        {
          "internalType": "string",
          "name": "_temperatura_fria",
          "type": "string"
        },
        {
          "internalType": "string",
          "name": "_tiempo_proceso",
          "type": "string"
        }
      ],
      "name": "editar",
      "outputs": [],
      "stateMutability": "nonpayable",
      "type": "function"
    },
    {
      "inputs": [
        {
          "internalType": "uint256",
          "name": "_id",
          "type": "uint256"
        }
      ],
      "name": "aprobarProceso",
      "outputs": [],
      "stateMutability": "nonpayable",
      "type": "function"
    }
  ],
  "bytecode": "0x608060405234801561001057600080fd5b50610f5a806100206000396000f3fe608060405234801561001057600080fd5b50600436106100575760003560e01c806331caa9e11461005c5780637a00b8a91461008a57806385d3a43a1461009f57806398c2f4bc146100bf578063b294421f146100d2575b600080fd5b61006f61006a366004610c3c565b6100e5565b60405161008196959493929190610cc1565b60405180910390f35b61009d610098366004610d16565b6102be565b005b6100b26100ad366004610d16565b610590565b6040516100819190610d2f565b61009d6100cd366004610e57565b6107cb565b61009d6100e0366004610e57565b6108bf565b60006020818152928152604080822090935290815220805460018201805491929161010f90610ee9565b80601f016020809104026020016040519081016040528092919081815260200182805461013b90610ee9565b80156101885780601f1061015d57610100808354040283529160200191610188565b820191906000526020600020905b81548152906001019060200180831161016b57829003601f168201915b50505050509080600201805461019d90610ee9565b80601f01602080910402602001604051908101604052809291908181526020018280546101c990610ee9565b80156102165780601f106101eb57610100808354040283529160200191610216565b820191906000526020600020905b8154815290600101906020018083116101f957829003601f168201915b50505050509080600301805461022b90610ee9565b80601f016020809104026020016040519081016040528092919081815260200182805461025790610ee9565b80156102a45780601f10610279576101008083540402835291602001916102a4565b820191906000526020600020905b81548152906001019060200180831161028757829003601f168201915b505050506004830154600590930154919260ff1691905086565b336000908152602081815260408083208484528252808320815160c081019092528054825260018101805492939192918401916102fa90610ee9565b80601f016020809104026020016040519081016040528092919081815260200182805461032690610ee9565b80156103735780601f1061034857610100808354040283529160200191610373565b820191906000526020600020905b81548152906001019060200180831161035657829003601f168201915b5050505050815260200160028201805461038c90610ee9565b80601f01602080910402602001604051908101604052809291908181526020018280546103b890610ee9565b80156104055780601f106103da57610100808354040283529160200191610405565b820191906000526020600020905b8154815290600101906020018083116103e857829003601f168201915b5050505050815260200160038201805461041e90610ee9565b80601f016020809104026020016040519081016040528092919081815260200182805461044a90610ee9565b80156104975780601f1061046c57610100808354040283529160200191610497565b820191906000526020600020905b81548152906001019060200180831161047a57829003601f168201915b5050509183525050600482015460ff16151560208083019190915260059092015460409182015260016080840181905233600090815280845282812087825284529190912083518155838301518051949550859491936104fc93850192910190610ba3565b5060408201518051610518916002840191602090910190610ba3565b5060608201518051610534916003840191602090910190610ba3565b50608082015160048201805460ff191691151591909117905560a0909101516005909101556040518281527f1ee8913b1e0c76a71150bbb92d8921b2c975601c8c9991b8ef86a1b3896727749060200160405180910390a15050565b6105cb6040518060c0016040528060008152602001606081526020016060815260200160608152602001600015158152602001600081525090565b33600090815260208181526040808320858452825291829020825160c0810190935280548352600181018054919284019161060590610ee9565b80601f016020809104026020016040519081016040528092919081815260200182805461063190610ee9565b801561067e5780601f106106535761010080835404028352916020019161067e565b820191906000526020600020905b81548152906001019060200180831161066157829003601f168201915b5050505050815260200160028201805461069790610ee9565b80601f01602080910402602001604051908101604052809291908181526020018280546106c390610ee9565b80156107105780601f106106e557610100808354040283529160200191610710565b820191906000526020600020905b8154815290600101906020018083116106f357829003601f168201915b5050505050815260200160038201805461072990610ee9565b80601f016020809104026020016040519081016040528092919081815260200182805461075590610ee9565b80156107a25780601f10610777576101008083540402835291602001916107a2565b820191906000526020600020905b81548152906001019060200180831161078557829003601f168201915b5050509183525050600482015460ff161515602082015260059091015460409091015292915050565b6040805160c0810182528581526020808201868152828401869052606083018590526000608084018190524260a085015233815280835284812089825283529390932082518155925180519293926108299260018501920190610ba3565b5060408201518051610845916002840191602090910190610ba3565b5060608201518051610861916003840191602090910190610ba3565b50608082015160048201805460ff191691151591909117905560a0909101516005909101556040518481527f1ee8913b1e0c76a71150bbb92d8921b2c975601c8c9991b8ef86a1b3896727749060200160405180910390a150505050565b336000908152602081815260408083208784528252808320815160c081019092528054825260018101805492939192918401916108fb90610ee9565b80601f016020809104026020016040519081016040528092919081815260200182805461092790610ee9565b80156109745780601f1061094957610100808354040283529160200191610974565b820191906000526020600020905b81548152906001019060200180831161095757829003601f168201915b5050505050815260200160028201805461098d90610ee9565b80601f01602080910402602001604051908101604052809291908181526020018280546109b990610ee9565b8015610a065780601f106109db57610100808354040283529160200191610a06565b820191906000526020600020905b8154815290600101906020018083116109e957829003601f168201915b50505050508152602001600382018054610a1f90610ee9565b80601f0160208091040260200160405190810160405280929190818152602001828054610a4b90610ee9565b8015610a985780601f10610a6d57610100808354040283529160200191610a98565b820191906000526020600020905b815481529060010190602001808311610a7b57829003601f168201915b5050509183525050600482015460ff16151560208201526005909101546040909101526080810151909150610b9c57602080820185815260408084018690526060840185905233600090815280845281812089825284522083518155905180518493610b0b926001850192910190610ba3565b5060408201518051610b27916002840191602090910190610ba3565b5060608201518051610b43916003840191602090910190610ba3565b50608082015160048201805460ff191691151591909117905560a0909101516005909101556040518581527f1ee8913b1e0c76a71150bbb92d8921b2c975601c8c9991b8ef86a1b3896727749060200160405180910390a15b5050505050565b828054610baf90610ee9565b90600052602060002090601f016020900481019282610bd15760008555610c17565b82601f10610bea57805160ff1916838001178555610c17565b82800160010185558215610c17579182015b82811115610c17578251825591602001919060010190610bfc565b50610c23929150610c27565b5090565b5b80821115610c235760008155600101610c28565b60008060408385031215610c4f57600080fd5b82356001600160a01b0381168114610c6657600080fd5b946020939093013593505050565b6000815180845260005b81811015610c9a57602081850181015186830182015201610c7e565b81811115610cac576000602083870101525b50601f01601f19169290920160200192915050565b86815260c060208201526000610cda60c0830188610c74565b8281036040840152610cec8188610c74565b90508281036060840152610d008187610c74565b9415156080840152505060a00152949350505050565b600060208284031215610d2857600080fd5b5035919050565b60208152815160208201526000602083015160c06040840152610d5560e0840182610c74565b90506040840151601f1980858403016060860152610d738383610c74565b9250606086015191508085840301608086015250610d918282610c74565b9150506080840151151560a084015260a084015160c08401528091505092915050565b634e487b7160e01b600052604160045260246000fd5b600082601f830112610ddb57600080fd5b813567ffffffffffffffff80821115610df657610df6610db4565b604051601f8301601f19908116603f01168101908282118183101715610e1e57610e1e610db4565b81604052838152866020858801011115610e3757600080fd5b836020870160208301376000602085830101528094505050505092915050565b60008060008060808587031215610e6d57600080fd5b84359350602085013567ffffffffffffffff80821115610e8c57600080fd5b610e9888838901610dca565b94506040870135915080821115610eae57600080fd5b610eba88838901610dca565b93506060870135915080821115610ed057600080fd5b50610edd87828801610dca565b91505092959194509250565b600181811c90821680610efd57607f821691505b60208210811415610f1e57634e487b7160e01b600052602260045260246000fd5b5091905056fea26469706673582212208e8756dbd36a502aba75b398597b0ee6883d6c35e36c7d3e8e4090cea843bcb164736f6c634300080b0033",
  "immutableReferences": {},
  "source": "// SPDX-License-Identifier: MIT\r\npragma solidity ^0.8.11;\r\n\r\ncontract PasteurizacionMostoContract {\r\n    struct Model {\r\n        uint256 hash_anterior;\r\n        string temperatura_caliente;\r\n        string temperatura_fria;\r\n        string tiempo_proceso;\r\n        bool aprobado;\r\n        uint256 createdAt;\r\n    }\r\n    event Id(uint256 id);\r\n\r\n    mapping(address => mapping(uint256 => Model)) public lista;\r\n\r\n    function crear(\r\n        uint256 _hash_anterior,\r\n        string memory _temperatura_caliente,\r\n        string memory _temperatura_fria,\r\n        string memory _tiempo_proceso\r\n    ) public {\r\n        lista[msg.sender][_hash_anterior] = Model(\r\n            _hash_anterior,\r\n            _temperatura_caliente,\r\n            _temperatura_fria,\r\n            _tiempo_proceso,\r\n            false,\r\n            block.timestamp\r\n        );\r\n        emit Id(_hash_anterior);\r\n    }\r\n\r\n    function encontrar(uint256 _id) public view returns (Model memory) {\r\n        return lista[msg.sender][_id];\r\n    }\r\n\r\n    function editar(\r\n        uint256 _id,\r\n        string memory _temperatura_caliente,\r\n        string memory _temperatura_fria,\r\n        string memory _tiempo_proceso\r\n    ) public {\r\n        Model memory _item = lista[msg.sender][_id];\r\n        if (_item.aprobado == false) {\r\n            _item.temperatura_caliente = _temperatura_caliente;\r\n            _item.temperatura_fria = _temperatura_fria;\r\n            _item.tiempo_proceso = _tiempo_proceso;\r\n            lista[msg.sender][_id] = _item;\r\n            emit Id(_id);\r\n        }\r\n    }\r\n\r\n    function aprobarProceso(uint256 _id) public {\r\n        Model memory _item = lista[msg.sender][_id];\r\n        _item.aprobado = true;\r\n        lista[msg.sender][_id] = _item;\r\n        emit Id(_id);\r\n    }\r\n}\r\n",
  "sourcePath": "E:\\UNL\\CICLO X\\vinos-blockchain\\contracts\\procesos\\3PasteurizacionMostoContract.sol",
  "compiler": {
    "name": "solc",
    "version": "0.8.11+commit.d7f03943.Emscripten.clang"
  },
  "schemaVersion": "3.4.4",
  "updatedAt": "2022-06-29T01:52:09.779Z",
  "networkType": "ethereum",
  "devdoc": {
    "kind": "dev",
    "methods": {},
    "version": 1
  },
  "userdoc": {
    "kind": "user",
    "methods": {},
    "version": 1
  }
}