{
  "contractName": "PasteurizacionMostoContract",
  "abi": [
    {
      "inputs": [
        {
          "internalType": "address",
          "name": "",
          "type": "address"
        },
        {
          "internalType": "uint256",
          "name": "",
          "type": "uint256"
        }
      ],
      "name": "lista",
      "outputs": [
        {
          "internalType": "uint256",
          "name": "hash_anterior",
          "type": "uint256"
        },
        {
          "internalType": "string",
          "name": "temperatura_caliente",
          "type": "string"
        },
        {
          "internalType": "string",
          "name": "temperatura_fria",
          "type": "string"
        },
        {
          "internalType": "string",
          "name": "tiempo_proceso",
          "type": "string"
        },
        {
          "internalType": "bool",
          "name": "aprobado",
          "type": "bool"
        },
        {
          "internalType": "uint256",
          "name": "createdAt",
          "type": "uint256"
        }
      ],
      "stateMutability": "view",
      "type": "function",
      "constant": true
    },
    {
      "inputs": [
        {
          "internalType": "uint256",
          "name": "_hash_anterior",
          "type": "uint256"
        },
        {
          "internalType": "string",
          "name": "_temperatura_caliente",
          "type": "string"
        },
        {
          "internalType": "string",
          "name": "_temperatura_fria",
          "type": "string"
        },
        {
          "internalType": "string",
          "name": "_tiempo_proceso",
          "type": "string"
        }
      ],
      "name": "crear",
      "outputs": [],
      "stateMutability": "nonpayable",
      "type": "function"
    },
    {
      "inputs": [
        {
          "internalType": "uint256",
          "name": "_id",
          "type": "uint256"
        }
      ],
      "name": "encontrar",
      "outputs": [
        {
          "components": [
            {
              "internalType": "uint256",
              "name": "hash_anterior",
              "type": "uint256"
            },
            {
              "internalType": "string",
              "name": "temperatura_caliente",
              "type": "string"
            },
            {
              "internalType": "string",
              "name": "temperatura_fria",
              "type": "string"
            },
            {
              "internalType": "string",
              "name": "tiempo_proceso",
              "type": "string"
            },
            {
              "internalType": "bool",
              "name": "aprobado",
              "type": "bool"
            },
            {
              "internalType": "uint256",
              "name": "createdAt",
              "type": "uint256"
            }
          ],
          "internalType": "struct PasteurizacionMostoContract.Model",
          "name": "",
          "type": "tuple"
        }
      ],
      "stateMutability": "view",
      "type": "function",
      "constant": true
    },
    {
      "inputs": [
        {
          "internalType": "uint256",
          "name": "_id",
          "type": "uint256"
        },
        {
          "internalType": "string",
          "name": "_temperatura_caliente",
          "type": "string"
        },
        {
          "internalType": "string",
          "name": "_temperatura_fria",
          "type": "string"
        },
        {
          "internalType": "string",
          "name": "_tiempo_proceso",
          "type": "string"
        }
      ],
      "name": "actualizar",
      "outputs": [],
      "stateMutability": "nonpayable",
      "type": "function"
    },
    {
      "inputs": [
        {
          "internalType": "uint256",
          "name": "_id",
          "type": "uint256"
        }
      ],
      "name": "aprobarProceso",
      "outputs": [],
      "stateMutability": "nonpayable",
      "type": "function"
    }
  ],
  "bytecode": "0x608060405234801561001057600080fd5b50610ec1806100206000396000f3fe608060405234801561001057600080fd5b50600436106100575760003560e01c806331caa9e11461005c5780635a11209f1461008a5780637a00b8a91461009f57806385d3a43a146100b257806398c2f4bc146100d2575b600080fd5b61006f61006a366004610ba3565b6100e5565b60405161008196959493929190610c28565b60405180910390f35b61009d610098366004610d20565b6102be565b005b61009d6100ad366004610db2565b61056f565b6100c56100c0366004610db2565b61080e565b6040516100819190610dcb565b61009d6100e0366004610d20565b610a49565b60006020818152928152604080822090935290815220805460018201805491929161010f90610e50565b80601f016020809104026020016040519081016040528092919081815260200182805461013b90610e50565b80156101885780601f1061015d57610100808354040283529160200191610188565b820191906000526020600020905b81548152906001019060200180831161016b57829003601f168201915b50505050509080600201805461019d90610e50565b80601f01602080910402602001604051908101604052809291908181526020018280546101c990610e50565b80156102165780601f106101eb57610100808354040283529160200191610216565b820191906000526020600020905b8154815290600101906020018083116101f957829003601f168201915b50505050509080600301805461022b90610e50565b80601f016020809104026020016040519081016040528092919081815260200182805461025790610e50565b80156102a45780601f10610279576101008083540402835291602001916102a4565b820191906000526020600020905b81548152906001019060200180831161028757829003601f168201915b505050506004830154600590930154919260ff1691905086565b336000908152602081815260408083208784528252808320815160c081019092528054825260018101805492939192918401916102fa90610e50565b80601f016020809104026020016040519081016040528092919081815260200182805461032690610e50565b80156103735780601f1061034857610100808354040283529160200191610373565b820191906000526020600020905b81548152906001019060200180831161035657829003601f168201915b5050505050815260200160028201805461038c90610e50565b80601f01602080910402602001604051908101604052809291908181526020018280546103b890610e50565b80156104055780601f106103da57610100808354040283529160200191610405565b820191906000526020600020905b8154815290600101906020018083116103e857829003601f168201915b5050505050815260200160038201805461041e90610e50565b80601f016020809104026020016040519081016040528092919081815260200182805461044a90610e50565b80156104975780601f1061046c57610100808354040283529160200191610497565b820191906000526020600020905b81548152906001019060200180831161047a57829003601f168201915b5050509183525050600482015460ff161515602082015260059091015460409091015260808101519091506105685760208082018581526040808401869052606084018590523360009081528084528181208982528452208351815590518051849361050a926001850192910190610b0a565b5060408201518051610526916002840191602090910190610b0a565b5060608201518051610542916003840191602090910190610b0a565b50608082015160048201805460ff191691151591909117905560a0909101516005909101555b5050505050565b336000908152602081815260408083208484528252808320815160c081019092528054825260018101805492939192918401916105ab90610e50565b80601f01602080910402602001604051908101604052809291908181526020018280546105d790610e50565b80156106245780601f106105f957610100808354040283529160200191610624565b820191906000526020600020905b81548152906001019060200180831161060757829003601f168201915b5050505050815260200160028201805461063d90610e50565b80601f016020809104026020016040519081016040528092919081815260200182805461066990610e50565b80156106b65780601f1061068b576101008083540402835291602001916106b6565b820191906000526020600020905b81548152906001019060200180831161069957829003601f168201915b505050505081526020016003820180546106cf90610e50565b80601f01602080910402602001604051908101604052809291908181526020018280546106fb90610e50565b80156107485780601f1061071d57610100808354040283529160200191610748565b820191906000526020600020905b81548152906001019060200180831161072b57829003601f168201915b5050509183525050600482015460ff16151560208083019190915260059092015460409182015260016080840181905233600090815280845282812087825284529190912083518155838301518051949550859491936107ad93850192910190610b0a565b50604082015180516107c9916002840191602090910190610b0a565b50606082015180516107e5916003840191602090910190610b0a565b50608082015160048201805460ff191691151591909117905560a0909101516005909101555050565b6108496040518060c0016040528060008152602001606081526020016060815260200160608152602001600015158152602001600081525090565b33600090815260208181526040808320858452825291829020825160c0810190935280548352600181018054919284019161088390610e50565b80601f01602080910402602001604051908101604052809291908181526020018280546108af90610e50565b80156108fc5780601f106108d1576101008083540402835291602001916108fc565b820191906000526020600020905b8154815290600101906020018083116108df57829003601f168201915b5050505050815260200160028201805461091590610e50565b80601f016020809104026020016040519081016040528092919081815260200182805461094190610e50565b801561098e5780601f106109635761010080835404028352916020019161098e565b820191906000526020600020905b81548152906001019060200180831161097157829003601f168201915b505050505081526020016003820180546109a790610e50565b80601f01602080910402602001604051908101604052809291908181526020018280546109d390610e50565b8015610a205780601f106109f557610100808354040283529160200191610a20565b820191906000526020600020905b815481529060010190602001808311610a0357829003601f168201915b5050509183525050600482015460ff161515602082015260059091015460409091015292915050565b6040805160c0810182528581526020808201868152828401869052606083018590526000608084018190524260a08501523381528083528481208982528352939093208251815592518051929392610aa79260018501920190610b0a565b5060408201518051610ac3916002840191602090910190610b0a565b5060608201518051610adf916003840191602090910190610b0a565b50608082015160048201805460ff191691151591909117905560a09091015160059091015550505050565b828054610b1690610e50565b90600052602060002090601f016020900481019282610b385760008555610b7e565b82601f10610b5157805160ff1916838001178555610b7e565b82800160010185558215610b7e579182015b82811115610b7e578251825591602001919060010190610b63565b50610b8a929150610b8e565b5090565b5b80821115610b8a5760008155600101610b8f565b60008060408385031215610bb657600080fd5b82356001600160a01b0381168114610bcd57600080fd5b946020939093013593505050565b6000815180845260005b81811015610c0157602081850181015186830182015201610be5565b81811115610c13576000602083870101525b50601f01601f19169290920160200192915050565b86815260c060208201526000610c4160c0830188610bdb565b8281036040840152610c538188610bdb565b90508281036060840152610c678187610bdb565b9415156080840152505060a00152949350505050565b634e487b7160e01b600052604160045260246000fd5b600082601f830112610ca457600080fd5b813567ffffffffffffffff80821115610cbf57610cbf610c7d565b604051601f8301601f19908116603f01168101908282118183101715610ce757610ce7610c7d565b81604052838152866020858801011115610d0057600080fd5b836020870160208301376000602085830101528094505050505092915050565b60008060008060808587031215610d3657600080fd5b84359350602085013567ffffffffffffffff80821115610d5557600080fd5b610d6188838901610c93565b94506040870135915080821115610d7757600080fd5b610d8388838901610c93565b93506060870135915080821115610d9957600080fd5b50610da687828801610c93565b91505092959194509250565b600060208284031215610dc457600080fd5b5035919050565b60208152815160208201526000602083015160c06040840152610df160e0840182610bdb565b90506040840151601f1980858403016060860152610e0f8383610bdb565b9250606086015191508085840301608086015250610e2d8282610bdb565b9150506080840151151560a084015260a084015160c08401528091505092915050565b600181811c90821680610e6457607f821691505b60208210811415610e8557634e487b7160e01b600052602260045260246000fd5b5091905056fea264697066735822122014b6227ea02c31dbb543f05036c6031a8d2474a1b4360d20c80d51a403c3111664736f6c634300080b0033",
  "immutableReferences": {},
  "source": "// SPDX-License-Identifier: MIT\r\npragma solidity ^0.8.11;\r\n\r\ncontract PasteurizacionMostoContract {\r\n    struct Model {\r\n        uint256 hash_anterior;\r\n        string temperatura_caliente;\r\n        string temperatura_fria;\r\n        string tiempo_proceso;\r\n        bool aprobado;\r\n        uint256 createdAt;\r\n    }\r\n\r\n    mapping(address => mapping(uint256 => Model)) public lista;\r\n\r\n    function crear(\r\n        uint256 _hash_anterior,\r\n        string memory _temperatura_caliente,\r\n        string memory _temperatura_fria,\r\n        string memory _tiempo_proceso\r\n    ) public {\r\n        lista[msg.sender][_hash_anterior] = Model(\r\n            _hash_anterior,\r\n            _temperatura_caliente,\r\n            _temperatura_fria,\r\n            _tiempo_proceso,\r\n            false,\r\n            block.timestamp\r\n        );\r\n    }\r\n\r\n    function encontrar(uint256 _id) public view returns (Model memory) {\r\n        return lista[msg.sender][_id];\r\n    }\r\n\r\n    function actualizar(\r\n        uint256 _id,\r\n        string memory _temperatura_caliente,\r\n        string memory _temperatura_fria,\r\n        string memory _tiempo_proceso\r\n    ) public {\r\n        Model memory _item = lista[msg.sender][_id];\r\n        if (_item.aprobado == false) {\r\n            _item.temperatura_caliente = _temperatura_caliente;\r\n            _item.temperatura_fria = _temperatura_fria;\r\n            _item.tiempo_proceso = _tiempo_proceso;\r\n            lista[msg.sender][_id] = _item;\r\n        }\r\n    }\r\n\r\n    function aprobarProceso(uint256 _id) public {\r\n        Model memory _item = lista[msg.sender][_id];\r\n        _item.aprobado = true;\r\n        lista[msg.sender][_id] = _item;\r\n    }\r\n}\r\n",
  "sourcePath": "E:\\UNL\\CICLO X\\vinos-blockchain\\contracts\\3PasteurizacionMostoContract.sol",
  "compiler": {
    "name": "solc",
    "version": "0.8.11+commit.d7f03943.Emscripten.clang"
  },
  "schemaVersion": "3.4.4",
  "updatedAt": "2022-06-26T23:24:20.393Z",
  "networkType": "ethereum",
  "devdoc": {
    "kind": "dev",
    "methods": {},
    "version": 1
  },
  "userdoc": {
    "kind": "user",
    "methods": {},
    "version": 1
  }
}