{
  "contractName": "ProcesoContract",
  "abi": [
    {
      "inputs": [
        {
          "internalType": "address",
          "name": "",
          "type": "address"
        }
      ],
      "name": "contador",
      "outputs": [
        {
          "internalType": "uint256",
          "name": "",
          "type": "uint256"
        }
      ],
      "stateMutability": "view",
      "type": "function",
      "constant": true
    },
    {
      "inputs": [
        {
          "internalType": "address",
          "name": "",
          "type": "address"
        },
        {
          "internalType": "uint256",
          "name": "",
          "type": "uint256"
        }
      ],
      "name": "lista",
      "outputs": [
        {
          "internalType": "uint256",
          "name": "id",
          "type": "uint256"
        },
        {
          "internalType": "uint256",
          "name": "id_materia_prima",
          "type": "uint256"
        },
        {
          "internalType": "uint256",
          "name": "id_extraccion_mosto",
          "type": "uint256"
        },
        {
          "internalType": "uint256",
          "name": "id_pasteurizacion",
          "type": "uint256"
        },
        {
          "internalType": "uint256",
          "name": "id_fermentacion",
          "type": "uint256"
        },
        {
          "internalType": "uint256",
          "name": "id_clarificacion",
          "type": "uint256"
        },
        {
          "internalType": "uint256",
          "name": "id_trasiego",
          "type": "uint256"
        },
        {
          "internalType": "uint256",
          "name": "id_envasado",
          "type": "uint256"
        },
        {
          "internalType": "uint256",
          "name": "createdAt",
          "type": "uint256"
        }
      ],
      "stateMutability": "view",
      "type": "function",
      "constant": true
    },
    {
      "inputs": [
        {
          "internalType": "uint256",
          "name": "_id_materia_prima",
          "type": "uint256"
        }
      ],
      "name": "crear",
      "outputs": [],
      "stateMutability": "nonpayable",
      "type": "function"
    },
    {
      "inputs": [
        {
          "internalType": "uint256",
          "name": "_id",
          "type": "uint256"
        },
        {
          "internalType": "uint256",
          "name": "_id_proceso",
          "type": "uint256"
        }
      ],
      "name": "actualizarProceso",
      "outputs": [],
      "stateMutability": "nonpayable",
      "type": "function"
    }
  ],
  "bytecode": "0x608060405234801561001057600080fd5b50610491806100206000396000f3fe608060405234801561001057600080fd5b506004361061004c5760003560e01c806331caa9e1146100515780638cee877814610103578063adc4f0a614610118578063aedb974b1461012b575b600080fd5b6100ba61005f3660046103ab565b6000602052816000526040600020602052806000526040600020600091509150508060000154908060010154908060020154908060030154908060040154908060050154908060060154908060070154908060080154905089565b60408051998a5260208a0198909852968801959095526060870193909352608086019190915260a085015260c084015260e0830152610100820152610120015b60405180910390f35b6101166101113660046103d5565b610159565b005b6101166101263660046103ee565b61029b565b61014b610139366004610410565b60016020526000908152604090205481565b6040519081526020016100fa565b600060016000336001600160a01b03166001600160a01b0316815260200190815260200160002054905060405180610120016040528082815260200183815260200160008152602001600081526020016000815260200160008152602001600081526020016000815260200142815250600080336001600160a01b03166001600160a01b031681526020019081526020016000206000838152602001908152602001600020600082015181600001556020820151816001015560408201518160020155606082015181600301556080820151816004015560a0820151816005015560c0820151816006015560e08201518160070155610100820151816008015590505060016000336001600160a01b03166001600160a01b03168152602001908152602001600020600081548092919061029290610432565b91905055505050565b336000908152602081815260408083208584528252918290208251610120810184528154815260018201549281019290925260028101549282018390526003810154606083015260048101546080830152600581015460a0830152600681015460c0830152600781015460e083015260080154610100820152901561038a5760408082018381523360009081526020818152838220878352815292902083518155918301516001830155516002820155606082015160038201556080820151600482015560a0820151600582015560c0820151600682015560e082015160078201556101008201516008909101555b505050565b80356001600160a01b03811681146103a657600080fd5b919050565b600080604083850312156103be57600080fd5b6103c78361038f565b946020939093013593505050565b6000602082840312156103e757600080fd5b5035919050565b6000806040838503121561040157600080fd5b50508035926020909101359150565b60006020828403121561042257600080fd5b61042b8261038f565b9392505050565b600060001982141561045457634e487b7160e01b600052601160045260246000fd5b506001019056fea2646970667358221220b025a76d7255d23ba937752e49defcf8599a457056750dd1aa061fb2b3d71fa664736f6c634300080b0033",
  "immutableReferences": {},
  "source": "// SPDX-License-Identifier: MIT\r\npragma solidity ^0.8.11;\r\n\r\ncontract ProcesoContract {\r\n    struct Proceso {\r\n        uint256 id;\r\n        uint256 id_materia_prima;\r\n        uint256 id_extraccion_mosto;\r\n        uint256 id_pasteurizacion;\r\n        uint256 id_fermentacion;\r\n        uint256 id_clarificacion;\r\n        uint256 id_trasiego;\r\n        uint256 id_envasado;\r\n        uint256 createdAt;\r\n    }\r\n\r\n    mapping(address => mapping(uint256 => Proceso)) public lista;\r\n    mapping(address => uint256) public contador;\r\n\r\n    function crear(uint256 _id_materia_prima) public {\r\n        uint256 contador_id = contador[msg.sender];\r\n\r\n        lista[msg.sender][contador_id] = Proceso(\r\n            contador_id,\r\n            _id_materia_prima,\r\n            0,\r\n            0,\r\n            0,\r\n            0,\r\n            0,\r\n            0,\r\n            block.timestamp\r\n        );\r\n        contador[msg.sender]++;\r\n    }\r\n\r\n    function actualizarProceso(uint256 _id, uint256 _id_proceso) public {\r\n        Proceso memory _item = lista[msg.sender][_id];\r\n        if (_item.id_extraccion_mosto != 0) {\r\n            _item.id_extraccion_mosto = _id_proceso;\r\n            lista[msg.sender][_id] = _item;\r\n        }\r\n    }\r\n}\r\n",
  "sourcePath": "E:\\UNL\\CICLO X\\PTT\\vinos-blockchain\\contracts\\ProcesoContract.sol",
  "compiler": {
    "name": "solc",
    "version": "0.8.11+commit.d7f03943.Emscripten.clang"
  },
  "schemaVersion": "3.4.4",
  "updatedAt": "2022-06-20T16:34:47.700Z",
  "networkType": "ethereum",
  "devdoc": {
    "kind": "dev",
    "methods": {},
    "version": 1
  },
  "userdoc": {
    "kind": "user",
    "methods": {},
    "version": 1
  }
}