{
  "contractName": "TrasiegoContract",
  "abi": [
    {
      "anonymous": false,
      "inputs": [
        {
          "indexed": false,
          "internalType": "uint256",
          "name": "id",
          "type": "uint256"
        }
      ],
      "name": "Id",
      "type": "event"
    },
    {
      "inputs": [
        {
          "internalType": "address",
          "name": "",
          "type": "address"
        },
        {
          "internalType": "uint256",
          "name": "",
          "type": "uint256"
        }
      ],
      "name": "lista",
      "outputs": [
        {
          "internalType": "uint256",
          "name": "hash_anterior",
          "type": "uint256"
        },
        {
          "internalType": "string",
          "name": "liquido_claro",
          "type": "string"
        },
        {
          "internalType": "string",
          "name": "liquido_oscuro",
          "type": "string"
        },
        {
          "internalType": "bool",
          "name": "aprobado",
          "type": "bool"
        },
        {
          "internalType": "uint256",
          "name": "createdAt",
          "type": "uint256"
        }
      ],
      "stateMutability": "view",
      "type": "function",
      "constant": true
    },
    {
      "inputs": [
        {
          "internalType": "uint256",
          "name": "_hash_anterior",
          "type": "uint256"
        },
        {
          "internalType": "string",
          "name": "_liquido_claro",
          "type": "string"
        },
        {
          "internalType": "string",
          "name": "_liquido_oscuro",
          "type": "string"
        }
      ],
      "name": "crear",
      "outputs": [],
      "stateMutability": "nonpayable",
      "type": "function"
    },
    {
      "inputs": [
        {
          "internalType": "uint256",
          "name": "_id",
          "type": "uint256"
        }
      ],
      "name": "encontrar",
      "outputs": [
        {
          "components": [
            {
              "internalType": "uint256",
              "name": "hash_anterior",
              "type": "uint256"
            },
            {
              "internalType": "string",
              "name": "liquido_claro",
              "type": "string"
            },
            {
              "internalType": "string",
              "name": "liquido_oscuro",
              "type": "string"
            },
            {
              "internalType": "bool",
              "name": "aprobado",
              "type": "bool"
            },
            {
              "internalType": "uint256",
              "name": "createdAt",
              "type": "uint256"
            }
          ],
          "internalType": "struct TrasiegoContract.Model",
          "name": "",
          "type": "tuple"
        }
      ],
      "stateMutability": "view",
      "type": "function",
      "constant": true
    },
    {
      "inputs": [
        {
          "internalType": "uint256",
          "name": "_id",
          "type": "uint256"
        },
        {
          "internalType": "string",
          "name": "_liquido_claro",
          "type": "string"
        },
        {
          "internalType": "string",
          "name": "_liquido_oscuro",
          "type": "string"
        }
      ],
      "name": "editar",
      "outputs": [],
      "stateMutability": "nonpayable",
      "type": "function"
    },
    {
      "inputs": [
        {
          "internalType": "uint256",
          "name": "_id",
          "type": "uint256"
        }
      ],
      "name": "aprobarProceso",
      "outputs": [],
      "stateMutability": "nonpayable",
      "type": "function"
    }
  ],
  "bytecode": "0x608060405234801561001057600080fd5b50610c51806100206000396000f3fe608060405234801561001057600080fd5b50600436106100575760003560e01c8063307e0e801461005c57806331caa9e114610071578063765018651461009e5780637a00b8a9146100b157806385d3a43a146100c4575b600080fd5b61006f61006a366004610a2f565b6100e4565b005b61008461007f366004610a9c565b610312565b604051610095959493929190610b21565b60405180910390f35b61006f6100ac366004610a2f565b61045d565b61006f6100bf366004610b61565b61052d565b6100d76100d2366004610b61565b610751565b6040516100959190610b7a565b336000908152602081815260408083208684528252808320815160a0810190925280548252600181018054929391929184019161012090610be0565b80601f016020809104026020016040519081016040528092919081815260200182805461014c90610be0565b80156101995780601f1061016e57610100808354040283529160200191610199565b820191906000526020600020905b81548152906001019060200180831161017c57829003601f168201915b505050505081526020016002820180546101b290610be0565b80601f01602080910402602001604051908101604052809291908181526020018280546101de90610be0565b801561022b5780601f106102005761010080835404028352916020019161022b565b820191906000526020600020905b81548152906001019060200180831161020e57829003601f168201915b5050509183525050600382015460ff1615156020820152600490910154604090910152606081015190915061030c5760208082018481526040808401859052336000908152808452818120888252845220835181559051805184936102979260018501929101906108f3565b50604082015180516102b39160028401916020909101906108f3565b50606082015160038201805460ff19169115159190911790556080909101516004909101556040518481527f1ee8913b1e0c76a71150bbb92d8921b2c975601c8c9991b8ef86a1b3896727749060200160405180910390a15b50505050565b60006020818152928152604080822090935290815220805460018201805491929161033c90610be0565b80601f016020809104026020016040519081016040528092919081815260200182805461036890610be0565b80156103b55780601f1061038a576101008083540402835291602001916103b5565b820191906000526020600020905b81548152906001019060200180831161039857829003601f168201915b5050505050908060020180546103ca90610be0565b80601f01602080910402602001604051908101604052809291908181526020018280546103f690610be0565b80156104435780601f1061041857610100808354040283529160200191610443565b820191906000526020600020905b81548152906001019060200180831161042657829003601f168201915b505050506003830154600490930154919260ff1691905085565b6040805160a081018252848152602080820185815282840185905260006060840181905242608085015233815280835284812088825283529390932082518155925180519293926104b492600185019201906108f3565b50604082015180516104d09160028401916020909101906108f3565b50606082015160038201805460ff19169115159190911790556080909101516004909101556040518381527f1ee8913b1e0c76a71150bbb92d8921b2c975601c8c9991b8ef86a1b3896727749060200160405180910390a1505050565b336000908152602081815260408083208484528252808320815160a0810190925280548252600181018054929391929184019161056990610be0565b80601f016020809104026020016040519081016040528092919081815260200182805461059590610be0565b80156105e25780601f106105b7576101008083540402835291602001916105e2565b820191906000526020600020905b8154815290600101906020018083116105c557829003601f168201915b505050505081526020016002820180546105fb90610be0565b80601f016020809104026020016040519081016040528092919081815260200182805461062790610be0565b80156106745780601f1061064957610100808354040283529160200191610674565b820191906000526020600020905b81548152906001019060200180831161065757829003601f168201915b5050509183525050600382015460ff16151560208083019190915260049092015460409182015260016060840181905233600090815280845282812087825284529190912083518155838301518051949550859491936106d9938501929101906108f3565b50604082015180516106f59160028401916020909101906108f3565b50606082015160038201805460ff19169115159190911790556080909101516004909101556040518281527f1ee8913b1e0c76a71150bbb92d8921b2c975601c8c9991b8ef86a1b3896727749060200160405180910390a15050565b6107856040518060a00160405280600081526020016060815260200160608152602001600015158152602001600081525090565b33600090815260208181526040808320858452825291829020825160a081019093528054835260018101805491928401916107bf90610be0565b80601f01602080910402602001604051908101604052809291908181526020018280546107eb90610be0565b80156108385780601f1061080d57610100808354040283529160200191610838565b820191906000526020600020905b81548152906001019060200180831161081b57829003601f168201915b5050505050815260200160028201805461085190610be0565b80601f016020809104026020016040519081016040528092919081815260200182805461087d90610be0565b80156108ca5780601f1061089f576101008083540402835291602001916108ca565b820191906000526020600020905b8154815290600101906020018083116108ad57829003601f168201915b5050509183525050600382015460ff161515602082015260049091015460409091015292915050565b8280546108ff90610be0565b90600052602060002090601f0160209004810192826109215760008555610967565b82601f1061093a57805160ff1916838001178555610967565b82800160010185558215610967579182015b8281111561096757825182559160200191906001019061094c565b50610973929150610977565b5090565b5b808211156109735760008155600101610978565b634e487b7160e01b600052604160045260246000fd5b600082601f8301126109b357600080fd5b813567ffffffffffffffff808211156109ce576109ce61098c565b604051601f8301601f19908116603f011681019082821181831017156109f6576109f661098c565b81604052838152866020858801011115610a0f57600080fd5b836020870160208301376000602085830101528094505050505092915050565b600080600060608486031215610a4457600080fd5b83359250602084013567ffffffffffffffff80821115610a6357600080fd5b610a6f878388016109a2565b93506040860135915080821115610a8557600080fd5b50610a92868287016109a2565b9150509250925092565b60008060408385031215610aaf57600080fd5b82356001600160a01b0381168114610ac657600080fd5b946020939093013593505050565b6000815180845260005b81811015610afa57602081850181015186830182015201610ade565b81811115610b0c576000602083870101525b50601f01601f19169290920160200192915050565b85815260a060208201526000610b3a60a0830187610ad4565b8281036040840152610b4c8187610ad4565b94151560608401525050608001529392505050565b600060208284031215610b7357600080fd5b5035919050565b60208152815160208201526000602083015160a06040840152610ba060c0840182610ad4565b90506040840151601f19848303016060850152610bbd8282610ad4565b915050606084015115156080840152608084015160a08401528091505092915050565b600181811c90821680610bf457607f821691505b60208210811415610c1557634e487b7160e01b600052602260045260246000fd5b5091905056fea26469706673582212202947aa5027e31370994c8f89ddae99495a6a1c78992d2bda3e4e46bea9658bcb64736f6c634300080b0033",
  "immutableReferences": {},
  "source": "// SPDX-License-Identifier: MIT\r\npragma solidity ^0.8.11;\r\n\r\ncontract TrasiegoContract {\r\n    struct Model {\r\n        uint256 hash_anterior;\r\n        string liquido_claro;\r\n        string liquido_oscuro;\r\n        bool aprobado;\r\n        uint256 createdAt;\r\n    }\r\n    event Id(uint256 id);\r\n    mapping(address => mapping(uint256 => Model)) public lista;\r\n\r\n    function crear(\r\n        uint256 _hash_anterior,\r\n        string memory _liquido_claro,\r\n        string memory _liquido_oscuro\r\n    ) public {\r\n        lista[msg.sender][_hash_anterior] = Model(\r\n            _hash_anterior,\r\n            _liquido_claro,\r\n            _liquido_oscuro,\r\n            false,\r\n            block.timestamp\r\n        );\r\n        emit Id(_hash_anterior);\r\n    }\r\n\r\n    function encontrar(uint256 _id) public view returns (Model memory) {\r\n        return lista[msg.sender][_id];\r\n    }\r\n\r\n    function editar(\r\n        uint256 _id,\r\n        string memory _liquido_claro,\r\n        string memory _liquido_oscuro\r\n    ) public {\r\n        Model memory _item = lista[msg.sender][_id];\r\n        if (_item.aprobado == false) {\r\n            _item.liquido_claro = _liquido_claro;\r\n            _item.liquido_oscuro = _liquido_oscuro;\r\n            lista[msg.sender][_id] = _item;\r\n            emit Id(_id);\r\n        }\r\n    }\r\n\r\n    function aprobarProceso(uint256 _id) public {\r\n        Model memory _item = lista[msg.sender][_id];\r\n        _item.aprobado = true;\r\n        lista[msg.sender][_id] = _item;\r\n        emit Id(_id);\r\n    }\r\n}\r\n",
  "sourcePath": "E:\\UNL\\CICLO X\\vinos-blockchain\\contracts\\procesos\\6TrasiegoContract.sol",
  "compiler": {
    "name": "solc",
    "version": "0.8.11+commit.d7f03943.Emscripten.clang"
  },
  "schemaVersion": "3.4.4",
  "updatedAt": "2022-06-29T01:52:09.818Z",
  "networkType": "ethereum",
  "devdoc": {
    "kind": "dev",
    "methods": {},
    "version": 1
  },
  "userdoc": {
    "kind": "user",
    "methods": {},
    "version": 1
  }
}