{
  "contractName": "TrasiegoContract",
  "abi": [
    {
      "inputs": [
        {
          "internalType": "address",
          "name": "",
          "type": "address"
        },
        {
          "internalType": "uint256",
          "name": "",
          "type": "uint256"
        }
      ],
      "name": "lista",
      "outputs": [
        {
          "internalType": "uint256",
          "name": "hash_anterior",
          "type": "uint256"
        },
        {
          "internalType": "uint256",
          "name": "liquido_claro",
          "type": "uint256"
        },
        {
          "internalType": "uint256",
          "name": "liquido_oscuro",
          "type": "uint256"
        },
        {
          "internalType": "bool",
          "name": "aprobado",
          "type": "bool"
        },
        {
          "internalType": "uint256",
          "name": "createdAt",
          "type": "uint256"
        }
      ],
      "stateMutability": "view",
      "type": "function"
    },
    {
      "inputs": [
        {
          "internalType": "uint256",
          "name": "_hash_anterior",
          "type": "uint256"
        },
        {
          "internalType": "uint256",
          "name": "_liquido_claro",
          "type": "uint256"
        },
        {
          "internalType": "uint256",
          "name": "_liquido_oscuro",
          "type": "uint256"
        }
      ],
      "name": "crear",
      "outputs": [],
      "stateMutability": "nonpayable",
      "type": "function"
    },
    {
      "inputs": [
        {
          "internalType": "uint256",
          "name": "_id",
          "type": "uint256"
        },
        {
          "internalType": "uint256",
          "name": "_liquido_claro",
          "type": "uint256"
        },
        {
          "internalType": "uint256",
          "name": "_liquido_oscuro",
          "type": "uint256"
        }
      ],
      "name": "actualizar",
      "outputs": [],
      "stateMutability": "nonpayable",
      "type": "function"
    },
    {
      "inputs": [
        {
          "internalType": "uint256",
          "name": "_id",
          "type": "uint256"
        }
      ],
      "name": "aprobarProceso",
      "outputs": [],
      "stateMutability": "nonpayable",
      "type": "function"
    }
  ],
  "bytecode": "0x608060405234801561001057600080fd5b50610356806100206000396000f3fe608060405234801561001057600080fd5b506004361061004c5760003560e01c806331caa9e1146100515780637a00b8a9146100c75780639aea014d14610159578063de9a9c32146101d7575b600080fd5b61009961005f3660046102a3565b60006020818152928152604080822090935290815220805460018201546002830154600384015460049094015492939192909160ff169085565b6040805195865260208601949094529284019190915215156060830152608082015260a00160405180910390f35b6101576100d53660046102db565b33600090815260208181526040808320848452808352818420825160a081018452815481526001808301805483880190815260028501805497850197885260038601805460048801805460808901908152606089019788529d909c52979099529351909455925190925592519092559051151560ff1990911617905590519055565b005b6101576101673660046102f4565b6040805160a0810182528481526020808201948552818301938452600060608301818152426080850190815233835282845285832098835297909252929092209051815592516001840155905160028301555160038201805460ff19169115159190911790559051600490910155565b6101576101e53660046102f4565b33600090815260208181526040808320868452825291829020825160a08101845281548152600182015492810192909252600281015492820192909252600382015460ff1615156060820181905260049092015460808201529061029d57602081810184815260408084018581523360009081528085528281208982529094529220835181559051600182015590516002820155606082015160038201805460ff191691151591909117905560808201516004909101555b50505050565b600080604083850312156102b657600080fd5b82356001600160a01b03811681146102cd57600080fd5b946020939093013593505050565b6000602082840312156102ed57600080fd5b5035919050565b60008060006060848603121561030957600080fd5b50508135936020830135935060409092013591905056fea2646970667358221220b6f2cc8f61bce726e96ad6c93948bd074ce9224bc9300a7532882da7cbd9d0ea64736f6c634300080b0033",
  "immutableReferences": {},
  "source": "// SPDX-License-Identifier: MIT\r\npragma solidity ^0.8.11;\r\n\r\ncontract TrasiegoContract {\r\n    struct Trasiego {\r\n        uint256 hash_anterior;\r\n        uint256 liquido_claro;\r\n        uint256 liquido_oscuro;\r\n        bool aprobado;\r\n        uint256 createdAt;\r\n    }\r\n\r\n    mapping(address => mapping(uint256 => Trasiego)) public lista;\r\n\r\n    function crear(\r\n        uint256 _hash_anterior,\r\n        uint256 _liquido_claro,\r\n        uint256 _liquido_oscuro\r\n    ) public {\r\n        lista[msg.sender][_hash_anterior] = Trasiego(\r\n            _hash_anterior,\r\n            _liquido_claro,\r\n            _liquido_oscuro,\r\n            false,\r\n            block.timestamp\r\n        );\r\n    }\r\n\r\n    function actualizar(\r\n        uint256 _id,\r\n        uint256 _liquido_claro,\r\n        uint256 _liquido_oscuro\r\n    ) public {\r\n        Trasiego memory _item = lista[msg.sender][_id];\r\n        if (_item.aprobado == false) {\r\n            _item.liquido_claro = _liquido_claro;\r\n            _item.liquido_oscuro = _liquido_oscuro;\r\n            lista[msg.sender][_id] = _item;\r\n        }\r\n    }\r\n\r\n    function aprobarProceso(uint256 _id) public {\r\n        Trasiego memory _item = lista[msg.sender][_id];\r\n        _item.aprobado = true;\r\n        lista[msg.sender][_id] = _item;\r\n    }\r\n}\r\n",
  "sourcePath": "E:\\UNL\\CICLO X\\vinos-blockchain\\contracts\\6TrasiegoContract.sol",
  "compiler": {
    "name": "solc",
    "version": "0.8.11+commit.d7f03943.Emscripten.clang"
  },
  "schemaVersion": "3.4.4",
  "updatedAt": "2022-06-26T18:57:21.421Z",
  "devdoc": {
    "kind": "dev",
    "methods": {},
    "version": 1
  },
  "userdoc": {
    "kind": "user",
    "methods": {},
    "version": 1
  }
}