{
  "contractName": "TrasiegoContract",
  "abi": [
    {
      "inputs": [
        {
          "internalType": "address",
          "name": "",
          "type": "address"
        },
        {
          "internalType": "uint256",
          "name": "",
          "type": "uint256"
        }
      ],
      "name": "lista",
      "outputs": [
        {
          "internalType": "uint256",
          "name": "hash_anterior",
          "type": "uint256"
        },
        {
          "internalType": "string",
          "name": "liquido_claro",
          "type": "string"
        },
        {
          "internalType": "string",
          "name": "liquido_oscuro",
          "type": "string"
        },
        {
          "internalType": "bool",
          "name": "aprobado",
          "type": "bool"
        },
        {
          "internalType": "uint256",
          "name": "createdAt",
          "type": "uint256"
        }
      ],
      "stateMutability": "view",
      "type": "function",
      "constant": true
    },
    {
      "inputs": [
        {
          "internalType": "uint256",
          "name": "_hash_anterior",
          "type": "uint256"
        },
        {
          "internalType": "string",
          "name": "_liquido_claro",
          "type": "string"
        },
        {
          "internalType": "string",
          "name": "_liquido_oscuro",
          "type": "string"
        }
      ],
      "name": "crear",
      "outputs": [],
      "stateMutability": "nonpayable",
      "type": "function"
    },
    {
      "inputs": [
        {
          "internalType": "uint256",
          "name": "_id",
          "type": "uint256"
        }
      ],
      "name": "encontrar",
      "outputs": [
        {
          "components": [
            {
              "internalType": "uint256",
              "name": "hash_anterior",
              "type": "uint256"
            },
            {
              "internalType": "string",
              "name": "liquido_claro",
              "type": "string"
            },
            {
              "internalType": "string",
              "name": "liquido_oscuro",
              "type": "string"
            },
            {
              "internalType": "bool",
              "name": "aprobado",
              "type": "bool"
            },
            {
              "internalType": "uint256",
              "name": "createdAt",
              "type": "uint256"
            }
          ],
          "internalType": "struct TrasiegoContract.Model",
          "name": "",
          "type": "tuple"
        }
      ],
      "stateMutability": "view",
      "type": "function",
      "constant": true
    },
    {
      "inputs": [
        {
          "internalType": "uint256",
          "name": "_id",
          "type": "uint256"
        },
        {
          "internalType": "string",
          "name": "_liquido_claro",
          "type": "string"
        },
        {
          "internalType": "string",
          "name": "_liquido_oscuro",
          "type": "string"
        }
      ],
      "name": "actualizar",
      "outputs": [],
      "stateMutability": "nonpayable",
      "type": "function"
    },
    {
      "inputs": [
        {
          "internalType": "uint256",
          "name": "_id",
          "type": "uint256"
        }
      ],
      "name": "aprobarProceso",
      "outputs": [],
      "stateMutability": "nonpayable",
      "type": "function"
    }
  ],
  "bytecode": "0x608060405234801561001057600080fd5b50610bb8806100206000396000f3fe608060405234801561001057600080fd5b50600436106100575760003560e01c806331caa9e11461005c578063597419f514610089578063765018651461009e5780637a00b8a9146100b157806385d3a43a146100c4575b600080fd5b61006f61006a3660046108f3565b6100e4565b604051610080959493929190610978565b60405180910390f35b61009c610097366004610a5b565b61022f565b005b61009c6100ac366004610a5b565b61042a565b61009c6100bf366004610ac8565b6104c7565b6100d76100d2366004610ac8565b6106b8565b6040516100809190610ae1565b60006020818152928152604080822090935290815220805460018201805491929161010e90610b47565b80601f016020809104026020016040519081016040528092919081815260200182805461013a90610b47565b80156101875780601f1061015c57610100808354040283529160200191610187565b820191906000526020600020905b81548152906001019060200180831161016a57829003601f168201915b50505050509080600201805461019c90610b47565b80601f01602080910402602001604051908101604052809291908181526020018280546101c890610b47565b80156102155780601f106101ea57610100808354040283529160200191610215565b820191906000526020600020905b8154815290600101906020018083116101f857829003601f168201915b505050506003830154600490930154919260ff1691905085565b336000908152602081815260408083208684528252808320815160a0810190925280548252600181018054929391929184019161026b90610b47565b80601f016020809104026020016040519081016040528092919081815260200182805461029790610b47565b80156102e45780601f106102b9576101008083540402835291602001916102e4565b820191906000526020600020905b8154815290600101906020018083116102c757829003601f168201915b505050505081526020016002820180546102fd90610b47565b80601f016020809104026020016040519081016040528092919081815260200182805461032990610b47565b80156103765780601f1061034b57610100808354040283529160200191610376565b820191906000526020600020905b81548152906001019060200180831161035957829003601f168201915b5050509183525050600382015460ff161515602082015260049091015460409091015260608101519091506104245760208082018481526040808401859052336000908152808452818120888252845220835181559051805184936103e292600185019291019061085a565b50604082015180516103fe91600284019160209091019061085a565b50606082015160038201805460ff19169115159190911790556080909101516004909101555b50505050565b6040805160a08101825284815260208082018581528284018590526000606084018190524260808501523381528083528481208882528352939093208251815592518051929392610481926001850192019061085a565b506040820151805161049d91600284019160209091019061085a565b50606082015160038201805460ff1916911515919091179055608090910151600490910155505050565b336000908152602081815260408083208484528252808320815160a0810190925280548252600181018054929391929184019161050390610b47565b80601f016020809104026020016040519081016040528092919081815260200182805461052f90610b47565b801561057c5780601f106105515761010080835404028352916020019161057c565b820191906000526020600020905b81548152906001019060200180831161055f57829003601f168201915b5050505050815260200160028201805461059590610b47565b80601f01602080910402602001604051908101604052809291908181526020018280546105c190610b47565b801561060e5780601f106105e35761010080835404028352916020019161060e565b820191906000526020600020905b8154815290600101906020018083116105f157829003601f168201915b5050509183525050600382015460ff16151560208083019190915260049092015460409182015260016060840181905233600090815280845282812087825284529190912083518155838301518051949550859491936106739385019291019061085a565b506040820151805161068f91600284019160209091019061085a565b50606082015160038201805460ff19169115159190911790556080909101516004909101555050565b6106ec6040518060a00160405280600081526020016060815260200160608152602001600015158152602001600081525090565b33600090815260208181526040808320858452825291829020825160a0810190935280548352600181018054919284019161072690610b47565b80601f016020809104026020016040519081016040528092919081815260200182805461075290610b47565b801561079f5780601f106107745761010080835404028352916020019161079f565b820191906000526020600020905b81548152906001019060200180831161078257829003601f168201915b505050505081526020016002820180546107b890610b47565b80601f01602080910402602001604051908101604052809291908181526020018280546107e490610b47565b80156108315780601f1061080657610100808354040283529160200191610831565b820191906000526020600020905b81548152906001019060200180831161081457829003601f168201915b5050509183525050600382015460ff161515602082015260049091015460409091015292915050565b82805461086690610b47565b90600052602060002090601f01602090048101928261088857600085556108ce565b82601f106108a157805160ff19168380011785556108ce565b828001600101855582156108ce579182015b828111156108ce5782518255916020019190600101906108b3565b506108da9291506108de565b5090565b5b808211156108da57600081556001016108df565b6000806040838503121561090657600080fd5b82356001600160a01b038116811461091d57600080fd5b946020939093013593505050565b6000815180845260005b8181101561095157602081850181015186830182015201610935565b81811115610963576000602083870101525b50601f01601f19169290920160200192915050565b85815260a06020820152600061099160a083018761092b565b82810360408401526109a3818761092b565b94151560608401525050608001529392505050565b634e487b7160e01b600052604160045260246000fd5b600082601f8301126109df57600080fd5b813567ffffffffffffffff808211156109fa576109fa6109b8565b604051601f8301601f19908116603f01168101908282118183101715610a2257610a226109b8565b81604052838152866020858801011115610a3b57600080fd5b836020870160208301376000602085830101528094505050505092915050565b600080600060608486031215610a7057600080fd5b83359250602084013567ffffffffffffffff80821115610a8f57600080fd5b610a9b878388016109ce565b93506040860135915080821115610ab157600080fd5b50610abe868287016109ce565b9150509250925092565b600060208284031215610ada57600080fd5b5035919050565b60208152815160208201526000602083015160a06040840152610b0760c084018261092b565b90506040840151601f19848303016060850152610b24828261092b565b915050606084015115156080840152608084015160a08401528091505092915050565b600181811c90821680610b5b57607f821691505b60208210811415610b7c57634e487b7160e01b600052602260045260246000fd5b5091905056fea2646970667358221220d21832acf2dd4666aa46b967ab485deea8764d8df7bbeb827a5211d1b2b04d8064736f6c634300080b0033",
  "immutableReferences": {},
  "source": "// SPDX-License-Identifier: MIT\r\npragma solidity ^0.8.11;\r\n\r\ncontract TrasiegoContract {\r\n    struct Model {\r\n        uint256 hash_anterior;\r\n        string liquido_claro;\r\n        string liquido_oscuro;\r\n        bool aprobado;\r\n        uint256 createdAt;\r\n    }\r\n\r\n    mapping(address => mapping(uint256 => Model)) public lista;\r\n\r\n    function crear(\r\n        uint256 _hash_anterior,\r\n        string memory _liquido_claro,\r\n        string memory _liquido_oscuro\r\n    ) public {\r\n        lista[msg.sender][_hash_anterior] = Model(\r\n            _hash_anterior,\r\n            _liquido_claro,\r\n            _liquido_oscuro,\r\n            false,\r\n            block.timestamp\r\n        );\r\n    }\r\n\r\n    function encontrar(uint256 _id) public view returns (Model memory) {\r\n        return lista[msg.sender][_id];\r\n    }\r\n\r\n    function actualizar(\r\n        uint256 _id,\r\n        string memory _liquido_claro,\r\n        string memory _liquido_oscuro\r\n    ) public {\r\n        Model memory _item = lista[msg.sender][_id];\r\n        if (_item.aprobado == false) {\r\n            _item.liquido_claro = _liquido_claro;\r\n            _item.liquido_oscuro = _liquido_oscuro;\r\n            lista[msg.sender][_id] = _item;\r\n        }\r\n    }\r\n\r\n    function aprobarProceso(uint256 _id) public {\r\n        Model memory _item = lista[msg.sender][_id];\r\n        _item.aprobado = true;\r\n        lista[msg.sender][_id] = _item;\r\n    }\r\n}\r\n",
  "sourcePath": "E:\\UNL\\CICLO X\\vinos-blockchain\\contracts\\6TrasiegoContract.sol",
  "compiler": {
    "name": "solc",
    "version": "0.8.11+commit.d7f03943.Emscripten.clang"
  },
  "schemaVersion": "3.4.4",
  "updatedAt": "2022-06-26T23:24:20.476Z",
  "networkType": "ethereum",
  "devdoc": {
    "kind": "dev",
    "methods": {},
    "version": 1
  },
  "userdoc": {
    "kind": "user",
    "methods": {},
    "version": 1
  }
}