{
  "contractName": "TrasiegoContract",
  "abi": [
    {
      "anonymous": false,
      "inputs": [
        {
          "indexed": false,
          "internalType": "uint256",
          "name": "id",
          "type": "uint256"
        }
      ],
      "name": "Id",
      "type": "event"
    },
    {
      "inputs": [],
      "name": "contador",
      "outputs": [
        {
          "internalType": "uint256",
          "name": "",
          "type": "uint256"
        }
      ],
      "stateMutability": "view",
      "type": "function",
      "constant": true
    },
    {
      "inputs": [
        {
          "internalType": "uint256",
          "name": "",
          "type": "uint256"
        }
      ],
      "name": "lista",
      "outputs": [
        {
          "internalType": "uint256",
          "name": "hash_anterior",
          "type": "uint256"
        },
        {
          "internalType": "string",
          "name": "liquido_claro",
          "type": "string"
        },
        {
          "internalType": "string",
          "name": "liquido_oscuro",
          "type": "string"
        },
        {
          "internalType": "bool",
          "name": "aprobado",
          "type": "bool"
        },
        {
          "internalType": "uint256",
          "name": "createdAt",
          "type": "uint256"
        }
      ],
      "stateMutability": "view",
      "type": "function",
      "constant": true
    },
    {
      "inputs": [
        {
          "internalType": "uint256",
          "name": "_hash_anterior",
          "type": "uint256"
        },
        {
          "internalType": "string",
          "name": "_liquido_claro",
          "type": "string"
        },
        {
          "internalType": "string",
          "name": "_liquido_oscuro",
          "type": "string"
        }
      ],
      "name": "crear",
      "outputs": [],
      "stateMutability": "nonpayable",
      "type": "function"
    },
    {
      "inputs": [
        {
          "internalType": "uint256",
          "name": "_id",
          "type": "uint256"
        }
      ],
      "name": "encontrar",
      "outputs": [
        {
          "components": [
            {
              "internalType": "uint256",
              "name": "hash_anterior",
              "type": "uint256"
            },
            {
              "internalType": "string",
              "name": "liquido_claro",
              "type": "string"
            },
            {
              "internalType": "string",
              "name": "liquido_oscuro",
              "type": "string"
            },
            {
              "internalType": "bool",
              "name": "aprobado",
              "type": "bool"
            },
            {
              "internalType": "uint256",
              "name": "createdAt",
              "type": "uint256"
            }
          ],
          "internalType": "struct TrasiegoContract.Model",
          "name": "",
          "type": "tuple"
        }
      ],
      "stateMutability": "view",
      "type": "function",
      "constant": true
    },
    {
      "inputs": [
        {
          "internalType": "uint256",
          "name": "_id",
          "type": "uint256"
        },
        {
          "internalType": "string",
          "name": "_liquido_claro",
          "type": "string"
        },
        {
          "internalType": "string",
          "name": "_liquido_oscuro",
          "type": "string"
        }
      ],
      "name": "editar",
      "outputs": [],
      "stateMutability": "nonpayable",
      "type": "function"
    },
    {
      "inputs": [
        {
          "internalType": "uint256",
          "name": "_id",
          "type": "uint256"
        }
      ],
      "name": "aprobarProceso",
      "outputs": [],
      "stateMutability": "nonpayable",
      "type": "function"
    }
  ],
  "bytecode": "0x608060405234801561001057600080fd5b50610c48806100206000396000f3fe608060405234801561001057600080fd5b50600436106100625760003560e01c80630cc76c1414610067578063307e0e801461009457806353d27cc2146100a957806376501865146100c05780637a00b8a9146100d357806385d3a43a146100e6575b600080fd5b61007a610075366004610992565b610106565b60405161008b9594939291906109f8565b60405180910390f35b6100a76100a2366004610adb565b610249565b005b6100b260015481565b60405190815260200161008b565b6100a76100ce366004610adb565b61046b565b6100a76100e1366004610992565b610548565b6100f96100f4366004610992565b610760565b60405161008b9190610b48565b6000602081905290815260409020805460018201805491929161012890610bae565b80601f016020809104026020016040519081016040528092919081815260200182805461015490610bae565b80156101a15780601f10610176576101008083540402835291602001916101a1565b820191906000526020600020905b81548152906001019060200180831161018457829003601f168201915b5050505050908060020180546101b690610bae565b80601f01602080910402602001604051908101604052809291908181526020018280546101e290610bae565b801561022f5780601f106102045761010080835404028352916020019161022f565b820191906000526020600020905b81548152906001019060200180831161021257829003601f168201915b505050506003830154600490930154919260ff1691905085565b60008060008581526020019081526020016000206040518060a00160405290816000820154815260200160018201805461028290610bae565b80601f01602080910402602001604051908101604052809291908181526020018280546102ae90610bae565b80156102fb5780601f106102d0576101008083540402835291602001916102fb565b820191906000526020600020905b8154815290600101906020018083116102de57829003601f168201915b5050505050815260200160028201805461031490610bae565b80601f016020809104026020016040519081016040528092919081815260200182805461034090610bae565b801561038d5780601f106103625761010080835404028352916020019161038d565b820191906000526020600020905b81548152906001019060200180831161037057829003601f168201915b5050509183525050600382015460ff161515602082015260049091015460409091015260608101519091506104655760208082018481526040808401859052600087815280845220835181559051805184936103f09260018501929101906108f9565b506040820151805161040c9160028401916020909101906108f9565b50606082015160038201805460ff19169115159190911790556080909101516004909101556040518481527f1ee8913b1e0c76a71150bbb92d8921b2c975601c8c9991b8ef86a1b3896727749060200160405180910390a15b50505050565b6040805160a08101825284815260208082018581528284018590526000606084018190524260808501528781528083529390932082518155925180519293926104ba92600185019201906108f9565b50604082015180516104d69160028401916020909101906108f9565b50606082015160038201805460ff19169115159190911790556080909101516004909101556040518381527f1ee8913b1e0c76a71150bbb92d8921b2c975601c8c9991b8ef86a1b3896727749060200160405180910390a16001805490600061053e83610be9565b9190505550505050565b60008060008381526020019081526020016000206040518060a00160405290816000820154815260200160018201805461058190610bae565b80601f01602080910402602001604051908101604052809291908181526020018280546105ad90610bae565b80156105fa5780601f106105cf576101008083540402835291602001916105fa565b820191906000526020600020905b8154815290600101906020018083116105dd57829003601f168201915b5050505050815260200160028201805461061390610bae565b80601f016020809104026020016040519081016040528092919081815260200182805461063f90610bae565b801561068c5780601f106106615761010080835404028352916020019161068c565b820191906000526020600020905b81548152906001019060200180831161066f57829003601f168201915b5050509183525050600382015460ff16151560208083019190915260049092015460409182015260016060840181905260008681528084529190912083518155838301518051949550859491936106e8938501929101906108f9565b50604082015180516107049160028401916020909101906108f9565b50606082015160038201805460ff19169115159190911790556080909101516004909101556040518281527f1ee8913b1e0c76a71150bbb92d8921b2c975601c8c9991b8ef86a1b3896727749060200160405180910390a15050565b6107946040518060a00160405280600081526020016060815260200160608152602001600015158152602001600081525090565b60008281526020818152604091829020825160a081019093528054835260018101805491928401916107c590610bae565b80601f01602080910402602001604051908101604052809291908181526020018280546107f190610bae565b801561083e5780601f106108135761010080835404028352916020019161083e565b820191906000526020600020905b81548152906001019060200180831161082157829003601f168201915b5050505050815260200160028201805461085790610bae565b80601f016020809104026020016040519081016040528092919081815260200182805461088390610bae565b80156108d05780601f106108a5576101008083540402835291602001916108d0565b820191906000526020600020905b8154815290600101906020018083116108b357829003601f168201915b5050509183525050600382015460ff161515602082015260049091015460409091015292915050565b82805461090590610bae565b90600052602060002090601f016020900481019282610927576000855561096d565b82601f1061094057805160ff191683800117855561096d565b8280016001018555821561096d579182015b8281111561096d578251825591602001919060010190610952565b5061097992915061097d565b5090565b5b80821115610979576000815560010161097e565b6000602082840312156109a457600080fd5b5035919050565b6000815180845260005b818110156109d1576020818501810151868301820152016109b5565b818111156109e3576000602083870101525b50601f01601f19169290920160200192915050565b85815260a060208201526000610a1160a08301876109ab565b8281036040840152610a2381876109ab565b94151560608401525050608001529392505050565b634e487b7160e01b600052604160045260246000fd5b600082601f830112610a5f57600080fd5b813567ffffffffffffffff80821115610a7a57610a7a610a38565b604051601f8301601f19908116603f01168101908282118183101715610aa257610aa2610a38565b81604052838152866020858801011115610abb57600080fd5b836020870160208301376000602085830101528094505050505092915050565b600080600060608486031215610af057600080fd5b83359250602084013567ffffffffffffffff80821115610b0f57600080fd5b610b1b87838801610a4e565b93506040860135915080821115610b3157600080fd5b50610b3e86828701610a4e565b9150509250925092565b60208152815160208201526000602083015160a06040840152610b6e60c08401826109ab565b90506040840151601f19848303016060850152610b8b82826109ab565b915050606084015115156080840152608084015160a08401528091505092915050565b600181811c90821680610bc257607f821691505b60208210811415610be357634e487b7160e01b600052602260045260246000fd5b50919050565b6000600019821415610c0b57634e487b7160e01b600052601160045260246000fd5b506001019056fea2646970667358221220c4cc34c42f0f8f2f8427a398e797c2d63c04e40e2f59d87a9d31652bf340bd0d64736f6c634300080b0033",
  "immutableReferences": {},
  "source": "// SPDX-License-Identifier: MIT\r\npragma solidity ^0.8.11;\r\n\r\ncontract TrasiegoContract {\r\n    struct Model {\r\n        uint256 hash_anterior;\r\n        string liquido_claro;\r\n        string liquido_oscuro;\r\n        bool aprobado;\r\n        uint256 createdAt;\r\n    }\r\n    event Id(uint256 id);\r\n    mapping(uint256 => Model) public lista;\r\n    uint256 public contador;\r\n\r\n    function crear(\r\n        uint256 _hash_anterior,\r\n        string memory _liquido_claro,\r\n        string memory _liquido_oscuro\r\n    ) public {\r\n        lista[_hash_anterior] = Model(\r\n            _hash_anterior,\r\n            _liquido_claro,\r\n            _liquido_oscuro,\r\n            false,\r\n            block.timestamp\r\n        );\r\n        emit Id(_hash_anterior);\r\n        contador++;\r\n    }\r\n\r\n    function encontrar(uint256 _id) public view returns (Model memory) {\r\n        return lista[_id];\r\n    }\r\n\r\n    function editar(\r\n        uint256 _id,\r\n        string memory _liquido_claro,\r\n        string memory _liquido_oscuro\r\n    ) public {\r\n        Model memory _item = lista[_id];\r\n        if (_item.aprobado == false) {\r\n            _item.liquido_claro = _liquido_claro;\r\n            _item.liquido_oscuro = _liquido_oscuro;\r\n            lista[_id] = _item;\r\n            emit Id(_id);\r\n        }\r\n    }\r\n\r\n    function aprobarProceso(uint256 _id) public {\r\n        Model memory _item = lista[_id];\r\n        _item.aprobado = true;\r\n        lista[_id] = _item;\r\n        emit Id(_id);\r\n    }\r\n}\r\n",
  "sourcePath": "E:\\UNL\\CICLO X\\vinos-blockchain\\contracts\\procesos\\6TrasiegoContract.sol",
  "compiler": {
    "name": "solc",
    "version": "0.8.11+commit.d7f03943.Emscripten.clang"
  },
  "schemaVersion": "3.4.4",
  "updatedAt": "2022-07-01T02:39:50.868Z",
  "networkType": "ethereum",
  "devdoc": {
    "kind": "dev",
    "methods": {},
    "version": 1
  },
  "userdoc": {
    "kind": "user",
    "methods": {},
    "version": 1
  }
}