{
  "contractName": "TrasiegoContract",
  "abi": [
    {
      "anonymous": false,
      "inputs": [
        {
          "indexed": false,
          "internalType": "uint256",
          "name": "id",
          "type": "uint256"
        }
      ],
      "name": "Id",
      "type": "event"
    },
    {
      "inputs": [],
      "name": "contador",
      "outputs": [
        {
          "internalType": "uint256",
          "name": "",
          "type": "uint256"
        }
      ],
      "stateMutability": "view",
      "type": "function",
      "constant": true
    },
    {
      "inputs": [
        {
          "internalType": "uint256",
          "name": "",
          "type": "uint256"
        }
      ],
      "name": "lista",
      "outputs": [
        {
          "internalType": "uint256",
          "name": "hash_anterior",
          "type": "uint256"
        },
        {
          "internalType": "string",
          "name": "liquido_claro",
          "type": "string"
        },
        {
          "internalType": "string",
          "name": "liquido_oscuro",
          "type": "string"
        },
        {
          "internalType": "bool",
          "name": "aprobado",
          "type": "bool"
        },
        {
          "internalType": "uint256",
          "name": "createdAt",
          "type": "uint256"
        }
      ],
      "stateMutability": "view",
      "type": "function",
      "constant": true
    },
    {
      "inputs": [
        {
          "internalType": "uint256",
          "name": "_hash_anterior",
          "type": "uint256"
        },
        {
          "internalType": "string",
          "name": "_liquido_claro",
          "type": "string"
        },
        {
          "internalType": "string",
          "name": "_liquido_oscuro",
          "type": "string"
        }
      ],
      "name": "crear",
      "outputs": [],
      "stateMutability": "nonpayable",
      "type": "function"
    },
    {
      "inputs": [
        {
          "internalType": "uint256",
          "name": "_id",
          "type": "uint256"
        },
        {
          "internalType": "string",
          "name": "_liquido_claro",
          "type": "string"
        },
        {
          "internalType": "string",
          "name": "_liquido_oscuro",
          "type": "string"
        }
      ],
      "name": "editar",
      "outputs": [],
      "stateMutability": "nonpayable",
      "type": "function"
    },
    {
      "inputs": [
        {
          "internalType": "uint256",
          "name": "_id",
          "type": "uint256"
        }
      ],
      "name": "aprobarProceso",
      "outputs": [],
      "stateMutability": "nonpayable",
      "type": "function"
    }
  ],
  "bytecode": "0x608060405234801561001057600080fd5b50610a1e806100206000396000f3fe608060405234801561001057600080fd5b50600436106100575760003560e01c80630cc76c141461005c578063307e0e801461008957806353d27cc21461009e57806376501865146100b55780637a00b8a9146100c8575b600080fd5b61006f61006a3660046107ce565b6100db565b604051610080959493929190610834565b60405180910390f35b61009c610097366004610917565b61021e565b005b6100a760015481565b604051908152602001610080565b61009c6100c3366004610917565b610440565b61009c6100d63660046107ce565b61051d565b600060208190529081526040902080546001820180549192916100fd90610984565b80601f016020809104026020016040519081016040528092919081815260200182805461012990610984565b80156101765780601f1061014b57610100808354040283529160200191610176565b820191906000526020600020905b81548152906001019060200180831161015957829003601f168201915b50505050509080600201805461018b90610984565b80601f01602080910402602001604051908101604052809291908181526020018280546101b790610984565b80156102045780601f106101d957610100808354040283529160200191610204565b820191906000526020600020905b8154815290600101906020018083116101e757829003601f168201915b505050506003830154600490930154919260ff1691905085565b60008060008581526020019081526020016000206040518060a00160405290816000820154815260200160018201805461025790610984565b80601f016020809104026020016040519081016040528092919081815260200182805461028390610984565b80156102d05780601f106102a5576101008083540402835291602001916102d0565b820191906000526020600020905b8154815290600101906020018083116102b357829003601f168201915b505050505081526020016002820180546102e990610984565b80601f016020809104026020016040519081016040528092919081815260200182805461031590610984565b80156103625780601f1061033757610100808354040283529160200191610362565b820191906000526020600020905b81548152906001019060200180831161034557829003601f168201915b5050509183525050600382015460ff1615156020820152600490910154604090910152606081015190915061043a5760208082018481526040808401859052600087815280845220835181559051805184936103c5926001850192910190610735565b50604082015180516103e1916002840191602090910190610735565b50606082015160038201805460ff19169115159190911790556080909101516004909101556040518481527f1ee8913b1e0c76a71150bbb92d8921b2c975601c8c9991b8ef86a1b3896727749060200160405180910390a15b50505050565b6040805160a081018252848152602080820185815282840185905260006060840181905242608085015287815280835293909320825181559251805192939261048f9260018501920190610735565b50604082015180516104ab916002840191602090910190610735565b50606082015160038201805460ff19169115159190911790556080909101516004909101556040518381527f1ee8913b1e0c76a71150bbb92d8921b2c975601c8c9991b8ef86a1b3896727749060200160405180910390a160018054906000610513836109bf565b9190505550505050565b60008060008381526020019081526020016000206040518060a00160405290816000820154815260200160018201805461055690610984565b80601f016020809104026020016040519081016040528092919081815260200182805461058290610984565b80156105cf5780601f106105a4576101008083540402835291602001916105cf565b820191906000526020600020905b8154815290600101906020018083116105b257829003601f168201915b505050505081526020016002820180546105e890610984565b80601f016020809104026020016040519081016040528092919081815260200182805461061490610984565b80156106615780601f1061063657610100808354040283529160200191610661565b820191906000526020600020905b81548152906001019060200180831161064457829003601f168201915b5050509183525050600382015460ff16151560208083019190915260049092015460409182015260016060840181905260008681528084529190912083518155838301518051949550859491936106bd93850192910190610735565b50604082015180516106d9916002840191602090910190610735565b50606082015160038201805460ff19169115159190911790556080909101516004909101556040518281527f1ee8913b1e0c76a71150bbb92d8921b2c975601c8c9991b8ef86a1b3896727749060200160405180910390a15050565b82805461074190610984565b90600052602060002090601f01602090048101928261076357600085556107a9565b82601f1061077c57805160ff19168380011785556107a9565b828001600101855582156107a9579182015b828111156107a957825182559160200191906001019061078e565b506107b59291506107b9565b5090565b5b808211156107b557600081556001016107ba565b6000602082840312156107e057600080fd5b5035919050565b6000815180845260005b8181101561080d576020818501810151868301820152016107f1565b8181111561081f576000602083870101525b50601f01601f19169290920160200192915050565b85815260a06020820152600061084d60a08301876107e7565b828103604084015261085f81876107e7565b94151560608401525050608001529392505050565b634e487b7160e01b600052604160045260246000fd5b600082601f83011261089b57600080fd5b813567ffffffffffffffff808211156108b6576108b6610874565b604051601f8301601f19908116603f011681019082821181831017156108de576108de610874565b816040528381528660208588010111156108f757600080fd5b836020870160208301376000602085830101528094505050505092915050565b60008060006060848603121561092c57600080fd5b83359250602084013567ffffffffffffffff8082111561094b57600080fd5b6109578783880161088a565b9350604086013591508082111561096d57600080fd5b5061097a8682870161088a565b9150509250925092565b600181811c9082168061099857607f821691505b602082108114156109b957634e487b7160e01b600052602260045260246000fd5b50919050565b60006000198214156109e157634e487b7160e01b600052601160045260246000fd5b506001019056fea264697066735822122081dd04c9723b9068d85f7b21136f22b628a2c8d6615fdf568ebe0a2e74cffa1164736f6c634300080b0033",
  "immutableReferences": {},
  "source": "// SPDX-License-Identifier: MIT\r\npragma solidity ^0.8.11;\r\n\r\ncontract TrasiegoContract {\r\n    struct Model {\r\n        uint256 hash_anterior;\r\n        string liquido_claro;\r\n        string liquido_oscuro;\r\n        bool aprobado;\r\n        uint256 createdAt;\r\n    }\r\n    event Id(uint256 id);\r\n    mapping(uint256 => Model) public lista;\r\n    uint256 public contador;\r\n\r\n    function crear(\r\n        uint256 _hash_anterior,\r\n        string memory _liquido_claro,\r\n        string memory _liquido_oscuro\r\n    ) public {\r\n        lista[_hash_anterior] = Model(\r\n            _hash_anterior,\r\n            _liquido_claro,\r\n            _liquido_oscuro,\r\n            false,\r\n            block.timestamp\r\n        );\r\n        emit Id(_hash_anterior);\r\n        contador++;\r\n    }\r\n    function editar(\r\n        uint256 _id,\r\n        string memory _liquido_claro,\r\n        string memory _liquido_oscuro\r\n    ) public {\r\n        Model memory _item = lista[_id];\r\n        if (_item.aprobado == false) {\r\n            _item.liquido_claro = _liquido_claro;\r\n            _item.liquido_oscuro = _liquido_oscuro;\r\n            lista[_id] = _item;\r\n            emit Id(_id);\r\n        }\r\n    }\r\n\r\n    function aprobarProceso(uint256 _id) public {\r\n        Model memory _item = lista[_id];\r\n        _item.aprobado = true;\r\n        lista[_id] = _item;\r\n        emit Id(_id);\r\n    }\r\n}\r\n",
  "sourcePath": "E:\\UNL\\CICLO X\\vinos-blockchain\\contracts\\procesos\\6TrasiegoContract.sol",
  "compiler": {
    "name": "solc",
    "version": "0.8.11+commit.d7f03943.Emscripten.clang"
  },
  "schemaVersion": "3.4.4",
  "updatedAt": "2022-06-29T23:41:40.448Z",
  "networkType": "ethereum",
  "devdoc": {
    "kind": "dev",
    "methods": {},
    "version": 1
  },
  "userdoc": {
    "kind": "user",
    "methods": {},
    "version": 1
  }
}