{
  "contractName": "TVATOKEN",
  "abi": [
    {
      "inputs": [],
      "stateMutability": "nonpayable",
      "type": "constructor"
    },
    {
      "anonymous": false,
      "inputs": [
        {
          "indexed": true,
          "internalType": "address",
          "name": "owner",
          "type": "address"
        },
        {
          "indexed": true,
          "internalType": "address",
          "name": "approved",
          "type": "address"
        },
        {
          "indexed": true,
          "internalType": "uint256",
          "name": "tokenId",
          "type": "uint256"
        }
      ],
      "name": "Approval",
      "type": "event"
    },
    {
      "anonymous": false,
      "inputs": [
        {
          "indexed": true,
          "internalType": "address",
          "name": "owner",
          "type": "address"
        },
        {
          "indexed": true,
          "internalType": "address",
          "name": "operator",
          "type": "address"
        },
        {
          "indexed": false,
          "internalType": "bool",
          "name": "approved",
          "type": "bool"
        }
      ],
      "name": "ApprovalForAll",
      "type": "event"
    },
    {
      "anonymous": false,
      "inputs": [
        {
          "indexed": true,
          "internalType": "address",
          "name": "from",
          "type": "address"
        },
        {
          "indexed": true,
          "internalType": "address",
          "name": "to",
          "type": "address"
        },
        {
          "indexed": true,
          "internalType": "uint256",
          "name": "tokenId",
          "type": "uint256"
        }
      ],
      "name": "Transfer",
      "type": "event"
    },
    {
      "inputs": [
        {
          "internalType": "address",
          "name": "to",
          "type": "address"
        },
        {
          "internalType": "uint256",
          "name": "tokenId",
          "type": "uint256"
        }
      ],
      "name": "approve",
      "outputs": [],
      "stateMutability": "nonpayable",
      "type": "function"
    },
    {
      "inputs": [
        {
          "internalType": "address",
          "name": "owner",
          "type": "address"
        }
      ],
      "name": "balanceOf",
      "outputs": [
        {
          "internalType": "uint256",
          "name": "",
          "type": "uint256"
        }
      ],
      "stateMutability": "view",
      "type": "function",
      "constant": true
    },
    {
      "inputs": [
        {
          "internalType": "uint256",
          "name": "tokenId",
          "type": "uint256"
        }
      ],
      "name": "getApproved",
      "outputs": [
        {
          "internalType": "address",
          "name": "",
          "type": "address"
        }
      ],
      "stateMutability": "view",
      "type": "function",
      "constant": true
    },
    {
      "inputs": [
        {
          "internalType": "address",
          "name": "owner",
          "type": "address"
        },
        {
          "internalType": "address",
          "name": "operator",
          "type": "address"
        }
      ],
      "name": "isApprovedForAll",
      "outputs": [
        {
          "internalType": "bool",
          "name": "",
          "type": "bool"
        }
      ],
      "stateMutability": "view",
      "type": "function",
      "constant": true
    },
    {
      "inputs": [],
      "name": "name",
      "outputs": [
        {
          "internalType": "string",
          "name": "",
          "type": "string"
        }
      ],
      "stateMutability": "view",
      "type": "function",
      "constant": true
    },
    {
      "inputs": [
        {
          "internalType": "uint256",
          "name": "tokenId",
          "type": "uint256"
        }
      ],
      "name": "ownerOf",
      "outputs": [
        {
          "internalType": "address",
          "name": "",
          "type": "address"
        }
      ],
      "stateMutability": "view",
      "type": "function",
      "constant": true
    },
    {
      "inputs": [
        {
          "internalType": "address",
          "name": "from",
          "type": "address"
        },
        {
          "internalType": "address",
          "name": "to",
          "type": "address"
        },
        {
          "internalType": "uint256",
          "name": "tokenId",
          "type": "uint256"
        }
      ],
      "name": "safeTransferFrom",
      "outputs": [],
      "stateMutability": "nonpayable",
      "type": "function"
    },
    {
      "inputs": [
        {
          "internalType": "address",
          "name": "from",
          "type": "address"
        },
        {
          "internalType": "address",
          "name": "to",
          "type": "address"
        },
        {
          "internalType": "uint256",
          "name": "tokenId",
          "type": "uint256"
        },
        {
          "internalType": "bytes",
          "name": "_data",
          "type": "bytes"
        }
      ],
      "name": "safeTransferFrom",
      "outputs": [],
      "stateMutability": "nonpayable",
      "type": "function"
    },
    {
      "inputs": [
        {
          "internalType": "address",
          "name": "operator",
          "type": "address"
        },
        {
          "internalType": "bool",
          "name": "approved",
          "type": "bool"
        }
      ],
      "name": "setApprovalForAll",
      "outputs": [],
      "stateMutability": "nonpayable",
      "type": "function"
    },
    {
      "inputs": [
        {
          "internalType": "bytes4",
          "name": "interfaceId",
          "type": "bytes4"
        }
      ],
      "name": "supportsInterface",
      "outputs": [
        {
          "internalType": "bool",
          "name": "",
          "type": "bool"
        }
      ],
      "stateMutability": "view",
      "type": "function",
      "constant": true
    },
    {
      "inputs": [],
      "name": "symbol",
      "outputs": [
        {
          "internalType": "string",
          "name": "",
          "type": "string"
        }
      ],
      "stateMutability": "view",
      "type": "function",
      "constant": true
    },
    {
      "inputs": [
        {
          "internalType": "uint256",
          "name": "tokenId",
          "type": "uint256"
        }
      ],
      "name": "tokenURI",
      "outputs": [
        {
          "internalType": "string",
          "name": "",
          "type": "string"
        }
      ],
      "stateMutability": "view",
      "type": "function",
      "constant": true
    },
    {
      "inputs": [
        {
          "internalType": "address",
          "name": "from",
          "type": "address"
        },
        {
          "internalType": "address",
          "name": "to",
          "type": "address"
        },
        {
          "internalType": "uint256",
          "name": "tokenId",
          "type": "uint256"
        }
      ],
      "name": "transferFrom",
      "outputs": [],
      "stateMutability": "nonpayable",
      "type": "function"
    },
    {
      "inputs": [
        {
          "internalType": "address",
          "name": "cuenta",
          "type": "address"
        },
        {
          "internalType": "string",
          "name": "_hash",
          "type": "string"
        }
      ],
      "name": "crearBotella",
      "outputs": [],
      "stateMutability": "nonpayable",
      "type": "function"
    },
    {
      "inputs": [
        {
          "internalType": "string",
          "name": "_hash",
          "type": "string"
        }
      ],
      "name": "encontrarBotella",
      "outputs": [
        {
          "internalType": "string",
          "name": "",
          "type": "string"
        }
      ],
      "stateMutability": "view",
      "type": "function",
      "constant": true
    }
  ],
  "bytecode": "0x608060405260006008553480156200001657600080fd5b50604080518082018252600481526356494e4f60e01b60208083019182528351808501909452600684526515159053919560d21b908401528151919291620000619160009162000080565b5080516200007790600190602084019062000080565b50505062000163565b8280546200008e9062000126565b90600052602060002090601f016020900481019282620000b25760008555620000fd565b82601f10620000cd57805160ff1916838001178555620000fd565b82800160010185558215620000fd579182015b82811115620000fd578251825591602001919060010190620000e0565b506200010b9291506200010f565b5090565b5b808211156200010b576000815560010162000110565b600181811c908216806200013b57607f821691505b602082108114156200015d57634e487b7160e01b600052602260045260246000fd5b50919050565b6116af80620001736000396000f3fe608060405234801561001057600080fd5b50600436106100f55760003560e01c806370a0823111610097578063b88d4fde11610066578063b88d4fde146101ff578063c87b56dd14610212578063d65d8b7c14610225578063e985e9c51461023857600080fd5b806370a08231146101b057806395d89b41146101d15780639d1c38d1146101d9578063a22cb465146101ec57600080fd5b8063095ea7b3116100d3578063095ea7b31461016257806323b872dd1461017757806342842e0e1461018a5780636352211e1461019d57600080fd5b806301ffc9a7146100fa57806306fdde0314610122578063081812fc14610137575b600080fd5b61010d6101083660046110ea565b610274565b60405190151581526020015b60405180910390f35b61012a6102c6565b604051610119919061115f565b61014a610145366004611172565b610358565b6040516001600160a01b039091168152602001610119565b6101756101703660046111a7565b6103f2565b005b6101756101853660046111d1565b610508565b6101756101983660046111d1565b610539565b61014a6101ab366004611172565b610554565b6101c36101be36600461120d565b6105cb565b604051908152602001610119565b61012a610652565b6101756101e73660046112d4565b610661565b6101756101fa366004611322565b610718565b61017561020d36600461135e565b610727565b61012a610220366004611172565b61075f565b61012a6102333660046113da565b610847565b61010d61024636600461140f565b6001600160a01b03918216600090815260056020908152604080832093909416825291909152205460ff1690565b60006001600160e01b031982166380ac58cd60e01b14806102a557506001600160e01b03198216635b5e139f60e01b145b806102c057506301ffc9a760e01b6001600160e01b03198316145b92915050565b6060600080546102d590611442565b80601f016020809104026020016040519081016040528092919081815260200182805461030190611442565b801561034e5780601f106103235761010080835404028352916020019161034e565b820191906000526020600020905b81548152906001019060200180831161033157829003601f168201915b5050505050905090565b6000818152600260205260408120546001600160a01b03166103d65760405162461bcd60e51b815260206004820152602c60248201527f4552433732313a20617070726f76656420717565727920666f72206e6f6e657860448201526b34b9ba32b73a103a37b5b2b760a11b60648201526084015b60405180910390fd5b506000908152600460205260409020546001600160a01b031690565b60006103fd82610554565b9050806001600160a01b0316836001600160a01b0316141561046b5760405162461bcd60e51b815260206004820152602160248201527f4552433732313a20617070726f76616c20746f2063757272656e74206f776e656044820152603960f91b60648201526084016103cd565b336001600160a01b038216148061048757506104878133610246565b6104f95760405162461bcd60e51b815260206004820152603860248201527f4552433732313a20617070726f76652063616c6c6572206973206e6f74206f7760448201527f6e6572206e6f7220617070726f76656420666f7220616c6c000000000000000060648201526084016103cd565b61050383836108f7565b505050565b6105123382610965565b61052e5760405162461bcd60e51b81526004016103cd9061147d565b610503838383610a5c565b61050383838360405180602001604052806000815250610727565b6000818152600260205260408120546001600160a01b0316806102c05760405162461bcd60e51b815260206004820152602960248201527f4552433732313a206f776e657220717565727920666f72206e6f6e657869737460448201526832b73a103a37b5b2b760b91b60648201526084016103cd565b60006001600160a01b0382166106365760405162461bcd60e51b815260206004820152602a60248201527f4552433732313a2062616c616e636520717565727920666f7220746865207a65604482015269726f206164647265737360b01b60648201526084016103cd565b506001600160a01b031660009081526003602052604090205490565b6060600180546102d590611442565b60078160405161067191906114ce565b9081526040519081900360200190205460ff161561068e57600080fd5b61069a82600854610bf8565b806006826040516106ab91906114ce565b908152602001604051809103902090805190602001906106cc929190611038565b5060016007826040516106df91906114ce565b908152604051908190036020019020805491151560ff199092169190911790556008805490600061070f83611500565b91905055505050565b610723338383610d3a565b5050565b6107313383610965565b61074d5760405162461bcd60e51b81526004016103cd9061147d565b61075984848484610e09565b50505050565b6000818152600260205260409020546060906001600160a01b03166107de5760405162461bcd60e51b815260206004820152602f60248201527f4552433732314d657461646174613a2055524920717565727920666f72206e6f60448201526e3732bc34b9ba32b73a103a37b5b2b760891b60648201526084016103cd565b60006107f560408051602081019091526000815290565b905060008151116108155760405180602001604052806000815250610840565b8061081f84610e3c565b60405160200161083092919061151b565b6040516020818303038152906040525b9392505050565b606060068260405161085991906114ce565b9081526020016040518091039020805461087290611442565b80601f016020809104026020016040519081016040528092919081815260200182805461089e90611442565b80156108eb5780601f106108c0576101008083540402835291602001916108eb565b820191906000526020600020905b8154815290600101906020018083116108ce57829003601f168201915b50505050509050919050565b600081815260046020526040902080546001600160a01b0319166001600160a01b038416908117909155819061092c82610554565b6001600160a01b03167f8c5be1e5ebec7d5bd14f71427d1e84f3dd0314c0f7b2291e5b200ac8c7c3b92560405160405180910390a45050565b6000818152600260205260408120546001600160a01b03166109de5760405162461bcd60e51b815260206004820152602c60248201527f4552433732313a206f70657261746f7220717565727920666f72206e6f6e657860448201526b34b9ba32b73a103a37b5b2b760a11b60648201526084016103cd565b60006109e983610554565b9050806001600160a01b0316846001600160a01b03161480610a3057506001600160a01b0380821660009081526005602090815260408083209388168352929052205460ff165b80610a545750836001600160a01b0316610a4984610358565b6001600160a01b0316145b949350505050565b826001600160a01b0316610a6f82610554565b6001600160a01b031614610ad35760405162461bcd60e51b815260206004820152602560248201527f4552433732313a207472616e736665722066726f6d20696e636f72726563742060448201526437bbb732b960d91b60648201526084016103cd565b6001600160a01b038216610b355760405162461bcd60e51b8152602060048201526024808201527f4552433732313a207472616e7366657220746f20746865207a65726f206164646044820152637265737360e01b60648201526084016103cd565b610b406000826108f7565b6001600160a01b0383166000908152600360205260408120805460019290610b6990849061154a565b90915550506001600160a01b0382166000908152600360205260408120805460019290610b97908490611561565b909155505060008181526002602052604080822080546001600160a01b0319166001600160a01b0386811691821790925591518493918716917fddf252ad1be2c89b69c2b068fc378daa952ba7f163c4a11628f55a4df523b3ef91a4505050565b6001600160a01b038216610c4e5760405162461bcd60e51b815260206004820181905260248201527f4552433732313a206d696e7420746f20746865207a65726f206164647265737360448201526064016103cd565b6000818152600260205260409020546001600160a01b031615610cb35760405162461bcd60e51b815260206004820152601c60248201527f4552433732313a20746f6b656e20616c7265616479206d696e7465640000000060448201526064016103cd565b6001600160a01b0382166000908152600360205260408120805460019290610cdc908490611561565b909155505060008181526002602052604080822080546001600160a01b0319166001600160a01b03861690811790915590518392907fddf252ad1be2c89b69c2b068fc378daa952ba7f163c4a11628f55a4df523b3ef908290a45050565b816001600160a01b0316836001600160a01b03161415610d9c5760405162461bcd60e51b815260206004820152601960248201527f4552433732313a20617070726f766520746f2063616c6c65720000000000000060448201526064016103cd565b6001600160a01b03838116600081815260056020908152604080832094871680845294825291829020805460ff191686151590811790915591519182527f17307eab39ab6107e8899845ad3d59bd9653f200f220920489ca2b5937696c31910160405180910390a3505050565b610e14848484610a5c565b610e2084848484610f3a565b6107595760405162461bcd60e51b81526004016103cd90611579565b606081610e605750506040805180820190915260018152600360fc1b602082015290565b8160005b8115610e8a5780610e7481611500565b9150610e839050600a836115e1565b9150610e64565b60008167ffffffffffffffff811115610ea557610ea5611228565b6040519080825280601f01601f191660200182016040528015610ecf576020820181803683370190505b5090505b8415610a5457610ee460018361154a565b9150610ef1600a866115f5565b610efc906030611561565b60f81b818381518110610f1157610f11611609565b60200101906001600160f81b031916908160001a905350610f33600a866115e1565b9450610ed3565b60006001600160a01b0384163b1561102d57604051630a85bd0160e11b81526001600160a01b0385169063150b7a0290610f7e90339089908890889060040161161f565b6020604051808303816000875af1925050508015610fb9575060408051601f3d908101601f19168201909252610fb69181019061165c565b60015b611013573d808015610fe7576040519150601f19603f3d011682016040523d82523d6000602084013e610fec565b606091505b50805161100b5760405162461bcd60e51b81526004016103cd90611579565b805181602001fd5b6001600160e01b031916630a85bd0160e11b149050610a54565b506001949350505050565b82805461104490611442565b90600052602060002090601f01602090048101928261106657600085556110ac565b82601f1061107f57805160ff19168380011785556110ac565b828001600101855582156110ac579182015b828111156110ac578251825591602001919060010190611091565b506110b89291506110bc565b5090565b5b808211156110b857600081556001016110bd565b6001600160e01b0319811681146110e757600080fd5b50565b6000602082840312156110fc57600080fd5b8135610840816110d1565b60005b8381101561112257818101518382015260200161110a565b838111156107595750506000910152565b6000815180845261114b816020860160208601611107565b601f01601f19169290920160200192915050565b6020815260006108406020830184611133565b60006020828403121561118457600080fd5b5035919050565b80356001600160a01b03811681146111a257600080fd5b919050565b600080604083850312156111ba57600080fd5b6111c38361118b565b946020939093013593505050565b6000806000606084860312156111e657600080fd5b6111ef8461118b565b92506111fd6020850161118b565b9150604084013590509250925092565b60006020828403121561121f57600080fd5b6108408261118b565b634e487b7160e01b600052604160045260246000fd5b600067ffffffffffffffff8084111561125957611259611228565b604051601f8501601f19908116603f0116810190828211818310171561128157611281611228565b8160405280935085815286868601111561129a57600080fd5b858560208301376000602087830101525050509392505050565b600082601f8301126112c557600080fd5b6108408383356020850161123e565b600080604083850312156112e757600080fd5b6112f08361118b565b9150602083013567ffffffffffffffff81111561130c57600080fd5b611318858286016112b4565b9150509250929050565b6000806040838503121561133557600080fd5b61133e8361118b565b91506020830135801515811461135357600080fd5b809150509250929050565b6000806000806080858703121561137457600080fd5b61137d8561118b565b935061138b6020860161118b565b925060408501359150606085013567ffffffffffffffff8111156113ae57600080fd5b8501601f810187136113bf57600080fd5b6113ce8782356020840161123e565b91505092959194509250565b6000602082840312156113ec57600080fd5b813567ffffffffffffffff81111561140357600080fd5b610a54848285016112b4565b6000806040838503121561142257600080fd5b61142b8361118b565b91506114396020840161118b565b90509250929050565b600181811c9082168061145657607f821691505b6020821081141561147757634e487b7160e01b600052602260045260246000fd5b50919050565b60208082526031908201527f4552433732313a207472616e736665722063616c6c6572206973206e6f74206f6040820152701ddb995c881b9bdc88185c1c1c9bdd9959607a1b606082015260800190565b600082516114e0818460208701611107565b9190910192915050565b634e487b7160e01b600052601160045260246000fd5b6000600019821415611514576115146114ea565b5060010190565b6000835161152d818460208801611107565b835190830190611541818360208801611107565b01949350505050565b60008282101561155c5761155c6114ea565b500390565b60008219821115611574576115746114ea565b500190565b60208082526032908201527f4552433732313a207472616e7366657220746f206e6f6e20455243373231526560408201527131b2b4bb32b91034b6b83632b6b2b73a32b960711b606082015260800190565b634e487b7160e01b600052601260045260246000fd5b6000826115f0576115f06115cb565b500490565b600082611604576116046115cb565b500690565b634e487b7160e01b600052603260045260246000fd5b6001600160a01b038581168252841660208201526040810183905260806060820181905260009061165290830184611133565b9695505050505050565b60006020828403121561166e57600080fd5b8151610840816110d156fea26469706673582212206b0fc98ba77f56a30a8891c437ae7fa47f1ce68c0bddefb5f62c353d14fb4ced64736f6c634300080b0033",
  "immutableReferences": {},
  "source": "// SPDX-License-Identifier: MIT\r\npragma solidity ^0.8.4;\r\n\r\nimport \"@openzeppelin/contracts/token/ERC721/ERC721.sol\";\r\n\r\ncontract TVATOKEN is ERC721 {\r\n    mapping(string => string) _botellas_ids;\r\n    mapping(string => bool) _botellaExiste;\r\n    uint256 contador = 0;\r\n\r\n    constructor() ERC721(\"VINO\", \"TVANFT\") {}\r\n\r\n    function crearBotella(address cuenta, string memory _hash) public {\r\n        require(!_botellaExiste[_hash]);\r\n        _mint(cuenta, contador);\r\n        _botellas_ids[_hash] = _hash;\r\n        _botellaExiste[_hash] = true;\r\n        contador++;\r\n    }\r\n\r\n    function encontrarBotella(string memory _hash)\r\n        public\r\n        view\r\n        returns (string memory)\r\n    {\r\n        return _botellas_ids[_hash];\r\n    }\r\n}\r\n",
  "sourcePath": "E:\\UNL\\CICLO X\\vinos-blockchain\\contracts\\TVAToken.sol",
  "compiler": {
    "name": "solc",
    "version": "0.8.11+commit.d7f03943.Emscripten.clang"
  },
  "schemaVersion": "3.4.4",
  "updatedAt": "2022-07-20T00:17:32.932Z",
  "networkType": "ethereum",
  "devdoc": {
    "kind": "dev",
    "methods": {
      "approve(address,uint256)": {
        "details": "See {IERC721-approve}."
      },
      "balanceOf(address)": {
        "details": "See {IERC721-balanceOf}."
      },
      "getApproved(uint256)": {
        "details": "See {IERC721-getApproved}."
      },
      "isApprovedForAll(address,address)": {
        "details": "See {IERC721-isApprovedForAll}."
      },
      "name()": {
        "details": "See {IERC721Metadata-name}."
      },
      "ownerOf(uint256)": {
        "details": "See {IERC721-ownerOf}."
      },
      "safeTransferFrom(address,address,uint256)": {
        "details": "See {IERC721-safeTransferFrom}."
      },
      "safeTransferFrom(address,address,uint256,bytes)": {
        "details": "See {IERC721-safeTransferFrom}."
      },
      "setApprovalForAll(address,bool)": {
        "details": "See {IERC721-setApprovalForAll}."
      },
      "supportsInterface(bytes4)": {
        "details": "See {IERC165-supportsInterface}."
      },
      "symbol()": {
        "details": "See {IERC721Metadata-symbol}."
      },
      "tokenURI(uint256)": {
        "details": "See {IERC721Metadata-tokenURI}."
      },
      "transferFrom(address,address,uint256)": {
        "details": "See {IERC721-transferFrom}."
      }
    },
    "version": 1
  },
  "userdoc": {
    "kind": "user",
    "methods": {},
    "version": 1
  }
}