{
  "contractName": "TVAToken",
  "abi": [
    {
      "inputs": [],
      "stateMutability": "nonpayable",
      "type": "constructor"
    },
    {
      "anonymous": false,
      "inputs": [
        {
          "indexed": true,
          "internalType": "address",
          "name": "owner",
          "type": "address"
        },
        {
          "indexed": true,
          "internalType": "address",
          "name": "approved",
          "type": "address"
        },
        {
          "indexed": true,
          "internalType": "uint256",
          "name": "tokenId",
          "type": "uint256"
        }
      ],
      "name": "Approval",
      "type": "event"
    },
    {
      "anonymous": false,
      "inputs": [
        {
          "indexed": true,
          "internalType": "address",
          "name": "owner",
          "type": "address"
        },
        {
          "indexed": true,
          "internalType": "address",
          "name": "operator",
          "type": "address"
        },
        {
          "indexed": false,
          "internalType": "bool",
          "name": "approved",
          "type": "bool"
        }
      ],
      "name": "ApprovalForAll",
      "type": "event"
    },
    {
      "anonymous": false,
      "inputs": [
        {
          "indexed": true,
          "internalType": "address",
          "name": "from",
          "type": "address"
        },
        {
          "indexed": true,
          "internalType": "address",
          "name": "to",
          "type": "address"
        },
        {
          "indexed": true,
          "internalType": "uint256",
          "name": "tokenId",
          "type": "uint256"
        }
      ],
      "name": "Transfer",
      "type": "event"
    },
    {
      "inputs": [
        {
          "internalType": "address",
          "name": "to",
          "type": "address"
        },
        {
          "internalType": "uint256",
          "name": "tokenId",
          "type": "uint256"
        }
      ],
      "name": "approve",
      "outputs": [],
      "stateMutability": "nonpayable",
      "type": "function"
    },
    {
      "inputs": [
        {
          "internalType": "address",
          "name": "owner",
          "type": "address"
        }
      ],
      "name": "balanceOf",
      "outputs": [
        {
          "internalType": "uint256",
          "name": "",
          "type": "uint256"
        }
      ],
      "stateMutability": "view",
      "type": "function"
    },
    {
      "inputs": [
        {
          "internalType": "uint256",
          "name": "tokenId",
          "type": "uint256"
        }
      ],
      "name": "getApproved",
      "outputs": [
        {
          "internalType": "address",
          "name": "",
          "type": "address"
        }
      ],
      "stateMutability": "view",
      "type": "function"
    },
    {
      "inputs": [
        {
          "internalType": "address",
          "name": "owner",
          "type": "address"
        },
        {
          "internalType": "address",
          "name": "operator",
          "type": "address"
        }
      ],
      "name": "isApprovedForAll",
      "outputs": [
        {
          "internalType": "bool",
          "name": "",
          "type": "bool"
        }
      ],
      "stateMutability": "view",
      "type": "function"
    },
    {
      "inputs": [],
      "name": "name",
      "outputs": [
        {
          "internalType": "string",
          "name": "",
          "type": "string"
        }
      ],
      "stateMutability": "view",
      "type": "function"
    },
    {
      "inputs": [
        {
          "internalType": "uint256",
          "name": "tokenId",
          "type": "uint256"
        }
      ],
      "name": "ownerOf",
      "outputs": [
        {
          "internalType": "address",
          "name": "",
          "type": "address"
        }
      ],
      "stateMutability": "view",
      "type": "function"
    },
    {
      "inputs": [
        {
          "internalType": "address",
          "name": "from",
          "type": "address"
        },
        {
          "internalType": "address",
          "name": "to",
          "type": "address"
        },
        {
          "internalType": "uint256",
          "name": "tokenId",
          "type": "uint256"
        }
      ],
      "name": "safeTransferFrom",
      "outputs": [],
      "stateMutability": "nonpayable",
      "type": "function"
    },
    {
      "inputs": [
        {
          "internalType": "address",
          "name": "from",
          "type": "address"
        },
        {
          "internalType": "address",
          "name": "to",
          "type": "address"
        },
        {
          "internalType": "uint256",
          "name": "tokenId",
          "type": "uint256"
        },
        {
          "internalType": "bytes",
          "name": "data",
          "type": "bytes"
        }
      ],
      "name": "safeTransferFrom",
      "outputs": [],
      "stateMutability": "nonpayable",
      "type": "function"
    },
    {
      "inputs": [
        {
          "internalType": "address",
          "name": "operator",
          "type": "address"
        },
        {
          "internalType": "bool",
          "name": "approved",
          "type": "bool"
        }
      ],
      "name": "setApprovalForAll",
      "outputs": [],
      "stateMutability": "nonpayable",
      "type": "function"
    },
    {
      "inputs": [
        {
          "internalType": "bytes4",
          "name": "interfaceId",
          "type": "bytes4"
        }
      ],
      "name": "supportsInterface",
      "outputs": [
        {
          "internalType": "bool",
          "name": "",
          "type": "bool"
        }
      ],
      "stateMutability": "view",
      "type": "function"
    },
    {
      "inputs": [],
      "name": "symbol",
      "outputs": [
        {
          "internalType": "string",
          "name": "",
          "type": "string"
        }
      ],
      "stateMutability": "view",
      "type": "function"
    },
    {
      "inputs": [
        {
          "internalType": "uint256",
          "name": "tokenId",
          "type": "uint256"
        }
      ],
      "name": "tokenURI",
      "outputs": [
        {
          "internalType": "string",
          "name": "",
          "type": "string"
        }
      ],
      "stateMutability": "view",
      "type": "function"
    },
    {
      "inputs": [
        {
          "internalType": "address",
          "name": "from",
          "type": "address"
        },
        {
          "internalType": "address",
          "name": "to",
          "type": "address"
        },
        {
          "internalType": "uint256",
          "name": "tokenId",
          "type": "uint256"
        }
      ],
      "name": "transferFrom",
      "outputs": [],
      "stateMutability": "nonpayable",
      "type": "function"
    },
    {
      "inputs": [
        {
          "internalType": "address",
          "name": "cuenta",
          "type": "address"
        },
        {
          "internalType": "string",
          "name": "_hash",
          "type": "string"
        }
      ],
      "name": "crearBotella",
      "outputs": [],
      "stateMutability": "nonpayable",
      "type": "function"
    },
    {
      "inputs": [
        {
          "internalType": "string",
          "name": "_hash",
          "type": "string"
        }
      ],
      "name": "encontrarBotella",
      "outputs": [
        {
          "internalType": "bool",
          "name": "",
          "type": "bool"
        }
      ],
      "stateMutability": "view",
      "type": "function"
    },
    {
      "inputs": [
        {
          "internalType": "address",
          "name": "to",
          "type": "address"
        },
        {
          "internalType": "uint256",
          "name": "tokenId",
          "type": "uint256"
        }
      ],
      "name": "asignarBotella",
      "outputs": [],
      "stateMutability": "nonpayable",
      "type": "function"
    }
  ],
  "bytecode": "0x608060405260006007553480156200001657600080fd5b50604080518082018252600481526356494e4f60e01b60208083019182528351808501909452600684526515159053919560d21b908401528151919291620000619160009162000080565b5080516200007790600190602084019062000080565b50505062000163565b8280546200008e9062000126565b90600052602060002090601f016020900481019282620000b25760008555620000fd565b82601f10620000cd57805160ff1916838001178555620000fd565b82800160010185558215620000fd579182015b82811115620000fd578251825591602001919060010190620000e0565b506200010b9291506200010f565b5090565b5b808211156200010b576000815560010162000110565b600181811c908216806200013b57607f821691505b602082108114156200015d57634e487b7160e01b600052602260045260246000fd5b50919050565b6114b280620001736000396000f3fe608060405234801561001057600080fd5b50600436106101005760003560e01c806395d89b4111610097578063c87b56dd11610066578063c87b56dd1461021d578063d65d8b7c14610230578063e985e9c514610243578063f7661aaa1461027f57600080fd5b806395d89b41146101dc5780639d1c38d1146101e4578063a22cb465146101f7578063b88d4fde1461020a57600080fd5b806323b872dd116100d357806323b872dd1461018257806342842e0e146101955780636352211e146101a857806370a08231146101bb57600080fd5b806301ffc9a71461010557806306fdde031461012d578063081812fc14610142578063095ea7b31461016d575b600080fd5b610118610113366004610f37565b610292565b60405190151581526020015b60405180910390f35b6101356102e4565b6040516101249190610fac565b610155610150366004610fbf565b610376565b6040516001600160a01b039091168152602001610124565b61018061017b366004610ff4565b61039d565b005b61018061019036600461101e565b6104b8565b6101806101a336600461101e565b6104e9565b6101556101b6366004610fbf565b610504565b6101ce6101c936600461105a565b610564565b604051908152602001610124565b6101356105ea565b6101806101f2366004611121565b6105f9565b61018061020536600461116f565b61067d565b6101806102183660046111ab565b61068c565b61013561022b366004610fbf565b6106c4565b61011861023e366004611227565b610738565b61011861025136600461125c565b6001600160a01b03918216600090815260056020908152604080832093909416825291909152205460ff1690565b61018061028d366004610ff4565b610763565b60006001600160e01b031982166380ac58cd60e01b14806102c357506001600160e01b03198216635b5e139f60e01b145b806102de57506301ffc9a760e01b6001600160e01b03198316145b92915050565b6060600080546102f39061128f565b80601f016020809104026020016040519081016040528092919081815260200182805461031f9061128f565b801561036c5780601f106103415761010080835404028352916020019161036c565b820191906000526020600020905b81548152906001019060200180831161034f57829003601f168201915b5050505050905090565b60006103818261076e565b506000908152600460205260409020546001600160a01b031690565b60006103a882610504565b9050806001600160a01b0316836001600160a01b0316141561041b5760405162461bcd60e51b815260206004820152602160248201527f4552433732313a20617070726f76616c20746f2063757272656e74206f776e656044820152603960f91b60648201526084015b60405180910390fd5b336001600160a01b038216148061043757506104378133610251565b6104a95760405162461bcd60e51b815260206004820152603d60248201527f4552433732313a20617070726f76652063616c6c6572206973206e6f7420746f60448201527f6b656e206f776e6572206f7220617070726f76656420666f7220616c6c0000006064820152608401610412565b6104b383836107d0565b505050565b6104c2338261083e565b6104de5760405162461bcd60e51b8152600401610412906112ca565b6104b38383836108bd565b6104b38383836040518060200160405280600081525061068c565b6000818152600260205260408120546001600160a01b0316806102de5760405162461bcd60e51b8152602060048201526018602482015277115490cdcc8c4e881a5b9d985b1a59081d1bdad95b88125160421b6044820152606401610412565b60006001600160a01b0382166105ce5760405162461bcd60e51b815260206004820152602960248201527f4552433732313a2061646472657373207a65726f206973206e6f7420612076616044820152683634b21037bbb732b960b91b6064820152608401610412565b506001600160a01b031660009081526003602052604090205490565b6060600180546102f39061128f565b6006816040516106099190611317565b9081526040519081900360200190205460ff161561062657600080fd5b61063282600754610a21565b60016006826040516106449190611317565b908152604051908190036020019020805491151560ff199092169190911790556007805490600061067483611333565b91905055505050565b610688338383610bac565b5050565b610696338361083e565b6106b25760405162461bcd60e51b8152600401610412906112ca565b6106be84848484610c7b565b50505050565b60606106cf8261076e565b60006106e660408051602081019091526000815290565b905060008151116107065760405180602001604052806000815250610731565b8061071084610cae565b60405160200161072192919061135c565b6040516020818303038152906040525b9392505050565b600060068260405161074a9190611317565b9081526040519081900360200190205460ff1692915050565b6106883383836108bd565b6000818152600260205260409020546001600160a01b03166107cd5760405162461bcd60e51b8152602060048201526018602482015277115490cdcc8c4e881a5b9d985b1a59081d1bdad95b88125160421b6044820152606401610412565b50565b600081815260046020526040902080546001600160a01b0319166001600160a01b038416908117909155819061080582610504565b6001600160a01b03167f8c5be1e5ebec7d5bd14f71427d1e84f3dd0314c0f7b2291e5b200ac8c7c3b92560405160405180910390a45050565b60008061084a83610504565b9050806001600160a01b0316846001600160a01b0316148061089157506001600160a01b0380821660009081526005602090815260408083209388168352929052205460ff165b806108b55750836001600160a01b03166108aa84610376565b6001600160a01b0316145b949350505050565b826001600160a01b03166108d082610504565b6001600160a01b0316146108f65760405162461bcd60e51b81526004016104129061138b565b6001600160a01b0382166109585760405162461bcd60e51b8152602060048201526024808201527f4552433732313a207472616e7366657220746f20746865207a65726f206164646044820152637265737360e01b6064820152608401610412565b826001600160a01b031661096b82610504565b6001600160a01b0316146109915760405162461bcd60e51b81526004016104129061138b565b600081815260046020908152604080832080546001600160a01b03199081169091556001600160a01b0387811680865260038552838620805460001901905590871680865283862080546001019055868652600290945282852080549092168417909155905184937fddf252ad1be2c89b69c2b068fc378daa952ba7f163c4a11628f55a4df523b3ef91a4505050565b6001600160a01b038216610a775760405162461bcd60e51b815260206004820181905260248201527f4552433732313a206d696e7420746f20746865207a65726f20616464726573736044820152606401610412565b6000818152600260205260409020546001600160a01b031615610adc5760405162461bcd60e51b815260206004820152601c60248201527f4552433732313a20746f6b656e20616c7265616479206d696e746564000000006044820152606401610412565b6000818152600260205260409020546001600160a01b031615610b415760405162461bcd60e51b815260206004820152601c60248201527f4552433732313a20746f6b656e20616c7265616479206d696e746564000000006044820152606401610412565b6001600160a01b038216600081815260036020908152604080832080546001019055848352600290915280822080546001600160a01b0319168417905551839291907fddf252ad1be2c89b69c2b068fc378daa952ba7f163c4a11628f55a4df523b3ef908290a45050565b816001600160a01b0316836001600160a01b03161415610c0e5760405162461bcd60e51b815260206004820152601960248201527f4552433732313a20617070726f766520746f2063616c6c6572000000000000006044820152606401610412565b6001600160a01b03838116600081815260056020908152604080832094871680845294825291829020805460ff191686151590811790915591519182527f17307eab39ab6107e8899845ad3d59bd9653f200f220920489ca2b5937696c31910160405180910390a3505050565b610c868484846108bd565b610c9284848484610d4b565b6106be5760405162461bcd60e51b8152600401610412906113d0565b60606000610cbb83610e49565b600101905060008167ffffffffffffffff811115610cdb57610cdb611075565b6040519080825280601f01601f191660200182016040528015610d05576020820181803683370190505b5090508181016020015b600019016f181899199a1a9b1b9c1cb0b131b232b360811b600a86061a8153600a8504945084610d3e57610d43565b610d0f565b509392505050565b60006001600160a01b0384163b15610e3e57604051630a85bd0160e11b81526001600160a01b0385169063150b7a0290610d8f903390899088908890600401611422565b6020604051808303816000875af1925050508015610dca575060408051601f3d908101601f19168201909252610dc79181019061145f565b60015b610e24573d808015610df8576040519150601f19603f3d011682016040523d82523d6000602084013e610dfd565b606091505b508051610e1c5760405162461bcd60e51b8152600401610412906113d0565b805181602001fd5b6001600160e01b031916630a85bd0160e11b1490506108b5565b506001949350505050565b60008072184f03e93ff9f4daa797ed6e38ed64bf6a1f0160401b8310610e885772184f03e93ff9f4daa797ed6e38ed64bf6a1f0160401b830492506040015b6d04ee2d6d415b85acef81000000008310610eb4576d04ee2d6d415b85acef8100000000830492506020015b662386f26fc100008310610ed257662386f26fc10000830492506010015b6305f5e1008310610eea576305f5e100830492506008015b6127108310610efe57612710830492506004015b60648310610f10576064830492506002015b600a83106102de5760010192915050565b6001600160e01b0319811681146107cd57600080fd5b600060208284031215610f4957600080fd5b813561073181610f21565b60005b83811015610f6f578181015183820152602001610f57565b838111156106be5750506000910152565b60008151808452610f98816020860160208601610f54565b601f01601f19169290920160200192915050565b6020815260006107316020830184610f80565b600060208284031215610fd157600080fd5b5035919050565b80356001600160a01b0381168114610fef57600080fd5b919050565b6000806040838503121561100757600080fd5b61101083610fd8565b946020939093013593505050565b60008060006060848603121561103357600080fd5b61103c84610fd8565b925061104a60208501610fd8565b9150604084013590509250925092565b60006020828403121561106c57600080fd5b61073182610fd8565b634e487b7160e01b600052604160045260246000fd5b600067ffffffffffffffff808411156110a6576110a6611075565b604051601f8501601f19908116603f011681019082821181831017156110ce576110ce611075565b816040528093508581528686860111156110e757600080fd5b858560208301376000602087830101525050509392505050565b600082601f83011261111257600080fd5b6107318383356020850161108b565b6000806040838503121561113457600080fd5b61113d83610fd8565b9150602083013567ffffffffffffffff81111561115957600080fd5b61116585828601611101565b9150509250929050565b6000806040838503121561118257600080fd5b61118b83610fd8565b9150602083013580151581146111a057600080fd5b809150509250929050565b600080600080608085870312156111c157600080fd5b6111ca85610fd8565b93506111d860208601610fd8565b925060408501359150606085013567ffffffffffffffff8111156111fb57600080fd5b8501601f8101871361120c57600080fd5b61121b8782356020840161108b565b91505092959194509250565b60006020828403121561123957600080fd5b813567ffffffffffffffff81111561125057600080fd5b6108b584828501611101565b6000806040838503121561126f57600080fd5b61127883610fd8565b915061128660208401610fd8565b90509250929050565b600181811c908216806112a357607f821691505b602082108114156112c457634e487b7160e01b600052602260045260246000fd5b50919050565b6020808252602d908201527f4552433732313a2063616c6c6572206973206e6f7420746f6b656e206f776e6560408201526c1c881bdc88185c1c1c9bdd9959609a1b606082015260800190565b60008251611329818460208701610f54565b9190910192915050565b600060001982141561135557634e487b7160e01b600052601160045260246000fd5b5060010190565b6000835161136e818460208801610f54565b835190830190611382818360208801610f54565b01949350505050565b60208082526025908201527f4552433732313a207472616e736665722066726f6d20696e636f72726563742060408201526437bbb732b960d91b606082015260800190565b60208082526032908201527f4552433732313a207472616e7366657220746f206e6f6e20455243373231526560408201527131b2b4bb32b91034b6b83632b6b2b73a32b960711b606082015260800190565b6001600160a01b038581168252841660208201526040810183905260806060820181905260009061145590830184610f80565b9695505050505050565b60006020828403121561147157600080fd5b815161073181610f2156fea2646970667358221220fed70bed2797b4365d6bdf2be0fc3d3658d0e0737eb55d02b814b0f0654adcc664736f6c634300080b0033",
  "immutableReferences": {},
  "source": "// SPDX-License-Identifier: MIT\r\npragma solidity ^0.8.4;\r\n\r\nimport \"@openzeppelin/contracts/token/ERC721/ERC721.sol\";\r\n\r\ncontract TVAToken is ERC721 {\r\n    mapping(string => bool) _botellaExiste;\r\n    uint256 contador = 0;\r\n\r\n    constructor() ERC721(\"VINO\", \"TVANFT\") {}\r\n\r\n    function crearBotella(address cuenta, string memory _hash) public {\r\n        require(!_botellaExiste[_hash]);\r\n        _mint(cuenta, contador);\r\n        _botellaExiste[_hash] = true;\r\n        contador++;\r\n    }\r\n\r\n    function encontrarBotella(string memory _hash) public view returns (bool) {\r\n        return _botellaExiste[_hash];\r\n    }\r\n\r\n    function asignarBotella(address to, uint256 tokenId) public {\r\n        _transfer(msg.sender, to, tokenId);\r\n    }\r\n}\r\n",
  "sourcePath": "C:\\Users\\cnarvaez\\Desktop\\tmp\\trazabilidad_vinos\\vinos-blockchain\\contracts\\TVAToken.sol",
  "compiler": {
    "name": "solc",
    "version": "0.8.11+commit.d7f03943.Emscripten.clang"
  },
  "schemaVersion": "3.4.16",
  "updatedAt": "2026-04-25T16:04:52.788Z",
  "devdoc": {
    "kind": "dev",
    "methods": {
      "approve(address,uint256)": {
        "details": "See {IERC721-approve}."
      },
      "balanceOf(address)": {
        "details": "See {IERC721-balanceOf}."
      },
      "getApproved(uint256)": {
        "details": "See {IERC721-getApproved}."
      },
      "isApprovedForAll(address,address)": {
        "details": "See {IERC721-isApprovedForAll}."
      },
      "name()": {
        "details": "See {IERC721Metadata-name}."
      },
      "ownerOf(uint256)": {
        "details": "See {IERC721-ownerOf}."
      },
      "safeTransferFrom(address,address,uint256)": {
        "details": "See {IERC721-safeTransferFrom}."
      },
      "safeTransferFrom(address,address,uint256,bytes)": {
        "details": "See {IERC721-safeTransferFrom}."
      },
      "setApprovalForAll(address,bool)": {
        "details": "See {IERC721-setApprovalForAll}."
      },
      "supportsInterface(bytes4)": {
        "details": "See {IERC165-supportsInterface}."
      },
      "symbol()": {
        "details": "See {IERC721Metadata-symbol}."
      },
      "tokenURI(uint256)": {
        "details": "See {IERC721Metadata-tokenURI}."
      },
      "transferFrom(address,address,uint256)": {
        "details": "See {IERC721-transferFrom}."
      }
    },
    "version": 1
  },
  "userdoc": {
    "kind": "user",
    "methods": {},
    "version": 1
  }
}