{
  "contractName": "TVAToken",
  "abi": [
    {
      "inputs": [],
      "stateMutability": "nonpayable",
      "type": "constructor"
    },
    {
      "anonymous": false,
      "inputs": [
        {
          "indexed": true,
          "internalType": "address",
          "name": "owner",
          "type": "address"
        },
        {
          "indexed": true,
          "internalType": "address",
          "name": "spender",
          "type": "address"
        },
        {
          "indexed": false,
          "internalType": "uint256",
          "name": "value",
          "type": "uint256"
        }
      ],
      "name": "Approval",
      "type": "event"
    },
    {
      "anonymous": false,
      "inputs": [
        {
          "indexed": true,
          "internalType": "address",
          "name": "from",
          "type": "address"
        },
        {
          "indexed": true,
          "internalType": "address",
          "name": "to",
          "type": "address"
        },
        {
          "indexed": false,
          "internalType": "uint256",
          "name": "value",
          "type": "uint256"
        }
      ],
      "name": "Transfer",
      "type": "event"
    },
    {
      "inputs": [
        {
          "internalType": "address",
          "name": "owner",
          "type": "address"
        },
        {
          "internalType": "address",
          "name": "spender",
          "type": "address"
        }
      ],
      "name": "allowance",
      "outputs": [
        {
          "internalType": "uint256",
          "name": "",
          "type": "uint256"
        }
      ],
      "stateMutability": "view",
      "type": "function",
      "constant": true
    },
    {
      "inputs": [
        {
          "internalType": "address",
          "name": "spender",
          "type": "address"
        },
        {
          "internalType": "uint256",
          "name": "amount",
          "type": "uint256"
        }
      ],
      "name": "approve",
      "outputs": [
        {
          "internalType": "bool",
          "name": "",
          "type": "bool"
        }
      ],
      "stateMutability": "nonpayable",
      "type": "function"
    },
    {
      "inputs": [
        {
          "internalType": "address",
          "name": "account",
          "type": "address"
        }
      ],
      "name": "balanceOf",
      "outputs": [
        {
          "internalType": "uint256",
          "name": "",
          "type": "uint256"
        }
      ],
      "stateMutability": "view",
      "type": "function",
      "constant": true
    },
    {
      "inputs": [],
      "name": "decimals",
      "outputs": [
        {
          "internalType": "uint8",
          "name": "",
          "type": "uint8"
        }
      ],
      "stateMutability": "view",
      "type": "function",
      "constant": true
    },
    {
      "inputs": [
        {
          "internalType": "address",
          "name": "spender",
          "type": "address"
        },
        {
          "internalType": "uint256",
          "name": "subtractedValue",
          "type": "uint256"
        }
      ],
      "name": "decreaseAllowance",
      "outputs": [
        {
          "internalType": "bool",
          "name": "",
          "type": "bool"
        }
      ],
      "stateMutability": "nonpayable",
      "type": "function"
    },
    {
      "inputs": [
        {
          "internalType": "address",
          "name": "spender",
          "type": "address"
        },
        {
          "internalType": "uint256",
          "name": "addedValue",
          "type": "uint256"
        }
      ],
      "name": "increaseAllowance",
      "outputs": [
        {
          "internalType": "bool",
          "name": "",
          "type": "bool"
        }
      ],
      "stateMutability": "nonpayable",
      "type": "function"
    },
    {
      "inputs": [],
      "name": "name",
      "outputs": [
        {
          "internalType": "string",
          "name": "",
          "type": "string"
        }
      ],
      "stateMutability": "view",
      "type": "function",
      "constant": true
    },
    {
      "inputs": [],
      "name": "symbol",
      "outputs": [
        {
          "internalType": "string",
          "name": "",
          "type": "string"
        }
      ],
      "stateMutability": "view",
      "type": "function",
      "constant": true
    },
    {
      "inputs": [],
      "name": "totalSupply",
      "outputs": [
        {
          "internalType": "uint256",
          "name": "",
          "type": "uint256"
        }
      ],
      "stateMutability": "view",
      "type": "function",
      "constant": true
    },
    {
      "inputs": [
        {
          "internalType": "address",
          "name": "to",
          "type": "address"
        },
        {
          "internalType": "uint256",
          "name": "amount",
          "type": "uint256"
        }
      ],
      "name": "transfer",
      "outputs": [
        {
          "internalType": "bool",
          "name": "",
          "type": "bool"
        }
      ],
      "stateMutability": "nonpayable",
      "type": "function"
    },
    {
      "inputs": [
        {
          "internalType": "address",
          "name": "from",
          "type": "address"
        },
        {
          "internalType": "address",
          "name": "to",
          "type": "address"
        },
        {
          "internalType": "uint256",
          "name": "amount",
          "type": "uint256"
        }
      ],
      "name": "transferFrom",
      "outputs": [
        {
          "internalType": "bool",
          "name": "",
          "type": "bool"
        }
      ],
      "stateMutability": "nonpayable",
      "type": "function"
    },
    {
      "inputs": [
        {
          "internalType": "bytes32",
          "name": "_hash",
          "type": "bytes32"
        }
      ],
      "name": "encontrarBotellaVendida",
      "outputs": [
        {
          "internalType": "bool",
          "name": "",
          "type": "bool"
        }
      ],
      "stateMutability": "view",
      "type": "function",
      "constant": true
    },
    {
      "inputs": [
        {
          "internalType": "bytes32",
          "name": "_hash",
          "type": "bytes32"
        }
      ],
      "name": "enviarToken",
      "outputs": [],
      "stateMutability": "nonpayable",
      "type": "function"
    }
  ],
  "bytecode": "0x60806040523480156200001157600080fd5b50604051806040016040528060098152602001682a2b20902a37b5b2b760b91b8152506040518060400160405280600381526020016254564160e81b8152508160039080519060200190620000689291906200019d565b5080516200007e9060049060208401906200019d565b5050506200009d3369152d02c7e14af6800000620000b560201b60201c565b600580546001600160a01b03191633179055620002a7565b6001600160a01b038216620001105760405162461bcd60e51b815260206004820152601f60248201527f45524332303a206d696e7420746f20746865207a65726f206164647265737300604482015260640160405180910390fd5b806002600082825462000124919062000243565b90915550506001600160a01b038216600090815260208190526040812080548392906200015390849062000243565b90915550506040518181526001600160a01b038316906000907fddf252ad1be2c89b69c2b068fc378daa952ba7f163c4a11628f55a4df523b3ef9060200160405180910390a35050565b828054620001ab906200026a565b90600052602060002090601f016020900481019282620001cf57600085556200021a565b82601f10620001ea57805160ff19168380011785556200021a565b828001600101855582156200021a579182015b828111156200021a578251825591602001919060010190620001fd565b50620002289291506200022c565b5090565b5b808211156200022857600081556001016200022d565b600082198211156200026557634e487b7160e01b600052601160045260246000fd5b500190565b600181811c908216806200027f57607f821691505b60208210811415620002a157634e487b7160e01b600052602260045260246000fd5b50919050565b610b1280620002b76000396000f3fe608060405234801561001057600080fd5b50600436106100cf5760003560e01c806370a082311161008c578063a9059cbb11610066578063a9059cbb146101a0578063ced3ce60146101b3578063d951b487146101c8578063dd62ed3e146101db57600080fd5b806370a082311461015c57806395d89b4114610185578063a457c2d71461018d57600080fd5b806306fdde03146100d4578063095ea7b3146100f257806318160ddd1461011557806323b872dd14610127578063313ce5671461013a5780633950935114610149575b600080fd5b6100dc6101ee565b6040516100e991906108fd565b60405180910390f35b61010561010036600461096e565b610280565b60405190151581526020016100e9565b6002545b6040519081526020016100e9565b610105610135366004610998565b610298565b604051601281526020016100e9565b61010561015736600461096e565b6102bc565b61011961016a3660046109d4565b6001600160a01b031660009081526020819052604090205490565b6100dc6102de565b61010561019b36600461096e565b6102ed565b6101056101ae36600461096e565b61036d565b6101c66101c13660046109f6565b61037b565b005b6101056101d63660046109f6565b6104e2565b6101196101e9366004610a0f565b610566565b6060600380546101fd90610a42565b80601f016020809104026020016040519081016040528092919081815260200182805461022990610a42565b80156102765780601f1061024b57610100808354040283529160200191610276565b820191906000526020600020905b81548152906001019060200180831161025957829003601f168201915b5050505050905090565b60003361028e818585610591565b5060019392505050565b6000336102a68582856106b5565b6102b185858561072f565b506001949350505050565b60003361028e8185856102cf8383610566565b6102d99190610a93565b610591565b6060600480546101fd90610a42565b600033816102fb8286610566565b9050838110156103605760405162461bcd60e51b815260206004820152602560248201527f45524332303a2064656372656173656420616c6c6f77616e63652062656c6f77604482015264207a65726f60d81b60648201526084015b60405180910390fd5b6102b18286868403610591565b60003361028e81858561072f565b6000610386826104e2565b90508061049a576005546001600160a01b0316331461043957604080518082019091528281524260208201908152600680546001808201835560009290925292517ff652222313e28459528d920b65115c16c04f3efc82aaedc97be59f3f377c0d3f60029094029384015590517ff652222313e28459528d920b65115c16c04f3efc82aaedc97be59f3f377c0d4090920191909155600554610435916001600160a01b0390911690339061072f565b5050565b60405162461bcd60e51b815260206004820152603060248201527f4c61206375656e7461206e6f206465626520736572206c61206d69736d61207160448201526f7565206c612064652064657374696e6f60801b6064820152608401610357565b60405162461bcd60e51b815260206004820152601d60248201527f546f6b656e20617369676e61646f2061206f74726120706572736f6e610000006044820152606401610357565b6000805b60065481101561055d5760006006828154811061050557610505610aab565b9060005260206000209060020201604051806040016040529081600082015481526020016001820154815250509050838160000151141561054a575060019392505050565b508061055581610ac1565b9150506104e6565b50600092915050565b6001600160a01b03918216600090815260016020908152604080832093909416825291909152205490565b6001600160a01b0383166105f35760405162461bcd60e51b8152602060048201526024808201527f45524332303a20617070726f76652066726f6d20746865207a65726f206164646044820152637265737360e01b6064820152608401610357565b6001600160a01b0382166106545760405162461bcd60e51b815260206004820152602260248201527f45524332303a20617070726f766520746f20746865207a65726f206164647265604482015261737360f01b6064820152608401610357565b6001600160a01b0383811660008181526001602090815260408083209487168084529482529182902085905590518481527f8c5be1e5ebec7d5bd14f71427d1e84f3dd0314c0f7b2291e5b200ac8c7c3b925910160405180910390a3505050565b60006106c18484610566565b90506000198114610729578181101561071c5760405162461bcd60e51b815260206004820152601d60248201527f45524332303a20696e73756666696369656e7420616c6c6f77616e63650000006044820152606401610357565b6107298484848403610591565b50505050565b6001600160a01b0383166107935760405162461bcd60e51b815260206004820152602560248201527f45524332303a207472616e736665722066726f6d20746865207a65726f206164604482015264647265737360d81b6064820152608401610357565b6001600160a01b0382166107f55760405162461bcd60e51b815260206004820152602360248201527f45524332303a207472616e7366657220746f20746865207a65726f206164647260448201526265737360e81b6064820152608401610357565b6001600160a01b0383166000908152602081905260409020548181101561086d5760405162461bcd60e51b815260206004820152602660248201527f45524332303a207472616e7366657220616d6f756e7420657863656564732062604482015265616c616e636560d01b6064820152608401610357565b6001600160a01b038085166000908152602081905260408082208585039055918516815290812080548492906108a4908490610a93565b92505081905550826001600160a01b0316846001600160a01b03167fddf252ad1be2c89b69c2b068fc378daa952ba7f163c4a11628f55a4df523b3ef846040516108f091815260200190565b60405180910390a3610729565b600060208083528351808285015260005b8181101561092a5785810183015185820160400152820161090e565b8181111561093c576000604083870101525b50601f01601f1916929092016040019392505050565b80356001600160a01b038116811461096957600080fd5b919050565b6000806040838503121561098157600080fd5b61098a83610952565b946020939093013593505050565b6000806000606084860312156109ad57600080fd5b6109b684610952565b92506109c460208501610952565b9150604084013590509250925092565b6000602082840312156109e657600080fd5b6109ef82610952565b9392505050565b600060208284031215610a0857600080fd5b5035919050565b60008060408385031215610a2257600080fd5b610a2b83610952565b9150610a3960208401610952565b90509250929050565b600181811c90821680610a5657607f821691505b60208210811415610a7757634e487b7160e01b600052602260045260246000fd5b50919050565b634e487b7160e01b600052601160045260246000fd5b60008219821115610aa657610aa6610a7d565b500190565b634e487b7160e01b600052603260045260246000fd5b6000600019821415610ad557610ad5610a7d565b506001019056fea264697066735822122041360d137e66b944e266025089ae3c4642976e461dab1192d7f3d9f4fa47576164736f6c634300080b0033",
  "immutableReferences": {},
  "source": "// SPDX-License-Identifier: MIT\r\npragma solidity ^0.8.11;\r\nimport \"@openzeppelin/contracts/token/ERC20/ERC20.sol\";\r\n\r\ncontract TVAToken is ERC20 {\r\n    struct Botella {\r\n        bytes32 hash_botella;\r\n        uint256 createdAt;\r\n    }\r\n    address _addressOwner;\r\n    Botella[] _botellas_vendidas;\r\n\r\n    constructor() ERC20(\"TVA Token\", \"TVA\") {\r\n        _mint(msg.sender, 100000 * 10**18);\r\n        _addressOwner = msg.sender;\r\n    }\r\n\r\n    function encontrarBotellaVendida(bytes32 _hash) public view returns (bool) {\r\n        for (uint256 i = 0; i < _botellas_vendidas.length; i++) {\r\n            Botella memory _botella = _botellas_vendidas[i];\r\n            if (_botella.hash_botella == _hash) {\r\n                return true;\r\n            }\r\n        }\r\n        return false;\r\n    }\r\n\r\n    function enviarToken(bytes32 _hash) public {\r\n        bool token_asignado = encontrarBotellaVendida(_hash);\r\n        if (token_asignado == false) {\r\n            if (_addressOwner != msg.sender) {\r\n                _botellas_vendidas.push(Botella(_hash, block.timestamp));\r\n                _transfer(_addressOwner, msg.sender, 1);\r\n            } else {\r\n                revert(\"La cuenta no debe ser la misma que la de destino\");\r\n            }\r\n        } else {\r\n            revert(\"Token asignado a otra persona\");\r\n        }\r\n    }\r\n}\r\n\r\n// 0xb0880cf5e4b66a7f58663ee5af881b9522dd3b5c248682b343a3c735173c22ad\r\n",
  "sourcePath": "E:\\UNL\\CICLO X\\vinos-blockchain\\contracts\\token\\TVAToken.sol",
  "compiler": {
    "name": "solc",
    "version": "0.8.11+commit.d7f03943.Emscripten.clang"
  },
  "schemaVersion": "3.4.4",
  "updatedAt": "2022-07-07T01:56:32.706Z",
  "networkType": "ethereum",
  "devdoc": {
    "kind": "dev",
    "methods": {
      "allowance(address,address)": {
        "details": "See {IERC20-allowance}."
      },
      "approve(address,uint256)": {
        "details": "See {IERC20-approve}. NOTE: If `amount` is the maximum `uint256`, the allowance is not updated on `transferFrom`. This is semantically equivalent to an infinite approval. Requirements: - `spender` cannot be the zero address."
      },
      "balanceOf(address)": {
        "details": "See {IERC20-balanceOf}."
      },
      "decimals()": {
        "details": "Returns the number of decimals used to get its user representation. For example, if `decimals` equals `2`, a balance of `505` tokens should be displayed to a user as `5.05` (`505 / 10 ** 2`). Tokens usually opt for a value of 18, imitating the relationship between Ether and Wei. This is the value {ERC20} uses, unless this function is overridden; NOTE: This information is only used for _display_ purposes: it in no way affects any of the arithmetic of the contract, including {IERC20-balanceOf} and {IERC20-transfer}."
      },
      "decreaseAllowance(address,uint256)": {
        "details": "Atomically decreases the allowance granted to `spender` by the caller. This is an alternative to {approve} that can be used as a mitigation for problems described in {IERC20-approve}. Emits an {Approval} event indicating the updated allowance. Requirements: - `spender` cannot be the zero address. - `spender` must have allowance for the caller of at least `subtractedValue`."
      },
      "increaseAllowance(address,uint256)": {
        "details": "Atomically increases the allowance granted to `spender` by the caller. This is an alternative to {approve} that can be used as a mitigation for problems described in {IERC20-approve}. Emits an {Approval} event indicating the updated allowance. Requirements: - `spender` cannot be the zero address."
      },
      "name()": {
        "details": "Returns the name of the token."
      },
      "symbol()": {
        "details": "Returns the symbol of the token, usually a shorter version of the name."
      },
      "totalSupply()": {
        "details": "See {IERC20-totalSupply}."
      },
      "transfer(address,uint256)": {
        "details": "See {IERC20-transfer}. Requirements: - `to` cannot be the zero address. - the caller must have a balance of at least `amount`."
      },
      "transferFrom(address,address,uint256)": {
        "details": "See {IERC20-transferFrom}. Emits an {Approval} event indicating the updated allowance. This is not required by the EIP. See the note at the beginning of {ERC20}. NOTE: Does not update the allowance if the current allowance is the maximum `uint256`. Requirements: - `from` and `to` cannot be the zero address. - `from` must have a balance of at least `amount`. - the caller must have allowance for ``from``'s tokens of at least `amount`."
      }
    },
    "version": 1
  },
  "userdoc": {
    "kind": "user",
    "methods": {},
    "version": 1
  }
}