{
  "contractName": "UsuarioContract",
  "abi": [
    {
      "inputs": [],
      "stateMutability": "nonpayable",
      "type": "constructor"
    },
    {
      "anonymous": false,
      "inputs": [
        {
          "indexed": false,
          "internalType": "uint256",
          "name": "id",
          "type": "uint256"
        }
      ],
      "name": "Id",
      "type": "event"
    },
    {
      "inputs": [],
      "name": "contador",
      "outputs": [
        {
          "internalType": "uint256",
          "name": "",
          "type": "uint256"
        }
      ],
      "stateMutability": "view",
      "type": "function",
      "constant": true
    },
    {
      "inputs": [
        {
          "internalType": "uint256",
          "name": "",
          "type": "uint256"
        }
      ],
      "name": "lista",
      "outputs": [
        {
          "internalType": "uint256",
          "name": "id",
          "type": "uint256"
        },
        {
          "internalType": "address",
          "name": "billetera",
          "type": "address"
        },
        {
          "internalType": "string",
          "name": "nombre",
          "type": "string"
        },
        {
          "internalType": "uint256",
          "name": "rol",
          "type": "uint256"
        },
        {
          "internalType": "uint256",
          "name": "createdAt",
          "type": "uint256"
        }
      ],
      "stateMutability": "view",
      "type": "function",
      "constant": true
    },
    {
      "inputs": [
        {
          "internalType": "address",
          "name": "_billetera",
          "type": "address"
        },
        {
          "internalType": "string",
          "name": "_nombre",
          "type": "string"
        },
        {
          "internalType": "uint256[]",
          "name": "_permisos",
          "type": "uint256[]"
        },
        {
          "internalType": "uint256",
          "name": "_rol",
          "type": "uint256"
        }
      ],
      "name": "crear",
      "outputs": [],
      "stateMutability": "nonpayable",
      "type": "function"
    },
    {
      "inputs": [
        {
          "internalType": "uint256",
          "name": "_id",
          "type": "uint256"
        }
      ],
      "name": "encontrar",
      "outputs": [
        {
          "components": [
            {
              "internalType": "uint256",
              "name": "id",
              "type": "uint256"
            },
            {
              "internalType": "address",
              "name": "billetera",
              "type": "address"
            },
            {
              "internalType": "string",
              "name": "nombre",
              "type": "string"
            },
            {
              "internalType": "uint256[]",
              "name": "permisos",
              "type": "uint256[]"
            },
            {
              "internalType": "uint256",
              "name": "rol",
              "type": "uint256"
            },
            {
              "internalType": "uint256",
              "name": "createdAt",
              "type": "uint256"
            }
          ],
          "internalType": "struct UsuarioContract.Model",
          "name": "",
          "type": "tuple"
        }
      ],
      "stateMutability": "view",
      "type": "function",
      "constant": true
    },
    {
      "inputs": [
        {
          "internalType": "address",
          "name": "_billetera",
          "type": "address"
        }
      ],
      "name": "encontrarBilletera",
      "outputs": [
        {
          "components": [
            {
              "internalType": "uint256",
              "name": "id",
              "type": "uint256"
            },
            {
              "internalType": "address",
              "name": "billetera",
              "type": "address"
            },
            {
              "internalType": "string",
              "name": "nombre",
              "type": "string"
            },
            {
              "internalType": "uint256[]",
              "name": "permisos",
              "type": "uint256[]"
            },
            {
              "internalType": "uint256",
              "name": "rol",
              "type": "uint256"
            },
            {
              "internalType": "uint256",
              "name": "createdAt",
              "type": "uint256"
            }
          ],
          "internalType": "struct UsuarioContract.Model",
          "name": "",
          "type": "tuple"
        }
      ],
      "stateMutability": "view",
      "type": "function",
      "constant": true
    },
    {
      "inputs": [
        {
          "internalType": "uint256",
          "name": "_id",
          "type": "uint256"
        }
      ],
      "name": "eliminar",
      "outputs": [],
      "stateMutability": "nonpayable",
      "type": "function"
    },
    {
      "inputs": [
        {
          "internalType": "uint256",
          "name": "_id",
          "type": "uint256"
        },
        {
          "internalType": "address",
          "name": "_billetera",
          "type": "address"
        },
        {
          "internalType": "string",
          "name": "_nombre",
          "type": "string"
        },
        {
          "internalType": "uint256[]",
          "name": "_permisos",
          "type": "uint256[]"
        },
        {
          "internalType": "uint256",
          "name": "_rol",
          "type": "uint256"
        }
      ],
      "name": "editar",
      "outputs": [],
      "stateMutability": "nonpayable",
      "type": "function"
    }
  ],
  "bytecode": "0x60806040523480156200001157600080fd5b50600180546000818152602081815260409182902092835592820180546001600160a01b031916331790558051808201909152600d8082526c4a696d6d7920566963656e746560981b91909301908152909162000073916002840191620000ea565b506040805160e081018252600181526002602082015260039181018290526004606082015260056080820152600660a0820152600760c08201819052620000be928401919062000179565b506000600482018190554260058301556001805491620000de83620001d3565b9190505550506200023a565b828054620000f890620001fd565b90600052602060002090601f0160209004810192826200011c576000855562000167565b82601f106200013757805160ff191683800117855562000167565b8280016001018555821562000167579182015b82811115620001675782518255916020019190600101906200014a565b5062000175929150620001bc565b5090565b82805482825590600052602060002090810192821562000167579160200282015b8281111562000167578251829060ff169055916020019190600101906200019a565b5b80821115620001755760008155600101620001bd565b6000600019821415620001f657634e487b7160e01b600052601160045260246000fd5b5060010190565b600181811c908216806200021257607f821691505b602082108114156200023457634e487b7160e01b600052602260045260246000fd5b50919050565b610e1f806200024a6000396000f3fe608060405234801561001057600080fd5b506004361061007d5760003560e01c80636197b9701161005b5780636197b970146100db57806385d3a43a146100ee578063e02ef2341461010e578063f3e30ac31461012157600080fd5b80630cc76c141461008257806353d27cc2146100af5780635c7996ce146100c6575b600080fd5b6100956100903660046109cf565b610134565b6040516100a6959493929190610a35565b60405180910390f35b6100b860015481565b6040519081526020016100a6565b6100d96100d4366004610bc6565b6101f5565b005b6100d96100e9366004610c42565b6102fa565b6101016100fc3660046109cf565b610509565b6040516100a69190610cc8565b61010161011c366004610d63565b61064e565b6100d961012f3660046109cf565b6107e1565b60006020819052908152604090208054600182015460028301805492936001600160a01b039092169261016690610d85565b80601f016020809104026020016040519081016040528092919081815260200182805461019290610d85565b80156101df5780601f106101b4576101008083540402835291602001916101df565b820191906000526020600020905b8154815290600101906020018083116101c257829003601f168201915b5050505050908060040154908060050154905085565b6040805160c081018252600180548083526001600160a01b0388811660208086019182528587018a8152606087018a9052608087018990524260a088015260009485528482529690932085518155905193810180546001600160a01b0319169490921693909317905592518051929391926102769260028501920190610866565b50606082015180516102929160038401916020909101906108ea565b506080820151600482015560a0909101516005909101556001546040519081527f1ee8913b1e0c76a71150bbb92d8921b2c975601c8c9991b8ef86a1b3896727749060200160405180910390a1600180549060006102ef83610dc0565b919050555050505050565b600085815260208181526040808320815160c0810183528154815260018201546001600160a01b031693810193909352600281018054919284019161033e90610d85565b80601f016020809104026020016040519081016040528092919081815260200182805461036a90610d85565b80156103b75780601f1061038c576101008083540402835291602001916103b7565b820191906000526020600020905b81548152906001019060200180831161039a57829003601f168201915b505050505081526020016003820180548060200260200160405190810160405280929190818152602001828054801561040f57602002820191906000526020600020905b8154815260200190600101908083116103fb575b505050918352505060048201546020808301919091526005909201546040918201528281018781526001600160a01b03898116858501908152606086018990526080860188905260008c8152808652939093208551815592516001840180546001600160a01b031916919092161790555180519394508493919261049b92600285019290910190610866565b50606082015180516104b79160038401916020909101906108ea565b506080820151600482015560a0909101516005909101556040518681527f1ee8913b1e0c76a71150bbb92d8921b2c975601c8c9991b8ef86a1b3896727749060200160405180910390a1505050505050565b610511610924565b60008281526020818152604091829020825160c0810184528154815260018201546001600160a01b031692810192909252600281018054929391929184019161055990610d85565b80601f016020809104026020016040519081016040528092919081815260200182805461058590610d85565b80156105d25780601f106105a7576101008083540402835291602001916105d2565b820191906000526020600020905b8154815290600101906020018083116105b557829003601f168201915b505050505081526020016003820180548060200260200160405190810160405280929190818152602001828054801561062a57602002820191906000526020600020905b815481526020019060010190808311610616575b50505050508152602001600482015481526020016005820154815250509050919050565b610656610924565b61065e610924565b60005b6001548110156107da5760008181526020818152604091829020825160c0810184528154815260018201546001600160a01b03169281019290925260028101805492939192918401916106b390610d85565b80601f01602080910402602001604051908101604052809291908181526020018280546106df90610d85565b801561072c5780601f106107015761010080835404028352916020019161072c565b820191906000526020600020905b81548152906001019060200180831161070f57829003601f168201915b505050505081526020016003820180548060200260200160405190810160405280929190818152602001828054801561078457602002820191906000526020600020905b815481526020019060010190808311610770575b50505050508152602001600482015481526020016005820154815250509150836001600160a01b031682602001516001600160a01b031614156107c8575092915050565b806107d281610dc0565b915050610661565b5092915050565b60008181526020819052604081208181556001810180546001600160a01b0319169055906108126002830182610963565b6108206003830160006109a0565b506000600482018190556005909101556040518181527f1ee8913b1e0c76a71150bbb92d8921b2c975601c8c9991b8ef86a1b3896727749060200160405180910390a150565b82805461087290610d85565b90600052602060002090601f01602090048101928261089457600085556108da565b82601f106108ad57805160ff19168380011785556108da565b828001600101855582156108da579182015b828111156108da5782518255916020019190600101906108bf565b506108e69291506109ba565b5090565b8280548282559060005260206000209081019282156108da57916020028201828111156108da5782518255916020019190600101906108bf565b6040518060c001604052806000815260200160006001600160a01b03168152602001606081526020016060815260200160008152602001600081525090565b50805461096f90610d85565b6000825580601f1061097f575050565b601f01602090049060005260206000209081019061099d91906109ba565b50565b508054600082559060005260206000209081019061099d91905b5b808211156108e657600081556001016109bb565b6000602082840312156109e157600080fd5b5035919050565b6000815180845260005b81811015610a0e576020818501810151868301820152016109f2565b81811115610a20576000602083870101525b50601f01601f19169290920160200192915050565b8581526001600160a01b038516602082015260a060408201819052600090610a5f908301866109e8565b606083019490945250608001529392505050565b80356001600160a01b0381168114610a8a57600080fd5b919050565b634e487b7160e01b600052604160045260246000fd5b604051601f8201601f1916810167ffffffffffffffff81118282101715610ace57610ace610a8f565b604052919050565b600082601f830112610ae757600080fd5b813567ffffffffffffffff811115610b0157610b01610a8f565b610b14601f8201601f1916602001610aa5565b818152846020838601011115610b2957600080fd5b816020850160208301376000918101602001919091529392505050565b600082601f830112610b5757600080fd5b8135602067ffffffffffffffff821115610b7357610b73610a8f565b8160051b610b82828201610aa5565b9283528481018201928281019087851115610b9c57600080fd5b83870192505b84831015610bbb57823582529183019190830190610ba2565b979650505050505050565b60008060008060808587031215610bdc57600080fd5b610be585610a73565b9350602085013567ffffffffffffffff80821115610c0257600080fd5b610c0e88838901610ad6565b94506040870135915080821115610c2457600080fd5b50610c3187828801610b46565b949793965093946060013593505050565b600080600080600060a08688031215610c5a57600080fd5b85359450610c6a60208701610a73565b9350604086013567ffffffffffffffff80821115610c8757600080fd5b610c9389838a01610ad6565b94506060880135915080821115610ca957600080fd5b50610cb688828901610b46565b95989497509295608001359392505050565b6000602080835283518184015260018060a01b0381850151166040840152604084015160c06060850152610cff60e08501826109e8565b6060860151858203601f19016080870152805180835290840192506000918401905b80831015610d415783518252928401926001929092019190840190610d21565b50608087015160a087015260a087015160c08701528094505050505092915050565b600060208284031215610d7557600080fd5b610d7e82610a73565b9392505050565b600181811c90821680610d9957607f821691505b60208210811415610dba57634e487b7160e01b600052602260045260246000fd5b50919050565b6000600019821415610de257634e487b7160e01b600052601160045260246000fd5b506001019056fea26469706673582212206ffbcca20e3e54f677947b2fd2f031fbe7c201fd4076838a49c24060d22320be64736f6c634300080b0033",
  "immutableReferences": {},
  "source": "// SPDX-License-Identifier: MIT\r\npragma solidity ^0.8.11;\r\n\r\ncontract UsuarioContract {\r\n    struct Model {\r\n        uint256 id;\r\n        address billetera;\r\n        string nombre;\r\n        uint256[] permisos;\r\n        uint256 rol;\r\n        uint256 createdAt;\r\n    }\r\n    event Id(uint256 id);\r\n\r\n    mapping(uint256 => Model) public lista;\r\n    uint256 public contador;\r\n\r\n    constructor() {\r\n        Model storage _item = lista[contador];\r\n        _item.id = contador;\r\n        _item.billetera = msg.sender;\r\n        _item.nombre = \"Jimmy Vicente\";\r\n        _item.permisos = [1, 2, 3, 4, 5, 6, 7];\r\n        _item.rol = 0;\r\n        _item.createdAt = block.timestamp;\r\n        contador++;\r\n    }\r\n\r\n    function crear(\r\n        address _billetera,\r\n        string memory _nombre,\r\n        uint256[] memory _permisos,\r\n        uint256 _rol\r\n    ) public {\r\n        lista[contador] = Model(\r\n            contador,\r\n            _billetera,\r\n            _nombre,\r\n            _permisos,\r\n            _rol,\r\n            block.timestamp\r\n        );\r\n        emit Id(contador);\r\n        contador++;\r\n    }\r\n\r\n    function encontrar(uint256 _id) public view returns (Model memory) {\r\n        return lista[_id];\r\n    }\r\n\r\n    function encontrarBilletera(address _billetera)\r\n        public\r\n        view\r\n        returns (Model memory)\r\n    {\r\n        Model memory _item;\r\n        for (uint256 i = 0; i < contador; i++) {\r\n            _item = lista[i];\r\n            if (_item.billetera == _billetera) {\r\n                return _item;\r\n            }\r\n        }\r\n        return _item;\r\n    }\r\n\r\n    function eliminar(uint256 _id) public {\r\n        delete lista[_id];\r\n        emit Id(_id);\r\n    }\r\n\r\n    function editar(\r\n        uint256 _id,\r\n        address _billetera,\r\n        string memory _nombre,\r\n        uint256[] memory _permisos,\r\n        uint256 _rol\r\n    ) public {\r\n        Model memory _item = lista[_id];\r\n        _item.nombre = _nombre;\r\n        _item.billetera = _billetera;\r\n        _item.permisos = _permisos;\r\n        _item.rol = _rol;\r\n        lista[_id] = _item;\r\n        emit Id(_id);\r\n    }\r\n}\r\n",
  "sourcePath": "E:\\UNL\\CICLO X\\vinos-blockchain\\contracts\\procesos\\UsuarioContract.sol",
  "compiler": {
    "name": "solc",
    "version": "0.8.11+commit.d7f03943.Emscripten.clang"
  },
  "schemaVersion": "3.4.4",
  "updatedAt": "2022-07-07T01:56:43.595Z",
  "networkType": "ethereum",
  "devdoc": {
    "kind": "dev",
    "methods": {},
    "version": 1
  },
  "userdoc": {
    "kind": "user",
    "methods": {},
    "version": 1
  }
}