{
  "contractName": "UsuarioContract",
  "abi": [
    {
      "inputs": [],
      "stateMutability": "nonpayable",
      "type": "constructor"
    },
    {
      "inputs": [
        {
          "internalType": "address",
          "name": "",
          "type": "address"
        }
      ],
      "name": "contador",
      "outputs": [
        {
          "internalType": "uint256",
          "name": "",
          "type": "uint256"
        }
      ],
      "stateMutability": "view",
      "type": "function",
      "constant": true
    },
    {
      "inputs": [
        {
          "internalType": "address",
          "name": "",
          "type": "address"
        },
        {
          "internalType": "uint256",
          "name": "",
          "type": "uint256"
        }
      ],
      "name": "lista",
      "outputs": [
        {
          "internalType": "uint256",
          "name": "id",
          "type": "uint256"
        },
        {
          "internalType": "string",
          "name": "nombre",
          "type": "string"
        },
        {
          "internalType": "string",
          "name": "identificacion",
          "type": "string"
        },
        {
          "internalType": "bytes32",
          "name": "clave",
          "type": "bytes32"
        },
        {
          "internalType": "uint256",
          "name": "createdAt",
          "type": "uint256"
        }
      ],
      "stateMutability": "view",
      "type": "function",
      "constant": true
    },
    {
      "inputs": [
        {
          "internalType": "string",
          "name": "_nombre",
          "type": "string"
        },
        {
          "internalType": "string",
          "name": "_identificacion",
          "type": "string"
        },
        {
          "internalType": "string",
          "name": "_clave",
          "type": "string"
        }
      ],
      "name": "crear",
      "outputs": [],
      "stateMutability": "nonpayable",
      "type": "function"
    },
    {
      "inputs": [
        {
          "internalType": "uint256",
          "name": "_id",
          "type": "uint256"
        },
        {
          "internalType": "string",
          "name": "_nombre",
          "type": "string"
        }
      ],
      "name": "actualizar",
      "outputs": [],
      "stateMutability": "nonpayable",
      "type": "function"
    },
    {
      "inputs": [
        {
          "internalType": "uint256",
          "name": "_id",
          "type": "uint256"
        },
        {
          "internalType": "string",
          "name": "_clave",
          "type": "string"
        }
      ],
      "name": "actualizarClave",
      "outputs": [],
      "stateMutability": "nonpayable",
      "type": "function"
    },
    {
      "inputs": [
        {
          "internalType": "string",
          "name": "_identificacion",
          "type": "string"
        },
        {
          "internalType": "string",
          "name": "_clave",
          "type": "string"
        }
      ],
      "name": "iniciarSesion",
      "outputs": [],
      "stateMutability": "nonpayable",
      "type": "function"
    }
  ],
  "bytecode": "0x60806040523480156200001157600080fd5b506200008e6040518060400160405280600d81526020016c20b236b4b734b9ba3930b237b960991b8152506040518060400160405280600a8152602001690c4c4c0d4c8dce4c0d0d60b21b8152506040518060400160405280600a8152602001690c4c4c0d4c8dce4c0d0d60b21b8152506200009460201b60201c565b6200034e565b336000908152600160209081526040808320549051909291600291620000bd91869101620002af565b60408051601f1981840301815290829052620000d991620002af565b602060405180830381855afa158015620000f7573d6000803e3d6000fd5b5050506040513d601f19601f820116820180604052508101906200011c9190620002cd565b6040805160a08101825284815260208082018981528284018990526060830185905242608084015233600090815280835284812088825283529390932082518155925180519495509193620001789260018501920190620001d6565b506040820151805162000196916002840191602090910190620001d6565b5060608201516003820155608090910151600490910155336000908152600160205260408120805491620001ca83620002e7565b91905055505050505050565b828054620001e49062000311565b90600052602060002090601f01602090048101928262000208576000855562000253565b82601f106200022357805160ff191683800117855562000253565b8280016001018555821562000253579182015b828111156200025357825182559160200191906001019062000236565b506200026192915062000265565b5090565b5b8082111562000261576000815560010162000266565b60005b83811015620002995781810151838201526020016200027f565b83811115620002a9576000848401525b50505050565b60008251620002c38184602087016200027c565b9190910192915050565b600060208284031215620002e057600080fd5b5051919050565b60006000198214156200030a57634e487b7160e01b600052601160045260246000fd5b5060010190565b600181811c908216806200032657607f821691505b602082108114156200034857634e487b7160e01b600052602260045260246000fd5b50919050565b610bf0806200035e6000396000f3fe608060405234801561001057600080fd5b50600436106100625760003560e01c806331caa9e114610067578063535c419614610094578063a58a2286146100a9578063aedb974b146100bc578063c6ce03d6146100ea578063d05c6b71146100fc575b600080fd5b61007a61007536600461086d565b61010f565b60405161008b9594939291906108f3565b60405180910390f35b6100a76100a23660046109d6565b610256565b005b6100a76100b73660046109d6565b610433565b6100dc6100ca366004610a1d565b60016020526000908152604090205481565b60405190815260200161008b565b6100a76100f8366004610a3f565b5050565b6100a761010a366004610a99565b610683565b60006020818152928152604080822090935290815220805460018201805491929161013990610b21565b80601f016020809104026020016040519081016040528092919081815260200182805461016590610b21565b80156101b25780601f10610187576101008083540402835291602001916101b2565b820191906000526020600020905b81548152906001019060200180831161019557829003601f168201915b5050505050908060020180546101c790610b21565b80601f01602080910402602001604051908101604052809291908181526020018280546101f390610b21565b80156102405780601f1061021557610100808354040283529160200191610240565b820191906000526020600020905b81548152906001019060200180831161022357829003601f168201915b5050505050908060030154908060040154905085565b336000908152602081815260408083208584528252808320815160a0810190925280548252600181018054929391929184019161029290610b21565b80601f01602080910402602001604051908101604052809291908181526020018280546102be90610b21565b801561030b5780601f106102e05761010080835404028352916020019161030b565b820191906000526020600020905b8154815290600101906020018083116102ee57829003601f168201915b5050505050815260200160028201805461032490610b21565b80601f016020809104026020016040519081016040528092919081815260200182805461035090610b21565b801561039d5780601f106103725761010080835404028352916020019161039d565b820191906000526020600020905b81548152906001019060200180831161038057829003601f168201915b505050918352505060038201546020808301919091526004909201546040918201528282018581523360009081528084528281208882528452919091208351815590518051939450849391926103fb926001850192909101906107b8565b50604082015180516104179160028401916020909101906107b8565b5060608201516003820155608090910151600490910155505050565b336000908152602081815260408083208584528252808320815160a0810190925280548252600181018054929391929184019161046f90610b21565b80601f016020809104026020016040519081016040528092919081815260200182805461049b90610b21565b80156104e85780601f106104bd576101008083540402835291602001916104e8565b820191906000526020600020905b8154815290600101906020018083116104cb57829003601f168201915b5050505050815260200160028201805461050190610b21565b80601f016020809104026020016040519081016040528092919081815260200182805461052d90610b21565b801561057a5780601f1061054f5761010080835404028352916020019161057a565b820191906000526020600020905b81548152906001019060200180831161055d57829003601f168201915b5050505050815260200160038201548152602001600482015481525050905060006002836040516020016105ae9190610b5c565b60408051601f19818403018152908290526105c891610b5c565b602060405180830381855afa1580156105e5573d6000803e3d6000fd5b5050506040513d601f19601f820116820180604052508101906106089190610b78565b60608301819052336000908152602081815260408083208884528252909120845181558185015180519394508593919261064a926001850192909101906107b8565b50604082015180516106669160028401916020909101906107b8565b506060820151600382015560809091015160049091015550505050565b3360009081526001602090815260408083205490519092916002916106aa91869101610b5c565b60408051601f19818403018152908290526106c491610b5c565b602060405180830381855afa1580156106e1573d6000803e3d6000fd5b5050506040513d601f19601f820116820180604052508101906107049190610b78565b6040805160a0810182528481526020808201898152828401899052606083018590524260808401523360009081528083528481208882528352939093208251815592518051949550919361075e92600185019201906107b8565b506040820151805161077a9160028401916020909101906107b8565b50606082015160038201556080909101516004909101553360009081526001602052604081208054916107ac83610b91565b91905055505050505050565b8280546107c490610b21565b90600052602060002090601f0160209004810192826107e6576000855561082c565b82601f106107ff57805160ff191683800117855561082c565b8280016001018555821561082c579182015b8281111561082c578251825591602001919060010190610811565b5061083892915061083c565b5090565b5b80821115610838576000815560010161083d565b80356001600160a01b038116811461086857600080fd5b919050565b6000806040838503121561088057600080fd5b61088983610851565b946020939093013593505050565b60005b838110156108b257818101518382015260200161089a565b838111156108c1576000848401525b50505050565b600081518084526108df816020860160208601610897565b601f01601f19169290920160200192915050565b85815260a06020820152600061090c60a08301876108c7565b828103604084015261091e81876108c7565b60608401959095525050608001529392505050565b634e487b7160e01b600052604160045260246000fd5b600082601f83011261095a57600080fd5b813567ffffffffffffffff8082111561097557610975610933565b604051601f8301601f19908116603f0116810190828211818310171561099d5761099d610933565b816040528381528660208588010111156109b657600080fd5b836020870160208301376000602085830101528094505050505092915050565b600080604083850312156109e957600080fd5b82359150602083013567ffffffffffffffff811115610a0757600080fd5b610a1385828601610949565b9150509250929050565b600060208284031215610a2f57600080fd5b610a3882610851565b9392505050565b60008060408385031215610a5257600080fd5b823567ffffffffffffffff80821115610a6a57600080fd5b610a7686838701610949565b93506020850135915080821115610a8c57600080fd5b50610a1385828601610949565b600080600060608486031215610aae57600080fd5b833567ffffffffffffffff80821115610ac657600080fd5b610ad287838801610949565b94506020860135915080821115610ae857600080fd5b610af487838801610949565b93506040860135915080821115610b0a57600080fd5b50610b1786828701610949565b9150509250925092565b600181811c90821680610b3557607f821691505b60208210811415610b5657634e487b7160e01b600052602260045260246000fd5b50919050565b60008251610b6e818460208701610897565b9190910192915050565b600060208284031215610b8a57600080fd5b5051919050565b6000600019821415610bb357634e487b7160e01b600052601160045260246000fd5b506001019056fea26469706673582212200dbf89618c5da59bdea08a9540a3c9357ae672ced89532ca66632443510e862e64736f6c634300080b0033",
  "immutableReferences": {},
  "source": "// SPDX-License-Identifier: MIT\r\npragma solidity ^0.8.11;\r\n\r\ncontract UsuarioContract {\r\n    struct Usuario {\r\n        uint256 id;\r\n        string nombre;\r\n        string identificacion;\r\n        bytes32 clave;\r\n        uint256 createdAt;\r\n    }\r\n\r\n    constructor(){\r\n        crear(\"Administrador\", \"1105279044\", \"1105279044\");\r\n    }\r\n\r\n    mapping(address => mapping(uint256 => Usuario)) public lista;\r\n    mapping(address => uint256) public contador;\r\n\r\n    function crear(\r\n        string memory _nombre,\r\n        string memory _identificacion,\r\n        string memory _clave\r\n    ) public {\r\n        uint256 contador_id = contador[msg.sender];\r\n        bytes32 _hash_clave = sha256(abi.encodePacked(_clave));\r\n        lista[msg.sender][contador_id] = Usuario(\r\n            contador_id,\r\n            _nombre,\r\n            _identificacion,\r\n            _hash_clave,\r\n            block.timestamp\r\n        );\r\n        contador[msg.sender]++;\r\n    }\r\n\r\n    function actualizar(uint256 _id, string memory _nombre) public {\r\n        Usuario memory _item = lista[msg.sender][_id];\r\n        _item.nombre = _nombre;\r\n        lista[msg.sender][_id] = _item;\r\n    }\r\n\r\n    function actualizarClave(uint256 _id, string memory _clave) public {\r\n        Usuario memory _item = lista[msg.sender][_id];\r\n        bytes32 _hash_clave = sha256(abi.encodePacked(_clave));\r\n        _item.clave = _hash_clave;\r\n        lista[msg.sender][_id] = _item;\r\n    }\r\n\r\n    function iniciarSesion(string memory _identificacion, string memory _clave)\r\n        public\r\n    {\r\n        // Usuario memory _item = lista[msg.sender][_identificacion];\r\n        // bytes32 _hash_clave = sha256(abi.encodePacked(_clave));\r\n        // if (_item.clave == _hash_clave) {}\r\n    }\r\n}\r\n",
  "sourcePath": "E:\\UNL\\CICLO X\\vinos-blockchain\\contracts\\procesos\\UsuarioContract.sol",
  "compiler": {
    "name": "solc",
    "version": "0.8.11+commit.d7f03943.Emscripten.clang"
  },
  "schemaVersion": "3.4.4",
  "updatedAt": "2022-06-29T23:27:57.965Z",
  "networkType": "ethereum",
  "devdoc": {
    "kind": "dev",
    "methods": {},
    "version": 1
  },
  "userdoc": {
    "kind": "user",
    "methods": {},
    "version": 1
  }
}