{
  "contractName": "MateriasPrimas",
  "abi": [
    {
      "inputs": [],
      "name": "contador_id",
      "outputs": [
        {
          "internalType": "uint256",
          "name": "",
          "type": "uint256"
        }
      ],
      "stateMutability": "view",
      "type": "function"
    },
    {
      "inputs": [
        {
          "internalType": "uint256",
          "name": "",
          "type": "uint256"
        }
      ],
      "name": "materiasPrimas",
      "outputs": [
        {
          "internalType": "uint256",
          "name": "id",
          "type": "uint256"
        },
        {
          "internalType": "string",
          "name": "lugar_procedencia",
          "type": "string"
        },
        {
          "internalType": "string",
          "name": "nombre_propietario",
          "type": "string"
        },
        {
          "internalType": "string",
          "name": "gadros_brix",
          "type": "string"
        },
        {
          "internalType": "string",
          "name": "acidez",
          "type": "string"
        },
        {
          "internalType": "bool",
          "name": "aprobado",
          "type": "bool"
        },
        {
          "internalType": "uint256",
          "name": "createdAt",
          "type": "uint256"
        }
      ],
      "stateMutability": "view",
      "type": "function"
    },
    {
      "inputs": [
        {
          "internalType": "string",
          "name": "_lugar_procedencia",
          "type": "string"
        },
        {
          "internalType": "string",
          "name": "_nombre_propietario",
          "type": "string"
        },
        {
          "internalType": "string",
          "name": "_grados_brix",
          "type": "string"
        },
        {
          "internalType": "string",
          "name": "_acidez",
          "type": "string"
        }
      ],
      "name": "crearMatriaPrima",
      "outputs": [],
      "stateMutability": "nonpayable",
      "type": "function"
    },
    {
      "inputs": [
        {
          "internalType": "uint256",
          "name": "_id",
          "type": "uint256"
        },
        {
          "internalType": "string",
          "name": "_lugar_procedencia",
          "type": "string"
        },
        {
          "internalType": "string",
          "name": "_nombre_propietario",
          "type": "string"
        },
        {
          "internalType": "string",
          "name": "_grados_brix",
          "type": "string"
        },
        {
          "internalType": "string",
          "name": "_acidez",
          "type": "string"
        }
      ],
      "name": "actualizarMatriaPrima",
      "outputs": [],
      "stateMutability": "nonpayable",
      "type": "function"
    },
    {
      "inputs": [
        {
          "internalType": "uint256",
          "name": "_id",
          "type": "uint256"
        }
      ],
      "name": "aprobarProceso",
      "outputs": [],
      "stateMutability": "nonpayable",
      "type": "function"
    }
  ],
  "bytecode": "0x60806040526000805534801561001457600080fd5b50611207806100246000396000f3fe608060405234801561001057600080fd5b50600436106100575760003560e01c8063049bf2531461005c57806309135f4014610078578063491685ed146100965780637a00b8a9146100b2578063f8e56ceb146100ce575b600080fd5b61007660048036038101906100719190610db1565b610104565b005b610080610488565b60405161008d9190610eab565b60405180910390f35b6100b060048036038101906100ab9190610ec6565b61048e565b005b6100cc60048036038101906100c79190610f9d565b6105a2565b005b6100e860048036038101906100e39190610f9d565b61090f565b6040516100fb979695949392919061106d565b60405180910390f35b6000600160008781526020019081526020016000206040518060e00160405290816000820154815260200160018201805461013e90611127565b80601f016020809104026020016040519081016040528092919081815260200182805461016a90611127565b80156101b75780601f1061018c576101008083540402835291602001916101b7565b820191906000526020600020905b81548152906001019060200180831161019a57829003601f168201915b505050505081526020016002820180546101d090611127565b80601f01602080910402602001604051908101604052809291908181526020018280546101fc90611127565b80156102495780601f1061021e57610100808354040283529160200191610249565b820191906000526020600020905b81548152906001019060200180831161022c57829003601f168201915b5050505050815260200160038201805461026290611127565b80601f016020809104026020016040519081016040528092919081815260200182805461028e90611127565b80156102db5780601f106102b0576101008083540402835291602001916102db565b820191906000526020600020905b8154815290600101906020018083116102be57829003601f168201915b505050505081526020016004820180546102f490611127565b80601f016020809104026020016040519081016040528092919081815260200182805461032090611127565b801561036d5780601f106103425761010080835404028352916020019161036d565b820191906000526020600020905b81548152906001019060200180831161035057829003601f168201915b505050505081526020016005820160009054906101000a900460ff16151515158152602001600682015481525050905084816020018190525083816040018190525082816060018190525081816080018190525080600160008881526020019081526020016000206000820151816000015560208201518160010190805190602001906103fb929190610b7e565b506040820151816002019080519060200190610418929190610b7e565b506060820151816003019080519060200190610435929190610b7e565b506080820151816004019080519060200190610452929190610b7e565b5060a08201518160050160006101000a81548160ff02191690831515021790555060c08201518160060155905050505050505050565b60005481565b6040518060e001604052806000548152602001858152602001848152602001838152602001828152602001600015158152602001428152506001600080548152602001908152602001600020600082015181600001556020820151816001019080519060200190610500929190610b7e565b50604082015181600201908051906020019061051d929190610b7e565b50606082015181600301908051906020019061053a929190610b7e565b506080820151816004019080519060200190610557929190610b7e565b5060a08201518160050160006101000a81548160ff02191690831515021790555060c0820151816006015590505060008081548092919061059790611188565b919050555050505050565b6000600160008381526020019081526020016000206040518060e0016040529081600082015481526020016001820180546105dc90611127565b80601f016020809104026020016040519081016040528092919081815260200182805461060890611127565b80156106555780601f1061062a57610100808354040283529160200191610655565b820191906000526020600020905b81548152906001019060200180831161063857829003601f168201915b5050505050815260200160028201805461066e90611127565b80601f016020809104026020016040519081016040528092919081815260200182805461069a90611127565b80156106e75780601f106106bc576101008083540402835291602001916106e7565b820191906000526020600020905b8154815290600101906020018083116106ca57829003601f168201915b5050505050815260200160038201805461070090611127565b80601f016020809104026020016040519081016040528092919081815260200182805461072c90611127565b80156107795780601f1061074e57610100808354040283529160200191610779565b820191906000526020600020905b81548152906001019060200180831161075c57829003601f168201915b5050505050815260200160048201805461079290611127565b80601f01602080910402602001604051908101604052809291908181526020018280546107be90611127565b801561080b5780601f106107e05761010080835404028352916020019161080b565b820191906000526020600020905b8154815290600101906020018083116107ee57829003601f168201915b505050505081526020016005820160009054906101000a900460ff16151515158152602001600682015481525050905060018160a00190151590811515815250508060016000848152602001908152602001600020600082015181600001556020820151816001019080519060200190610886929190610b7e565b5060408201518160020190805190602001906108a3929190610b7e565b5060608201518160030190805190602001906108c0929190610b7e565b5060808201518160040190805190602001906108dd929190610b7e565b5060a08201518160050160006101000a81548160ff02191690831515021790555060c082015181600601559050505050565b600160205280600052604060002060009150905080600001549080600101805461093890611127565b80601f016020809104026020016040519081016040528092919081815260200182805461096490611127565b80156109b15780601f10610986576101008083540402835291602001916109b1565b820191906000526020600020905b81548152906001019060200180831161099457829003601f168201915b5050505050908060020180546109c690611127565b80601f01602080910402602001604051908101604052809291908181526020018280546109f290611127565b8015610a3f5780601f10610a1457610100808354040283529160200191610a3f565b820191906000526020600020905b815481529060010190602001808311610a2257829003601f168201915b505050505090806003018054610a5490611127565b80601f0160208091040260200160405190810160405280929190818152602001828054610a8090611127565b8015610acd5780601f10610aa257610100808354040283529160200191610acd565b820191906000526020600020905b815481529060010190602001808311610ab057829003601f168201915b505050505090806004018054610ae290611127565b80601f0160208091040260200160405190810160405280929190818152602001828054610b0e90611127565b8015610b5b5780601f10610b3057610100808354040283529160200191610b5b565b820191906000526020600020905b815481529060010190602001808311610b3e57829003601f168201915b5050505050908060050160009054906101000a900460ff16908060060154905087565b828054610b8a90611127565b90600052602060002090601f016020900481019282610bac5760008555610bf3565b82601f10610bc557805160ff1916838001178555610bf3565b82800160010185558215610bf3579182015b82811115610bf2578251825591602001919060010190610bd7565b5b509050610c009190610c04565b5090565b5b80821115610c1d576000816000905550600101610c05565b5090565b6000604051905090565b600080fd5b600080fd5b6000819050919050565b610c4881610c35565b8114610c5357600080fd5b50565b600081359050610c6581610c3f565b92915050565b600080fd5b600080fd5b6000601f19601f8301169050919050565b7f4e487b7100000000000000000000000000000000000000000000000000000000600052604160045260246000fd5b610cbe82610c75565b810181811067ffffffffffffffff82111715610cdd57610cdc610c86565b5b80604052505050565b6000610cf0610c21565b9050610cfc8282610cb5565b919050565b600067ffffffffffffffff821115610d1c57610d1b610c86565b5b610d2582610c75565b9050602081019050919050565b82818337600083830152505050565b6000610d54610d4f84610d01565b610ce6565b905082815260208101848484011115610d7057610d6f610c70565b5b610d7b848285610d32565b509392505050565b600082601f830112610d9857610d97610c6b565b5b8135610da8848260208601610d41565b91505092915050565b600080600080600060a08688031215610dcd57610dcc610c2b565b5b6000610ddb88828901610c56565b955050602086013567ffffffffffffffff811115610dfc57610dfb610c30565b5b610e0888828901610d83565b945050604086013567ffffffffffffffff811115610e2957610e28610c30565b5b610e3588828901610d83565b935050606086013567ffffffffffffffff811115610e5657610e55610c30565b5b610e6288828901610d83565b925050608086013567ffffffffffffffff811115610e8357610e82610c30565b5b610e8f88828901610d83565b9150509295509295909350565b610ea581610c35565b82525050565b6000602082019050610ec06000830184610e9c565b92915050565b60008060008060808587031215610ee057610edf610c2b565b5b600085013567ffffffffffffffff811115610efe57610efd610c30565b5b610f0a87828801610d83565b945050602085013567ffffffffffffffff811115610f2b57610f2a610c30565b5b610f3787828801610d83565b935050604085013567ffffffffffffffff811115610f5857610f57610c30565b5b610f6487828801610d83565b925050606085013567ffffffffffffffff811115610f8557610f84610c30565b5b610f9187828801610d83565b91505092959194509250565b600060208284031215610fb357610fb2610c2b565b5b6000610fc184828501610c56565b91505092915050565b600081519050919050565b600082825260208201905092915050565b60005b83811015611004578082015181840152602081019050610fe9565b83811115611013576000848401525b50505050565b600061102482610fca565b61102e8185610fd5565b935061103e818560208601610fe6565b61104781610c75565b840191505092915050565b60008115159050919050565b61106781611052565b82525050565b600060e082019050611082600083018a610e9c565b81810360208301526110948189611019565b905081810360408301526110a88188611019565b905081810360608301526110bc8187611019565b905081810360808301526110d08186611019565b90506110df60a083018561105e565b6110ec60c0830184610e9c565b98975050505050505050565b7f4e487b7100000000000000000000000000000000000000000000000000000000600052602260045260246000fd5b6000600282049050600182168061113f57607f821691505b60208210811415611153576111526110f8565b5b50919050565b7f4e487b7100000000000000000000000000000000000000000000000000000000600052601160045260246000fd5b600061119382610c35565b91507fffffffffffffffffffffffffffffffffffffffffffffffffffffffffffffffff8214156111c6576111c5611159565b5b60018201905091905056fea264697066735822122071a093cc9208119aa6c177b90eaf33ec72733b591c7fd306231521f4cb3824bd64736f6c634300080b0033",
  "immutableReferences": {},
  "source": "// SPDX-License-Identifier: MIT\r\npragma solidity ^0.8.11;\r\n\r\ncontract MateriasPrimas{\r\n\r\n    uint public contador_id = 0;\r\n\r\n    struct MateriaPrima{\r\n        uint256 id; \r\n        string lugar_procedencia;\r\n        string nombre_propietario;\r\n        string gadros_brix;\r\n        string acidez;\r\n        bool aprobado;\r\n        uint256 createdAt;\r\n    }\r\n  mapping (uint256=>MateriaPrima)public materiasPrimas;\r\n\r\n  function crearMatriaPrima(string memory _lugar_procedencia, string memory _nombre_propietario, string memory _grados_brix, string memory _acidez) public{\r\n    materiasPrimas[contador_id] = MateriaPrima(contador_id, _lugar_procedencia,  _nombre_propietario, _grados_brix, _acidez, false, block.timestamp);\r\n    contador_id ++;\r\n  }\r\n\r\n  function actualizarMatriaPrima(uint256 _id,  string memory _lugar_procedencia, string memory _nombre_propietario, string memory _grados_brix, string memory _acidez) public{\r\n    MateriaPrima memory _materiaPrima = materiasPrimas[_id];\r\n    _materiaPrima.lugar_procedencia = _lugar_procedencia;\r\n    _materiaPrima.nombre_propietario = _nombre_propietario;\r\n    _materiaPrima.gadros_brix = _grados_brix;\r\n    _materiaPrima.acidez = _acidez;\r\n    materiasPrimas[_id] = _materiaPrima;\r\n  }\r\n\r\n   function aprobarProceso(uint256 _id) public{\r\n    MateriaPrima memory _materiaPrima = materiasPrimas[_id];\r\n    _materiaPrima.aprobado = true;\r\n    materiasPrimas[_id] = _materiaPrima;\r\n  }\r\n\r\n}\r\n",
  "sourcePath": "E:\\UNL\\CICLO X\\PTT\\vinos-blockchain\\contracts\\MateriasPrimas.sol",
  "compiler": {
    "name": "solc",
    "version": "0.8.11+commit.d7f03943.Emscripten.clang"
  },
  "schemaVersion": "3.4.4",
  "updatedAt": "2022-06-13T16:46:36.057Z",
  "devdoc": {
    "kind": "dev",
    "methods": {},
    "version": 1
  },
  "userdoc": {
    "kind": "user",
    "methods": {},
    "version": 1
  }
}