{
  "contractName": "MateriasPrimas",
  "abi": [
    {
      "inputs": [
        {
          "internalType": "address",
          "name": "",
          "type": "address"
        }
      ],
      "name": "contadorMaterias",
      "outputs": [
        {
          "internalType": "uint256",
          "name": "",
          "type": "uint256"
        }
      ],
      "stateMutability": "view",
      "type": "function",
      "constant": true
    },
    {
      "inputs": [
        {
          "internalType": "address",
          "name": "",
          "type": "address"
        },
        {
          "internalType": "uint256",
          "name": "",
          "type": "uint256"
        }
      ],
      "name": "materiasPrimas",
      "outputs": [
        {
          "internalType": "uint256",
          "name": "id",
          "type": "uint256"
        },
        {
          "internalType": "uint256",
          "name": "nro_cosecha",
          "type": "uint256"
        },
        {
          "internalType": "string",
          "name": "lugar_procedencia",
          "type": "string"
        },
        {
          "internalType": "string",
          "name": "nombre_propietario",
          "type": "string"
        },
        {
          "internalType": "string",
          "name": "gadros_brix",
          "type": "string"
        },
        {
          "internalType": "bool",
          "name": "aprobado",
          "type": "bool"
        },
        {
          "internalType": "uint256",
          "name": "createdAt",
          "type": "uint256"
        }
      ],
      "stateMutability": "view",
      "type": "function",
      "constant": true
    },
    {
      "inputs": [
        {
          "internalType": "uint256",
          "name": "_nro_cosecha",
          "type": "uint256"
        },
        {
          "internalType": "string",
          "name": "_lugar_procedencia",
          "type": "string"
        },
        {
          "internalType": "string",
          "name": "_nombre_propietario",
          "type": "string"
        },
        {
          "internalType": "string",
          "name": "_grados_brix",
          "type": "string"
        }
      ],
      "name": "crearMatriaPrima",
      "outputs": [],
      "stateMutability": "nonpayable",
      "type": "function"
    },
    {
      "inputs": [
        {
          "internalType": "uint256",
          "name": "_id",
          "type": "uint256"
        },
        {
          "internalType": "uint256",
          "name": "_nro_cosecha",
          "type": "uint256"
        },
        {
          "internalType": "string",
          "name": "_lugar_procedencia",
          "type": "string"
        },
        {
          "internalType": "string",
          "name": "_nombre_propietario",
          "type": "string"
        },
        {
          "internalType": "string",
          "name": "_grados_brix",
          "type": "string"
        }
      ],
      "name": "actualizarMatriaPrima",
      "outputs": [],
      "stateMutability": "nonpayable",
      "type": "function"
    },
    {
      "inputs": [
        {
          "internalType": "uint256",
          "name": "_id",
          "type": "uint256"
        }
      ],
      "name": "aprobarProceso",
      "outputs": [],
      "stateMutability": "nonpayable",
      "type": "function"
    }
  ],
  "bytecode": "0x608060405234801561001057600080fd5b50610d7a806100206000396000f3fe608060405234801561001057600080fd5b50600436106100575760003560e01c80632e405a771461005c5780637a00b8a91461007157806389bad27f14610084578063c0b17d62146100b7578063dab0174a146100ca575b600080fd5b61006f61006a366004610a88565b6100f0565b005b61006f61007f366004610b1a565b6101ef565b6100a4610092366004610b4f565b60016020526000908152604090205481565b6040519081526020015b60405180910390f35b61006f6100c5366004610b71565b6104a3565b6100dd6100d8366004610c0d565b61076d565b6040516100ae9796959493929190610c84565b33600081815260016020818152604080842054815160e0810183528181528084018b81528184018b8152606083018b9052608083018a905260a083018890524260c0840152978752868552838720838852855292909520855181559151938201939093559351805192949261016b926002850192019061094c565b506060820151805161018791600384019160209091019061094c565b50608082015180516101a391600484019160209091019061094c565b5060a082015160058201805460ff191691151591909117905560c0909101516006909101553360009081526001602052604081208054916101e383610ce0565b91905055505050505050565b336000908152602081815260408083208484528252808320815160e08101835281548152600182015493810193909352600281018054919284019161023390610d09565b80601f016020809104026020016040519081016040528092919081815260200182805461025f90610d09565b80156102ac5780601f10610281576101008083540402835291602001916102ac565b820191906000526020600020905b81548152906001019060200180831161028f57829003601f168201915b505050505081526020016003820180546102c590610d09565b80601f01602080910402602001604051908101604052809291908181526020018280546102f190610d09565b801561033e5780601f106103135761010080835404028352916020019161033e565b820191906000526020600020905b81548152906001019060200180831161032157829003601f168201915b5050505050815260200160048201805461035790610d09565b80601f016020809104026020016040519081016040528092919081815260200182805461038390610d09565b80156103d05780601f106103a5576101008083540402835291602001916103d0565b820191906000526020600020905b8154815290600101906020018083116103b357829003601f168201915b5050509183525050600582015460ff161515602080830191909152600690920154604091820152600160a084018190523360009081528084528281208782528452829020845181558484015191810191909155908301518051939450849391926104429260028501929091019061094c565b506060820151805161045e91600384019160209091019061094c565b506080820151805161047a91600484019160209091019061094c565b5060a082015160058201805460ff191691151591909117905560c0909101516006909101555050565b336000908152602081815260408083208884528252808320815160e0810183528154815260018201549381019390935260028101805491928401916104e790610d09565b80601f016020809104026020016040519081016040528092919081815260200182805461051390610d09565b80156105605780601f1061053557610100808354040283529160200191610560565b820191906000526020600020905b81548152906001019060200180831161054357829003601f168201915b5050505050815260200160038201805461057990610d09565b80601f01602080910402602001604051908101604052809291908181526020018280546105a590610d09565b80156105f25780601f106105c7576101008083540402835291602001916105f2565b820191906000526020600020905b8154815290600101906020018083116105d557829003601f168201915b5050505050815260200160048201805461060b90610d09565b80601f016020809104026020016040519081016040528092919081815260200182805461063790610d09565b80156106845780601f1061065957610100808354040283529160200191610684565b820191906000526020600020905b81548152906001019060200180831161066757829003601f168201915b5050509183525050600582015460ff161515602082015260069091015460409091015260a0810151909150610765576020808201868152604080840187815260608501879052608085018690523360009081528085528281208b82528552919091208451815591516001830155518051849361070792600285019291019061094c565b506060820151805161072391600384019160209091019061094c565b506080820151805161073f91600484019160209091019061094c565b5060a082015160058201805460ff191691151591909117905560c0909101516006909101555b505050505050565b60006020818152928152604080822090935290815220805460018201546002830180549293919261079d90610d09565b80601f01602080910402602001604051908101604052809291908181526020018280546107c990610d09565b80156108165780601f106107eb57610100808354040283529160200191610816565b820191906000526020600020905b8154815290600101906020018083116107f957829003601f168201915b50505050509080600301805461082b90610d09565b80601f016020809104026020016040519081016040528092919081815260200182805461085790610d09565b80156108a45780601f10610879576101008083540402835291602001916108a4565b820191906000526020600020905b81548152906001019060200180831161088757829003601f168201915b5050505050908060040180546108b990610d09565b80601f01602080910402602001604051908101604052809291908181526020018280546108e590610d09565b80156109325780601f1061090757610100808354040283529160200191610932565b820191906000526020600020905b81548152906001019060200180831161091557829003601f168201915b505050506005830154600690930154919260ff1691905087565b82805461095890610d09565b90600052602060002090601f01602090048101928261097a57600085556109c0565b82601f1061099357805160ff19168380011785556109c0565b828001600101855582156109c0579182015b828111156109c05782518255916020019190600101906109a5565b506109cc9291506109d0565b5090565b5b808211156109cc57600081556001016109d1565b634e487b7160e01b600052604160045260246000fd5b600082601f830112610a0c57600080fd5b813567ffffffffffffffff80821115610a2757610a276109e5565b604051601f8301601f19908116603f01168101908282118183101715610a4f57610a4f6109e5565b81604052838152866020858801011115610a6857600080fd5b836020870160208301376000602085830101528094505050505092915050565b60008060008060808587031215610a9e57600080fd5b84359350602085013567ffffffffffffffff80821115610abd57600080fd5b610ac9888389016109fb565b94506040870135915080821115610adf57600080fd5b610aeb888389016109fb565b93506060870135915080821115610b0157600080fd5b50610b0e878288016109fb565b91505092959194509250565b600060208284031215610b2c57600080fd5b5035919050565b80356001600160a01b0381168114610b4a57600080fd5b919050565b600060208284031215610b6157600080fd5b610b6a82610b33565b9392505050565b600080600080600060a08688031215610b8957600080fd5b8535945060208601359350604086013567ffffffffffffffff80821115610baf57600080fd5b610bbb89838a016109fb565b94506060880135915080821115610bd157600080fd5b610bdd89838a016109fb565b93506080880135915080821115610bf357600080fd5b50610c00888289016109fb565b9150509295509295909350565b60008060408385031215610c2057600080fd5b610c2983610b33565b946020939093013593505050565b6000815180845260005b81811015610c5d57602081850181015186830182015201610c41565b81811115610c6f576000602083870101525b50601f01601f19169290920160200192915050565b87815286602082015260e060408201526000610ca360e0830188610c37565b8281036060840152610cb58188610c37565b90508281036080840152610cc98187610c37565b94151560a0840152505060c0015295945050505050565b6000600019821415610d0257634e487b7160e01b600052601160045260246000fd5b5060010190565b600181811c90821680610d1d57607f821691505b60208210811415610d3e57634e487b7160e01b600052602260045260246000fd5b5091905056fea2646970667358221220f70b8f1b6556687c204d5684e7f2cc540a9e7193bb797a185f6f75e882250aa164736f6c634300080b0033",
  "immutableReferences": {},
  "source": "// SPDX-License-Identifier: MIT\r\npragma solidity ^0.8.11;\r\n\r\ncontract MateriasPrimas {\r\n\r\n    struct MateriaPrima {\r\n        uint id;\r\n        uint nro_cosecha;\r\n        string lugar_procedencia;\r\n        string nombre_propietario;\r\n        string gadros_brix;\r\n        bool aprobado;\r\n        uint createdAt;\r\n    }\r\n\r\n    // struct ExtraccionMosto {\r\n    //     uint id;\r\n    //     string tipo;\r\n    //     bool aprobado;\r\n    //     uint createdAt;\r\n    // }\r\n\r\n    // struct Pasteurizacion {\r\n    //     uint id;\r\n    //     string temperatura_caliente;\r\n    //     string temperatura_fria;\r\n    //     string tiempo_proceso;\r\n    //     bool aprobado;\r\n    //     uint createdAt;\r\n    // }\r\n\r\n    // struct Fermentacion {\r\n    //     uint id;\r\n    //     uint fecha_inicio;\r\n    //     uint fecha_final;\r\n    //     uint grados_invertidos;\r\n    //     bool aprobado;\r\n    //     uint createdAt;\r\n    // }\r\n\r\n    // struct Clarificacion {\r\n    //     uint id;\r\n    //     string turbidez;\r\n    //     bool aprobado;\r\n    //     uint createdAt;\r\n    // }\r\n\r\n    // struct Trasiego {\r\n    //     uint id;\r\n    //     uint liquido_claro;\r\n    //     uint liquido_oscuro;\r\n    //     bool aprobado;\r\n    //     uint createdAt;\r\n    // }\r\n\r\n    // struct Envasado {\r\n    //     uint id;\r\n    //     uint nro_lote;\r\n    //     uint nro_botella;\r\n    //     bool aprobado;\r\n    //     uint createdAt;\r\n    // }\r\n    \r\n    mapping(address => mapping(uint => MateriaPrima)) public materiasPrimas;\r\n    mapping(address => uint) public contadorMaterias;\r\n\r\n\r\n    function crearMatriaPrima(\r\n        uint _nro_cosecha,\r\n        string memory _lugar_procedencia,\r\n        string memory _nombre_propietario,\r\n        string memory _grados_brix\r\n    ) public {\r\n        uint contador_id = contadorMaterias[msg.sender];\r\n\r\n        materiasPrimas[msg.sender][contador_id] = MateriaPrima(\r\n            contador_id,\r\n            _nro_cosecha,\r\n            _lugar_procedencia,\r\n            _nombre_propietario,\r\n            _grados_brix,\r\n            false,\r\n            block.timestamp\r\n        );\r\n       contadorMaterias[msg.sender]++;\r\n    }\r\n\r\n    function actualizarMatriaPrima(\r\n        uint _id,\r\n        uint _nro_cosecha,\r\n        string memory _lugar_procedencia,\r\n        string memory _nombre_propietario,\r\n        string memory _grados_brix\r\n    ) public {\r\n        MateriaPrima memory _materiaPrima = materiasPrimas[msg.sender][_id];\r\n        if (_materiaPrima.aprobado == false) {\r\n            _materiaPrima.nro_cosecha = _nro_cosecha;\r\n            _materiaPrima.lugar_procedencia = _lugar_procedencia;\r\n            _materiaPrima.nombre_propietario = _nombre_propietario;\r\n            _materiaPrima.gadros_brix = _grados_brix;\r\n            materiasPrimas[msg.sender][_id] = _materiaPrima;\r\n        }\r\n    }\r\n\r\n    function aprobarProceso(uint _id) public {\r\n        MateriaPrima memory _materiaPrima = materiasPrimas[msg.sender][_id];\r\n        _materiaPrima.aprobado = true;\r\n        materiasPrimas[msg.sender][_id] = _materiaPrima;\r\n    }\r\n}\r\n",
  "sourcePath": "E:\\UNL\\CICLO X\\PTT\\vinos-blockchain\\contracts\\MateriasPrimas.sol",
  "compiler": {
    "name": "solc",
    "version": "0.8.11+commit.d7f03943.Emscripten.clang"
  },
  "schemaVersion": "3.4.4",
  "updatedAt": "2022-06-14T00:32:59.458Z",
  "networkType": "ethereum",
  "devdoc": {
    "kind": "dev",
    "methods": {},
    "version": 1
  },
  "userdoc": {
    "kind": "user",
    "methods": {},
    "version": 1
  }
}